{
  "_format": "hh-sol-artifact-1",
  "contractName": "TimeLock",
  "sourceName": "contracts/Governance_standard/TimeLock.sol",
  "abi": [
    {
      "inputs": [
        {
          "internalType": "uint256",
          "name": "minDelay",
          "type": "uint256"
        },
        {
          "internalType": "address[]",
          "name": "proposers",
          "type": "address[]"
        },
        {
          "internalType": "address[]",
          "name": "executors",
          "type": "address[]"
        },
        {
          "internalType": "address",
          "name": "admin",
          "type": "address"
        }
      ],
      "stateMutability": "nonpayable",
      "type": "constructor"
    },
    {
      "inputs": [],
      "name": "AccessControlBadConfirmation",
      "type": "error"
    },
    {
      "inputs": [
        {
          "internalType": "address",
          "name": "account",
          "type": "address"
        },
        {
          "internalType": "bytes32",
          "name": "neededRole",
          "type": "bytes32"
        }
      ],
      "name": "AccessControlUnauthorizedAccount",
      "type": "error"
    },
    {
      "inputs": [],
      "name": "FailedInnerCall",
      "type": "error"
    },
    {
      "inputs": [
        {
          "internalType": "uint256",
          "name": "delay",
          "type": "uint256"
        },
        {
          "internalType": "uint256",
          "name": "minDelay",
          "type": "uint256"
        }
      ],
      "name": "TimelockInsufficientDelay",
      "type": "error"
    },
    {
      "inputs": [
        {
          "internalType": "uint256",
          "name": "targets",
          "type": "uint256"
        },
        {
          "internalType": "uint256",
          "name": "payloads",
          "type": "uint256"
        },
        {
          "internalType": "uint256",
          "name": "values",
          "type": "uint256"
        }
      ],
      "name": "TimelockInvalidOperationLength",
      "type": "error"
    },
    {
      "inputs": [
        {
          "internalType": "address",
          "name": "caller",
          "type": "address"
        }
      ],
      "name": "TimelockUnauthorizedCaller",
      "type": "error"
    },
    {
      "inputs": [
        {
          "internalType": "bytes32",
          "name": "predecessorId",
          "type": "bytes32"
        }
      ],
      "name": "TimelockUnexecutedPredecessor",
      "type": "error"
    },
    {
      "inputs": [
        {
          "internalType": "bytes32",
          "name": "operationId",
          "type": "bytes32"
        },
        {
          "internalType": "bytes32",
          "name": "expectedStates",
          "type": "bytes32"
        }
      ],
      "name": "TimelockUnexpectedOperationState",
      "type": "error"
    },
    {
      "anonymous": false,
      "inputs": [
        {
          "indexed": true,
          "internalType": "bytes32",
          "name": "id",
          "type": "bytes32"
        },
        {
          "indexed": true,
          "internalType": "uint256",
          "name": "index",
          "type": "uint256"
        },
        {
          "indexed": false,
          "internalType": "address",
          "name": "target",
          "type": "address"
        },
        {
          "indexed": false,
          "internalType": "uint256",
          "name": "value",
          "type": "uint256"
        },
        {
          "indexed": false,
          "internalType": "bytes",
          "name": "data",
          "type": "bytes"
        }
      ],
      "name": "CallExecuted",
      "type": "event"
    },
    {
      "anonymous": false,
      "inputs": [
        {
          "indexed": true,
          "internalType": "bytes32",
          "name": "id",
          "type": "bytes32"
        },
        {
          "indexed": false,
          "internalType": "bytes32",
          "name": "salt",
          "type": "bytes32"
        }
      ],
      "name": "CallSalt",
      "type": "event"
    },
    {
      "anonymous": false,
      "inputs": [
        {
          "indexed": true,
          "internalType": "bytes32",
          "name": "id",
          "type": "bytes32"
        },
        {
          "indexed": true,
          "internalType": "uint256",
          "name": "index",
          "type": "uint256"
        },
        {
          "indexed": false,
          "internalType": "address",
          "name": "target",
          "type": "address"
        },
        {
          "indexed": false,
          "internalType": "uint256",
          "name": "value",
          "type": "uint256"
        },
        {
          "indexed": false,
          "internalType": "bytes",
          "name": "data",
          "type": "bytes"
        },
        {
          "indexed": false,
          "internalType": "bytes32",
          "name": "predecessor",
          "type": "bytes32"
        },
        {
          "indexed": false,
          "internalType": "uint256",
          "name": "delay",
          "type": "uint256"
        }
      ],
      "name": "CallScheduled",
      "type": "event"
    },
    {
      "anonymous": false,
      "inputs": [
        {
          "indexed": true,
          "internalType": "bytes32",
          "name": "id",
          "type": "bytes32"
        }
      ],
      "name": "Cancelled",
      "type": "event"
    },
    {
      "anonymous": false,
      "inputs": [
        {
          "indexed": false,
          "internalType": "uint256",
          "name": "oldDuration",
          "type": "uint256"
        },
        {
          "indexed": false,
          "internalType": "uint256",
          "name": "newDuration",
          "type": "uint256"
        }
      ],
      "name": "MinDelayChange",
      "type": "event"
    },
    {
      "anonymous": false,
      "inputs": [
        {
          "indexed": true,
          "internalType": "bytes32",
          "name": "role",
          "type": "bytes32"
        },
        {
          "indexed": true,
          "internalType": "bytes32",
          "name": "previousAdminRole",
          "type": "bytes32"
        },
        {
          "indexed": true,
          "internalType": "bytes32",
          "name": "newAdminRole",
          "type": "bytes32"
        }
      ],
      "name": "RoleAdminChanged",
      "type": "event"
    },
    {
      "anonymous": false,
      "inputs": [
        {
          "indexed": true,
          "internalType": "bytes32",
          "name": "role",
          "type": "bytes32"
        },
        {
          "indexed": true,
          "internalType": "address",
          "name": "account",
          "type": "address"
        },
        {
          "indexed": true,
          "internalType": "address",
          "name": "sender",
          "type": "address"
        }
      ],
      "name": "RoleGranted",
      "type": "event"
    },
    {
      "anonymous": false,
      "inputs": [
        {
          "indexed": true,
          "internalType": "bytes32",
          "name": "role",
          "type": "bytes32"
        },
        {
          "indexed": true,
          "internalType": "address",
          "name": "account",
          "type": "address"
        },
        {
          "indexed": true,
          "internalType": "address",
          "name": "sender",
          "type": "address"
        }
      ],
      "name": "RoleRevoked",
      "type": "event"
    },
    {
      "inputs": [],
      "name": "CANCELLER_ROLE",
      "outputs": [
        {
          "internalType": "bytes32",
          "name": "",
          "type": "bytes32"
        }
      ],
      "stateMutability": "view",
      "type": "function"
    },
    {
      "inputs": [],
      "name": "DEFAULT_ADMIN_ROLE",
      "outputs": [
        {
          "internalType": "bytes32",
          "name": "",
          "type": "bytes32"
        }
      ],
      "stateMutability": "view",
      "type": "function"
    },
    {
      "inputs": [],
      "name": "EXECUTOR_ROLE",
      "outputs": [
        {
          "internalType": "bytes32",
          "name": "",
          "type": "bytes32"
        }
      ],
      "stateMutability": "view",
      "type": "function"
    },
    {
      "inputs": [],
      "name": "PROPOSER_ROLE",
      "outputs": [
        {
          "internalType": "bytes32",
          "name": "",
          "type": "bytes32"
        }
      ],
      "stateMutability": "view",
      "type": "function"
    },
    {
      "inputs": [
        {
          "internalType": "bytes32",
          "name": "id",
          "type": "bytes32"
        }
      ],
      "name": "cancel",
      "outputs": [],
      "stateMutability": "nonpayable",
      "type": "function"
    },
    {
      "inputs": [
        {
          "internalType": "address",
          "name": "target",
          "type": "address"
        },
        {
          "internalType": "uint256",
          "name": "value",
          "type": "uint256"
        },
        {
          "internalType": "bytes",
          "name": "payload",
          "type": "bytes"
        },
        {
          "internalType": "bytes32",
          "name": "predecessor",
          "type": "bytes32"
        },
        {
          "internalType": "bytes32",
          "name": "salt",
          "type": "bytes32"
        }
      ],
      "name": "execute",
      "outputs": [],
      "stateMutability": "payable",
      "type": "function"
    },
    {
      "inputs": [
        {
          "internalType": "address[]",
          "name": "targets",
          "type": "address[]"
        },
        {
          "internalType": "uint256[]",
          "name": "values",
          "type": "uint256[]"
        },
        {
          "internalType": "bytes[]",
          "name": "payloads",
          "type": "bytes[]"
        },
        {
          "internalType": "bytes32",
          "name": "predecessor",
          "type": "bytes32"
        },
        {
          "internalType": "bytes32",
          "name": "salt",
          "type": "bytes32"
        }
      ],
      "name": "executeBatch",
      "outputs": [],
      "stateMutability": "payable",
      "type": "function"
    },
    {
      "inputs": [],
      "name": "getMinDelay",
      "outputs": [
        {
          "internalType": "uint256",
          "name": "",
          "type": "uint256"
        }
      ],
      "stateMutability": "view",
      "type": "function"
    },
    {
      "inputs": [
        {
          "internalType": "bytes32",
          "name": "id",
          "type": "bytes32"
        }
      ],
      "name": "getOperationState",
      "outputs": [
        {
          "internalType": "enum TimelockController.OperationState",
          "name": "",
          "type": "uint8"
        }
      ],
      "stateMutability": "view",
      "type": "function"
    },
    {
      "inputs": [
        {
          "internalType": "bytes32",
          "name": "role",
          "type": "bytes32"
        }
      ],
      "name": "getRoleAdmin",
      "outputs": [
        {
          "internalType": "bytes32",
          "name": "",
          "type": "bytes32"
        }
      ],
      "stateMutability": "view",
      "type": "function"
    },
    {
      "inputs": [
        {
          "internalType": "bytes32",
          "name": "id",
          "type": "bytes32"
        }
      ],
      "name": "getTimestamp",
      "outputs": [
        {
          "internalType": "uint256",
          "name": "",
          "type": "uint256"
        }
      ],
      "stateMutability": "view",
      "type": "function"
    },
    {
      "inputs": [
        {
          "internalType": "bytes32",
          "name": "role",
          "type": "bytes32"
        },
        {
          "internalType": "address",
          "name": "account",
          "type": "address"
        }
      ],
      "name": "grantRole",
      "outputs": [],
      "stateMutability": "nonpayable",
      "type": "function"
    },
    {
      "inputs": [
        {
          "internalType": "bytes32",
          "name": "role",
          "type": "bytes32"
        },
        {
          "internalType": "address",
          "name": "account",
          "type": "address"
        }
      ],
      "name": "hasRole",
      "outputs": [
        {
          "internalType": "bool",
          "name": "",
          "type": "bool"
        }
      ],
      "stateMutability": "view",
      "type": "function"
    },
    {
      "inputs": [
        {
          "internalType": "address",
          "name": "target",
          "type": "address"
        },
        {
          "internalType": "uint256",
          "name": "value",
          "type": "uint256"
        },
        {
          "internalType": "bytes",
          "name": "data",
          "type": "bytes"
        },
        {
          "internalType": "bytes32",
          "name": "predecessor",
          "type": "bytes32"
        },
        {
          "internalType": "bytes32",
          "name": "salt",
          "type": "bytes32"
        }
      ],
      "name": "hashOperation",
      "outputs": [
        {
          "internalType": "bytes32",
          "name": "",
          "type": "bytes32"
        }
      ],
      "stateMutability": "pure",
      "type": "function"
    },
    {
      "inputs": [
        {
          "internalType": "address[]",
          "name": "targets",
          "type": "address[]"
        },
        {
          "internalType": "uint256[]",
          "name": "values",
          "type": "uint256[]"
        },
        {
          "internalType": "bytes[]",
          "name": "payloads",
          "type": "bytes[]"
        },
        {
          "internalType": "bytes32",
          "name": "predecessor",
          "type": "bytes32"
        },
        {
          "internalType": "bytes32",
          "name": "salt",
          "type": "bytes32"
        }
      ],
      "name": "hashOperationBatch",
      "outputs": [
        {
          "internalType": "bytes32",
          "name": "",
          "type": "bytes32"
        }
      ],
      "stateMutability": "pure",
      "type": "function"
    },
    {
      "inputs": [
        {
          "internalType": "bytes32",
          "name": "id",
          "type": "bytes32"
        }
      ],
      "name": "isOperation",
      "outputs": [
        {
          "internalType": "bool",
          "name": "",
          "type": "bool"
        }
      ],
      "stateMutability": "view",
      "type": "function"
    },
    {
      "inputs": [
        {
          "internalType": "bytes32",
          "name": "id",
          "type": "bytes32"
        }
      ],
      "name": "isOperationDone",
      "outputs": [
        {
          "internalType": "bool",
          "name": "",
          "type": "bool"
        }
      ],
      "stateMutability": "view",
      "type": "function"
    },
    {
      "inputs": [
        {
          "internalType": "bytes32",
          "name": "id",
          "type": "bytes32"
        }
      ],
      "name": "isOperationPending",
      "outputs": [
        {
          "internalType": "bool",
          "name": "",
          "type": "bool"
        }
      ],
      "stateMutability": "view",
      "type": "function"
    },
    {
      "inputs": [
        {
          "internalType": "bytes32",
          "name": "id",
          "type": "bytes32"
        }
      ],
      "name": "isOperationReady",
      "outputs": [
        {
          "internalType": "bool",
          "name": "",
          "type": "bool"
        }
      ],
      "stateMutability": "view",
      "type": "function"
    },
    {
      "inputs": [
        {
          "internalType": "address",
          "name": "",
          "type": "address"
        },
        {
          "internalType": "address",
          "name": "",
          "type": "address"
        },
        {
          "internalType": "uint256[]",
          "name": "",
          "type": "uint256[]"
        },
        {
          "internalType": "uint256[]",
          "name": "",
          "type": "uint256[]"
        },
        {
          "internalType": "bytes",
          "name": "",
          "type": "bytes"
        }
      ],
      "name": "onERC1155BatchReceived",
      "outputs": [
        {
          "internalType": "bytes4",
          "name": "",
          "type": "bytes4"
        }
      ],
      "stateMutability": "nonpayable",
      "type": "function"
    },
    {
      "inputs": [
        {
          "internalType": "address",
          "name": "",
          "type": "address"
        },
        {
          "internalType": "address",
          "name": "",
          "type": "address"
        },
        {
          "internalType": "uint256",
          "name": "",
          "type": "uint256"
        },
        {
          "internalType": "uint256",
          "name": "",
          "type": "uint256"
        },
        {
          "internalType": "bytes",
          "name": "",
          "type": "bytes"
        }
      ],
      "name": "onERC1155Received",
      "outputs": [
        {
          "internalType": "bytes4",
          "name": "",
          "type": "bytes4"
        }
      ],
      "stateMutability": "nonpayable",
      "type": "function"
    },
    {
      "inputs": [
        {
          "internalType": "address",
          "name": "",
          "type": "address"
        },
        {
          "internalType": "address",
          "name": "",
          "type": "address"
        },
        {
          "internalType": "uint256",
          "name": "",
          "type": "uint256"
        },
        {
          "internalType": "bytes",
          "name": "",
          "type": "bytes"
        }
      ],
      "name": "onERC721Received",
      "outputs": [
        {
          "internalType": "bytes4",
          "name": "",
          "type": "bytes4"
        }
      ],
      "stateMutability": "nonpayable",
      "type": "function"
    },
    {
      "inputs": [
        {
          "internalType": "bytes32",
          "name": "role",
          "type": "bytes32"
        },
        {
          "internalType": "address",
          "name": "callerConfirmation",
          "type": "address"
        }
      ],
      "name": "renounceRole",
      "outputs": [],
      "stateMutability": "nonpayable",
      "type": "function"
    },
    {
      "inputs": [
        {
          "internalType": "bytes32",
          "name": "role",
          "type": "bytes32"
        },
        {
          "internalType": "address",
          "name": "account",
          "type": "address"
        }
      ],
      "name": "revokeRole",
      "outputs": [],
      "stateMutability": "nonpayable",
      "type": "function"
    },
    {
      "inputs": [
        {
          "internalType": "address",
          "name": "target",
          "type": "address"
        },
        {
          "internalType": "uint256",
          "name": "value",
          "type": "uint256"
        },
        {
          "internalType": "bytes",
          "name": "data",
          "type": "bytes"
        },
        {
          "internalType": "bytes32",
          "name": "predecessor",
          "type": "bytes32"
        },
        {
          "internalType": "bytes32",
          "name": "salt",
          "type": "bytes32"
        },
        {
          "internalType": "uint256",
          "name": "delay",
          "type": "uint256"
        }
      ],
      "name": "schedule",
      "outputs": [],
      "stateMutability": "nonpayable",
      "type": "function"
    },
    {
      "inputs": [
        {
          "internalType": "address[]",
          "name": "targets",
          "type": "address[]"
        },
        {
          "internalType": "uint256[]",
          "name": "values",
          "type": "uint256[]"
        },
        {
          "internalType": "bytes[]",
          "name": "payloads",
          "type": "bytes[]"
        },
        {
          "internalType": "bytes32",
          "name": "predecessor",
          "type": "bytes32"
        },
        {
          "internalType": "bytes32",
          "name": "salt",
          "type": "bytes32"
        },
        {
          "internalType": "uint256",
          "name": "delay",
          "type": "uint256"
        }
      ],
      "name": "scheduleBatch",
      "outputs": [],
      "stateMutability": "nonpayable",
      "type": "function"
    },
    {
      "inputs": [
        {
          "internalType": "bytes4",
          "name": "interfaceId",
          "type": "bytes4"
        }
      ],
      "name": "supportsInterface",
      "outputs": [
        {
          "internalType": "bool",
          "name": "",
          "type": "bool"
        }
      ],
      "stateMutability": "view",
      "type": "function"
    },
    {
      "inputs": [
        {
          "internalType": "uint256",
          "name": "newDelay",
          "type": "uint256"
        }
      ],
      "name": "updateDelay",
      "outputs": [],
      "stateMutability": "nonpayable",
      "type": "function"
    },
    {
      "stateMutability": "payable",
      "type": "receive"
    }
  ],
  "bytecode": "0x60806040523480156200001157600080fd5b5060405162001e1338038062001e13833981016040819052620000349162000348565b8383838362000045600030620001b9565b506001600160a01b03811615620000655762000063600082620001b9565b505b60005b83518110156200010f57620000c07fb09aa5aeb3702cfd50b6b62bc4532604938f21248a27a1d5ca736082b6819cc1858381518110620000ac57620000ac620003cf565b6020026020010151620001b960201b60201c565b50620000fb7ffd643c72710c63c0180259aba6b2d05451e3591a24e58b62239378085726f783858381518110620000ac57620000ac620003cf565b506200010781620003e5565b905062000068565b5060005b82518110156200016b57620001577fd8aa0f3194971a2a116679f7c2090f6939c8d4e01a2a8d7e41d55e5351469e63848381518110620000ac57620000ac620003cf565b506200016381620003e5565b905062000113565b5060028490556040805160008152602081018690527f11c24f4ead16507c69ac467fbd5e4eed5fb5c699626d2cc6d66421df253886d5910160405180910390a150505050505050506200040d565b6000828152602081815260408083206001600160a01b038516845290915281205460ff166200025e576000838152602081815260408083206001600160a01b03861684529091529020805460ff19166001179055620002153390565b6001600160a01b0316826001600160a01b0316847f2f8788117e7eff1d82e926ec794901d17c78024a50270940304540a733656f0d60405160405180910390a450600162000262565b5060005b92915050565b634e487b7160e01b600052604160045260246000fd5b80516001600160a01b03811681146200029657600080fd5b919050565b600082601f830112620002ad57600080fd5b815160206001600160401b0380831115620002cc57620002cc62000268565b8260051b604051601f19603f83011681018181108482111715620002f457620002f462000268565b6040529384528581018301938381019250878511156200031357600080fd5b83870191505b848210156200033d576200032d826200027e565b8352918301919083019062000319565b979650505050505050565b600080600080608085870312156200035f57600080fd5b845160208601519094506001600160401b03808211156200037f57600080fd5b6200038d888389016200029b565b94506040870151915080821115620003a457600080fd5b50620003b3878288016200029b565b925050620003c4606086016200027e565b905092959194509250565b634e487b7160e01b600052603260045260246000fd5b6000600182016200040657634e487b7160e01b600052601160045260246000fd5b5060010190565b6119f6806200041d6000396000f3fe60806040526004361061017b5760003560e01c80638065657f116100cc578063bc197c811161007a578063bc197c811461048d578063c4d252f5146104b9578063d45c4435146104d9578063d547741f14610506578063e38335e514610526578063f23a6e6114610539578063f27a0c921461056557600080fd5b80638065657f146103a25780638f2a0bb0146103c25780638f61f4f5146103e257806391d1485414610404578063a217fddf14610424578063b08e51c014610439578063b1c5f4271461046d57600080fd5b80632ab0f529116101295780632ab0f529146102b55780632f2ff15d146102d557806331d50750146102f557806336568abe14610315578063584b153e1461033557806364d62353146103555780637958004c1461037557600080fd5b806301d5062a1461018757806301ffc9a7146101a957806307bd0265146101de578063134008d31461020e57806313bc9f2014610221578063150b7a0214610241578063248a9ca31461028557600080fd5b3661018257005b600080fd5b34801561019357600080fd5b506101a76101a236600461111c565b61057a565b005b3480156101b557600080fd5b506101c96101c4366004611190565b61063e565b60405190151581526020015b60405180910390f35b3480156101ea57600080fd5b506102006000805160206119a183398151915281565b6040519081526020016101d5565b6101a761021c3660046111ba565b61064f565b34801561022d57600080fd5b506101c961023c366004611225565b6106f2565b34801561024d57600080fd5b5061026c61025c3660046112f3565b630a85bd0160e11b949350505050565b6040516001600160e01b031990911681526020016101d5565b34801561029157600080fd5b506102006102a0366004611225565b60009081526020819052604090206001015490565b3480156102c157600080fd5b506101c96102d0366004611225565b610718565b3480156102e157600080fd5b506101a76102f036600461135a565b610721565b34801561030157600080fd5b506101c9610310366004611225565b61074c565b34801561032157600080fd5b506101a761033036600461135a565b610771565b34801561034157600080fd5b506101c9610350366004611225565b6107a9565b34801561036157600080fd5b506101a7610370366004611225565b6107ef565b34801561038157600080fd5b50610395610390366004611225565b610862565b6040516101d5919061139c565b3480156103ae57600080fd5b506102006103bd3660046111ba565b6108ad565b3480156103ce57600080fd5b506101a76103dd366004611408565b6108ec565b3480156103ee57600080fd5b5061020060008051602061198183398151915281565b34801561041057600080fd5b506101c961041f36600461135a565b610a70565b34801561043057600080fd5b50610200600081565b34801561044557600080fd5b506102007ffd643c72710c63c0180259aba6b2d05451e3591a24e58b62239378085726f78381565b34801561047957600080fd5b506102006104883660046114b9565b610a99565b34801561049957600080fd5b5061026c6104a83660046115e0565b63bc197c8160e01b95945050505050565b3480156104c557600080fd5b506101a76104d4366004611225565b610ade565b3480156104e557600080fd5b506102006104f4366004611225565b60009081526001602052604090205490565b34801561051257600080fd5b506101a761052136600461135a565b610b89565b6101a76105343660046114b9565b610bae565b34801561054557600080fd5b5061026c610554366004611689565b63f23a6e6160e01b95945050505050565b34801561057157600080fd5b50600254610200565b60008051602061198183398151915261059281610d29565b60006105a28989898989896108ad565b90506105ae8184610d36565b6000817f4cf4410cc57040e44862ef0f45f3dd5a5e02db8eb8add648d4b0e236f1d07dca8b8b8b8b8b8a6040516105ea96959493929190611716565b60405180910390a3831561063357807f20fda5fd27a1ea7bf5b9567f143ac5470bb059374a27e8f67cb44f946f6d03878560405161062a91815260200190565b60405180910390a25b505050505050505050565b600061064982610dca565b92915050565b6000805160206119a1833981519152610669816000610a70565b610677576106778133610def565b60006106878888888888886108ad565b90506106938185610e2c565b61069f88888888610e7a565b6000817fc2617efa69bab66782fa219543714338489c4e9e178271560a91b82c3f612b588a8a8a8a6040516106d79493929190611753565b60405180910390a36106e881610ef2565b5050505050505050565b600060025b61070083610862565b600381111561071157610711611386565b1492915050565b600060036106f7565b60008281526020819052604090206001015461073c81610d29565b6107468383610f1e565b50505050565b60008061075883610862565b600381111561076957610769611386565b141592915050565b6001600160a01b038116331461079a5760405163334bd91960e11b815260040160405180910390fd5b6107a48282610fb0565b505050565b6000806107b583610862565b905060018160038111156107cb576107cb611386565b14806107e8575060028160038111156107e6576107e6611386565b145b9392505050565b333081146108205760405163e2850c5960e01b81526001600160a01b03821660048201526024015b60405180910390fd5b60025460408051918252602082018490527f11c24f4ead16507c69ac467fbd5e4eed5fb5c699626d2cc6d66421df253886d5910160405180910390a150600255565b600081815260016020526040812054806000036108825750600092915050565b600181036108935750600392915050565b428111156108a45750600192915050565b50600292915050565b60008686868686866040516020016108ca96959493929190611716565b6040516020818303038152906040528051906020012090509695505050505050565b60008051602061198183398151915261090481610d29565b88871415806109135750888514155b15610945576040516001624fcdef60e01b03198152600481018a90526024810186905260448101889052606401610817565b60006109578b8b8b8b8b8b8b8b610a99565b90506109638184610d36565b60005b8a811015610a215780827f4cf4410cc57040e44862ef0f45f3dd5a5e02db8eb8add648d4b0e236f1d07dca8e8e858181106109a3576109a3611785565b90506020020160208101906109b8919061179b565b8d8d868181106109ca576109ca611785565b905060200201358c8c878181106109e3576109e3611785565b90506020028101906109f591906117b6565b8c8b604051610a0996959493929190611716565b60405180910390a3610a1a81611812565b9050610966565b508315610a6357807f20fda5fd27a1ea7bf5b9567f143ac5470bb059374a27e8f67cb44f946f6d038785604051610a5a91815260200190565b60405180910390a25b5050505050505050505050565b6000918252602082815260408084206001600160a01b0393909316845291905290205460ff1690565b60008888888888888888604051602001610aba9897969594939291906118bc565b60405160208183030381529060405280519060200120905098975050505050505050565b7ffd643c72710c63c0180259aba6b2d05451e3591a24e58b62239378085726f783610b0881610d29565b610b11826107a9565b610b4d5781610b20600261101b565b610b2a600161101b565b604051635ead8eb560e01b81526004810193909352176024820152604401610817565b6000828152600160205260408082208290555183917fbaa1eb22f2a492ba1a5fea61b8df4d27c6c8b5f3971e63bb58fa14ff72eedb7091a25050565b600082815260208190526040902060010154610ba481610d29565b6107468383610fb0565b6000805160206119a1833981519152610bc8816000610a70565b610bd657610bd68133610def565b8786141580610be55750878414155b15610c17576040516001624fcdef60e01b03198152600481018990526024810185905260448101879052606401610817565b6000610c298a8a8a8a8a8a8a8a610a99565b9050610c358185610e2c565b60005b89811015610d135760008b8b83818110610c5457610c54611785565b9050602002016020810190610c69919061179b565b905060008a8a84818110610c7f57610c7f611785565b9050602002013590503660008a8a86818110610c9d57610c9d611785565b9050602002810190610caf91906117b6565b91509150610cbf84848484610e7a565b84867fc2617efa69bab66782fa219543714338489c4e9e178271560a91b82c3f612b5886868686604051610cf69493929190611753565b60405180910390a35050505080610d0c90611812565b9050610c38565b50610d1d81610ef2565b50505050505050505050565b610d338133610def565b50565b610d3f8261074c565b15610d715781610d4f600061101b565b604051635ead8eb560e01b815260048101929092526024820152604401610817565b6000610d7c60025490565b905080821015610da957604051635433660960e01b81526004810183905260248101829052604401610817565b610db3824261195d565b600093845260016020526040909320929092555050565b60006001600160e01b03198216630271189760e51b148061064957506106498261103e565b610df98282610a70565b610e285760405163e2517d3f60e01b81526001600160a01b038216600482015260248101839052604401610817565b5050565b610e35826106f2565b610e445781610d4f600261101b565b8015801590610e595750610e5781610718565b155b15610e285760405163121534c360e31b815260048101829052602401610817565b600080856001600160a01b0316858585604051610e98929190611970565b60006040518083038185875af1925050503d8060008114610ed5576040519150601f19603f3d011682016040523d82523d6000602084013e610eda565b606091505b5091509150610ee98282611073565b50505050505050565b610efb816106f2565b610f0a5780610d4f600261101b565b600090815260016020819052604090912055565b6000610f2a8383610a70565b610fa8576000838152602081815260408083206001600160a01b03861684529091529020805460ff19166001179055610f603390565b6001600160a01b0316826001600160a01b0316847f2f8788117e7eff1d82e926ec794901d17c78024a50270940304540a733656f0d60405160405180910390a4506001610649565b506000610649565b6000610fbc8383610a70565b15610fa8576000838152602081815260408083206001600160a01b0386168085529252808320805460ff1916905551339286917ff6391f5c32d9c69d2a47ea670b442974b53935d1edc7fd64eb21e047a839171b9190a4506001610649565b600081600381111561102f5761102f611386565b600160ff919091161b92915050565b60006001600160e01b03198216637965db0b60e01b148061064957506301ffc9a760e01b6001600160e01b0319831614610649565b606082611088576110838261108f565b610649565b5080610649565b80511561109f5780518082602001fd5b604051630a12f52160e11b815260040160405180910390fd5b80356001600160a01b03811681146110cf57600080fd5b919050565b60008083601f8401126110e657600080fd5b5081356001600160401b038111156110fd57600080fd5b60208301915083602082850101111561111557600080fd5b9250929050565b600080600080600080600060c0888a03121561113757600080fd5b611140886110b8565b96506020880135955060408801356001600160401b0381111561116257600080fd5b61116e8a828b016110d4565b989b979a50986060810135976080820135975060a09091013595509350505050565b6000602082840312156111a257600080fd5b81356001600160e01b0319811681146107e857600080fd5b60008060008060008060a087890312156111d357600080fd5b6111dc876110b8565b95506020870135945060408701356001600160401b038111156111fe57600080fd5b61120a89828a016110d4565b979a9699509760608101359660809091013595509350505050565b60006020828403121561123757600080fd5b5035919050565b634e487b7160e01b600052604160045260246000fd5b604051601f8201601f191681016001600160401b038111828210171561127c5761127c61123e565b604052919050565b600082601f83011261129557600080fd5b81356001600160401b038111156112ae576112ae61123e565b6112c1601f8201601f1916602001611254565b8181528460208386010111156112d657600080fd5b816020850160208301376000918101602001919091529392505050565b6000806000806080858703121561130957600080fd5b611312856110b8565b9350611320602086016110b8565b92506040850135915060608501356001600160401b0381111561134257600080fd5b61134e87828801611284565b91505092959194509250565b6000806040838503121561136d57600080fd5b8235915061137d602084016110b8565b90509250929050565b634e487b7160e01b600052602160045260246000fd5b60208101600483106113be57634e487b7160e01b600052602160045260246000fd5b91905290565b60008083601f8401126113d657600080fd5b5081356001600160401b038111156113ed57600080fd5b6020830191508360208260051b850101111561111557600080fd5b600080600080600080600080600060c08a8c03121561142657600080fd5b89356001600160401b038082111561143d57600080fd5b6114498d838e016113c4565b909b50995060208c013591508082111561146257600080fd5b61146e8d838e016113c4565b909950975060408c013591508082111561148757600080fd5b506114948c828d016113c4565b9a9d999c50979a969997986060880135976080810135975060a0013595509350505050565b60008060008060008060008060a0898b0312156114d557600080fd5b88356001600160401b03808211156114ec57600080fd5b6114f88c838d016113c4565b909a50985060208b013591508082111561151157600080fd5b61151d8c838d016113c4565b909850965060408b013591508082111561153657600080fd5b506115438b828c016113c4565b999c989b509699959896976060870135966080013595509350505050565b600082601f83011261157257600080fd5b813560206001600160401b0382111561158d5761158d61123e565b8160051b61159c828201611254565b92835284810182019282810190878511156115b657600080fd5b83870192505b848310156115d5578235825291830191908301906115bc565b979650505050505050565b600080600080600060a086880312156115f857600080fd5b611601866110b8565b945061160f602087016110b8565b935060408601356001600160401b038082111561162b57600080fd5b61163789838a01611561565b9450606088013591508082111561164d57600080fd5b61165989838a01611561565b9350608088013591508082111561166f57600080fd5b5061167c88828901611284565b9150509295509295909350565b600080600080600060a086880312156116a157600080fd5b6116aa866110b8565b94506116b8602087016110b8565b9350604086013592506060860135915060808601356001600160401b038111156116e157600080fd5b61167c88828901611284565b81835281816020850137506000828201602090810191909152601f909101601f19169091010190565b60018060a01b038716815285602082015260a06040820152600061173e60a0830186886116ed565b60608301949094525060800152949350505050565b60018060a01b038516815283602082015260606040820152600061177b6060830184866116ed565b9695505050505050565b634e487b7160e01b600052603260045260246000fd5b6000602082840312156117ad57600080fd5b6107e8826110b8565b6000808335601e198436030181126117cd57600080fd5b8301803591506001600160401b038211156117e757600080fd5b60200191503681900382131561111557600080fd5b634e487b7160e01b600052601160045260246000fd5b600060018201611824576118246117fc565b5060010190565b81835260006020808501808196508560051b810191508460005b878110156118af5782840389528135601e1988360301811261186657600080fd5b870185810190356001600160401b0381111561188157600080fd5b80360382131561189057600080fd5b61189b8682846116ed565b9a87019a9550505090840190600101611845565b5091979650505050505050565b60a0808252810188905260008960c08301825b8b8110156118fd576001600160a01b036118e8846110b8565b168252602092830192909101906001016118cf565b5083810360208501528881526001600160fb1b0389111561191d57600080fd5b8860051b9150818a60208301370182810360209081016040850152611945908201878961182b565b60608401959095525050608001529695505050505050565b80820180821115610649576106496117fc565b818382376000910190815291905056feb09aa5aeb3702cfd50b6b62bc4532604938f21248a27a1d5ca736082b6819cc1d8aa0f3194971a2a116679f7c2090f6939c8d4e01a2a8d7e41d55e5351469e63a2646970667358221220457435db92948beceb10e36565a8c9566d3734c7d8755bf6b157c9a27041c73b64736f6c63430008140033",
  "linkReferences": {},
  "deployedLinkReferences": {}
}