{
  "address": "0xCf7Ed3AccA5a467e9e704C703E8D87F634fB0Fc9",
  "abi": [
    {
      "inputs": [
        {
          "internalType": "address payable",
          "name": "initialOwner",
          "type": "address"
        },
        {
          "internalType": "address",
          "name": "_daoAddress",
          "type": "address"
        },
        {
          "internalType": "address",
          "name": "_escAccount",
          "type": "address"
        }
      ],
      "stateMutability": "nonpayable",
      "type": "constructor"
    },
    {
      "anonymous": false,
      "inputs": [
        {
          "indexed": true,
          "internalType": "uint256",
          "name": "campaignId",
          "type": "uint256"
        }
      ],
      "name": "AllMilestonesReceived",
      "type": "event"
    },
    {
      "anonymous": false,
      "inputs": [
        {
          "indexed": true,
          "internalType": "uint256",
          "name": "campaignId",
          "type": "uint256"
        },
        {
          "indexed": true,
          "internalType": "uint256",
          "name": "milestoneIndex",
          "type": "uint256"
        }
      ],
      "name": "BillingConfirmed",
      "type": "event"
    },
    {
      "anonymous": false,
      "inputs": [
        {
          "indexed": true,
          "internalType": "uint256",
          "name": "campaignId",
          "type": "uint256"
        },
        {
          "indexed": true,
          "internalType": "uint256",
          "name": "milestoneIndex",
          "type": "uint256"
        },
        {
          "indexed": false,
          "internalType": "uint256",
          "name": "workersCost",
          "type": "uint256"
        },
        {
          "indexed": false,
          "internalType": "uint256",
          "name": "materialsCost",
          "type": "uint256"
        },
        {
          "indexed": false,
          "internalType": "uint256",
          "name": "totalCost",
          "type": "uint256"
        }
      ],
      "name": "BillingSubmitted",
      "type": "event"
    },
    {
      "anonymous": false,
      "inputs": [
        {
          "indexed": true,
          "internalType": "uint256",
          "name": "campaignId",
          "type": "uint256"
        }
      ],
      "name": "CampaignCompleted",
      "type": "event"
    },
    {
      "anonymous": false,
      "inputs": [
        {
          "indexed": true,
          "internalType": "uint256",
          "name": "campaignId",
          "type": "uint256"
        },
        {
          "indexed": true,
          "internalType": "address",
          "name": "beneficiary",
          "type": "address"
        },
        {
          "indexed": false,
          "internalType": "uint256",
          "name": "totalAmount",
          "type": "uint256"
        }
      ],
      "name": "CampaignCreated",
      "type": "event"
    },
    {
      "anonymous": false,
      "inputs": [
        {
          "indexed": true,
          "internalType": "uint256",
          "name": "campaignId",
          "type": "uint256"
        },
        {
          "indexed": false,
          "internalType": "enum Escrow.CampaignStatus",
          "name": "status",
          "type": "uint8"
        }
      ],
      "name": "CampaignStatusChanged",
      "type": "event"
    },
    {
      "anonymous": false,
      "inputs": [
        {
          "indexed": true,
          "internalType": "address",
          "name": "contributor",
          "type": "address"
        },
        {
          "indexed": true,
          "internalType": "uint256",
          "name": "campaignId",
          "type": "uint256"
        },
        {
          "indexed": false,
          "internalType": "uint256",
          "name": "targetAmount",
          "type": "uint256"
        }
      ],
      "name": "ContributionReceived",
      "type": "event"
    },
    {
      "anonymous": false,
      "inputs": [
        {
          "indexed": true,
          "internalType": "uint256",
          "name": "campaignId",
          "type": "uint256"
        },
        {
          "indexed": true,
          "internalType": "uint256",
          "name": "milestoneIndex",
          "type": "uint256"
        },
        {
          "indexed": false,
          "internalType": "string",
          "name": "description",
          "type": "string"
        }
      ],
      "name": "MilestoneDescriptionUpdated",
      "type": "event"
    },
    {
      "anonymous": false,
      "inputs": [
        {
          "indexed": true,
          "internalType": "uint256",
          "name": "campaignId",
          "type": "uint256"
        },
        {
          "indexed": false,
          "internalType": "uint256",
          "name": "milestoneIndex",
          "type": "uint256"
        }
      ],
      "name": "MilestoneReached",
      "type": "event"
    },
    {
      "anonymous": false,
      "inputs": [
        {
          "indexed": true,
          "internalType": "uint256",
          "name": "campaignId",
          "type": "uint256"
        },
        {
          "indexed": false,
          "internalType": "uint256",
          "name": "milestoneIndex",
          "type": "uint256"
        },
        {
          "indexed": false,
          "internalType": "enum Escrow.MilestoneStatus",
          "name": "status",
          "type": "uint8"
        }
      ],
      "name": "MilestoneUpdated",
      "type": "event"
    },
    {
      "anonymous": false,
      "inputs": [
        {
          "indexed": true,
          "internalType": "uint256",
          "name": "campaignId",
          "type": "uint256"
        },
        {
          "indexed": false,
          "internalType": "uint256",
          "name": "milestoneIndex",
          "type": "uint256"
        }
      ],
      "name": "MilestoneVerified",
      "type": "event"
    },
    {
      "anonymous": false,
      "inputs": [
        {
          "indexed": true,
          "internalType": "address",
          "name": "previousOwner",
          "type": "address"
        },
        {
          "indexed": true,
          "internalType": "address",
          "name": "newOwner",
          "type": "address"
        }
      ],
      "name": "OwnershipTransferred",
      "type": "event"
    },
    {
      "anonymous": false,
      "inputs": [
        {
          "indexed": false,
          "internalType": "uint256",
          "name": "id",
          "type": "uint256"
        },
        {
          "indexed": false,
          "internalType": "address",
          "name": "contributor",
          "type": "address"
        },
        {
          "indexed": false,
          "internalType": "uint256",
          "name": "refundAmt",
          "type": "uint256"
        }
      ],
      "name": "RefundIssued",
      "type": "event"
    },
    {
      "anonymous": false,
      "inputs": [
        {
          "indexed": true,
          "internalType": "uint256",
          "name": "campaignId",
          "type": "uint256"
        },
        {
          "indexed": true,
          "internalType": "uint256",
          "name": "milestoneIndex",
          "type": "uint256"
        },
        {
          "indexed": false,
          "internalType": "address",
          "name": "serviceProvider",
          "type": "address"
        }
      ],
      "name": "ServiceCompletionSubmitted",
      "type": "event"
    },
    {
      "anonymous": false,
      "inputs": [
        {
          "indexed": true,
          "internalType": "uint256",
          "name": "campaignId",
          "type": "uint256"
        },
        {
          "indexed": true,
          "internalType": "uint256",
          "name": "milestoneIndex",
          "type": "uint256"
        },
        {
          "indexed": false,
          "internalType": "address",
          "name": "serviceProvider",
          "type": "address"
        },
        {
          "indexed": false,
          "internalType": "uint256",
          "name": "amount",
          "type": "uint256"
        },
        {
          "indexed": false,
          "internalType": "uint256",
          "name": "remainingAmount",
          "type": "uint256"
        }
      ],
      "name": "ServiceProviderPaid",
      "type": "event"
    },
    {
      "anonymous": false,
      "inputs": [
        {
          "indexed": true,
          "internalType": "uint256",
          "name": "campaignId",
          "type": "uint256"
        },
        {
          "indexed": true,
          "internalType": "uint256",
          "name": "milestoneIndex",
          "type": "uint256"
        },
        {
          "indexed": false,
          "internalType": "string",
          "name": "serviceDescription",
          "type": "string"
        },
        {
          "indexed": false,
          "internalType": "address",
          "name": "serviceProvider",
          "type": "address"
        }
      ],
      "name": "ServiceRequested",
      "type": "event"
    },
    {
      "anonymous": false,
      "inputs": [
        {
          "indexed": true,
          "internalType": "uint256",
          "name": "campaignId",
          "type": "uint256"
        },
        {
          "indexed": true,
          "internalType": "uint256",
          "name": "milestoneIndex",
          "type": "uint256"
        }
      ],
      "name": "TransactionHistUpdate",
      "type": "event"
    },
    {
      "inputs": [
        {
          "internalType": "uint256",
          "name": "_campaignId",
          "type": "uint256"
        }
      ],
      "name": "TotalContributions",
      "outputs": [
        {
          "components": [
            {
              "internalType": "uint256",
              "name": "totalContributed",
              "type": "uint256"
            },
            {
              "internalType": "bool",
              "name": "isFullyFunded",
              "type": "bool"
            }
          ],
          "internalType": "struct Escrow.MilestoneFunding[]",
          "name": "contributions",
          "type": "tuple[]"
        }
      ],
      "stateMutability": "view",
      "type": "function"
    },
    {
      "inputs": [
        {
          "internalType": "uint256",
          "name": "_campaignId",
          "type": "uint256"
        },
        {
          "internalType": "uint256",
          "name": "_milestoneIndex",
          "type": "uint256"
        },
        {
          "internalType": "uint256",
          "name": "_workers",
          "type": "uint256"
        },
        {
          "internalType": "uint256",
          "name": "_materialCost",
          "type": "uint256"
        },
        {
          "internalType": "uint256",
          "name": "_daysTaken",
          "type": "uint256"
        }
      ],
      "name": "VerifyTransaction",
      "outputs": [],
      "stateMutability": "nonpayable",
      "type": "function"
    },
    {
      "inputs": [
        {
          "internalType": "uint256",
          "name": "_campaignId",
          "type": "uint256"
        }
      ],
      "name": "approveCampaign",
      "outputs": [],
      "stateMutability": "nonpayable",
      "type": "function"
    },
    {
      "inputs": [
        {
          "internalType": "uint256",
          "name": "",
          "type": "uint256"
        },
        {
          "internalType": "address",
          "name": "",
          "type": "address"
        }
      ],
      "name": "campaignContributions",
      "outputs": [
        {
          "internalType": "uint256",
          "name": "",
          "type": "uint256"
        }
      ],
      "stateMutability": "view",
      "type": "function"
    },
    {
      "inputs": [
        {
          "internalType": "uint256",
          "name": "",
          "type": "uint256"
        }
      ],
      "name": "campaigns",
      "outputs": [
        {
          "internalType": "uint256",
          "name": "id",
          "type": "uint256"
        },
        {
          "internalType": "address",
          "name": "beneficiary",
          "type": "address"
        },
        {
          "internalType": "uint256",
          "name": "totalAmount",
          "type": "uint256"
        },
        {
          "internalType": "enum Escrow.CampaignStatus",
          "name": "status",
          "type": "uint8"
        },
        {
          "internalType": "uint256",
          "name": "currentIndex",
          "type": "uint256"
        },
        {
          "internalType": "uint256",
          "name": "totalContributions",
          "type": "uint256"
        }
      ],
      "stateMutability": "view",
      "type": "function"
    },
    {
      "inputs": [
        {
          "internalType": "uint256",
          "name": "campaignId",
          "type": "uint256"
        },
        {
          "internalType": "uint256",
          "name": "milestoneIndex",
          "type": "uint256"
        }
      ],
      "name": "confirmBilling",
      "outputs": [],
      "stateMutability": "nonpayable",
      "type": "function"
    },
    {
      "inputs": [
        {
          "internalType": "uint256",
          "name": "_campaignId",
          "type": "uint256"
        },
        {
          "internalType": "uint256",
          "name": "_amount",
          "type": "uint256"
        }
      ],
      "name": "contributeToCampaign",
      "outputs": [],
      "stateMutability": "payable",
      "type": "function"
    },
    {
      "inputs": [
        {
          "internalType": "address",
          "name": "_beneficiary",
          "type": "address"
        },
        {
          "internalType": "uint256",
          "name": "_totalAmount",
          "type": "uint256"
        },
        {
          "internalType": "uint256",
          "name": "_milestoneCount",
          "type": "uint256"
        }
      ],
      "name": "createCampaign",
      "outputs": [],
      "stateMutability": "nonpayable",
      "type": "function"
    },
    {
      "inputs": [],
      "name": "daoAddress",
      "outputs": [
        {
          "internalType": "address",
          "name": "",
          "type": "address"
        }
      ],
      "stateMutability": "view",
      "type": "function"
    },
    {
      "inputs": [
        {
          "internalType": "uint256",
          "name": "",
          "type": "uint256"
        },
        {
          "internalType": "uint256",
          "name": "",
          "type": "uint256"
        }
      ],
      "name": "donorSpecs",
      "outputs": [
        {
          "internalType": "uint256",
          "name": "targetAmount",
          "type": "uint256"
        }
      ],
      "stateMutability": "view",
      "type": "function"
    },
    {
      "inputs": [],
      "name": "escAccount",
      "outputs": [
        {
          "internalType": "address",
          "name": "",
          "type": "address"
        }
      ],
      "stateMutability": "view",
      "type": "function"
    },
    {
      "inputs": [
        {
          "internalType": "uint256",
          "name": "_campaignId",
          "type": "uint256"
        }
      ],
      "name": "getCampaignStatus",
      "outputs": [
        {
          "internalType": "enum Escrow.CampaignStatus",
          "name": "",
          "type": "uint8"
        }
      ],
      "stateMutability": "view",
      "type": "function"
    },
    {
      "inputs": [],
      "name": "getDaoAddress",
      "outputs": [
        {
          "internalType": "address",
          "name": "",
          "type": "address"
        }
      ],
      "stateMutability": "view",
      "type": "function"
    },
    {
      "inputs": [
        {
          "internalType": "uint256",
          "name": "campaignId",
          "type": "uint256"
        }
      ],
      "name": "getDetails",
      "outputs": [
        {
          "internalType": "int256",
          "name": "",
          "type": "int256"
        }
      ],
      "stateMutability": "view",
      "type": "function"
    },
    {
      "inputs": [
        {
          "internalType": "uint256",
          "name": "_campaignId",
          "type": "uint256"
        }
      ],
      "name": "getMilestoneCount",
      "outputs": [
        {
          "internalType": "uint256",
          "name": "",
          "type": "uint256"
        }
      ],
      "stateMutability": "view",
      "type": "function"
    },
    {
      "inputs": [
        {
          "internalType": "uint256",
          "name": "_campaignId",
          "type": "uint256"
        },
        {
          "internalType": "uint256",
          "name": "_milestoneIndex",
          "type": "uint256"
        }
      ],
      "name": "getMilestoneDetails",
      "outputs": [
        {
          "internalType": "uint256",
          "name": "amount",
          "type": "uint256"
        },
        {
          "internalType": "enum Escrow.MilestoneStatus",
          "name": "status",
          "type": "uint8"
        }
      ],
      "stateMutability": "view",
      "type": "function"
    },
    {
      "inputs": [
        {
          "internalType": "uint256",
          "name": "_campaignId",
          "type": "uint256"
        },
        {
          "internalType": "uint256",
          "name": "_milestoneIndex",
          "type": "uint256"
        }
      ],
      "name": "getTransactionHistory",
      "outputs": [
        {
          "components": [
            {
              "internalType": "uint256",
              "name": "workers",
              "type": "uint256"
            },
            {
              "internalType": "uint256",
              "name": "materialCost",
              "type": "uint256"
            },
            {
              "internalType": "uint256",
              "name": "daysTaken",
              "type": "uint256"
            }
          ],
          "internalType": "struct Escrow.TransactionHistory",
          "name": "",
          "type": "tuple"
        }
      ],
      "stateMutability": "view",
      "type": "function"
    },
    {
      "inputs": [],
      "name": "owner",
      "outputs": [
        {
          "internalType": "address",
          "name": "",
          "type": "address"
        }
      ],
      "stateMutability": "view",
      "type": "function"
    },
    {
      "inputs": [
        {
          "internalType": "uint256",
          "name": "_campaignId",
          "type": "uint256"
        },
        {
          "internalType": "uint256",
          "name": "_milestoneIndex",
          "type": "uint256"
        },
        {
          "internalType": "address payable",
          "name": "_serviceProvider",
          "type": "address"
        }
      ],
      "name": "payServiceProvider",
      "outputs": [],
      "stateMutability": "nonpayable",
      "type": "function"
    },
    {
      "inputs": [
        {
          "internalType": "uint256",
          "name": "_campaignId",
          "type": "uint256"
        }
      ],
      "name": "refundContributors",
      "outputs": [],
      "stateMutability": "nonpayable",
      "type": "function"
    },
    {
      "inputs": [
        {
          "internalType": "uint256",
          "name": "_campaignId",
          "type": "uint256"
        }
      ],
      "name": "rejectCampaign",
      "outputs": [],
      "stateMutability": "nonpayable",
      "type": "function"
    },
    {
      "inputs": [
        {
          "internalType": "uint256",
          "name": "_campaignId",
          "type": "uint256"
        },
        {
          "internalType": "uint256",
          "name": "_milestoneIndex",
          "type": "uint256"
        }
      ],
      "name": "releaseMilestone",
      "outputs": [],
      "stateMutability": "nonpayable",
      "type": "function"
    },
    {
      "inputs": [],
      "name": "renounceOwnership",
      "outputs": [],
      "stateMutability": "nonpayable",
      "type": "function"
    },
    {
      "inputs": [
        {
          "internalType": "uint256",
          "name": "campaignId",
          "type": "uint256"
        },
        {
          "internalType": "uint256",
          "name": "milestoneIndex",
          "type": "uint256"
        },
        {
          "internalType": "string",
          "name": "serviceDescription",
          "type": "string"
        },
        {
          "internalType": "address",
          "name": "serviceProvider",
          "type": "address"
        }
      ],
      "name": "requestService",
      "outputs": [],
      "stateMutability": "nonpayable",
      "type": "function"
    },
    {
      "inputs": [
        {
          "internalType": "string",
          "name": "",
          "type": "string"
        }
      ],
      "name": "serviceProviders",
      "outputs": [
        {
          "internalType": "address",
          "name": "",
          "type": "address"
        }
      ],
      "stateMutability": "view",
      "type": "function"
    },
    {
      "inputs": [
        {
          "internalType": "address",
          "name": "_daoAddress",
          "type": "address"
        }
      ],
      "name": "setDAOAddress",
      "outputs": [],
      "stateMutability": "nonpayable",
      "type": "function"
    },
    {
      "inputs": [
        {
          "internalType": "uint256",
          "name": "_campaignId",
          "type": "uint256"
        },
        {
          "internalType": "uint256",
          "name": "_milestoneIndex",
          "type": "uint256"
        },
        {
          "internalType": "string",
          "name": "_description",
          "type": "string"
        }
      ],
      "name": "setMilestoneDescription",
      "outputs": [],
      "stateMutability": "nonpayable",
      "type": "function"
    },
    {
      "inputs": [
        {
          "internalType": "uint256",
          "name": "_campaignId",
          "type": "uint256"
        },
        {
          "internalType": "uint256",
          "name": "_milestoneIndex",
          "type": "uint256"
        },
        {
          "internalType": "enum Escrow.MilestoneStatus",
          "name": "_status",
          "type": "uint8"
        }
      ],
      "name": "setMilestoneStatus",
      "outputs": [],
      "stateMutability": "nonpayable",
      "type": "function"
    },
    {
      "inputs": [
        {
          "internalType": "uint256",
          "name": "campaignId",
          "type": "uint256"
        },
        {
          "internalType": "uint256",
          "name": "milestoneIndex",
          "type": "uint256"
        },
        {
          "internalType": "uint256",
          "name": "workersCost",
          "type": "uint256"
        },
        {
          "internalType": "uint256",
          "name": "materialsCost",
          "type": "uint256"
        }
      ],
      "name": "submitBilling",
      "outputs": [],
      "stateMutability": "nonpayable",
      "type": "function"
    },
    {
      "inputs": [
        {
          "internalType": "uint256",
          "name": "campaignId",
          "type": "uint256"
        },
        {
          "internalType": "uint256",
          "name": "milestoneIndex",
          "type": "uint256"
        },
        {
          "internalType": "address",
          "name": "serviceProvider",
          "type": "address"
        }
      ],
      "name": "submitServiceCompletion",
      "outputs": [],
      "stateMutability": "nonpayable",
      "type": "function"
    },
    {
      "inputs": [
        {
          "internalType": "address",
          "name": "newOwner",
          "type": "address"
        }
      ],
      "name": "transferOwnership",
      "outputs": [],
      "stateMutability": "nonpayable",
      "type": "function"
    },
    {
      "inputs": [
        {
          "internalType": "uint256",
          "name": "_campaignId",
          "type": "uint256"
        }
      ],
      "name": "viewCampaignDetails",
      "outputs": [
        {
          "internalType": "uint256",
          "name": "id",
          "type": "uint256"
        },
        {
          "internalType": "address",
          "name": "beneficiary",
          "type": "address"
        },
        {
          "internalType": "uint256",
          "name": "totalAmount",
          "type": "uint256"
        },
        {
          "internalType": "enum Escrow.CampaignStatus",
          "name": "status",
          "type": "uint8"
        },
        {
          "internalType": "uint256",
          "name": "milestoneCount",
          "type": "uint256"
        }
      ],
      "stateMutability": "view",
      "type": "function"
    },
    {
      "inputs": [
        {
          "internalType": "uint256",
          "name": "_campaignId",
          "type": "uint256"
        },
        {
          "internalType": "uint256",
          "name": "_milestoneIndex",
          "type": "uint256"
        }
      ],
      "name": "viewMilestoneDetails",
      "outputs": [
        {
          "internalType": "uint256",
          "name": "amount",
          "type": "uint256"
        },
        {
          "internalType": "enum Escrow.MilestoneStatus",
          "name": "status",
          "type": "uint8"
        },
        {
          "internalType": "uint256",
          "name": "workers",
          "type": "uint256"
        },
        {
          "internalType": "uint256",
          "name": "materialCost",
          "type": "uint256"
        },
        {
          "internalType": "uint256",
          "name": "daysTaken",
          "type": "uint256"
        }
      ],
      "stateMutability": "view",
      "type": "function"
    },
    {
      "stateMutability": "payable",
      "type": "receive"
    }
  ],
  "transactionHash": "0xfa7f1593f6968f3f932fcbcbbc5cf74cc93d13e6c836e06331dfc360fc567a67",
  "args": [
    "0xf39Fd6e51aad88F6F4ce6aB8827279cffFb92266",
    "0xf39Fd6e51aad88F6F4ce6aB8827279cffFb92266",
    "0x70997970C51812dc3A010C7d01b50e0d17dc79C8"
  ],
  "numDeployments": 1,
  "solcInputHash": "a253ad50685eba3355811a548cc94149",
  "bytecode": "0x60806040523480156200001157600080fd5b50604051620030f0380380620030f08339810160408190526200003491620002ff565b6200003f33620001bc565b6001600160a01b038316620000ac5760405162461bcd60e51b815260206004820152602860248201527f496e697469616c206f776e65722063616e6e6f7420626520746865207a65726f604482015267206164647265737360c01b60648201526084015b60405180910390fd5b6001600160a01b038116620001165760405162461bcd60e51b815260206004820152602960248201527f457363726f77206163636f756e742063616e6e6f7420626520746865207a65726044820152686f206164647265737360b81b6064820152608401620000a3565b6001600160a01b0382166200017e5760405162461bcd60e51b815260206004820152602760248201527f44414f20616464726573732063616e6e6f7420626520746865207a65726f206160448201526632323932b9b99760c91b6064820152608401620000a3565b62000189836200020c565b600480546001600160a01b039384166001600160a01b031991821617909155600380549290931691161790555062000353565b600080546001600160a01b038381166001600160a01b0319831681178455604051919092169283917f8be0079c531659141344cd1fd0a4f28419497f9722a3daafe3b4186f6b6457e09190a35050565b620002166200028b565b6001600160a01b0381166200027d5760405162461bcd60e51b815260206004820152602660248201527f4f776e61626c653a206e6577206f776e657220697320746865207a65726f206160448201526564647265737360d01b6064820152608401620000a3565b6200028881620001bc565b50565b6000546001600160a01b03163314620002e75760405162461bcd60e51b815260206004820181905260248201527f4f776e61626c653a2063616c6c6572206973206e6f7420746865206f776e65726044820152606401620000a3565b565b6001600160a01b03811681146200028857600080fd5b6000806000606084860312156200031557600080fd5b83516200032281620002e9565b60208501519093506200033581620002e9565b60408501519092506200034881620002e9565b809150509250925092565b612d8d80620003636000396000f3fe6080604052600436106101b25760003560e01c80638da5cb5b116100ed578063c2010e5011610090578063c2010e50146105d5578063c2f9412a14610605578063dbaf091014610625578063e66ae9f514610645578063eb3dac6f14610676578063eb91589314610689578063ee4e1b53146106a9578063f2fde38b146106c9578063f44ceee7146106e957600080fd5b80638da5cb5b14610487578063919fa1fa146104a5578063965afa89146104c5578063a2201605146104e5578063a39c7a9c14610526578063b7d2b3a714610568578063b93a89f714610588578063bf78ca77146105a857600080fd5b8063461b600411610155578063461b6004146103535780634c3710221461037357806362d87863146103a15780636c19e004146103c15780636d170e9914610401578063715018a61461043257806373a7cb1b146104475780637a589d8f1461046757600080fd5b8063034d09da146101be578063141961bc146101e0578063151e783d1461025b57806319b907b11461027b5780631d68702d1461029b5780632131c68c146102cd57806322c59958146102ed57806328928b901461033357600080fd5b366101b957005b600080fd5b3480156101ca57600080fd5b506101de6101d9366004612568565b610709565b005b3480156101ec57600080fd5b506102406101fb366004612568565b600560208190526000918252604090912080546001820154600283015460038401549484015460069094015492946001600160a01b0390921693909260ff9092169186565b604051610252969594939291906125ab565b60405180910390f35b34801561026757600080fd5b506101de6102763660046125e9565b610755565b34801561028757600080fd5b506101de610296366004612639565b6108c3565b3480156102a757600080fd5b506004546001600160a01b03165b6040516001600160a01b039091168152602001610252565b3480156102d957600080fd5b506004546102b5906001600160a01b031681565b3480156102f957600080fd5b50610325610308366004612672565b600860209081526000928352604080842090915290825290205481565b604051908152602001610252565b34801561033f57600080fd5b506003546102b5906001600160a01b031681565b34801561035f57600080fd5b506101de61036e3660046126a2565b610a78565b34801561037f57600080fd5b5061039361038e3660046126d7565b610ee6565b604051610252929190612709565b3480156103ad57600080fd5b506101de6103bc366004612724565b610f38565b3480156103cd57600080fd5b506103f46103dc366004612568565b60009081526005602052604090206003015460ff1690565b6040516102529190612756565b34801561040d57600080fd5b5061042161041c366004612568565b611016565b604051610252959493929190612764565b34801561043e57600080fd5b506101de61108e565b34801561045357600080fd5b506101de61046236600461279e565b6110a2565b34801561047357600080fd5b506101de610482366004612873565b611140565b34801561049357600080fd5b506000546001600160a01b03166102b5565b3480156104b157600080fd5b506101de6104c0366004612639565b6112d2565b3480156104d157600080fd5b506101de6104e03660046128d6565b611453565b3480156104f157600080fd5b506102b56105003660046128f3565b80516020818301810180516007825292820191909301209152546001600160a01b031681565b34801561053257600080fd5b506105466105413660046126d7565b6114e2565b6040805182518152602080840151908201529181015190820152606001610252565b34801561057457600080fd5b506101de6105833660046126d7565b611590565b34801561059457600080fd5b506103256105a3366004612568565b6116c7565b3480156105b457600080fd5b506105c86105c3366004612568565b611793565b6040516102529190612930565b3480156105e157600080fd5b506103256105f0366004612568565b60009081526005602052604090206004015490565b34801561061157600080fd5b506103256106203660046126d7565b6118c2565b34801561063157600080fd5b506101de6106403660046126d7565b6118f1565b34801561065157600080fd5b506106656106603660046126d7565b611d09565b604051610252959493929190612981565b6101de6106843660046126d7565b611df1565b34801561069557600080fd5b506101de6106a43660046129b1565b61203a565b3480156106b557600080fd5b506101de6106c4366004612568565b6120b0565b3480156106d557600080fd5b506101de6106e43660046128d6565b6120f2565b3480156106f557600080fd5b506101de610704366004612568565b61216b565b60008181526005602052604090206003808201805460ff1916600183021790555081600080516020612d3883398151915260036040516107499190612756565b60405180910390a25050565b6000858152600560205260409020600160038083015460ff169081111561077e5761077e612581565b146107a45760405162461bcd60e51b815260040161079b90612a01565b60405180910390fd5b60008160040186815481106107bb576107bb612a33565b60009182526020909120600c9091020190506004600182015460ff1660058111156107e8576107e8612581565b146108495760405162461bcd60e51b815260206004820152602b60248201527f4d696c6573746f6e65206d7573742062652070616964206265666f726520766560448201526a3934b334b1b0ba34b7b71760a91b606482015260840161079b565b60408051606081018252868152602080820187905290820185905260028301879055600383018690556004830185905560018301805460ff19166005179055905187815288917fbcbde959d440ac297afe28570fc77c716fb86a672a8603968abe1eda8b122b46910160405180910390a250505050505050565b60008381526005602052604081206004018054849081106108e6576108e6612a33565b90600052602060002090600c020190508060080160030160019054906101000a900460ff1661097d5760405162461bcd60e51b815260206004820152603e60248201527f42696c6c696e67206d75737420626520636f6e6669726d6564206265666f726560448201527f207375626d697474696e67207365727669636520636f6d706c6574696f6e0000606482015260840161079b565b6004600182015460ff16600581111561099857610998612581565b14610a0b5760405162461bcd60e51b815260206004820152603c60248201527f5365727669636520636f6d706c6574696f6e2063616e206f6e6c79206265207360448201527f75626d697474656420666f722070616964206d696c6573746f6e657300000000606482015260840161079b565b60018101805460ff19166005179055600781018054600160a01b60ff60a01b199091161790556040516001600160a01b0383168152839085907f94bc4fae75ab5c3f954dcc6cd6d5128e7a3c931184611e15336704f3264c993f906020015b60405180910390a350505050565b6001600160a01b038316610ade5760405162461bcd60e51b815260206004820152602760248201527f42656e65666963696172792063616e6e6f7420626520746865207a65726f206160448201526632323932b9b99760c91b606482015260840161079b565b60008211610b3e5760405162461bcd60e51b815260206004820152602760248201527f546f74616c20616d6f756e74206d75737420626520677265617465722074686160448201526637103d32b9379760c91b606482015260840161079b565b60008111610b8e5760405162461bcd60e51b815260206004820181905260248201527f4174206c65617374206f6e65206d696c6573746f6e652072657175697265642e604482015260640161079b565b610b9c600180546001019055565b6000610ba760015490565b6000818152600560209081526040918290208381556001810180546001600160a01b0319166001600160a01b038a16179055600281018790558251808401909352601d83527f546f74616c20416d6f756e74204265666f72652053657474696e673a2000000091830191909152919250610c21908561240f565b6002810184905560408051808201909152601c81527f546f74616c20416d6f756e742041667465722053657474696e673a20000000006020820152610c66908561240f565b60038101805460ff191690556001600582015560005b83811015610ede576040805160608101825260008082526020820181905291810182905290610cab8688612a5f565b9050610ce160405180604001604052806012815260200171026b4b632b9ba37b7329020b6b7bab73a1d160751b8152508261240f565b6040805161010081018252828152600060208083018281528451606080820187528482528184018590528187018590528587019190915285518084018752848152818601528551808401875284815260808087019190915260a080870186905260c0870186905287519081018852858152808501869052968701859052908601849052850183905260e084019490945260048801805460018082018355918452919092208351600c90920201908155925183820180549394939192909160ff191690836005811115610db557610db5612581565b021790555060408281015180516002840155602081015160038401550151600482015560608201516005820190610dec9082612b01565b5060808201516006820190610e019082612b01565b5060a082015160078201805460c08501511515600160a01b026001600160a81b03199091166001600160a01b039384161717905560e0909201518051600883015560208101516009830155604080820151600a8401556060820151600b909301805460809093015115156101000261ff00199415159490941661ffff1990931692909217929092179055519089169086907f63e3678c8493a16f8ba43ae9e547231762ca04526dac2c388bd2c26d8940185190610ec1908b815260200190565b60405180910390a350508080610ed690612bc1565b915050610c7c565b505050505050565b6000828152600560205260408120600481018054839291839186908110610f0f57610f0f612a33565b60009182526020909120600c90910201805460019091015490945060ff16925050509250929050565b6000848152600560205260408120600401805485908110610f5b57610f5b612a33565b600091825260208220600c909102019150610f768385612bda565b6040805160a08101825286815260208082018790528183018490526001606080840182905260006080909401939093526008870189905560098701889055600a8701859055600b8701805461ffff191690911790558251888152908101879052918201839052919250869188917f36fb2eb6ac148f8772e01686301008de788cb29ffaebaf418d496d681aef9d33910160405180910390a3505050505050565b60008181526005602090815260408083203384526007810190925282205482918291829182916110585760405162461bcd60e51b815260040161079b90612bed565b8054600182015460028301546003840154600490940154929a6001600160a01b039092169950975060ff90921695509350915050565b611096612458565b6110a060006124b2565b565b60008381526005602052604081206004018054849081106110c5576110c5612a33565b90600052602060002090600c02019050818160010160006101000a81548160ff021916908360058111156110fb576110fb612581565b0217905550837fbec752a593d8ddbe45792918310a70eaa90968426e352c981df882c16b81124c8484604051611132929190612709565b60405180910390a250505050565b60008481526005602052604090206004015483106111705760405162461bcd60e51b815260040161079b90612c37565b600084815260056020526040812060040180548590811061119357611193612a33565b600091825260208220600c909102019150600182015460ff1660058111156111bd576111bd612581565b14806111e157506003600182015460ff1660058111156111df576111df612581565b145b6112615760405162461bcd60e51b815260206004820152604560248201527f536572766963652063616e206f6e6c792062652072657175657374656420666f60448201527f722070656e64696e67206f722068616c6620636f6d706c657465206d696c6573606482015264746f6e657360d81b608482015260a40161079b565b6006810161126f8482612b01565b506007810180546001600160a01b0319166001600160a01b038416179055604051849086907f34ece42e48b363126bd2d401e41117f41fb9eb97c9c7bc1ed737170430b6f77b906112c39087908790612cae565b60405180910390a35050505050565b6000838152600560205260408120600481018054919291859081106112f9576112f9612a33565b600091825260208220600c909102019150600182015460ff16600581111561132357611323612581565b148061134757506003600182015460ff16600581111561134557611345612581565b145b6113a25760405162461bcd60e51b815260206004820152602660248201527f4d696c6573746f6e65206e6f742070656e64696e67206f722068616c6620636f6044820152656d706c65746560d01b606482015260840161079b565b80546002830180546000906113b8908490612cd8565b909155505080546040516001600160a01b0385169180156108fc02916000818181858888f193505050501580156113f3573d6000803e3d6000fd5b5060018101805460ff1916600417905580546002830154604080516001600160a01b03871681526020810193909352820152849086907f4bb4448e15571340a2645231e382bf98685981a2236755f5be9b5a8e00df1ed0906060016112c3565b61145b612458565b6001600160a01b0381166114c05760405162461bcd60e51b815260206004820152602660248201527f44414f20616464726573732063616e6e6f7420626520746865207a65726f206160448201526564647265737360d01b606482015260840161079b565b600480546001600160a01b0319166001600160a01b0392909216919091179055565b61150660405180606001604052806000815260200160008152602001600081525090565b6000838152600560205260409020600481015483106115375760405162461bcd60e51b815260040161079b90612c37565b80600401838154811061154c5761154c612a33565b90600052602060002090600c020160020160405180606001604052908160008201548152602001600182015481526020016002820154815250509150505b92915050565b6000828152600560205260408120600481018054919291849081106115b7576115b7612a33565b60009182526020909120600c90910201600b81015490915060ff1661161e5760405162461bcd60e51b815260206004820152601f60248201527f42696c6c696e67206d757374206265207375626d697474656420666972737400604482015260640161079b565b600b810154610100900460ff16156116835760405162461bcd60e51b815260206004820152602260248201527f42696c6c696e672068617320616c7265616479206265656e20636f6e6669726d604482015261195960f21b606482015260840161079b565b600b8101805461ff001916610100179055604051839085907f461c8f3ef1d33fc91976b1b921b4bf90b2385b280292a7bf77a68f2ec637993590600090a350505050565b6000818152600560205260408120815b60048201548110156117885760008260040182815481106116fa576116fa612a33565b600091825260209091206001600c90920201015460ff16600581111561172257611722612581565b148061176a5750600382600401828154811061174057611740612a33565b600091825260209091206001600c90920201015460ff16600581111561176857611768612581565b145b15611776579392505050565b8061178081612bc1565b9150506116d7565b506000199392505050565b600081815260056020526040902060048101546060919067ffffffffffffffff8111156117c2576117c26127d0565b60405190808252806020026020018201604052801561180757816020015b60408051808201909152600080825260208201528152602001906001900390816117e05790505b50915060005b60048201548110156118bb57600082600401828154811061183057611830612a33565b90600052602060002090600c0201600001549050600083600401838154811061185b5761185b612a33565b90600052602060002090600c0201600001548210159050604051806040016040528083815260200182151581525085848151811061189b5761189b612a33565b6020026020010181905250505080806118b390612bc1565b91505061180d565b5050919050565b600660205281600052604060002081815481106118de57600080fd5b6000918252602090912001549150829050565b6000828152600560205260409020600160038083015460ff169081111561191a5761191a612581565b146119375760405162461bcd60e51b815260040161079b90612a01565b600081600401838154811061194e5761194e612a33565b60009182526020909120600c9091020190506003600182015460ff16600581111561197b5761197b612581565b148061199f57506005600182015460ff16600581111561199d5761199d612581565b145b611a1c5760405162461bcd60e51b815260206004820152604260248201527f4d696c6573746f6e65206d757374206265206569746865722068616c6620636f60448201527f6d706c657465206f72207665726966696564206265666f72652072656c656173606482015261329760f11b608482015260a40161079b565b60006726db992a3b18000082600001541115611a6e578154606490611a42906014612ceb565b611a4c9190612a5f565b60018084018054929350600392909160ff1990911690835b0217905550611b0a565b6003600183015460ff166005811115611a8957611a89612581565b03611ae6576003600183015460ff166005811115611aa957611aa9612581565b14611ab5578154611acf565b8154606490611ac5906050612ceb565b611acf9190612a5f565b60018381018054929350909160ff19168280611a64565b81546726db992a3b18000010611b0a575080546001808301805460ff191690911790555b60018301546001600160a01b0316611b2182612502565b81471015611b7d5760405162461bcd60e51b815260206004820152602360248201527f496e73756666696369656e742066756e647320696e2074686520636f6e74726160448201526231ba1760e91b606482015260840161079b565b6000816001600160a01b03168360405160006040518083038185875af1925050503d8060008114611bca576040519150601f19603f3d011682016040523d82523d6000602084013e611bcf565b606091505b5050905080611c135760405162461bcd60e51b815260206004820152601060248201526f2a3930b739b332b9103330b4b632b21760811b604482015260640161079b565b867fbec752a593d8ddbe45792918310a70eaa90968426e352c981df882c16b81124c876001604051611c46929190612709565b60405180910390a2600160005b6004870154811015611cbe576001876004018281548110611c7657611c76612a33565b600091825260209091206001600c90920201015460ff166005811115611c9e57611c9e612581565b14611cac5760009150611cbe565b80611cb681612bc1565b915050611c53565b508015611cff5760038601805460ff191660029081179091556040518991600080516020612d3883398151915291611cf69190612756565b60405180910390a25b5050505050505050565b6000828152600560205260408120600481015482918291829182918710611d6d5760405162461bcd60e51b815260206004820152601860248201527724b73b30b634b21036b4b632b9ba37b7329034b73232bc1760411b604482015260640161079b565b336000908152600782016020526040902054611d9b5760405162461bcd60e51b815260040161079b90612bed565b6000816004018881548110611db257611db2612a33565b60009182526020909120600c909102018054600182015460028301546003840154600490940154929d60ff9092169c509a509198509650945050505050565b6000828152600560205260409020600160038083015460ff1690811115611e1a57611e1a612581565b14611e375760405162461bcd60e51b815260040161079b90612a01565b60003411611e975760405162461bcd60e51b815260206004820152602760248201527f436f6e747269627574696f6e206d75737420626520677265617465722074686160448201526637103d32b9379760c91b606482015260840161079b565b8060020154348260060154611eac9190612bda565b1115611f1b5760405162461bcd60e51b815260206004820152603860248201527f43616d706169676e2066756c6c792066756e6465642e204e6f20667572746865604482015277391031b7b73a3934b13aba34b7b7399030b63637bbb2b21760411b606482015260840161079b565b33600090815260078201602052604081208054349290611f3c908490612bda565b9250508190555034816006016000828254611f579190612bda565b909155505060008381526006602090815260408083208151808401835286815281546001810183559185529383902093519301929092559051838152849133917fd2dff949d20e874cc6ba1dcefb840fb8cf6000a4197bfb69accfea5a32443ff5910160405180910390a36004810154600090611fd49034612a5f565b905060005b60048301548110156120335781836004018281548110611ffb57611ffb612a33565b90600052602060002090600c0201600001600082825461201b9190612bda565b9091555081905061202b81612bc1565b915050611fd9565b5050505050565b600083815260056020526040812060040180548490811061205d5761205d612a33565b90600052602060002090600c020190508181600501908161207e9190612b01565b5082847f9983f7a63820ef4786b003ec8300a49ac59ef17884888e43e1b0a0e6e1a9337b84604051610a6a9190612d02565b60008181526005602052604090206003810180546001919060ff19168280021790555081600080516020612d3883398151915260016040516107499190612756565b6120fa612458565b6001600160a01b03811661215f5760405162461bcd60e51b815260206004820152602660248201527f4f776e61626c653a206e6577206f776e657220697320746865207a65726f206160448201526564647265737360d01b606482015260840161079b565b612168816124b2565b50565b600081815260056020526040902060038082015460ff168181111561219257612192612581565b14806121c45750600260038083015460ff16908111156121b4576121b4612581565b1480156121c45750478160020154115b61221c5760405162461bcd60e51b815260206004820152602360248201527f496e76616c69642063616d706169676e2073746174757320666f72207265667560448201526237321760e91b606482015260840161079b565b6000828152600960205260408120905b81548110156123af57600082828154811061224957612249612a33565b60009182526020808320909101548783526008825260408084206001600160a01b0390921680855291909252912054909150801561239a5760006064612290836062612ceb565b61229a9190612a5f565b60008881526008602090815260408083206001600160a01b038816808552925280832083905551929350909183908381818185875af1925050503d8060008114612300576040519150601f19603f3d011682016040523d82523d6000602084013e612305565b606091505b505090508061234e5760405162461bcd60e51b815260206004820152601560248201527419985a5b1959081d1bc81cd95b99081c99599d5b99605a1b604482015260640161079b565b604080518981526001600160a01b03861660208201529081018390527f7a482fdeb6bc9a1376f597068a214a7a39472bb2eff1b8cad21ba04f49ddca1b9060600160405180910390a150505b505080806123a790612bc1565b91505061222c565b50600260038084015460ff16908111156123cb576123cb612581565b1461240a5760038201805460ff191660029081179091556040518491600080516020612d38833981519152916124019190612756565b60405180910390a25b505050565b6124548282604051602401612425929190612d15565b60408051601f198184030181529190526020810180516001600160e01b0316632d839cb360e21b179052612543565b5050565b6000546001600160a01b031633146110a05760405162461bcd60e51b815260206004820181905260248201527f4f776e61626c653a2063616c6c6572206973206e6f7420746865206f776e6572604482015260640161079b565b600080546001600160a01b038381166001600160a01b0319831681178455604051919092169283917f8be0079c531659141344cd1fd0a4f28419497f9722a3daafe3b4186f6b6457e09190a35050565b6121688160405160240161251891815260200190565b60408051601f198184030181529190526020810180516001600160e01b031663f82c50f160e01b1790525b6121688160006a636f6e736f6c652e6c6f679050600080835160208501845afa505050565b60006020828403121561257a57600080fd5b5035919050565b634e487b7160e01b600052602160045260246000fd5b600481106125a7576125a7612581565b9052565b8681526001600160a01b03861660208201526040810185905260c081016125d56060830186612597565b608082019390935260a00152949350505050565b600080600080600060a0868803121561260157600080fd5b505083359560208501359550604085013594606081013594506080013592509050565b6001600160a01b038116811461216857600080fd5b60008060006060848603121561264e57600080fd5b8335925060208401359150604084013561266781612624565b809150509250925092565b6000806040838503121561268557600080fd5b82359150602083013561269781612624565b809150509250929050565b6000806000606084860312156126b757600080fd5b83356126c281612624565b95602085013595506040909401359392505050565b600080604083850312156126ea57600080fd5b50508035926020909101359150565b600681106125a7576125a7612581565b8281526040810161271d60208301846126f9565b9392505050565b6000806000806080858703121561273a57600080fd5b5050823594602084013594506040840135936060013592509050565b6020810161158a8284612597565b8581526001600160a01b03851660208201526040810184905260a0810161278e6060830185612597565b8260808301529695505050505050565b6000806000606084860312156127b357600080fd5b833592506020840135915060408401356006811061266757600080fd5b634e487b7160e01b600052604160045260246000fd5b600082601f8301126127f757600080fd5b813567ffffffffffffffff80821115612812576128126127d0565b604051601f8301601f19908116603f0116810190828211818310171561283a5761283a6127d0565b8160405283815286602085880101111561285357600080fd5b836020870160208301376000602085830101528094505050505092915050565b6000806000806080858703121561288957600080fd5b8435935060208501359250604085013567ffffffffffffffff8111156128ae57600080fd5b6128ba878288016127e6565b92505060608501356128cb81612624565b939692955090935050565b6000602082840312156128e857600080fd5b813561271d81612624565b60006020828403121561290557600080fd5b813567ffffffffffffffff81111561291c57600080fd5b612928848285016127e6565b949350505050565b602080825282518282018190526000919060409081850190868401855b8281101561297457815180518552860151151586850152928401929085019060010161294d565b5091979650505050505050565b85815260a0810161299560208301876126f9565b8460408301528360608301528260808301529695505050505050565b6000806000606084860312156129c657600080fd5b8335925060208401359150604084013567ffffffffffffffff8111156129eb57600080fd5b6129f7868287016127e6565b9150509250925092565b60208082526018908201527721b0b6b830b4b3b71036bab9ba1031329030b1ba34bb329760411b604082015260600190565b634e487b7160e01b600052603260045260246000fd5b634e487b7160e01b600052601160045260246000fd5b600082612a7c57634e487b7160e01b600052601260045260246000fd5b500490565b600181811c90821680612a9557607f821691505b602082108103612ab557634e487b7160e01b600052602260045260246000fd5b50919050565b601f82111561240a57600081815260208120601f850160051c81016020861015612ae25750805b601f850160051c820191505b81811015610ede57828155600101612aee565b815167ffffffffffffffff811115612b1b57612b1b6127d0565b612b2f81612b298454612a81565b84612abb565b602080601f831160018114612b645760008415612b4c5750858301515b600019600386901b1c1916600185901b178555610ede565b600085815260208120601f198616915b82811015612b9357888601518255948401946001909101908401612b74565b5085821015612bb15787850151600019600388901b60f8161c191681555b5050505050600190811b01905550565b600060018201612bd357612bd3612a49565b5060010190565b8082018082111561158a5761158a612a49565b6020808252602a908201527f596f752068617665206e6f7420636f6e747269627574656420746f20746869736040820152691031b0b6b830b4b3b71760b11b606082015260800190565b602080825260179082015276092dcecc2d8d2c840dad2d8cae6e8dedcca40d2dcc8caf604b1b604082015260600190565b6000815180845260005b81811015612c8e57602081850181015186830182015201612c72565b506000602082860101526020601f19601f83011685010191505092915050565b604081526000612cc16040830185612c68565b905060018060a01b03831660208301529392505050565b8181038181111561158a5761158a612a49565b808202811582820484141761158a5761158a612a49565b60208152600061271d6020830184612c68565b604081526000612d286040830185612c68565b9050826020830152939250505056fe7e5e6bfcab605d9254dbb5c3b4c8bd65ee4705bb30b1fc434d9651d24d368f36a26469706673582212207bcf27a9247191820ac8b7d56b5a2213b0314c22e6299f89b8986e600835cd1e64736f6c63430008130033",
  "devdoc": {
    "kind": "dev",
    "methods": {
      "owner()": {
        "details": "Returns the address of the current owner."
      },
      "renounceOwnership()": {
        "details": "Leaves the contract without owner. It will not be possible to call `onlyOwner` functions. Can only be called by the current owner. NOTE: Renouncing ownership will leave the contract without an owner, thereby disabling any functionality that is only available to the owner."
      },
      "transferOwnership(address)": {
        "details": "Transfers ownership of the contract to a new account (`newOwner`). Can only be called by the current owner."
      },
      "viewMilestoneDetails(uint256,uint256)": {
        "params": {
          "_campaignId": "The ID of the campaign.",
          "_milestoneIndex": "The index of the milestone within the campaign."
        }
      }
    },
    "version": 1
  },
  "userdoc": {
    "kind": "user",
    "methods": {
      "VerifyTransaction(uint256,uint256,uint256,uint256,uint256)": {
        "notice": "Allows beneficiaries to input detailed transaction history for each milestone "
      },
      "viewCampaignDetails(uint256)": {
        "notice": "Allow donor to view details of campaign they have contributed to "
      },
      "viewMilestoneDetails(uint256,uint256)": {
        "notice": "Allows a donor to view the details and transaction history of a specific milestone within a campaign."
      }
    },
    "version": 1
  },
  "storageLayout": {
    "storage": [
      {
        "astId": 396,
        "contract": "contracts/Escrow.sol:Escrow",
        "label": "_owner",
        "offset": 0,
        "slot": "0",
        "type": "t_address"
      },
      {
        "astId": 10804,
        "contract": "contracts/Escrow.sol:Escrow",
        "label": "_campaignIdCounter",
        "offset": 0,
        "slot": "1",
        "type": "t_struct(Counter)6706_storage"
      },
      {
        "astId": 10811,
        "contract": "contracts/Escrow.sol:Escrow",
        "label": "_itemIdCounter",
        "offset": 0,
        "slot": "2",
        "type": "t_struct(Counter)6706_storage"
      },
      {
        "astId": 10893,
        "contract": "contracts/Escrow.sol:Escrow",
        "label": "escAccount",
        "offset": 0,
        "slot": "3",
        "type": "t_address"
      },
      {
        "astId": 10895,
        "contract": "contracts/Escrow.sol:Escrow",
        "label": "daoAddress",
        "offset": 0,
        "slot": "4",
        "type": "t_address"
      },
      {
        "astId": 10900,
        "contract": "contracts/Escrow.sol:Escrow",
        "label": "campaigns",
        "offset": 0,
        "slot": "5",
        "type": "t_mapping(t_uint256,t_struct(Campaign)10880_storage)"
      },
      {
        "astId": 10906,
        "contract": "contracts/Escrow.sol:Escrow",
        "label": "donorSpecs",
        "offset": 0,
        "slot": "6",
        "type": "t_mapping(t_uint256,t_array(t_struct(DonorSpecification)10833_storage)dyn_storage)"
      },
      {
        "astId": 10910,
        "contract": "contracts/Escrow.sol:Escrow",
        "label": "serviceProviders",
        "offset": 0,
        "slot": "7",
        "type": "t_mapping(t_string_memory_ptr,t_address)"
      },
      {
        "astId": 10916,
        "contract": "contracts/Escrow.sol:Escrow",
        "label": "campaignContributions",
        "offset": 0,
        "slot": "8",
        "type": "t_mapping(t_uint256,t_mapping(t_address,t_uint256))"
      },
      {
        "astId": 10921,
        "contract": "contracts/Escrow.sol:Escrow",
        "label": "campaignContributors",
        "offset": 0,
        "slot": "9",
        "type": "t_mapping(t_uint256,t_array(t_address)dyn_storage)"
      }
    ],
    "types": {
      "t_address": {
        "encoding": "inplace",
        "label": "address",
        "numberOfBytes": "20"
      },
      "t_array(t_address)dyn_storage": {
        "base": "t_address",
        "encoding": "dynamic_array",
        "label": "address[]",
        "numberOfBytes": "32"
      },
      "t_array(t_struct(DonorSpecification)10833_storage)dyn_storage": {
        "base": "t_struct(DonorSpecification)10833_storage",
        "encoding": "dynamic_array",
        "label": "struct Escrow.DonorSpecification[]",
        "numberOfBytes": "32"
      },
      "t_array(t_struct(Milestone)10858_storage)dyn_storage": {
        "base": "t_struct(Milestone)10858_storage",
        "encoding": "dynamic_array",
        "label": "struct Escrow.Milestone[]",
        "numberOfBytes": "32"
      },
      "t_bool": {
        "encoding": "inplace",
        "label": "bool",
        "numberOfBytes": "1"
      },
      "t_enum(CampaignStatus)10816": {
        "encoding": "inplace",
        "label": "enum Escrow.CampaignStatus",
        "numberOfBytes": "1"
      },
      "t_enum(MilestoneStatus)10823": {
        "encoding": "inplace",
        "label": "enum Escrow.MilestoneStatus",
        "numberOfBytes": "1"
      },
      "t_mapping(t_address,t_uint256)": {
        "encoding": "mapping",
        "key": "t_address",
        "label": "mapping(address => uint256)",
        "numberOfBytes": "32",
        "value": "t_uint256"
      },
      "t_mapping(t_string_memory_ptr,t_address)": {
        "encoding": "mapping",
        "key": "t_string_memory_ptr",
        "label": "mapping(string => address)",
        "numberOfBytes": "32",
        "value": "t_address"
      },
      "t_mapping(t_uint256,t_array(t_address)dyn_storage)": {
        "encoding": "mapping",
        "key": "t_uint256",
        "label": "mapping(uint256 => address[])",
        "numberOfBytes": "32",
        "value": "t_array(t_address)dyn_storage"
      },
      "t_mapping(t_uint256,t_array(t_struct(DonorSpecification)10833_storage)dyn_storage)": {
        "encoding": "mapping",
        "key": "t_uint256",
        "label": "mapping(uint256 => struct Escrow.DonorSpecification[])",
        "numberOfBytes": "32",
        "value": "t_array(t_struct(DonorSpecification)10833_storage)dyn_storage"
      },
      "t_mapping(t_uint256,t_mapping(t_address,t_uint256))": {
        "encoding": "mapping",
        "key": "t_uint256",
        "label": "mapping(uint256 => mapping(address => uint256))",
        "numberOfBytes": "32",
        "value": "t_mapping(t_address,t_uint256)"
      },
      "t_mapping(t_uint256,t_struct(Campaign)10880_storage)": {
        "encoding": "mapping",
        "key": "t_uint256",
        "label": "mapping(uint256 => struct Escrow.Campaign)",
        "numberOfBytes": "32",
        "value": "t_struct(Campaign)10880_storage"
      },
      "t_string_memory_ptr": {
        "encoding": "bytes",
        "label": "string",
        "numberOfBytes": "32"
      },
      "t_string_storage": {
        "encoding": "bytes",
        "label": "string",
        "numberOfBytes": "32"
      },
      "t_struct(Billing)10891_storage": {
        "encoding": "inplace",
        "label": "struct Escrow.Billing",
        "members": [
          {
            "astId": 10882,
            "contract": "contracts/Escrow.sol:Escrow",
            "label": "workersCost",
            "offset": 0,
            "slot": "0",
            "type": "t_uint256"
          },
          {
            "astId": 10884,
            "contract": "contracts/Escrow.sol:Escrow",
            "label": "materialsCost",
            "offset": 0,
            "slot": "1",
            "type": "t_uint256"
          },
          {
            "astId": 10886,
            "contract": "contracts/Escrow.sol:Escrow",
            "label": "totalCost",
            "offset": 0,
            "slot": "2",
            "type": "t_uint256"
          },
          {
            "astId": 10888,
            "contract": "contracts/Escrow.sol:Escrow",
            "label": "isSubmitted",
            "offset": 0,
            "slot": "3",
            "type": "t_bool"
          },
          {
            "astId": 10890,
            "contract": "contracts/Escrow.sol:Escrow",
            "label": "isConfirmed",
            "offset": 1,
            "slot": "3",
            "type": "t_bool"
          }
        ],
        "numberOfBytes": "128"
      },
      "t_struct(Campaign)10880_storage": {
        "encoding": "inplace",
        "label": "struct Escrow.Campaign",
        "members": [
          {
            "astId": 10860,
            "contract": "contracts/Escrow.sol:Escrow",
            "label": "id",
            "offset": 0,
            "slot": "0",
            "type": "t_uint256"
          },
          {
            "astId": 10862,
            "contract": "contracts/Escrow.sol:Escrow",
            "label": "beneficiary",
            "offset": 0,
            "slot": "1",
            "type": "t_address"
          },
          {
            "astId": 10864,
            "contract": "contracts/Escrow.sol:Escrow",
            "label": "totalAmount",
            "offset": 0,
            "slot": "2",
            "type": "t_uint256"
          },
          {
            "astId": 10867,
            "contract": "contracts/Escrow.sol:Escrow",
            "label": "status",
            "offset": 0,
            "slot": "3",
            "type": "t_enum(CampaignStatus)10816"
          },
          {
            "astId": 10871,
            "contract": "contracts/Escrow.sol:Escrow",
            "label": "milestones",
            "offset": 0,
            "slot": "4",
            "type": "t_array(t_struct(Milestone)10858_storage)dyn_storage"
          },
          {
            "astId": 10873,
            "contract": "contracts/Escrow.sol:Escrow",
            "label": "currentIndex",
            "offset": 0,
            "slot": "5",
            "type": "t_uint256"
          },
          {
            "astId": 10875,
            "contract": "contracts/Escrow.sol:Escrow",
            "label": "totalContributions",
            "offset": 0,
            "slot": "6",
            "type": "t_uint256"
          },
          {
            "astId": 10879,
            "contract": "contracts/Escrow.sol:Escrow",
            "label": "contributions",
            "offset": 0,
            "slot": "7",
            "type": "t_mapping(t_address,t_uint256)"
          }
        ],
        "numberOfBytes": "256"
      },
      "t_struct(Counter)6706_storage": {
        "encoding": "inplace",
        "label": "struct Counters.Counter",
        "members": [
          {
            "astId": 6705,
            "contract": "contracts/Escrow.sol:Escrow",
            "label": "_value",
            "offset": 0,
            "slot": "0",
            "type": "t_uint256"
          }
        ],
        "numberOfBytes": "32"
      },
      "t_struct(DonorSpecification)10833_storage": {
        "encoding": "inplace",
        "label": "struct Escrow.DonorSpecification",
        "members": [
          {
            "astId": 10832,
            "contract": "contracts/Escrow.sol:Escrow",
            "label": "targetAmount",
            "offset": 0,
            "slot": "0",
            "type": "t_uint256"
          }
        ],
        "numberOfBytes": "32"
      },
      "t_struct(Milestone)10858_storage": {
        "encoding": "inplace",
        "label": "struct Escrow.Milestone",
        "members": [
          {
            "astId": 10840,
            "contract": "contracts/Escrow.sol:Escrow",
            "label": "amount",
            "offset": 0,
            "slot": "0",
            "type": "t_uint256"
          },
          {
            "astId": 10843,
            "contract": "contracts/Escrow.sol:Escrow",
            "label": "status",
            "offset": 0,
            "slot": "1",
            "type": "t_enum(MilestoneStatus)10823"
          },
          {
            "astId": 10846,
            "contract": "contracts/Escrow.sol:Escrow",
            "label": "history",
            "offset": 0,
            "slot": "2",
            "type": "t_struct(TransactionHistory)10830_storage"
          },
          {
            "astId": 10848,
            "contract": "contracts/Escrow.sol:Escrow",
            "label": "description",
            "offset": 0,
            "slot": "5",
            "type": "t_string_storage"
          },
          {
            "astId": 10850,
            "contract": "contracts/Escrow.sol:Escrow",
            "label": "serviceDescription",
            "offset": 0,
            "slot": "6",
            "type": "t_string_storage"
          },
          {
            "astId": 10852,
            "contract": "contracts/Escrow.sol:Escrow",
            "label": "serviceProvider",
            "offset": 0,
            "slot": "7",
            "type": "t_address"
          },
          {
            "astId": 10854,
            "contract": "contracts/Escrow.sol:Escrow",
            "label": "serviceComplete",
            "offset": 20,
            "slot": "7",
            "type": "t_bool"
          },
          {
            "astId": 10857,
            "contract": "contracts/Escrow.sol:Escrow",
            "label": "billing",
            "offset": 0,
            "slot": "8",
            "type": "t_struct(Billing)10891_storage"
          }
        ],
        "numberOfBytes": "384"
      },
      "t_struct(TransactionHistory)10830_storage": {
        "encoding": "inplace",
        "label": "struct Escrow.TransactionHistory",
        "members": [
          {
            "astId": 10825,
            "contract": "contracts/Escrow.sol:Escrow",
            "label": "workers",
            "offset": 0,
            "slot": "0",
            "type": "t_uint256"
          },
          {
            "astId": 10827,
            "contract": "contracts/Escrow.sol:Escrow",
            "label": "materialCost",
            "offset": 0,
            "slot": "1",
            "type": "t_uint256"
          },
          {
            "astId": 10829,
            "contract": "contracts/Escrow.sol:Escrow",
            "label": "daysTaken",
            "offset": 0,
            "slot": "2",
            "type": "t_uint256"
          }
        ],
        "numberOfBytes": "96"
      },
      "t_uint256": {
        "encoding": "inplace",
        "label": "uint256",
        "numberOfBytes": "32"
      }
    }
  }
}