{
  "_format": "hh-sol-artifact-1",
  "contractName": "GovernanceToken",
  "sourceName": "contracts/GovernanceToken.sol",
  "abi": [
    {
      "inputs": [],
      "stateMutability": "nonpayable",
      "type": "constructor"
    },
    {
      "inputs": [],
      "name": "CheckpointUnorderedInsertion",
      "type": "error"
    },
    {
      "inputs": [],
      "name": "ECDSAInvalidSignature",
      "type": "error"
    },
    {
      "inputs": [
        {
          "internalType": "uint256",
          "name": "length",
          "type": "uint256"
        }
      ],
      "name": "ECDSAInvalidSignatureLength",
      "type": "error"
    },
    {
      "inputs": [
        {
          "internalType": "bytes32",
          "name": "s",
          "type": "bytes32"
        }
      ],
      "name": "ECDSAInvalidSignatureS",
      "type": "error"
    },
    {
      "inputs": [
        {
          "internalType": "uint256",
          "name": "increasedSupply",
          "type": "uint256"
        },
        {
          "internalType": "uint256",
          "name": "cap",
          "type": "uint256"
        }
      ],
      "name": "ERC20ExceededSafeSupply",
      "type": "error"
    },
    {
      "inputs": [
        {
          "internalType": "address",
          "name": "spender",
          "type": "address"
        },
        {
          "internalType": "uint256",
          "name": "allowance",
          "type": "uint256"
        },
        {
          "internalType": "uint256",
          "name": "needed",
          "type": "uint256"
        }
      ],
      "name": "ERC20InsufficientAllowance",
      "type": "error"
    },
    {
      "inputs": [
        {
          "internalType": "address",
          "name": "sender",
          "type": "address"
        },
        {
          "internalType": "uint256",
          "name": "balance",
          "type": "uint256"
        },
        {
          "internalType": "uint256",
          "name": "needed",
          "type": "uint256"
        }
      ],
      "name": "ERC20InsufficientBalance",
      "type": "error"
    },
    {
      "inputs": [
        {
          "internalType": "address",
          "name": "approver",
          "type": "address"
        }
      ],
      "name": "ERC20InvalidApprover",
      "type": "error"
    },
    {
      "inputs": [
        {
          "internalType": "address",
          "name": "receiver",
          "type": "address"
        }
      ],
      "name": "ERC20InvalidReceiver",
      "type": "error"
    },
    {
      "inputs": [
        {
          "internalType": "address",
          "name": "sender",
          "type": "address"
        }
      ],
      "name": "ERC20InvalidSender",
      "type": "error"
    },
    {
      "inputs": [
        {
          "internalType": "address",
          "name": "spender",
          "type": "address"
        }
      ],
      "name": "ERC20InvalidSpender",
      "type": "error"
    },
    {
      "inputs": [
        {
          "internalType": "uint256",
          "name": "deadline",
          "type": "uint256"
        }
      ],
      "name": "ERC2612ExpiredSignature",
      "type": "error"
    },
    {
      "inputs": [
        {
          "internalType": "address",
          "name": "signer",
          "type": "address"
        },
        {
          "internalType": "address",
          "name": "owner",
          "type": "address"
        }
      ],
      "name": "ERC2612InvalidSigner",
      "type": "error"
    },
    {
      "inputs": [
        {
          "internalType": "uint256",
          "name": "timepoint",
          "type": "uint256"
        },
        {
          "internalType": "uint48",
          "name": "clock",
          "type": "uint48"
        }
      ],
      "name": "ERC5805FutureLookup",
      "type": "error"
    },
    {
      "inputs": [],
      "name": "ERC6372InconsistentClock",
      "type": "error"
    },
    {
      "inputs": [
        {
          "internalType": "address",
          "name": "account",
          "type": "address"
        },
        {
          "internalType": "uint256",
          "name": "currentNonce",
          "type": "uint256"
        }
      ],
      "name": "InvalidAccountNonce",
      "type": "error"
    },
    {
      "inputs": [],
      "name": "InvalidShortString",
      "type": "error"
    },
    {
      "inputs": [
        {
          "internalType": "uint8",
          "name": "bits",
          "type": "uint8"
        },
        {
          "internalType": "uint256",
          "name": "value",
          "type": "uint256"
        }
      ],
      "name": "SafeCastOverflowedUintDowncast",
      "type": "error"
    },
    {
      "inputs": [
        {
          "internalType": "string",
          "name": "str",
          "type": "string"
        }
      ],
      "name": "StringTooLong",
      "type": "error"
    },
    {
      "inputs": [
        {
          "internalType": "uint256",
          "name": "expiry",
          "type": "uint256"
        }
      ],
      "name": "VotesExpiredSignature",
      "type": "error"
    },
    {
      "anonymous": false,
      "inputs": [
        {
          "indexed": true,
          "internalType": "address",
          "name": "owner",
          "type": "address"
        },
        {
          "indexed": true,
          "internalType": "address",
          "name": "spender",
          "type": "address"
        },
        {
          "indexed": false,
          "internalType": "uint256",
          "name": "value",
          "type": "uint256"
        }
      ],
      "name": "Approval",
      "type": "event"
    },
    {
      "anonymous": false,
      "inputs": [
        {
          "indexed": true,
          "internalType": "address",
          "name": "delegator",
          "type": "address"
        },
        {
          "indexed": true,
          "internalType": "address",
          "name": "fromDelegate",
          "type": "address"
        },
        {
          "indexed": true,
          "internalType": "address",
          "name": "toDelegate",
          "type": "address"
        }
      ],
      "name": "DelegateChanged",
      "type": "event"
    },
    {
      "anonymous": false,
      "inputs": [
        {
          "indexed": true,
          "internalType": "address",
          "name": "delegate",
          "type": "address"
        },
        {
          "indexed": false,
          "internalType": "uint256",
          "name": "previousVotes",
          "type": "uint256"
        },
        {
          "indexed": false,
          "internalType": "uint256",
          "name": "newVotes",
          "type": "uint256"
        }
      ],
      "name": "DelegateVotesChanged",
      "type": "event"
    },
    {
      "anonymous": false,
      "inputs": [],
      "name": "EIP712DomainChanged",
      "type": "event"
    },
    {
      "anonymous": false,
      "inputs": [
        {
          "indexed": true,
          "internalType": "address",
          "name": "from",
          "type": "address"
        },
        {
          "indexed": true,
          "internalType": "address",
          "name": "to",
          "type": "address"
        },
        {
          "indexed": false,
          "internalType": "uint256",
          "name": "value",
          "type": "uint256"
        }
      ],
      "name": "Transfer",
      "type": "event"
    },
    {
      "inputs": [],
      "name": "CLOCK_MODE",
      "outputs": [
        {
          "internalType": "string",
          "name": "",
          "type": "string"
        }
      ],
      "stateMutability": "view",
      "type": "function"
    },
    {
      "inputs": [],
      "name": "DOMAIN_SEPARATOR",
      "outputs": [
        {
          "internalType": "bytes32",
          "name": "",
          "type": "bytes32"
        }
      ],
      "stateMutability": "view",
      "type": "function"
    },
    {
      "inputs": [
        {
          "internalType": "address",
          "name": "owner",
          "type": "address"
        },
        {
          "internalType": "address",
          "name": "spender",
          "type": "address"
        }
      ],
      "name": "allowance",
      "outputs": [
        {
          "internalType": "uint256",
          "name": "",
          "type": "uint256"
        }
      ],
      "stateMutability": "view",
      "type": "function"
    },
    {
      "inputs": [
        {
          "internalType": "address",
          "name": "spender",
          "type": "address"
        },
        {
          "internalType": "uint256",
          "name": "value",
          "type": "uint256"
        }
      ],
      "name": "approve",
      "outputs": [
        {
          "internalType": "bool",
          "name": "",
          "type": "bool"
        }
      ],
      "stateMutability": "nonpayable",
      "type": "function"
    },
    {
      "inputs": [
        {
          "internalType": "address",
          "name": "account",
          "type": "address"
        }
      ],
      "name": "balanceOf",
      "outputs": [
        {
          "internalType": "uint256",
          "name": "",
          "type": "uint256"
        }
      ],
      "stateMutability": "view",
      "type": "function"
    },
    {
      "inputs": [
        {
          "internalType": "address",
          "name": "account",
          "type": "address"
        },
        {
          "internalType": "uint32",
          "name": "pos",
          "type": "uint32"
        }
      ],
      "name": "checkpoints",
      "outputs": [
        {
          "components": [
            {
              "internalType": "uint48",
              "name": "_key",
              "type": "uint48"
            },
            {
              "internalType": "uint208",
              "name": "_value",
              "type": "uint208"
            }
          ],
          "internalType": "struct Checkpoints.Checkpoint208",
          "name": "",
          "type": "tuple"
        }
      ],
      "stateMutability": "view",
      "type": "function"
    },
    {
      "inputs": [],
      "name": "clock",
      "outputs": [
        {
          "internalType": "uint48",
          "name": "",
          "type": "uint48"
        }
      ],
      "stateMutability": "view",
      "type": "function"
    },
    {
      "inputs": [],
      "name": "decimals",
      "outputs": [
        {
          "internalType": "uint8",
          "name": "",
          "type": "uint8"
        }
      ],
      "stateMutability": "view",
      "type": "function"
    },
    {
      "inputs": [
        {
          "internalType": "address",
          "name": "delegatee",
          "type": "address"
        }
      ],
      "name": "delegate",
      "outputs": [],
      "stateMutability": "nonpayable",
      "type": "function"
    },
    {
      "inputs": [
        {
          "internalType": "address",
          "name": "delegatee",
          "type": "address"
        },
        {
          "internalType": "uint256",
          "name": "nonce",
          "type": "uint256"
        },
        {
          "internalType": "uint256",
          "name": "expiry",
          "type": "uint256"
        },
        {
          "internalType": "uint8",
          "name": "v",
          "type": "uint8"
        },
        {
          "internalType": "bytes32",
          "name": "r",
          "type": "bytes32"
        },
        {
          "internalType": "bytes32",
          "name": "s",
          "type": "bytes32"
        }
      ],
      "name": "delegateBySig",
      "outputs": [],
      "stateMutability": "nonpayable",
      "type": "function"
    },
    {
      "inputs": [
        {
          "internalType": "address",
          "name": "account",
          "type": "address"
        }
      ],
      "name": "delegates",
      "outputs": [
        {
          "internalType": "address",
          "name": "",
          "type": "address"
        }
      ],
      "stateMutability": "view",
      "type": "function"
    },
    {
      "inputs": [],
      "name": "eip712Domain",
      "outputs": [
        {
          "internalType": "bytes1",
          "name": "fields",
          "type": "bytes1"
        },
        {
          "internalType": "string",
          "name": "name",
          "type": "string"
        },
        {
          "internalType": "string",
          "name": "version",
          "type": "string"
        },
        {
          "internalType": "uint256",
          "name": "chainId",
          "type": "uint256"
        },
        {
          "internalType": "address",
          "name": "verifyingContract",
          "type": "address"
        },
        {
          "internalType": "bytes32",
          "name": "salt",
          "type": "bytes32"
        },
        {
          "internalType": "uint256[]",
          "name": "extensions",
          "type": "uint256[]"
        }
      ],
      "stateMutability": "view",
      "type": "function"
    },
    {
      "inputs": [
        {
          "internalType": "uint256",
          "name": "timepoint",
          "type": "uint256"
        }
      ],
      "name": "getPastTotalSupply",
      "outputs": [
        {
          "internalType": "uint256",
          "name": "",
          "type": "uint256"
        }
      ],
      "stateMutability": "view",
      "type": "function"
    },
    {
      "inputs": [
        {
          "internalType": "address",
          "name": "account",
          "type": "address"
        },
        {
          "internalType": "uint256",
          "name": "timepoint",
          "type": "uint256"
        }
      ],
      "name": "getPastVotes",
      "outputs": [
        {
          "internalType": "uint256",
          "name": "",
          "type": "uint256"
        }
      ],
      "stateMutability": "view",
      "type": "function"
    },
    {
      "inputs": [
        {
          "internalType": "address",
          "name": "account",
          "type": "address"
        }
      ],
      "name": "getVotes",
      "outputs": [
        {
          "internalType": "uint256",
          "name": "",
          "type": "uint256"
        }
      ],
      "stateMutability": "view",
      "type": "function"
    },
    {
      "inputs": [],
      "name": "name",
      "outputs": [
        {
          "internalType": "string",
          "name": "",
          "type": "string"
        }
      ],
      "stateMutability": "view",
      "type": "function"
    },
    {
      "inputs": [
        {
          "internalType": "address",
          "name": "owner",
          "type": "address"
        }
      ],
      "name": "nonces",
      "outputs": [
        {
          "internalType": "uint256",
          "name": "",
          "type": "uint256"
        }
      ],
      "stateMutability": "view",
      "type": "function"
    },
    {
      "inputs": [
        {
          "internalType": "address",
          "name": "account",
          "type": "address"
        }
      ],
      "name": "numCheckpoints",
      "outputs": [
        {
          "internalType": "uint32",
          "name": "",
          "type": "uint32"
        }
      ],
      "stateMutability": "view",
      "type": "function"
    },
    {
      "inputs": [
        {
          "internalType": "address",
          "name": "owner",
          "type": "address"
        },
        {
          "internalType": "address",
          "name": "spender",
          "type": "address"
        },
        {
          "internalType": "uint256",
          "name": "value",
          "type": "uint256"
        },
        {
          "internalType": "uint256",
          "name": "deadline",
          "type": "uint256"
        },
        {
          "internalType": "uint8",
          "name": "v",
          "type": "uint8"
        },
        {
          "internalType": "bytes32",
          "name": "r",
          "type": "bytes32"
        },
        {
          "internalType": "bytes32",
          "name": "s",
          "type": "bytes32"
        }
      ],
      "name": "permit",
      "outputs": [],
      "stateMutability": "nonpayable",
      "type": "function"
    },
    {
      "inputs": [],
      "name": "s_maxSupply",
      "outputs": [
        {
          "internalType": "uint256",
          "name": "",
          "type": "uint256"
        }
      ],
      "stateMutability": "view",
      "type": "function"
    },
    {
      "inputs": [],
      "name": "symbol",
      "outputs": [
        {
          "internalType": "string",
          "name": "",
          "type": "string"
        }
      ],
      "stateMutability": "view",
      "type": "function"
    },
    {
      "inputs": [],
      "name": "totalSupply",
      "outputs": [
        {
          "internalType": "uint256",
          "name": "",
          "type": "uint256"
        }
      ],
      "stateMutability": "view",
      "type": "function"
    },
    {
      "inputs": [
        {
          "internalType": "address",
          "name": "to",
          "type": "address"
        },
        {
          "internalType": "uint256",
          "name": "value",
          "type": "uint256"
        }
      ],
      "name": "transfer",
      "outputs": [
        {
          "internalType": "bool",
          "name": "",
          "type": "bool"
        }
      ],
      "stateMutability": "nonpayable",
      "type": "function"
    },
    {
      "inputs": [
        {
          "internalType": "address",
          "name": "from",
          "type": "address"
        },
        {
          "internalType": "address",
          "name": "to",
          "type": "address"
        },
        {
          "internalType": "uint256",
          "name": "value",
          "type": "uint256"
        }
      ],
      "name": "transferFrom",
      "outputs": [
        {
          "internalType": "bool",
          "name": "",
          "type": "bool"
        }
      ],
      "stateMutability": "nonpayable",
      "type": "function"
    }
  ],
  "bytecode": "0x61016060405269d3c21bcecceda1000000600b553480156200002057600080fd5b506040518060400160405280600f81526020016e23b7bb32b93730b731b2aa37b5b2b760891b81525080604051806040016040528060018152602001603160f81b8152506040518060400160405280600f81526020016e23b7bb32b93730b731b2aa37b5b2b760891b8152506040518060400160405280600281526020016111d560f21b8152508160039081620000b891906200098b565b506004620000c782826200098b565b50620000d99150839050600562000198565b61012052620000ea81600662000198565b61014052815160208084019190912060e052815190820120610100524660a0526200017860e05161010051604080517f8b73c3c69bb8fe3d512ecc4cf759cc79239f7b179b0ffacaa9a75d522b39400f60208201529081019290925260608201524660808201523060a082015260009060c00160405160208183030381529060405280519060200120905090565b60805250503060c05250600b5462000192903390620001d1565b62000b5b565b6000602083511015620001b857620001b08362000213565b9050620001cb565b81620001c584826200098b565b5060ff90505b92915050565b6001600160a01b038216620002015760405163ec442f0560e01b8152600060048201526024015b60405180910390fd5b6200020f6000838362000256565b5050565b600080829050601f8151111562000241578260405163305a27a960e01b8152600401620001f8919062000a57565b80516200024e8262000aa7565b179392505050565b6200026383838362000268565b505050565b62000275838383620002d7565b6001600160a01b038316620002ca5760006200029060025490565b90506001600160d01b0380821115620002c757604051630e58ae9360e11b81526004810183905260248101829052604401620001f8565b50505b620002638383836200040a565b6001600160a01b03831662000306578060026000828254620002fa919062000ae2565b909155506200037a9050565b6001600160a01b038316600090815260208190526040902054818110156200035b5760405163391434e360e21b81526001600160a01b03851660048201526024810182905260448101839052606401620001f8565b6001600160a01b03841660009081526020819052604090209082900390555b6001600160a01b0382166200039857600280548290039055620003b7565b6001600160a01b03821660009081526020819052604090208054820190555b816001600160a01b0316836001600160a01b03167fddf252ad1be2c89b69c2b068fc378daa952ba7f163c4a11628f55a4df523b3ef83604051620003fd91815260200190565b60405180910390a3505050565b6001600160a01b0383166200043f576200043c600a62000935620004a260201b176200043684620004b7565b620004f1565b50505b6001600160a01b0382166200046e576200046b600a620009416200052e60201b176200043684620004b7565b50505b6001600160a01b0383811660009081526008602052604080822054858416835291205462000263929182169116836200053c565b6000620004b0828462000af8565b9392505050565b60006001600160d01b03821115620004ed576040516306dfcc6560e41b815260d0600482015260248101839052604401620001f8565b5090565b6000806200052162000502620006a3565b620005186200051188620006b4565b868860201c565b87919062000703565b915091505b935093915050565b6000620004b0828462000b22565b816001600160a01b0316836001600160a01b0316141580156200055f5750600081115b1562000263576001600160a01b0383161562000602576001600160a01b038316600090815260096020908152604082208291620005ad91906200052e901b62000941176200043686620004b7565b6001600160d01b031691506001600160d01b03169150846001600160a01b031660008051602062002a198339815191528383604051620005f7929190918252602082015260400190565b60405180910390a250505b6001600160a01b0382161562000263576001600160a01b0382166000908152600960209081526040822082916200064a9190620004a2901b62000935176200043686620004b7565b6001600160d01b031691506001600160d01b03169150836001600160a01b031660008051602062002a19833981519152838360405162000694929190918252602082015260400190565b60405180910390a25050505050565b6000620006af62000713565b905090565b80546000908015620006fa57620006e083620006d260018462000b45565b600091825260209091200190565b54660100000000000090046001600160d01b0316620004b0565b60009392505050565b6000806200052185858562000720565b6000620006af43620008b2565b825460009081908015620008535760006200074287620006d260018562000b45565b60408051808201909152905465ffffffffffff80821680845266010000000000009092046001600160d01b0316602084015291925090871610156200079a57604051632520601d60e01b815260040160405180910390fd5b805165ffffffffffff808816911603620007ee5784620007c188620006d260018662000b45565b80546001600160d01b039290921666010000000000000265ffffffffffff90921691909117905562000842565b6040805180820190915265ffffffffffff80881682526001600160d01b0380881660208085019182528b54600181018d5560008d815291909120945191519092166601000000000000029216919091179101555b602001519250839150620005269050565b50506040805180820190915265ffffffffffff80851682526001600160d01b0380851660208085019182528854600181018a5560008a815291822095519251909316660100000000000002919093161792019190915590508162000526565b600065ffffffffffff821115620004ed576040516306dfcc6560e41b81526030600482015260248101839052604401620001f8565b634e487b7160e01b600052604160045260246000fd5b600181811c908216806200091257607f821691505b6020821081036200093357634e487b7160e01b600052602260045260246000fd5b50919050565b601f8211156200026357600081815260208120601f850160051c81016020861015620009625750805b601f850160051c820191505b8181101562000983578281556001016200096e565b505050505050565b81516001600160401b03811115620009a757620009a7620008e7565b620009bf81620009b88454620008fd565b8462000939565b602080601f831160018114620009f75760008415620009de5750858301515b600019600386901b1c1916600185901b17855562000983565b600085815260208120601f198616915b8281101562000a285788860151825594840194600190910190840162000a07565b508582101562000a475787850151600019600388901b60f8161c191681555b5050505050600190811b01905550565b600060208083528351808285015260005b8181101562000a865785810183015185820160400152820162000a68565b506000604082860101526040601f19601f8301168501019250505092915050565b80516020808301519190811015620009335760001960209190910360031b1b16919050565b634e487b7160e01b600052601160045260246000fd5b80820180821115620001cb57620001cb62000acc565b6001600160d01b0381811683821601908082111562000b1b5762000b1b62000acc565b5092915050565b6001600160d01b0382811682821603908082111562000b1b5762000b1b62000acc565b81810381811115620001cb57620001cb62000acc565b60805160a05160c05160e051610100516101205161014051611e6362000bb66000396000610d0501526000610cd801526000610aeb01526000610ac301526000610a1e01526000610a4801526000610a720152611e636000f3fe608060405234801561001057600080fd5b50600436106101585760003560e01c806370a08231116100c35780639ab24eb01161007c5780639ab24eb0146102ec578063a9059cbb146102ff578063c3cda52014610312578063d505accf14610325578063dd62ed3e14610338578063f1127ed81461034b57600080fd5b806370a082311461025b5780637ecebe001461028457806384b0196e146102975780638e539e8c146102b257806391ddadf4146102c557806395d89b41146102e457600080fd5b80633a46b1a8116101155780633a46b1a8146101da5780634bf5d7e9146101ed578063587cde1e146101f55780635c19a95c146102155780635d6418471461022a5780636fcfff451461023357600080fd5b806306fdde031461015d578063095ea7b31461017b57806318160ddd1461019e57806323b872dd146101b0578063313ce567146101c35780633644e515146101d2575b600080fd5b61016561038a565b6040516101729190611a19565b60405180910390f35b61018e610189366004611a48565b61041c565b6040519015158152602001610172565b6002545b604051908152602001610172565b61018e6101be366004611a72565b610436565b60405160128152602001610172565b6101a261045a565b6101a26101e8366004611a48565b610469565b6101656104ef565b610208610203366004611aae565b610567565b6040516101729190611ac9565b610228610223366004611aae565b610585565b005b6101a2600b5481565b610246610241366004611aae565b610594565b60405163ffffffff9091168152602001610172565b6101a2610269366004611aae565b6001600160a01b031660009081526020819052604090205490565b6101a2610292366004611aae565b61059f565b61029f610605565b6040516101729796959493929190611add565b6101a26102c0366004611b73565b61064b565b6102cd6106b5565b60405165ffffffffffff9091168152602001610172565b6101656106bf565b6101a26102fa366004611aae565b6106ce565b61018e61030d366004611a48565b6106fe565b610228610320366004611b9d565b61070c565b610228610333366004611bf5565b6107c9565b6101a2610346366004611c5f565b6108e5565b61035e610359366004611c92565b610910565b60408051825165ffffffffffff1681526020928301516001600160d01b03169281019290925201610172565b60606003805461039990611cd2565b80601f01602080910402602001604051908101604052809291908181526020018280546103c590611cd2565b80156104125780601f106103e757610100808354040283529160200191610412565b820191906000526020600020905b8154815290600101906020018083116103f557829003601f168201915b5050505050905090565b60003361042a81858561094d565b60019150505b92915050565b60003361044485828561095f565b61044f8585856109b2565b506001949350505050565b6000610464610a11565b905090565b6000806104746106b5565b90508065ffffffffffff1683106104b457604051637669fc0f60e11b81526004810184905265ffffffffffff821660248201526044015b60405180910390fd5b6104de6104c084610b3c565b6001600160a01b038616600090815260096020526040902090610b73565b6001600160d01b0316949350505050565b60606104f9610c29565b65ffffffffffff166105096106b5565b65ffffffffffff161461052f576040516301bfc1c560e61b815260040160405180910390fd5b5060408051808201909152601d81527f6d6f64653d626c6f636b6e756d6265722666726f6d3d64656661756c74000000602082015290565b6001600160a01b039081166000908152600860205260409020541690565b336105908183610c34565b5050565b600061043082610caf565b604051623f675f60e91b81526000903090637ecebe00906105c4908590600401611ac9565b602060405180830381865afa1580156105e1573d6000803e3d6000fd5b505050506040513d601f19601f820116820180604052508101906104309190611d0c565b600060608060008060006060610619610cd1565b610621610cfe565b60408051600080825260208201909252600f60f81b9b939a50919850469750309650945092509050565b6000806106566106b5565b90508065ffffffffffff16831061069157604051637669fc0f60e11b81526004810184905265ffffffffffff821660248201526044016104ab565b6106a561069d84610b3c565b600a90610b73565b6001600160d01b03169392505050565b6000610464610c29565b60606004805461039990611cd2565b6001600160a01b03811660009081526009602052604081206106ef90610d2b565b6001600160d01b031692915050565b60003361042a8185856109b2565b8342111561073057604051632341d78760e11b8152600481018590526024016104ab565b604080517fe48329057bfd03d55e49b547132e39cffd9c1820ad7b9d4c5307691425d15adf60208201526001600160a01b0388169181019190915260608101869052608081018590526000906107aa906107a29060a00160405160208183030381529060405280519060200120610d64565b858585610d91565b90506107b68187610dbf565b6107c08188610c34565b50505050505050565b834211156107ed5760405163313c898160e11b8152600481018590526024016104ab565b60007f6e71edae12b1b97f4d1f60370fef10105fa2faae0126114a169c64845d6126c988888861081c8c610dfe565b6040805160208101969096526001600160a01b0394851690860152929091166060840152608083015260a082015260c0810186905260e001604051602081830303815290604052805190602001209050600061087782610d64565b9050600061088782878787610d91565b9050896001600160a01b0316816001600160a01b0316146108ce576040516325c0072360e11b81526001600160a01b0380831660048301528b1660248201526044016104ab565b6108d98a8a8a61094d565b50505050505050505050565b6001600160a01b03918216600090815260016020908152604080832093909416825291909152205490565b604080518082019091526000808252602082015261092e8383610e21565b9392505050565b600061092e8284611d3b565b600061092e8284611d62565b61095a8383836001610e57565b505050565b600061096b84846108e5565b905060001981146109ac578181101561099d57828183604051637dc7a0d960e11b81526004016104ab93929190611d82565b6109ac84848484036000610e57565b50505050565b6001600160a01b0383166109dc576000604051634b637e8f60e11b81526004016104ab9190611ac9565b6001600160a01b038216610a0657600060405163ec442f0560e01b81526004016104ab9190611ac9565b61095a838383610f2c565b6000306001600160a01b037f000000000000000000000000000000000000000000000000000000000000000016148015610a6a57507f000000000000000000000000000000000000000000000000000000000000000046145b15610a9457507f000000000000000000000000000000000000000000000000000000000000000090565b610464604080517f8b73c3c69bb8fe3d512ecc4cf759cc79239f7b179b0ffacaa9a75d522b39400f60208201527f0000000000000000000000000000000000000000000000000000000000000000918101919091527f000000000000000000000000000000000000000000000000000000000000000060608201524660808201523060a082015260009060c00160405160208183030381529060405280519060200120905090565b600065ffffffffffff821115610b6f576040516306dfcc6560e41b815260306004820152602481018390526044016104ab565b5090565b815460009081816005811115610bd2576000610b8e84610f37565b610b989085611da3565b60008881526020902090915081015465ffffffffffff9081169087161015610bc257809150610bd0565b610bcd816001611db6565b92505b505b6000610be08787858561101f565b90508015610c1b57610c0587610bf7600184611da3565b600091825260209091200190565b54600160301b90046001600160d01b0316610c1e565b60005b979650505050505050565b600061046443610b3c565b6000610c3f83610567565b6001600160a01b0384811660008181526008602052604080822080546001600160a01b031916888616908117909155905194955093928516927f3134e8a2e6d97e929a7e54011ea5485d7d196dd5f0ba4d4ef95803e8e3fc257f9190a461095a8183610caa86611081565b61109f565b6001600160a01b0381166000908152600960205260408120546104309061120b565b60606104647f0000000000000000000000000000000000000000000000000000000000000000600561123c565b60606104647f0000000000000000000000000000000000000000000000000000000000000000600661123c565b80546000908015610d5b57610d4583610bf7600184611da3565b54600160301b90046001600160d01b031661092e565b60009392505050565b6000610430610d71610a11565b8360405161190160f01b8152600281019290925260228201526042902090565b600080600080610da3888888886112e7565b925092509250610db382826113ac565b50909695505050505050565b6000610dca83610dfe565b905080821461095a576040516301d4b62360e61b81526001600160a01b0384166004820152602481018290526044016104ab565b6001600160a01b0316600090815260076020526040902080546001810190915590565b60408051808201909152600080825260208201526001600160a01b038316600090815260096020526040902061092e9083611465565b6001600160a01b038416610e8157600060405163e602df0560e01b81526004016104ab9190611ac9565b6001600160a01b038316610eab576000604051634a1406b160e11b81526004016104ab9190611ac9565b6001600160a01b03808516600090815260016020908152604080832093871683529290522082905580156109ac57826001600160a01b0316846001600160a01b03167f8c5be1e5ebec7d5bd14f71427d1e84f3dd0314c0f7b2291e5b200ac8c7c3b92584604051610f1e91815260200190565b60405180910390a350505050565b61095a8383836114d5565b600081600003610f4957506000919050565b60006001610f568461153c565b901c6001901b90506001818481610f6f57610f6f611dc9565b048201901c90506001818481610f8757610f87611dc9565b048201901c90506001818481610f9f57610f9f611dc9565b048201901c90506001818481610fb757610fb7611dc9565b048201901c90506001818481610fcf57610fcf611dc9565b048201901c90506001818481610fe757610fe7611dc9565b048201901c90506001818481610fff57610fff611dc9565b048201901c905061092e8182858161101957611019611dc9565b046115d0565b60005b8183101561107957600061103684846115e6565b60008781526020902090915065ffffffffffff86169082015465ffffffffffff16111561106557809250611073565b611070816001611db6565b93505b50611022565b509392505050565b6001600160a01b038116600090815260208190526040812054610430565b816001600160a01b0316836001600160a01b0316141580156110c15750600081115b1561095a576001600160a01b03831615611169576001600160a01b03831660009081526009602052604081208190611104906109416110ff86611601565b611635565b6001600160d01b031691506001600160d01b03169150846001600160a01b03167fdec2bacdd2f05b59de34da9b523dff8be42e5e38e818c82fdb0bae774387a724838360405161115e929190918252602082015260400190565b60405180910390a250505b6001600160a01b0382161561095a576001600160a01b038216600090815260096020526040812081906111a2906109356110ff86611601565b6001600160d01b031691506001600160d01b03169150836001600160a01b03167fdec2bacdd2f05b59de34da9b523dff8be42e5e38e818c82fdb0bae774387a72483836040516111fc929190918252602082015260400190565b60405180910390a25050505050565b600063ffffffff821115610b6f576040516306dfcc6560e41b815260206004820152602481018390526044016104ab565b606060ff83146112565761124f8361166e565b9050610430565b81805461126290611cd2565b80601f016020809104026020016040519081016040528092919081815260200182805461128e90611cd2565b80156112db5780601f106112b0576101008083540402835291602001916112db565b820191906000526020600020905b8154815290600101906020018083116112be57829003601f168201915b50505050509050610430565b600080806fa2a8918ca85bafe22016d0b997e4df60600160ff1b0384111561131857506000915060039050826113a2565b604080516000808252602082018084528a905260ff891692820192909252606081018790526080810186905260019060a0016020604051602081039080840390855afa15801561136c573d6000803e3d6000fd5b5050604051601f1901519150506001600160a01b038116611398575060009250600191508290506113a2565b9250600091508190505b9450945094915050565b60008260038111156113c0576113c0611ddf565b036113c9575050565b60018260038111156113dd576113dd611ddf565b036113fb5760405163f645eedf60e01b815260040160405180910390fd5b600282600381111561140f5761140f611ddf565b036114305760405163fce698f760e01b8152600481018290526024016104ab565b600382600381111561144457611444611ddf565b03610590576040516335e2f38360e21b8152600481018290526024016104ab565b6040805180820190915260008082526020820152826000018263ffffffff168154811061149457611494611df5565b60009182526020918290206040805180820190915291015465ffffffffffff81168252600160301b90046001600160d01b0316918101919091529392505050565b6114e08383836116ad565b6001600160a01b0383166115315760006114f960025490565b90506001600160d01b038082111561152e57604051630e58ae9360e11b815260048101839052602481018290526044016104ab565b50505b61095a8383836117c4565b600080608083901c1561155157608092831c92015b604083901c1561156357604092831c92015b602083901c1561157557602092831c92015b601083901c1561158757601092831c92015b600883901c1561159957600892831c92015b600483901c156115ab57600492831c92015b600283901c156115bd57600292831c92015b600183901c156104305760010192915050565b60008183106115df578161092e565b5090919050565b60006115f56002848418611e0b565b61092e90848416611db6565b60006001600160d01b03821115610b6f576040516306dfcc6560e41b815260d06004820152602481018390526044016104ab565b6000806116616116436106b5565b61165961164f88610d2b565b868863ffffffff16565b879190611823565b915091505b935093915050565b6060600061167b83611831565b604080516020808252818301909252919250600091906020820181803683375050509182525060208101929092525090565b6001600160a01b0383166116d85780600260008282546116cd9190611db6565b909155506117379050565b6001600160a01b038316600090815260208190526040902054818110156117185783818360405163391434e360e21b81526004016104ab93929190611d82565b6001600160a01b03841660009081526020819052604090209082900390555b6001600160a01b03821661175357600280548290039055611772565b6001600160a01b03821660009081526020819052604090208054820190555b816001600160a01b0316836001600160a01b03167fddf252ad1be2c89b69c2b068fc378daa952ba7f163c4a11628f55a4df523b3ef836040516117b791815260200190565b60405180910390a3505050565b6001600160a01b0383166117e6576117e3600a6109356110ff84611601565b50505b6001600160a01b03821661180857611805600a6109416110ff84611601565b50505b61095a61181484610567565b61181d84610567565b8361109f565b600080611661858585611859565b600060ff8216601f81111561043057604051632cd44ac360e21b815260040160405180910390fd5b82546000908190801561197857600061187787610bf7600185611da3565b60408051808201909152905465ffffffffffff808216808452600160301b9092046001600160d01b0316602084015291925090871610156118cb57604051632520601d60e01b815260040160405180910390fd5b805165ffffffffffff80881691160361191757846118ee88610bf7600186611da3565b80546001600160d01b0392909216600160301b0265ffffffffffff909216919091179055611968565b6040805180820190915265ffffffffffff80881682526001600160d01b0380881660208085019182528b54600181018d5560008d81529190912094519151909216600160301b029216919091179101555b6020015192508391506116669050565b50506040805180820190915265ffffffffffff80851682526001600160d01b0380851660208085019182528854600181018a5560008a815291822095519251909316600160301b029190931617920191909155905081611666565b6000815180845260005b818110156119f9576020818501810151868301820152016119dd565b506000602082860101526020601f19601f83011685010191505092915050565b60208152600061092e60208301846119d3565b80356001600160a01b0381168114611a4357600080fd5b919050565b60008060408385031215611a5b57600080fd5b611a6483611a2c565b946020939093013593505050565b600080600060608486031215611a8757600080fd5b611a9084611a2c565b9250611a9e60208501611a2c565b9150604084013590509250925092565b600060208284031215611ac057600080fd5b61092e82611a2c565b6001600160a01b0391909116815260200190565b60ff60f81b881681526000602060e081840152611afd60e084018a6119d3565b8381036040850152611b0f818a6119d3565b606085018990526001600160a01b038816608086015260a0850187905284810360c0860152855180825283870192509083019060005b81811015611b6157835183529284019291840191600101611b45565b50909c9b505050505050505050505050565b600060208284031215611b8557600080fd5b5035919050565b803560ff81168114611a4357600080fd5b60008060008060008060c08789031215611bb657600080fd5b611bbf87611a2c565b95506020870135945060408701359350611bdb60608801611b8c565b92506080870135915060a087013590509295509295509295565b600080600080600080600060e0888a031215611c1057600080fd5b611c1988611a2c565b9650611c2760208901611a2c565b95506040880135945060608801359350611c4360808901611b8c565b925060a0880135915060c0880135905092959891949750929550565b60008060408385031215611c7257600080fd5b611c7b83611a2c565b9150611c8960208401611a2c565b90509250929050565b60008060408385031215611ca557600080fd5b611cae83611a2c565b9150602083013563ffffffff81168114611cc757600080fd5b809150509250929050565b600181811c90821680611ce657607f821691505b602082108103611d0657634e487b7160e01b600052602260045260246000fd5b50919050565b600060208284031215611d1e57600080fd5b5051919050565b634e487b7160e01b600052601160045260246000fd5b6001600160d01b03818116838216019080821115611d5b57611d5b611d25565b5092915050565b6001600160d01b03828116828216039080821115611d5b57611d5b611d25565b6001600160a01b039390931683526020830191909152604082015260600190565b8181038181111561043057610430611d25565b8082018082111561043057610430611d25565b634e487b7160e01b600052601260045260246000fd5b634e487b7160e01b600052602160045260246000fd5b634e487b7160e01b600052603260045260246000fd5b600082611e2857634e487b7160e01b600052601260045260246000fd5b50049056fea26469706673582212208966de3041da5e8b65e5afe1da6ffbcf8aed351c50f038583a12ca9a6105d28064736f6c63430008140033dec2bacdd2f05b59de34da9b523dff8be42e5e38e818c82fdb0bae774387a724",
  "linkReferences": {},
  "deployedLinkReferences": {}
}