{
  "_format": "hh-sol-artifact-1",
  "contractName": "GovernorContract",
  "sourceName": "contracts/Governance_standard/GovernorContract.sol",
  "abi": [
    {
      "inputs": [
        {
          "internalType": "contract IVotes",
          "name": "_token",
          "type": "address"
        },
        {
          "internalType": "contract TimelockController",
          "name": "_timelock",
          "type": "address"
        },
        {
          "internalType": "uint256",
          "name": "_votingDelay",
          "type": "uint256"
        },
        {
          "internalType": "uint256",
          "name": "_votingPeriod",
          "type": "uint256"
        },
        {
          "internalType": "uint256",
          "name": "_quorumPercentage",
          "type": "uint256"
        },
        {
          "internalType": "address",
          "name": "_escrowAddress",
          "type": "address"
        }
      ],
      "stateMutability": "nonpayable",
      "type": "constructor"
    },
    {
      "inputs": [],
      "name": "CheckpointUnorderedInsertion",
      "type": "error"
    },
    {
      "inputs": [],
      "name": "FailedInnerCall",
      "type": "error"
    },
    {
      "inputs": [
        {
          "internalType": "address",
          "name": "voter",
          "type": "address"
        }
      ],
      "name": "GovernorAlreadyCastVote",
      "type": "error"
    },
    {
      "inputs": [
        {
          "internalType": "uint256",
          "name": "proposalId",
          "type": "uint256"
        }
      ],
      "name": "GovernorAlreadyQueuedProposal",
      "type": "error"
    },
    {
      "inputs": [],
      "name": "GovernorDisabledDeposit",
      "type": "error"
    },
    {
      "inputs": [
        {
          "internalType": "address",
          "name": "proposer",
          "type": "address"
        },
        {
          "internalType": "uint256",
          "name": "votes",
          "type": "uint256"
        },
        {
          "internalType": "uint256",
          "name": "threshold",
          "type": "uint256"
        }
      ],
      "name": "GovernorInsufficientProposerVotes",
      "type": "error"
    },
    {
      "inputs": [
        {
          "internalType": "uint256",
          "name": "targets",
          "type": "uint256"
        },
        {
          "internalType": "uint256",
          "name": "calldatas",
          "type": "uint256"
        },
        {
          "internalType": "uint256",
          "name": "values",
          "type": "uint256"
        }
      ],
      "name": "GovernorInvalidProposalLength",
      "type": "error"
    },
    {
      "inputs": [
        {
          "internalType": "uint256",
          "name": "quorumNumerator",
          "type": "uint256"
        },
        {
          "internalType": "uint256",
          "name": "quorumDenominator",
          "type": "uint256"
        }
      ],
      "name": "GovernorInvalidQuorumFraction",
      "type": "error"
    },
    {
      "inputs": [
        {
          "internalType": "address",
          "name": "voter",
          "type": "address"
        }
      ],
      "name": "GovernorInvalidSignature",
      "type": "error"
    },
    {
      "inputs": [],
      "name": "GovernorInvalidVoteType",
      "type": "error"
    },
    {
      "inputs": [
        {
          "internalType": "uint256",
          "name": "votingPeriod",
          "type": "uint256"
        }
      ],
      "name": "GovernorInvalidVotingPeriod",
      "type": "error"
    },
    {
      "inputs": [
        {
          "internalType": "uint256",
          "name": "proposalId",
          "type": "uint256"
        }
      ],
      "name": "GovernorNonexistentProposal",
      "type": "error"
    },
    {
      "inputs": [
        {
          "internalType": "uint256",
          "name": "proposalId",
          "type": "uint256"
        }
      ],
      "name": "GovernorNotQueuedProposal",
      "type": "error"
    },
    {
      "inputs": [
        {
          "internalType": "address",
          "name": "account",
          "type": "address"
        }
      ],
      "name": "GovernorOnlyExecutor",
      "type": "error"
    },
    {
      "inputs": [
        {
          "internalType": "address",
          "name": "account",
          "type": "address"
        }
      ],
      "name": "GovernorOnlyProposer",
      "type": "error"
    },
    {
      "inputs": [],
      "name": "GovernorQueueNotImplemented",
      "type": "error"
    },
    {
      "inputs": [
        {
          "internalType": "address",
          "name": "proposer",
          "type": "address"
        }
      ],
      "name": "GovernorRestrictedProposer",
      "type": "error"
    },
    {
      "inputs": [
        {
          "internalType": "uint256",
          "name": "proposalId",
          "type": "uint256"
        },
        {
          "internalType": "enum IGovernor.ProposalState",
          "name": "current",
          "type": "uint8"
        },
        {
          "internalType": "bytes32",
          "name": "expectedStates",
          "type": "bytes32"
        }
      ],
      "name": "GovernorUnexpectedProposalState",
      "type": "error"
    },
    {
      "inputs": [
        {
          "internalType": "address",
          "name": "account",
          "type": "address"
        },
        {
          "internalType": "uint256",
          "name": "currentNonce",
          "type": "uint256"
        }
      ],
      "name": "InvalidAccountNonce",
      "type": "error"
    },
    {
      "inputs": [],
      "name": "InvalidShortString",
      "type": "error"
    },
    {
      "inputs": [],
      "name": "QueueEmpty",
      "type": "error"
    },
    {
      "inputs": [],
      "name": "QueueFull",
      "type": "error"
    },
    {
      "inputs": [
        {
          "internalType": "uint8",
          "name": "bits",
          "type": "uint8"
        },
        {
          "internalType": "uint256",
          "name": "value",
          "type": "uint256"
        }
      ],
      "name": "SafeCastOverflowedUintDowncast",
      "type": "error"
    },
    {
      "inputs": [
        {
          "internalType": "string",
          "name": "str",
          "type": "string"
        }
      ],
      "name": "StringTooLong",
      "type": "error"
    },
    {
      "anonymous": false,
      "inputs": [],
      "name": "EIP712DomainChanged",
      "type": "event"
    },
    {
      "anonymous": false,
      "inputs": [
        {
          "indexed": false,
          "internalType": "uint256",
          "name": "proposalId",
          "type": "uint256"
        }
      ],
      "name": "ProposalCanceled",
      "type": "event"
    },
    {
      "anonymous": false,
      "inputs": [
        {
          "indexed": false,
          "internalType": "uint256",
          "name": "proposalId",
          "type": "uint256"
        },
        {
          "indexed": false,
          "internalType": "address",
          "name": "proposer",
          "type": "address"
        },
        {
          "indexed": false,
          "internalType": "address[]",
          "name": "targets",
          "type": "address[]"
        },
        {
          "indexed": false,
          "internalType": "uint256[]",
          "name": "values",
          "type": "uint256[]"
        },
        {
          "indexed": false,
          "internalType": "string[]",
          "name": "signatures",
          "type": "string[]"
        },
        {
          "indexed": false,
          "internalType": "bytes[]",
          "name": "calldatas",
          "type": "bytes[]"
        },
        {
          "indexed": false,
          "internalType": "uint256",
          "name": "voteStart",
          "type": "uint256"
        },
        {
          "indexed": false,
          "internalType": "uint256",
          "name": "voteEnd",
          "type": "uint256"
        },
        {
          "indexed": false,
          "internalType": "string",
          "name": "description",
          "type": "string"
        }
      ],
      "name": "ProposalCreated",
      "type": "event"
    },
    {
      "anonymous": false,
      "inputs": [
        {
          "indexed": false,
          "internalType": "uint256",
          "name": "proposalId",
          "type": "uint256"
        }
      ],
      "name": "ProposalExecuted",
      "type": "event"
    },
    {
      "anonymous": false,
      "inputs": [
        {
          "indexed": false,
          "internalType": "uint256",
          "name": "proposalId",
          "type": "uint256"
        },
        {
          "indexed": false,
          "internalType": "uint256",
          "name": "etaSeconds",
          "type": "uint256"
        }
      ],
      "name": "ProposalQueued",
      "type": "event"
    },
    {
      "anonymous": false,
      "inputs": [
        {
          "indexed": false,
          "internalType": "uint256",
          "name": "oldProposalThreshold",
          "type": "uint256"
        },
        {
          "indexed": false,
          "internalType": "uint256",
          "name": "newProposalThreshold",
          "type": "uint256"
        }
      ],
      "name": "ProposalThresholdSet",
      "type": "event"
    },
    {
      "anonymous": false,
      "inputs": [
        {
          "indexed": false,
          "internalType": "uint256",
          "name": "oldQuorumNumerator",
          "type": "uint256"
        },
        {
          "indexed": false,
          "internalType": "uint256",
          "name": "newQuorumNumerator",
          "type": "uint256"
        }
      ],
      "name": "QuorumNumeratorUpdated",
      "type": "event"
    },
    {
      "anonymous": false,
      "inputs": [
        {
          "indexed": false,
          "internalType": "address",
          "name": "oldTimelock",
          "type": "address"
        },
        {
          "indexed": false,
          "internalType": "address",
          "name": "newTimelock",
          "type": "address"
        }
      ],
      "name": "TimelockChange",
      "type": "event"
    },
    {
      "anonymous": false,
      "inputs": [
        {
          "indexed": true,
          "internalType": "address",
          "name": "voter",
          "type": "address"
        },
        {
          "indexed": false,
          "internalType": "uint256",
          "name": "proposalId",
          "type": "uint256"
        },
        {
          "indexed": false,
          "internalType": "uint8",
          "name": "support",
          "type": "uint8"
        },
        {
          "indexed": false,
          "internalType": "uint256",
          "name": "weight",
          "type": "uint256"
        },
        {
          "indexed": false,
          "internalType": "string",
          "name": "reason",
          "type": "string"
        }
      ],
      "name": "VoteCast",
      "type": "event"
    },
    {
      "anonymous": false,
      "inputs": [
        {
          "indexed": true,
          "internalType": "address",
          "name": "voter",
          "type": "address"
        },
        {
          "indexed": false,
          "internalType": "uint256",
          "name": "proposalId",
          "type": "uint256"
        },
        {
          "indexed": false,
          "internalType": "uint8",
          "name": "support",
          "type": "uint8"
        },
        {
          "indexed": false,
          "internalType": "uint256",
          "name": "weight",
          "type": "uint256"
        },
        {
          "indexed": false,
          "internalType": "string",
          "name": "reason",
          "type": "string"
        },
        {
          "indexed": false,
          "internalType": "bytes",
          "name": "params",
          "type": "bytes"
        }
      ],
      "name": "VoteCastWithParams",
      "type": "event"
    },
    {
      "anonymous": false,
      "inputs": [
        {
          "indexed": false,
          "internalType": "uint256",
          "name": "oldVotingDelay",
          "type": "uint256"
        },
        {
          "indexed": false,
          "internalType": "uint256",
          "name": "newVotingDelay",
          "type": "uint256"
        }
      ],
      "name": "VotingDelaySet",
      "type": "event"
    },
    {
      "anonymous": false,
      "inputs": [
        {
          "indexed": false,
          "internalType": "uint256",
          "name": "oldVotingPeriod",
          "type": "uint256"
        },
        {
          "indexed": false,
          "internalType": "uint256",
          "name": "newVotingPeriod",
          "type": "uint256"
        }
      ],
      "name": "VotingPeriodSet",
      "type": "event"
    },
    {
      "inputs": [],
      "name": "BALLOT_TYPEHASH",
      "outputs": [
        {
          "internalType": "bytes32",
          "name": "",
          "type": "bytes32"
        }
      ],
      "stateMutability": "view",
      "type": "function"
    },
    {
      "inputs": [],
      "name": "CLOCK_MODE",
      "outputs": [
        {
          "internalType": "string",
          "name": "",
          "type": "string"
        }
      ],
      "stateMutability": "view",
      "type": "function"
    },
    {
      "inputs": [],
      "name": "COUNTING_MODE",
      "outputs": [
        {
          "internalType": "string",
          "name": "",
          "type": "string"
        }
      ],
      "stateMutability": "pure",
      "type": "function"
    },
    {
      "inputs": [],
      "name": "EXTENDED_BALLOT_TYPEHASH",
      "outputs": [
        {
          "internalType": "bytes32",
          "name": "",
          "type": "bytes32"
        }
      ],
      "stateMutability": "view",
      "type": "function"
    },
    {
      "inputs": [
        {
          "internalType": "uint256",
          "name": "campaignId",
          "type": "uint256"
        }
      ],
      "name": "approveCampaign",
      "outputs": [
        {
          "internalType": "uint256",
          "name": "",
          "type": "uint256"
        }
      ],
      "stateMutability": "nonpayable",
      "type": "function"
    },
    {
      "inputs": [
        {
          "internalType": "address[]",
          "name": "targets",
          "type": "address[]"
        },
        {
          "internalType": "uint256[]",
          "name": "values",
          "type": "uint256[]"
        },
        {
          "internalType": "bytes[]",
          "name": "calldatas",
          "type": "bytes[]"
        },
        {
          "internalType": "bytes32",
          "name": "descriptionHash",
          "type": "bytes32"
        }
      ],
      "name": "cancel",
      "outputs": [
        {
          "internalType": "uint256",
          "name": "",
          "type": "uint256"
        }
      ],
      "stateMutability": "nonpayable",
      "type": "function"
    },
    {
      "inputs": [
        {
          "internalType": "uint256",
          "name": "proposalId",
          "type": "uint256"
        },
        {
          "internalType": "uint8",
          "name": "support",
          "type": "uint8"
        }
      ],
      "name": "castVote",
      "outputs": [
        {
          "internalType": "uint256",
          "name": "",
          "type": "uint256"
        }
      ],
      "stateMutability": "nonpayable",
      "type": "function"
    },
    {
      "inputs": [
        {
          "internalType": "uint256",
          "name": "proposalId",
          "type": "uint256"
        },
        {
          "internalType": "uint8",
          "name": "support",
          "type": "uint8"
        },
        {
          "internalType": "address",
          "name": "voter",
          "type": "address"
        },
        {
          "internalType": "bytes",
          "name": "signature",
          "type": "bytes"
        }
      ],
      "name": "castVoteBySig",
      "outputs": [
        {
          "internalType": "uint256",
          "name": "",
          "type": "uint256"
        }
      ],
      "stateMutability": "nonpayable",
      "type": "function"
    },
    {
      "inputs": [
        {
          "internalType": "uint256",
          "name": "proposalId",
          "type": "uint256"
        },
        {
          "internalType": "uint8",
          "name": "support",
          "type": "uint8"
        },
        {
          "internalType": "string",
          "name": "reason",
          "type": "string"
        }
      ],
      "name": "castVoteWithReason",
      "outputs": [
        {
          "internalType": "uint256",
          "name": "",
          "type": "uint256"
        }
      ],
      "stateMutability": "nonpayable",
      "type": "function"
    },
    {
      "inputs": [
        {
          "internalType": "uint256",
          "name": "proposalId",
          "type": "uint256"
        },
        {
          "internalType": "uint8",
          "name": "support",
          "type": "uint8"
        },
        {
          "internalType": "string",
          "name": "reason",
          "type": "string"
        },
        {
          "internalType": "bytes",
          "name": "params",
          "type": "bytes"
        }
      ],
      "name": "castVoteWithReasonAndParams",
      "outputs": [
        {
          "internalType": "uint256",
          "name": "",
          "type": "uint256"
        }
      ],
      "stateMutability": "nonpayable",
      "type": "function"
    },
    {
      "inputs": [
        {
          "internalType": "uint256",
          "name": "proposalId",
          "type": "uint256"
        },
        {
          "internalType": "uint8",
          "name": "support",
          "type": "uint8"
        },
        {
          "internalType": "address",
          "name": "voter",
          "type": "address"
        },
        {
          "internalType": "string",
          "name": "reason",
          "type": "string"
        },
        {
          "internalType": "bytes",
          "name": "params",
          "type": "bytes"
        },
        {
          "internalType": "bytes",
          "name": "signature",
          "type": "bytes"
        }
      ],
      "name": "castVoteWithReasonAndParamsBySig",
      "outputs": [
        {
          "internalType": "uint256",
          "name": "",
          "type": "uint256"
        }
      ],
      "stateMutability": "nonpayable",
      "type": "function"
    },
    {
      "inputs": [],
      "name": "clock",
      "outputs": [
        {
          "internalType": "uint48",
          "name": "",
          "type": "uint48"
        }
      ],
      "stateMutability": "view",
      "type": "function"
    },
    {
      "inputs": [],
      "name": "eip712Domain",
      "outputs": [
        {
          "internalType": "bytes1",
          "name": "fields",
          "type": "bytes1"
        },
        {
          "internalType": "string",
          "name": "name",
          "type": "string"
        },
        {
          "internalType": "string",
          "name": "version",
          "type": "string"
        },
        {
          "internalType": "uint256",
          "name": "chainId",
          "type": "uint256"
        },
        {
          "internalType": "address",
          "name": "verifyingContract",
          "type": "address"
        },
        {
          "internalType": "bytes32",
          "name": "salt",
          "type": "bytes32"
        },
        {
          "internalType": "uint256[]",
          "name": "extensions",
          "type": "uint256[]"
        }
      ],
      "stateMutability": "view",
      "type": "function"
    },
    {
      "inputs": [],
      "name": "escrow",
      "outputs": [
        {
          "internalType": "contract Escrow",
          "name": "",
          "type": "address"
        }
      ],
      "stateMutability": "view",
      "type": "function"
    },
    {
      "inputs": [
        {
          "internalType": "address[]",
          "name": "targets",
          "type": "address[]"
        },
        {
          "internalType": "uint256[]",
          "name": "values",
          "type": "uint256[]"
        },
        {
          "internalType": "bytes[]",
          "name": "calldatas",
          "type": "bytes[]"
        },
        {
          "internalType": "bytes32",
          "name": "descriptionHash",
          "type": "bytes32"
        }
      ],
      "name": "execute",
      "outputs": [
        {
          "internalType": "uint256",
          "name": "",
          "type": "uint256"
        }
      ],
      "stateMutability": "payable",
      "type": "function"
    },
    {
      "inputs": [
        {
          "internalType": "address",
          "name": "account",
          "type": "address"
        },
        {
          "internalType": "uint256",
          "name": "timepoint",
          "type": "uint256"
        }
      ],
      "name": "getVotes",
      "outputs": [
        {
          "internalType": "uint256",
          "name": "",
          "type": "uint256"
        }
      ],
      "stateMutability": "view",
      "type": "function"
    },
    {
      "inputs": [
        {
          "internalType": "address",
          "name": "account",
          "type": "address"
        },
        {
          "internalType": "uint256",
          "name": "timepoint",
          "type": "uint256"
        },
        {
          "internalType": "bytes",
          "name": "params",
          "type": "bytes"
        }
      ],
      "name": "getVotesWithParams",
      "outputs": [
        {
          "internalType": "uint256",
          "name": "",
          "type": "uint256"
        }
      ],
      "stateMutability": "view",
      "type": "function"
    },
    {
      "inputs": [
        {
          "internalType": "uint256",
          "name": "proposalId",
          "type": "uint256"
        },
        {
          "internalType": "address",
          "name": "account",
          "type": "address"
        }
      ],
      "name": "hasVoted",
      "outputs": [
        {
          "internalType": "bool",
          "name": "",
          "type": "bool"
        }
      ],
      "stateMutability": "view",
      "type": "function"
    },
    {
      "inputs": [
        {
          "internalType": "address[]",
          "name": "targets",
          "type": "address[]"
        },
        {
          "internalType": "uint256[]",
          "name": "values",
          "type": "uint256[]"
        },
        {
          "internalType": "bytes[]",
          "name": "calldatas",
          "type": "bytes[]"
        },
        {
          "internalType": "bytes32",
          "name": "descriptionHash",
          "type": "bytes32"
        }
      ],
      "name": "hashProposal",
      "outputs": [
        {
          "internalType": "uint256",
          "name": "",
          "type": "uint256"
        }
      ],
      "stateMutability": "pure",
      "type": "function"
    },
    {
      "inputs": [],
      "name": "name",
      "outputs": [
        {
          "internalType": "string",
          "name": "",
          "type": "string"
        }
      ],
      "stateMutability": "view",
      "type": "function"
    },
    {
      "inputs": [
        {
          "internalType": "address",
          "name": "owner",
          "type": "address"
        }
      ],
      "name": "nonces",
      "outputs": [
        {
          "internalType": "uint256",
          "name": "",
          "type": "uint256"
        }
      ],
      "stateMutability": "view",
      "type": "function"
    },
    {
      "inputs": [
        {
          "internalType": "address",
          "name": "",
          "type": "address"
        },
        {
          "internalType": "address",
          "name": "",
          "type": "address"
        },
        {
          "internalType": "uint256[]",
          "name": "",
          "type": "uint256[]"
        },
        {
          "internalType": "uint256[]",
          "name": "",
          "type": "uint256[]"
        },
        {
          "internalType": "bytes",
          "name": "",
          "type": "bytes"
        }
      ],
      "name": "onERC1155BatchReceived",
      "outputs": [
        {
          "internalType": "bytes4",
          "name": "",
          "type": "bytes4"
        }
      ],
      "stateMutability": "nonpayable",
      "type": "function"
    },
    {
      "inputs": [
        {
          "internalType": "address",
          "name": "",
          "type": "address"
        },
        {
          "internalType": "address",
          "name": "",
          "type": "address"
        },
        {
          "internalType": "uint256",
          "name": "",
          "type": "uint256"
        },
        {
          "internalType": "uint256",
          "name": "",
          "type": "uint256"
        },
        {
          "internalType": "bytes",
          "name": "",
          "type": "bytes"
        }
      ],
      "name": "onERC1155Received",
      "outputs": [
        {
          "internalType": "bytes4",
          "name": "",
          "type": "bytes4"
        }
      ],
      "stateMutability": "nonpayable",
      "type": "function"
    },
    {
      "inputs": [
        {
          "internalType": "address",
          "name": "",
          "type": "address"
        },
        {
          "internalType": "address",
          "name": "",
          "type": "address"
        },
        {
          "internalType": "uint256",
          "name": "",
          "type": "uint256"
        },
        {
          "internalType": "bytes",
          "name": "",
          "type": "bytes"
        }
      ],
      "name": "onERC721Received",
      "outputs": [
        {
          "internalType": "bytes4",
          "name": "",
          "type": "bytes4"
        }
      ],
      "stateMutability": "nonpayable",
      "type": "function"
    },
    {
      "inputs": [
        {
          "internalType": "uint256",
          "name": "proposalId",
          "type": "uint256"
        }
      ],
      "name": "proposalDeadline",
      "outputs": [
        {
          "internalType": "uint256",
          "name": "",
          "type": "uint256"
        }
      ],
      "stateMutability": "view",
      "type": "function"
    },
    {
      "inputs": [
        {
          "internalType": "uint256",
          "name": "proposalId",
          "type": "uint256"
        }
      ],
      "name": "proposalEta",
      "outputs": [
        {
          "internalType": "uint256",
          "name": "",
          "type": "uint256"
        }
      ],
      "stateMutability": "view",
      "type": "function"
    },
    {
      "inputs": [
        {
          "internalType": "uint256",
          "name": "proposalId",
          "type": "uint256"
        }
      ],
      "name": "proposalNeedsQueuing",
      "outputs": [
        {
          "internalType": "bool",
          "name": "",
          "type": "bool"
        }
      ],
      "stateMutability": "view",
      "type": "function"
    },
    {
      "inputs": [
        {
          "internalType": "uint256",
          "name": "proposalId",
          "type": "uint256"
        }
      ],
      "name": "proposalProposer",
      "outputs": [
        {
          "internalType": "address",
          "name": "",
          "type": "address"
        }
      ],
      "stateMutability": "view",
      "type": "function"
    },
    {
      "inputs": [
        {
          "internalType": "uint256",
          "name": "proposalId",
          "type": "uint256"
        }
      ],
      "name": "proposalSnapshot",
      "outputs": [
        {
          "internalType": "uint256",
          "name": "",
          "type": "uint256"
        }
      ],
      "stateMutability": "view",
      "type": "function"
    },
    {
      "inputs": [],
      "name": "proposalThreshold",
      "outputs": [
        {
          "internalType": "uint256",
          "name": "",
          "type": "uint256"
        }
      ],
      "stateMutability": "view",
      "type": "function"
    },
    {
      "inputs": [
        {
          "internalType": "uint256",
          "name": "proposalId",
          "type": "uint256"
        }
      ],
      "name": "proposalVotes",
      "outputs": [
        {
          "internalType": "uint256",
          "name": "againstVotes",
          "type": "uint256"
        },
        {
          "internalType": "uint256",
          "name": "forVotes",
          "type": "uint256"
        },
        {
          "internalType": "uint256",
          "name": "abstainVotes",
          "type": "uint256"
        }
      ],
      "stateMutability": "view",
      "type": "function"
    },
    {
      "inputs": [
        {
          "internalType": "address[]",
          "name": "targets",
          "type": "address[]"
        },
        {
          "internalType": "uint256[]",
          "name": "values",
          "type": "uint256[]"
        },
        {
          "internalType": "bytes[]",
          "name": "calldatas",
          "type": "bytes[]"
        },
        {
          "internalType": "string",
          "name": "description",
          "type": "string"
        }
      ],
      "name": "propose",
      "outputs": [
        {
          "internalType": "uint256",
          "name": "",
          "type": "uint256"
        }
      ],
      "stateMutability": "nonpayable",
      "type": "function"
    },
    {
      "inputs": [
        {
          "internalType": "address",
          "name": "beneficiary",
          "type": "address"
        },
        {
          "internalType": "uint256",
          "name": "totalAmount",
          "type": "uint256"
        },
        {
          "internalType": "uint256",
          "name": "milestoneCount",
          "type": "uint256"
        },
        {
          "internalType": "string",
          "name": "description",
          "type": "string"
        }
      ],
      "name": "proposeCharityCampaign",
      "outputs": [
        {
          "internalType": "uint256",
          "name": "",
          "type": "uint256"
        }
      ],
      "stateMutability": "nonpayable",
      "type": "function"
    },
    {
      "inputs": [
        {
          "internalType": "address[]",
          "name": "targets",
          "type": "address[]"
        },
        {
          "internalType": "uint256[]",
          "name": "values",
          "type": "uint256[]"
        },
        {
          "internalType": "bytes[]",
          "name": "calldatas",
          "type": "bytes[]"
        },
        {
          "internalType": "bytes32",
          "name": "descriptionHash",
          "type": "bytes32"
        }
      ],
      "name": "queue",
      "outputs": [
        {
          "internalType": "uint256",
          "name": "",
          "type": "uint256"
        }
      ],
      "stateMutability": "nonpayable",
      "type": "function"
    },
    {
      "inputs": [
        {
          "internalType": "uint256",
          "name": "blockNumber",
          "type": "uint256"
        }
      ],
      "name": "quorum",
      "outputs": [
        {
          "internalType": "uint256",
          "name": "",
          "type": "uint256"
        }
      ],
      "stateMutability": "view",
      "type": "function"
    },
    {
      "inputs": [],
      "name": "quorumDenominator",
      "outputs": [
        {
          "internalType": "uint256",
          "name": "",
          "type": "uint256"
        }
      ],
      "stateMutability": "view",
      "type": "function"
    },
    {
      "inputs": [
        {
          "internalType": "uint256",
          "name": "timepoint",
          "type": "uint256"
        }
      ],
      "name": "quorumNumerator",
      "outputs": [
        {
          "internalType": "uint256",
          "name": "",
          "type": "uint256"
        }
      ],
      "stateMutability": "view",
      "type": "function"
    },
    {
      "inputs": [],
      "name": "quorumNumerator",
      "outputs": [
        {
          "internalType": "uint256",
          "name": "",
          "type": "uint256"
        }
      ],
      "stateMutability": "view",
      "type": "function"
    },
    {
      "inputs": [
        {
          "internalType": "uint256",
          "name": "campaignId",
          "type": "uint256"
        }
      ],
      "name": "rejectCampaign",
      "outputs": [
        {
          "internalType": "uint256",
          "name": "",
          "type": "uint256"
        }
      ],
      "stateMutability": "nonpayable",
      "type": "function"
    },
    {
      "inputs": [
        {
          "internalType": "address",
          "name": "target",
          "type": "address"
        },
        {
          "internalType": "uint256",
          "name": "value",
          "type": "uint256"
        },
        {
          "internalType": "bytes",
          "name": "data",
          "type": "bytes"
        }
      ],
      "name": "relay",
      "outputs": [],
      "stateMutability": "payable",
      "type": "function"
    },
    {
      "inputs": [
        {
          "internalType": "uint256",
          "name": "campaignId",
          "type": "uint256"
        },
        {
          "internalType": "uint256",
          "name": "milestoneIndex",
          "type": "uint256"
        }
      ],
      "name": "releaseMilestone",
      "outputs": [],
      "stateMutability": "nonpayable",
      "type": "function"
    },
    {
      "inputs": [
        {
          "internalType": "uint256",
          "name": "newProposalThreshold",
          "type": "uint256"
        }
      ],
      "name": "setProposalThreshold",
      "outputs": [],
      "stateMutability": "nonpayable",
      "type": "function"
    },
    {
      "inputs": [
        {
          "internalType": "uint48",
          "name": "newVotingDelay",
          "type": "uint48"
        }
      ],
      "name": "setVotingDelay",
      "outputs": [],
      "stateMutability": "nonpayable",
      "type": "function"
    },
    {
      "inputs": [
        {
          "internalType": "uint32",
          "name": "newVotingPeriod",
          "type": "uint32"
        }
      ],
      "name": "setVotingPeriod",
      "outputs": [],
      "stateMutability": "nonpayable",
      "type": "function"
    },
    {
      "inputs": [
        {
          "internalType": "uint256",
          "name": "proposalId",
          "type": "uint256"
        }
      ],
      "name": "state",
      "outputs": [
        {
          "internalType": "enum IGovernor.ProposalState",
          "name": "",
          "type": "uint8"
        }
      ],
      "stateMutability": "view",
      "type": "function"
    },
    {
      "inputs": [
        {
          "internalType": "bytes4",
          "name": "interfaceId",
          "type": "bytes4"
        }
      ],
      "name": "supportsInterface",
      "outputs": [
        {
          "internalType": "bool",
          "name": "",
          "type": "bool"
        }
      ],
      "stateMutability": "view",
      "type": "function"
    },
    {
      "inputs": [],
      "name": "timelock",
      "outputs": [
        {
          "internalType": "address",
          "name": "",
          "type": "address"
        }
      ],
      "stateMutability": "view",
      "type": "function"
    },
    {
      "inputs": [],
      "name": "token",
      "outputs": [
        {
          "internalType": "contract IERC5805",
          "name": "",
          "type": "address"
        }
      ],
      "stateMutability": "view",
      "type": "function"
    },
    {
      "inputs": [
        {
          "internalType": "uint256",
          "name": "newQuorumNumerator",
          "type": "uint256"
        }
      ],
      "name": "updateQuorumNumerator",
      "outputs": [],
      "stateMutability": "nonpayable",
      "type": "function"
    },
    {
      "inputs": [
        {
          "internalType": "contract TimelockController",
          "name": "newTimelock",
          "type": "address"
        }
      ],
      "name": "updateTimelock",
      "outputs": [],
      "stateMutability": "nonpayable",
      "type": "function"
    },
    {
      "inputs": [],
      "name": "version",
      "outputs": [
        {
          "internalType": "string",
          "name": "",
          "type": "string"
        }
      ],
      "stateMutability": "view",
      "type": "function"
    },
    {
      "inputs": [],
      "name": "votingDelay",
      "outputs": [
        {
          "internalType": "uint256",
          "name": "",
          "type": "uint256"
        }
      ],
      "stateMutability": "view",
      "type": "function"
    },
    {
      "inputs": [],
      "name": "votingPeriod",
      "outputs": [
        {
          "internalType": "uint256",
          "name": "",
          "type": "uint256"
        }
      ],
      "stateMutability": "view",
      "type": "function"
    },
    {
      "stateMutability": "payable",
      "type": "receive"
    }
  ],
  "bytecode": "0x6101806040523480156200001257600080fd5b50604051620054093803806200540983398101604081905262000035916200083c565b848287868660006040518060400160405280601081526020016f11dbdd995c9b9bdc90dbdb9d1c9858dd60821b81525080620000766200022060201b60201c565b620000838260006200023b565b61012052620000948160016200023b565b61014052815160208084019190912060e052815190820120610100524660a0526200012260e05161010051604080517f8b73c3c69bb8fe3d512ecc4cf759cc79239f7b179b0ffacaa9a75d522b39400f60208201529081019290925260608201524660808201523060a082015260009060c00160405160208183030381529060405280519060200120905090565b60805250503060c052600362000139828262000952565b506200014790508362000274565b6200015282620002da565b6200015d816200037d565b5050506001600160a01b0316610160526200017881620003be565b5062000184816200045e565b506001600160a01b038116620001f45760405162461bcd60e51b815260206004820152602a60248201527f457363726f7720616464726573732063616e6e6f7420626520746865207a6572604482015269379030b2323932b9b99760b11b60648201526084015b60405180910390fd5b600d80546001600160a01b0319166001600160a01b03929092169190911790555062000adf9350505050565b6040805180820190915260018152603160f81b602082015290565b60006020835110156200025b576200025383620004c7565b90506200026e565b8162000268848262000952565b5060ff90505b92915050565b6008546040805165ffffffffffff928316815291831660208301527fc565b045403dc03c2eea82b81a0465edad9e2e7fc4d97e11421c209da93d7a93910160405180910390a16008805465ffffffffffff191665ffffffffffff92909216919091179055565b8063ffffffff16600003620003065760405163f1cfbf0560e01b815260006004820152602401620001eb565b6008546040805163ffffffff66010000000000009093048316815291831660208301527f7e3f7f0708a84de9203036abaa450dccc85ad5ff52f78c170f3edb55cf5e8828910160405180910390a16008805463ffffffff90921666010000000000000263ffffffff60301b19909216919091179055565b60075460408051918252602082018390527fccb45da8d5717e6c4544694297c4ba5cf151d455c9bb0ed4fc7a38411bc05461910160405180910390a1600755565b606480821115620003ed5760405163243e544560e01b81526004810183905260248101829052604401620001eb565b6000620003f96200050a565b90506200041e6200040962000526565b6200041485620005a8565b600a9190620005e2565b505060408051828152602081018590527f0553476bf02ef2726e8ce5ced78d63e26e602e4a2257b1f559418e24b4633997910160405180910390a1505050565b600b54604080516001600160a01b03928316815291831660208301527f08f74ea46ef7894f65eabfb5e6e695de773a000b47c529ab559178069b226401910160405180910390a1600b80546001600160a01b0319166001600160a01b0392909216919091179055565b600080829050601f81511115620004f5578260405163305a27a960e01b8152600401620001eb919062000a1e565b8051620005028262000a6e565b179392505050565b600062000518600a620005ff565b6001600160d01b0316905090565b6000620005336101605190565b6001600160a01b03166391ddadf46040518163ffffffff1660e01b8152600401602060405180830381865afa9250505080156200058f575060408051601f3d908101601f191682019092526200058c9181019062000a93565b60015b620005a3576200059e6200064f565b905090565b919050565b60006001600160d01b03821115620005de576040516306dfcc6560e41b815260d0600482015260248101839052604401620001eb565b5090565b600080620005f28585856200065c565b915091505b935093915050565b8054600090801562000645576200062b836200061d60018462000abd565b600091825260209091200190565b54660100000000000090046001600160d01b031662000648565b60005b9392505050565b60006200059e43620007ee565b8254600090819080156200078f5760006200067e876200061d60018562000abd565b60408051808201909152905465ffffffffffff80821680845266010000000000009092046001600160d01b031660208401529192509087161015620006d657604051632520601d60e01b815260040160405180910390fd5b805165ffffffffffff8088169116036200072a5784620006fd886200061d60018662000abd565b80546001600160d01b039290921666010000000000000265ffffffffffff9092169190911790556200077e565b6040805180820190915265ffffffffffff80881682526001600160d01b0380881660208085019182528b54600181018d5560008d815291909120945191519092166601000000000000029216919091179101555b602001519250839150620005f79050565b50506040805180820190915265ffffffffffff80851682526001600160d01b0380851660208085019182528854600181018a5560008a8152918220955192519093166601000000000000029190931617920191909155905081620005f7565b600065ffffffffffff821115620005de576040516306dfcc6560e41b81526030600482015260248101839052604401620001eb565b6001600160a01b03811681146200083957600080fd5b50565b60008060008060008060c087890312156200085657600080fd5b8651620008638162000823565b6020880151909650620008768162000823565b8095505060408701519350606087015192506080870151915060a08701516200089f8162000823565b809150509295509295509295565b634e487b7160e01b600052604160045260246000fd5b600181811c90821680620008d857607f821691505b602082108103620008f957634e487b7160e01b600052602260045260246000fd5b50919050565b601f8211156200094d57600081815260208120601f850160051c81016020861015620009285750805b601f850160051c820191505b81811015620009495782815560010162000934565b5050505b505050565b81516001600160401b038111156200096e576200096e620008ad565b62000986816200097f8454620008c3565b84620008ff565b602080601f831160018114620009be5760008415620009a55750858301515b600019600386901b1c1916600185901b17855562000949565b600085815260208120601f198616915b82811015620009ef57888601518255948401946001909101908401620009ce565b508582101562000a0e5787850151600019600388901b60f8161c191681555b5050505050600190811b01905550565b600060208083528351808285015260005b8181101562000a4d5785810183015185820160400152820162000a2f565b506000604082860101526040601f19601f8301168501019250505092915050565b80516020808301519190811015620008f95760001960209190910360031b1b16919050565b60006020828403121562000aa657600080fd5b815165ffffffffffff811681146200064857600080fd5b818103818111156200026e57634e487b7160e01b600052601160045260246000fd5b60805160a05160c05160e051610100516101205161014051610160516148c462000b456000396000611b5b01526000612518015260006124eb01526000612d9c01526000612d7401526000612ccf01526000612cf901526000612d2301526148c46000f3fe6080604052600436106102ce5760003560e01c806384b0196e1161017b578063c28bc2fa116100d7578063e540d01d11610085578063e540d01d146109db578063eb9019d4146109fb578063ece40cc114610a1b578063ee4e1b5314610a3b578063f23a6e6114610a5b578063f8ce560a14610a7b578063fc0c546a14610a9b57600080fd5b8063c28bc2fa146108d0578063c59057e4146108e3578063d33219b414610903578063dbaf091014610921578063dd4e2ba514610941578063deaaa7cc14610987578063e2fdcc17146109bb57600080fd5b8063a7713a7011610134578063a7713a70146107ee578063a890c91014610803578063a9a9529414610823578063ab58fb8e14610843578063b58131b01461087b578063bc197c8114610890578063c01f9e37146108b057600080fd5b806384b0196e146107265780638ff262e31461074e57806391ddadf41461076e5780639647165b1461079a57806397c3d334146107ba5780639a802a6d146107ce57600080fd5b8063438596321161022a5780635b8d0e0d116101e35780635b8d0e0d146106305780635f398a141461065057806360c4247f1461067057806379051887146106905780637b3c71d3146106b05780637d5e81e2146106d05780637ecebe00146106f057600080fd5b80634385963214610512578063452115d61461055c5780634bf5d7e91461057c578063544ffc9c1461059157806354fd4d50146105e6578063567813881461061057600080fd5b8063150b7a0211610287578063150b7a0214610410578063160cbed7146104495780632656227d146104695780632d63f6931461047c5780632fe3e2611461049c5780633932abb1146104d05780633e4f49e6146104e557600080fd5b806301ffc9a71461030a57806302a251a31461033f578063034d09da1461036b57806306f3f9e61461038b57806306fdde03146103ab578063143489d0146103cd57600080fd5b3661030557306102dc610ab0565b6001600160a01b03161461030357604051637485328f60e11b815260040160405180910390fd5b005b600080fd5b34801561031657600080fd5b5061032a610325366004613739565b610ac9565b60405190151581526020015b60405180910390f35b34801561034b57600080fd5b50600854600160301b900463ffffffff165b604051908152602001610336565b34801561037757600080fd5b5061035d610386366004613763565b610b1b565b34801561039757600080fd5b506103036103a6366004613763565b610cb8565b3480156103b757600080fd5b506103c0610ccc565b60405161033691906137cc565b3480156103d957600080fd5b506104036103e8366004613763565b6000908152600460205260409020546001600160a01b031690565b60405161033691906137df565b34801561041c57600080fd5b5061043061042b3660046138cb565b610d5e565b6040516001600160e01b03199091168152602001610336565b34801561045557600080fd5b5061035d610464366004613aa2565b610da1565b61035d610477366004613aa2565b610e70565b34801561048857600080fd5b5061035d610497366004613763565b610fe4565b3480156104a857600080fd5b5061035d7f3e83946653575f9a39005e1545185629e92736b7528ab20ca3816f315424a81181565b3480156104dc57600080fd5b5061035d611005565b3480156104f157600080fd5b50610505610500366004613763565b611018565b6040516103369190613b69565b34801561051e57600080fd5b5061032a61052d366004613b77565b60008281526009602090815260408083206001600160a01b038516845260030190915290205460ff1692915050565b34801561056857600080fd5b5061035d610577366004613aa2565b611023565b34801561058857600080fd5b506103c0611092565b34801561059d57600080fd5b506105cb6105ac366004613763565b6000908152600960205260409020805460018201546002909201549092565b60408051938452602084019290925290820152606001610336565b3480156105f257600080fd5b506040805180820190915260018152603160f81b60208201526103c0565b34801561061c57600080fd5b5061035d61062b366004613bb8565b611136565b34801561063c57600080fd5b5061035d61064b366004613c2c565b61115f565b34801561065c57600080fd5b5061035d61066b366004613ce6565b611297565b34801561067c57600080fd5b5061035d61068b366004613763565b6112ec565b34801561069c57600080fd5b506103036106ab366004613d7d565b61137a565b3480156106bc57600080fd5b5061035d6106cb366004613d9a565b61138b565b3480156106dc57600080fd5b5061035d6106eb366004613df3565b6113d3565b3480156106fc57600080fd5b5061035d61070b366004613e93565b6001600160a01b031660009081526002602052604090205490565b34801561073257600080fd5b5061073b611474565b6040516103369796959493929190613eeb565b34801561075a57600080fd5b5061035d610769366004613f5b565b6114ba565b34801561077a57600080fd5b50610783611565565b60405165ffffffffffff9091168152602001610336565b3480156107a657600080fd5b5061035d6107b5366004613fac565b6115d4565b3480156107c657600080fd5b50606461035d565b3480156107da57600080fd5b5061035d6107e9366004613ff6565b611722565b3480156107fa57600080fd5b5061035d61172f565b34801561080f57600080fd5b5061030361081e366004613e93565b611749565b34801561082f57600080fd5b5061032a61083e366004613763565b61175a565b34801561084f57600080fd5b5061035d61085e366004613763565b60009081526004602052604090206001015465ffffffffffff1690565b34801561088757600080fd5b5061035d611763565b34801561089c57600080fd5b506104306108ab36600461404e565b61176e565b3480156108bc57600080fd5b5061035d6108cb366004613763565b6117b2565b6103036108de3660046140e1565b6117f5565b3480156108ef57600080fd5b5061035d6108fe366004613aa2565b611875565b34801561090f57600080fd5b50600b546001600160a01b0316610403565b34801561092d57600080fd5b5061030361093c366004614124565b6118af565b34801561094d57600080fd5b506040805180820190915260208082527f737570706f72743d627261766f2671756f72756d3d666f722c6162737461696e908201526103c0565b34801561099357600080fd5b5061035d7ff2aad550cf55f045cb27e9c559f9889fdfb6e6cdaa032301d6ea397784ae51d781565b3480156109c757600080fd5b50600d54610403906001600160a01b031681565b3480156109e757600080fd5b506103036109f6366004614146565b611937565b348015610a0757600080fd5b5061035d610a1636600461416c565b611948565b348015610a2757600080fd5b50610303610a36366004613763565b611970565b348015610a4757600080fd5b5061035d610a56366004613763565b611981565b348015610a6757600080fd5b50610430610a76366004614198565b611b0a565b348015610a8757600080fd5b5061035d610a96366004613763565b611b4e565b348015610aa757600080fd5b50610403611b59565b6000610ac4600b546001600160a01b031690565b905090565b60006001600160e01b031982166332a2ad4360e11b1480610afa57506001600160e01b03198216630271189760e51b145b80610b1557506301ffc9a760e01b6001600160e01b03198316145b92915050565b6000333014610b455760405162461bcd60e51b8152600401610b3c90614200565b60405180910390fd5b604080516001808252818301909252600091816020015b6060815260200190600190039081610b5c5750506040805160248082018790528251808303909101815260449091019091526020810180516001600160e01b03166301a684ed60e11b1790528151919250908290600090610bbf57610bbf614247565b60209081029190910101526040805160018082528183019092526000918160200160208202803683375050600d5482519293506001600160a01b031691839150600090610c0e57610c0e614247565b6001600160a01b039290921660209283029190910190910152604080516001808252818301909252600091816020016020820280368337019050509050600081600081518110610c6057610c60614247565b602002602001018181525050610cad8282856040518060400160405280601b81526020017f50726f706f73616c3a2043616d706169676e2052656a656374656400000000008152506113d3565b93505050505b919050565b610cc0611b7d565b610cc981611bf7565b50565b606060038054610cdb9061425d565b80601f0160208091040260200160405190810160405280929190818152602001828054610d079061425d565b8015610d545780601f10610d2957610100808354040283529160200191610d54565b820191906000526020600020905b815481529060010190602001808311610d3757829003601f168201915b5050505050905090565b600030610d69610ab0565b6001600160a01b031614610d9057604051637485328f60e11b815260040160405180910390fd5b50630a85bd0160e11b949350505050565b600080610db086868686611875565b9050610dc581610dc06004611c8d565b611cb0565b506000610dd58288888888611cef565b905065ffffffffffff811615610e4d57600082815260046020908152604091829020600101805465ffffffffffff191665ffffffffffff85169081179091558251858152918201527f9a2e42fd6722813d69113e7d0079d3d940171428df7373df9c7f7617cfda2892910160405180910390a1610e66565b604051634844252360e11b815260040160405180910390fd5b5095945050505050565b600080610e7f86868686611875565b9050610e9f81610e8f6005611c8d565b610e996004611c8d565b17611cb0565b506000818152600460205260409020805460ff60f01b1916600160f01b17905530610ec8610ab0565b6001600160a01b031614610f5a5760005b8651811015610f5857306001600160a01b0316878281518110610efe57610efe614247565b60200260200101516001600160a01b031603610f4857610f48858281518110610f2957610f29614247565b6020026020010151805190602001206005611cfe90919063ffffffff16565b610f51816142ad565b9050610ed9565b505b610f678187878787611d6f565b30610f70610ab0565b6001600160a01b031614158015610f9c57506005546001600160801b03808216600160801b9092041614155b15610fa75760006005555b6040518181527f712ae1383f79ac853f8d882153778e0260ef8f03b504e2866e0593e04d2b291f906020015b60405180910390a195945050505050565b600090815260046020526040902054600160a01b900465ffffffffffff1690565b6000610ac460085465ffffffffffff1690565b6000610b1582611d83565b60008061103286868686611875565b905061104281610dc06000611c8d565b506000818152600460205260409020546001600160a01b0316331461107c573360405163233d98e360e01b8152600401610b3c91906137df565b61108886868686611ec2565b9695505050505050565b606061109c611b59565b6001600160a01b0316634bf5d7e96040518163ffffffff1660e01b8152600401600060405180830381865afa9250505080156110fa57506040513d6000823e601f3d908101601f191682016040526110f791908101906142c6565b60015b610cb3575060408051808201909152601d81527f6d6f64653d626c6f636b6e756d6265722666726f6d3d64656661756c74000000602082015290565b60008033905061115784828560405180602001604052806000815250611ed9565b949350505050565b6000806112248761121e7f3e83946653575f9a39005e1545185629e92736b7528ab20ca3816f315424a8118c8c8c6111968e611efc565b8d8d6040516111a6929190614333565b60405180910390208c805190602001206040516020016112039796959493929190968752602087019590955260ff9390931660408601526001600160a01b03919091166060850152608084015260a083015260c082015260e00190565b60405160208183030381529060405280519060200120611f1f565b85611f4c565b90508061124657866040516394ab6c0760e01b8152600401610b3c91906137df565b61128a89888a89898080601f0160208091040260200160405190810160405280939291908181526020018383808284376000920191909152508b9250611fa4915050565b9998505050505050505050565b6000803390506112e187828888888080601f0160208091040260200160405190810160405280939291908181526020018383808284376000920191909152508a9250611fa4915050565b979650505050505050565b600a80546000918290611300600184614343565b8154811061131057611310614247565b6000918252602090912001805490915065ffffffffffff811690600160301b90046001600160d01b0316858211611353576001600160d01b031695945050505050565b61136761135f87612081565b600a906120b8565b6001600160d01b03169695505050505050565b611382611b7d565b610cc98161216d565b60008033905061108886828787878080601f016020809104026020016040519081016040528093929190818152602001838380828437600092019190915250611ed992505050565b6000336113e081846121d3565b6113ff578060405163d9b3955760e01b8152600401610b3c91906137df565b600061142682600161140f611565565b6114199190614356565b65ffffffffffff16611948565b90506000611432611763565b90508082101561145b57828282604051636121770b60e11b8152600401610b3c9392919061437c565b61146888888888876122c4565b98975050505050505050565b6000606080600080600060606114886124e4565b611490612511565b60408051600080825260208201909252600f60f81b9b939a50919850469750309650945092509050565b6000806115288461121e7ff2aad550cf55f045cb27e9c559f9889fdfb6e6cdaa032301d6ea397784ae51d78989896114f18b611efc565b60408051602081019690965285019390935260ff90911660608401526001600160a01b0316608083015260a082015260c001611203565b90508061154a57836040516394ab6c0760e01b8152600401610b3c91906137df565b61108886858760405180602001604052806000815250611ed9565b600061156f611b59565b6001600160a01b03166391ddadf46040518163ffffffff1660e01b8152600401602060405180830381865afa9250505080156115c8575060408051601f3d908101601f191682019092526115c59181019061439d565b60015b610cb357610ac461253e565b604080516001808252818301909252600091829190816020015b60608152602001906001900390816115ee575050604051909150631186d80160e21b906116239088908890889060240161437c565b604051602081830303815290604052906001600160e01b0319166020820180516001600160e01b0383818316178352505050508160008151811061166957611669614247565b60209081029190910101526040805160018082528183019092526000918160200160208202803683375050600d5482519293506001600160a01b0316918391506000906116b8576116b8614247565b6001600160a01b03929092166020928302919091019091015260408051600180825281830190925260009181602001602082028036833701905050905060008160008151811061170a5761170a614247565b602002602001018181525050611468828285886113d3565b6000611157848484612549565b600061173b600a6125c6565b6001600160d01b0316905090565b611751611b7d565b610cc9816125ff565b60006001610b15565b6000610ac460075490565b600030611779610ab0565b6001600160a01b0316146117a057604051637485328f60e11b815260040160405180910390fd5b5063bc197c8160e01b95945050505050565b6000818152600460205260408120546117e790600160d01b810463ffffffff1690600160a01b900465ffffffffffff166143ba565b65ffffffffffff1692915050565b6117fd611b7d565b600080856001600160a01b031685858560405161181b929190614333565b60006040518083038185875af1925050503d8060008114611858576040519150601f19603f3d011682016040523d82523d6000602084013e61185d565b606091505b509150915061186c8282612668565b50505050505050565b60008484848460405160200161188e9493929190614464565b60408051601f19818403018152919052805160209091012095945050505050565b3330146118ce5760405162461bcd60e51b8152600401610b3c90614200565b600d54604051630dbaf09160e41b815260048101849052602481018390526001600160a01b039091169063dbaf091090604401600060405180830381600087803b15801561191b57600080fd5b505af115801561192f573d6000803e3d6000fd5b505050505050565b61193f611b7d565b610cc981612684565b6000611969838361196460408051602081019091526000815290565b612549565b9392505050565b611978611b7d565b610cc981612722565b60003330146119a25760405162461bcd60e51b8152600401610b3c90614200565b604080516001808252818301909252600091816020015b60608152602001906001900390816119b95750506040805160248082018790528251808303909101815260449091019091526020810180516001600160e01b031663ee4e1b5360e01b1790528151919250908290600090611a1c57611a1c614247565b60209081029190910101526040805160018082528183019092526000918160200160208202803683375050600d5482519293506001600160a01b031691839150600090611a6b57611a6b614247565b6001600160a01b039290921660209283029190910190910152604080516001808252818301909252600091816020016020820280368337019050509050600081600081518110611abd57611abd614247565b602002602001018181525050610cad8282856040518060400160405280601b81526020017f50726f706f73616c3a2043616d706169676e20417070726f76656400000000008152506113d3565b600030611b15610ab0565b6001600160a01b031614611b3c57604051637485328f60e11b815260040160405180910390fd5b5063f23a6e6160e01b95945050505050565b6000610b1582612763565b7f000000000000000000000000000000000000000000000000000000000000000090565b33611b86610ab0565b6001600160a01b031614611baf57336040516347096e4760e01b8152600401610b3c91906137df565b30611bb8610ab0565b6001600160a01b031614611bf55760008036604051611bd8929190614333565b604051809103902090505b80611bee60056127fa565b03611be357505b565b606480821115611c245760405163243e544560e01b81526004810183905260248101829052604401610b3c565b6000611c2e61172f565b9050611c4d611c3b611565565b611c448561286f565b600a91906128a3565b505060408051828152602081018590527f0553476bf02ef2726e8ce5ced78d63e26e602e4a2257b1f559418e24b4633997910160405180910390a1505050565b6000816007811115611ca157611ca1613b31565b600160ff919091161b92915050565b600080611cbc84611018565b9050600083611cca83611c8d565b1603611969578381846040516331b75e4d60e01b8152600401610b3c939291906144af565b600061108886868686866128be565b81546001600160801b03600160801b820481169181166001830190911603611d3957604051638acb5f2760e01b815260040160405180910390fd5b6001600160801b03808216600090815260018086016020526040909120939093558354919092018216600160801b029116179055565b611d7c8585858585612a58565b5050505050565b600080611d8f83612ae9565b90506005816007811115611da557611da5613b31565b14611db05792915050565b6000838152600c60205260409081902054600b549151632c258a9f60e11b81526004810182905290916001600160a01b03169063584b153e90602401602060405180830381865afa158015611e09573d6000803e3d6000fd5b505050506040513d601f19601f82011682018060405250810190611e2d91906144d1565b15611e3c575060059392505050565b600b54604051632ab0f52960e01b8152600481018390526001600160a01b0390911690632ab0f52990602401602060405180830381865afa158015611e85573d6000803e3d6000fd5b505050506040513d601f19601f82011682018060405250810190611ea991906144d1565b15611eb8575060079392505050565b5060029392505050565b6000611ed085858585612c23565b95945050505050565b6000611ed085858585611ef760408051602081019091526000815290565b611fa4565b6001600160a01b0316600090815260026020526040902080546001810190915590565b6000610b15611f2c612cc2565b8360405161190160f01b8152600281019290925260228201526042902090565b6000806000611f5b8585612ded565b5090925090506000816003811115611f7557611f75613b31565b148015611f935750856001600160a01b0316826001600160a01b0316145b806110885750611088868686612e3a565b6000611fb486610dc06001611c8d565b506000611fca86611fc489610fe4565b85612549565b9050611fd98787878487612f15565b825160000361202e57856001600160a01b03167fb8e138887d0aa13bab447e82de9d5c1777041ecd21ca36ba824ff1e6c07ddda48887848860405161202194939291906144f3565b60405180910390a2611088565b856001600160a01b03167fe2babfbac5889a709b63bb7f598b324e08bc5a4fb9ec647fb3cbc9ec07eb8712888784888860405161206f95949392919061451b565b60405180910390a29695505050505050565b600065ffffffffffff8211156120b4576040516306dfcc6560e41b81526030600482015260248101839052604401610b3c565b5090565b8154600090818160058111156121175760006120d384613005565b6120dd9085614343565b60008881526020902090915081015465ffffffffffff908116908716101561210757809150612115565b612112816001614555565b92505b505b6000612125878785856130ed565b905080156121605761214a8761213c600184614343565b600091825260209091200190565b54600160301b90046001600160d01b03166112e1565b6000979650505050505050565b6008546040805165ffffffffffff928316815291831660208301527fc565b045403dc03c2eea82b81a0465edad9e2e7fc4d97e11421c209da93d7a93910160405180910390a16008805465ffffffffffff191665ffffffffffff92909216919091179055565b805160009060348110156121eb576001915050610b15565b82810160131901516001600160a01b031981166b046e0e4dee0dee6cae47a60f60a31b1461221e57600192505050610b15565b60008061222c602885614343565b90505b838110156122a35760008061226388848151811061224f5761224f614247565b01602001516001600160f81b03191661314f565b915091508161227b5760019650505050505050610b15565b8060ff166004856001600160a01b0316901b17935050508061229c906142ad565b905061222f565b50856001600160a01b0316816001600160a01b031614935050505092915050565b60006122d98686868680519060200120611875565b9050845186511415806122ee57508351865114155b806122f857508551155b1561232d57855184518651604051630447b05d60e41b8152600481019390935260248301919091526044820152606401610b3c565b600081815260046020526040902054600160a01b900465ffffffffffff1615612378578061235a82611018565b6040516331b75e4d60e01b8152610b3c9291906000906004016144af565b6000612382611005565b61238a611565565b65ffffffffffff1661239c9190614555565b905060006123b760085463ffffffff600160301b9091041690565b600084815260046020526040902080546001600160a01b0319166001600160a01b0387161781559091506123ea83612081565b815465ffffffffffff91909116600160a01b0265ffffffffffff60a01b19909116178155612417826131e1565b815463ffffffff91909116600160d01b0263ffffffff60d01b1990911617815588517f7d84a6263ae0d98d3329bd7b46bb4e8d6f98cd35a7adb45c274c8b7fd5ebd5e090859087908c908c906001600160401b0381111561247a5761247a613808565b6040519080825280602002602001820160405280156124ad57816020015b60608152602001906001900390816124985790505b508c896124ba8a82614555565b8e6040516124d099989796959493929190614568565b60405180910390a150505095945050505050565b6060610ac47f00000000000000000000000000000000000000000000000000000000000000006000613212565b6060610ac47f00000000000000000000000000000000000000000000000000000000000000006001613212565b6000610ac443612081565b6000612553611b59565b604051630748d63560e31b81526001600160a01b038681166004830152602482018690529190911690633a46b1a890604401602060405180830381865afa1580156125a2573d6000803e3d6000fd5b505050506040513d601f19601f82011682018060405250810190611157919061463f565b805460009080156125f6576125e08361213c600184614343565b54600160301b90046001600160d01b0316611969565b60009392505050565b600b54604080516001600160a01b03928316815291831660208301527f08f74ea46ef7894f65eabfb5e6e695de773a000b47c529ab559178069b226401910160405180910390a1600b80546001600160a01b0319166001600160a01b0392909216919091179055565b60608261267d57612678826132bd565b610b15565b5080610b15565b8063ffffffff166000036126ae5760405163f1cfbf0560e01b815260006004820152602401610b3c565b6008546040805163ffffffff600160301b9093048316815291831660208301527f7e3f7f0708a84de9203036abaa450dccc85ad5ff52f78c170f3edb55cf5e8828910160405180910390a16008805463ffffffff909216600160301b0269ffffffff00000000000019909216919091179055565b60075460408051918252602082018390527fccb45da8d5717e6c4544694297c4ba5cf151d455c9bb0ed4fc7a38411bc05461910160405180910390a1600755565b60006064612770836112ec565b612778611b59565b6001600160a01b0316638e539e8c856040518263ffffffff1660e01b81526004016127a591815260200190565b602060405180830381865afa1580156127c2573d6000803e3d6000fd5b505050506040513d601f19601f820116820180604052508101906127e6919061463f565b6127f09190614658565b610b159190614685565b80546000906001600160801b0380821691600160801b9004168103612832576040516375e52f4f60e01b815260040160405180910390fd5b6001600160801b038181166000908152600185810160205260408220805492905585546001600160801b0319169301909116919091179092555090565b60006001600160d01b038211156120b4576040516306dfcc6560e41b815260d0600482015260248101839052604401610b3c565b6000806128b18585856132e6565b915091505b935093915050565b600080600b60009054906101000a90046001600160a01b03166001600160a01b031663f27a0c926040518163ffffffff1660e01b8152600401602060405180830381865afa158015612914573d6000803e3d6000fd5b505050506040513d601f19601f82011682018060405250810190612938919061463f565b905060003060601b6001600160601b0319168418600b5460405163b1c5f42760e01b81529192506001600160a01b03169063b1c5f42790612986908a908a908a9060009088906004016146a7565b602060405180830381865afa1580156129a3573d6000803e3d6000fd5b505050506040513d601f19601f820116820180604052508101906129c7919061463f565b6000898152600c602052604080822092909255600b5491516308f2a0bb60e41b81526001600160a01b0390921691638f2a0bb091612a12918b918b918b919088908a906004016146f5565b600060405180830381600087803b158015612a2c57600080fd5b505af1158015612a40573d6000803e3d6000fd5b505050506114688242612a539190614555565b612081565b600b546001600160a01b031663e38335e53486868660003060601b6001600160601b03191688186040518763ffffffff1660e01b8152600401612a9f9594939291906146a7565b6000604051808303818588803b158015612ab857600080fd5b505af1158015612acc573d6000803e3d6000fd5b50505060009687525050600c602052505060408320929092555050565b6000818152600460205260408120805460ff600160f01b8204811691600160f81b9004168115612b1e57506007949350505050565b8015612b2f57506002949350505050565b6000612b3a86610fe4565b905080600003612b6057604051636ad0607560e01b815260048101879052602401610b3c565b6000612b6a611565565b65ffffffffffff169050808210612b88575060009695505050505050565b6000612b93886117b2565b9050818110612baa57506001979650505050505050565b612bb388613460565b1580612bd357506000888152600960205260409020805460019091015411155b15612be657506003979650505050505050565b60008881526004602052604090206001015465ffffffffffff16600003612c1557506004979650505050505050565b506005979650505050505050565b600080612c3286868686613497565b6000818152600c60205260409020549091508015610e6657600b5460405163c4d252f560e01b8152600481018390526001600160a01b039091169063c4d252f590602401600060405180830381600087803b158015612c9057600080fd5b505af1158015612ca4573d6000803e3d6000fd5b5050506000838152600c602052604081205550509050949350505050565b6000306001600160a01b037f000000000000000000000000000000000000000000000000000000000000000016148015612d1b57507f000000000000000000000000000000000000000000000000000000000000000046145b15612d4557507f000000000000000000000000000000000000000000000000000000000000000090565b610ac4604080517f8b73c3c69bb8fe3d512ecc4cf759cc79239f7b179b0ffacaa9a75d522b39400f60208201527f0000000000000000000000000000000000000000000000000000000000000000918101919091527f000000000000000000000000000000000000000000000000000000000000000060608201524660808201523060a082015260009060c00160405160208183030381529060405280519060200120905090565b60008060008351604103612e275760208401516040850151606086015160001a612e1988828585613548565b955095509550505050612e33565b50508151600091506002905b9250925092565b6000806000856001600160a01b03168585604051602401612e5c92919061474d565b60408051601f198184030181529181526020820180516001600160e01b0316630b135d3f60e11b17905251612e919190614766565b600060405180830381855afa9150503d8060008114612ecc576040519150601f19603f3d011682016040523d82523d6000602084013e612ed1565b606091505b5091509150818015612ee557506020815110155b801561108857508051630b135d3f60e11b90612f0a908301602090810190840161463f565b149695505050505050565b60008581526009602090815260408083206001600160a01b0388168452600381019092529091205460ff1615612f6057846040516371c6af4960e01b8152600401610b3c91906137df565b6001600160a01b03851660009081526003820160205260409020805460ff1916600117905560ff8416612fac5782816000016000828254612fa19190614555565b9091555061192f9050565b60001960ff851601612fcc5782816001016000828254612fa19190614555565b60011960ff851601612fec5782816002016000828254612fa19190614555565b6040516303599be160e11b815260040160405180910390fd5b60008160000361301757506000919050565b600060016130248461360d565b901c6001901b9050600181848161303d5761303d61466f565b048201901c905060018184816130555761305561466f565b048201901c9050600181848161306d5761306d61466f565b048201901c905060018184816130855761308561466f565b048201901c9050600181848161309d5761309d61466f565b048201901c905060018184816130b5576130b561466f565b048201901c905060018184816130cd576130cd61466f565b048201901c9050611969818285816130e7576130e761466f565b046136a1565b60005b8183101561314757600061310484846136b7565b60008781526020902090915065ffffffffffff86169082015465ffffffffffff16111561313357809250613141565b61313e816001614555565b93505b506130f0565b509392505050565b60008060f883901c602f8111801561316a5750603a8160ff16105b1561317f57600194602f199091019350915050565b8060ff166040108015613195575060478160ff16105b156131aa576001946036199091019350915050565b8060ff1660601080156131c0575060678160ff16105b156131d5576001946056199091019350915050565b50600093849350915050565b600063ffffffff8211156120b4576040516306dfcc6560e41b81526020600482015260248101839052604401610b3c565b606060ff831461322c57613225836136d2565b9050610b15565b8180546132389061425d565b80601f01602080910402602001604051908101604052809291908181526020018280546132649061425d565b80156132b15780601f10613286576101008083540402835291602001916132b1565b820191906000526020600020905b81548152906001019060200180831161329457829003601f168201915b50505050509050610b15565b8051156132cd5780518082602001fd5b604051630a12f52160e11b815260040160405180910390fd5b8254600090819080156134055760006133048761213c600185614343565b60408051808201909152905465ffffffffffff808216808452600160301b9092046001600160d01b03166020840152919250908716101561335857604051632520601d60e01b815260040160405180910390fd5b805165ffffffffffff8088169116036133a4578461337b8861213c600186614343565b80546001600160d01b0392909216600160301b0265ffffffffffff9092169190911790556133f5565b6040805180820190915265ffffffffffff80881682526001600160d01b0380881660208085019182528b54600181018d5560008d81529190912094519151909216600160301b029216919091179101555b6020015192508391506128b69050565b50506040805180820190915265ffffffffffff80851682526001600160d01b0380851660208085019182528854600181018a5560008a815291822095519251909316600160301b0291909316179201919091559050816128b6565b6000818152600960205260408120600281015460018201546134829190614555565b61348e610a9685610fe4565b11159392505050565b6000806134a686868686611875565b90506134f4816134b66007611c8d565b6134c06006611c8d565b6134ca6002611c8d565b60016134d7600782614782565b6134e290600261487f565b6134ec9190614343565b181818611cb0565b506000818152600460205260409081902080546001600160f81b0316600160f81b179055517f789cf55be980739dad1d0699b93b58e806b51c9d96619bfa8fe0a28abaa7b30c90610fd39083815260200190565b600080806fa2a8918ca85bafe22016d0b997e4df60600160ff1b038411156135795750600091506003905082613603565b604080516000808252602082018084528a905260ff891692820192909252606081018790526080810186905260019060a0016020604051602081039080840390855afa1580156135cd573d6000803e3d6000fd5b5050604051601f1901519150506001600160a01b0381166135f957506000925060019150829050613603565b9250600091508190505b9450945094915050565b600080608083901c1561362257608092831c92015b604083901c1561363457604092831c92015b602083901c1561364657602092831c92015b601083901c1561365857601092831c92015b600883901c1561366a57600892831c92015b600483901c1561367c57600492831c92015b600283901c1561368e57600292831c92015b600183901c15610b155760010192915050565b60008183106136b05781611969565b5090919050565b60006136c66002848418614685565b61196990848416614555565b606060006136df83613711565b604080516020808252818301909252919250600091906020820181803683375050509182525060208101929092525090565b600060ff8216601f811115610b1557604051632cd44ac360e21b815260040160405180910390fd5b60006020828403121561374b57600080fd5b81356001600160e01b03198116811461196957600080fd5b60006020828403121561377557600080fd5b5035919050565b60005b8381101561379757818101518382015260200161377f565b50506000910152565b600081518084526137b881602086016020860161377c565b601f01601f19169290920160200192915050565b60208152600061196960208301846137a0565b6001600160a01b0391909116815260200190565b6001600160a01b0381168114610cc957600080fd5b634e487b7160e01b600052604160045260246000fd5b604051601f8201601f191681016001600160401b038111828210171561384657613846613808565b604052919050565b60006001600160401b0382111561386757613867613808565b50601f01601f191660200190565b600082601f83011261388657600080fd5b81356138996138948261384e565b61381e565b8181528460208386010111156138ae57600080fd5b816020850160208301376000918101602001919091529392505050565b600080600080608085870312156138e157600080fd5b84356138ec816137f3565b935060208501356138fc816137f3565b92506040850135915060608501356001600160401b0381111561391e57600080fd5b61392a87828801613875565b91505092959194509250565b60006001600160401b0382111561394f5761394f613808565b5060051b60200190565b600082601f83011261396a57600080fd5b8135602061397a61389483613936565b82815260059290921b8401810191818101908684111561399957600080fd5b8286015b848110156139bd5780356139b0816137f3565b835291830191830161399d565b509695505050505050565b600082601f8301126139d957600080fd5b813560206139e961389483613936565b82815260059290921b84018101918181019086841115613a0857600080fd5b8286015b848110156139bd5780358352918301918301613a0c565b600082601f830112613a3457600080fd5b81356020613a4461389483613936565b82815260059290921b84018101918181019086841115613a6357600080fd5b8286015b848110156139bd5780356001600160401b03811115613a865760008081fd5b613a948986838b0101613875565b845250918301918301613a67565b60008060008060808587031215613ab857600080fd5b84356001600160401b0380821115613acf57600080fd5b613adb88838901613959565b95506020870135915080821115613af157600080fd5b613afd888389016139c8565b94506040870135915080821115613b1357600080fd5b50613b2087828801613a23565b949793965093946060013593505050565b634e487b7160e01b600052602160045260246000fd5b60088110613b6557634e487b7160e01b600052602160045260246000fd5b9052565b60208101610b158284613b47565b60008060408385031215613b8a57600080fd5b823591506020830135613b9c816137f3565b809150509250929050565b803560ff81168114610cb357600080fd5b60008060408385031215613bcb57600080fd5b82359150613bdb60208401613ba7565b90509250929050565b60008083601f840112613bf657600080fd5b5081356001600160401b03811115613c0d57600080fd5b602083019150836020828501011115613c2557600080fd5b9250929050565b600080600080600080600060c0888a031215613c4757600080fd5b87359650613c5760208901613ba7565b95506040880135613c67816137f3565b945060608801356001600160401b0380821115613c8357600080fd5b613c8f8b838c01613be4565b909650945060808a0135915080821115613ca857600080fd5b613cb48b838c01613875565b935060a08a0135915080821115613cca57600080fd5b50613cd78a828b01613875565b91505092959891949750929550565b600080600080600060808688031215613cfe57600080fd5b85359450613d0e60208701613ba7565b935060408601356001600160401b0380821115613d2a57600080fd5b613d3689838a01613be4565b90955093506060880135915080821115613d4f57600080fd5b50613d5c88828901613875565b9150509295509295909350565b65ffffffffffff81168114610cc957600080fd5b600060208284031215613d8f57600080fd5b813561196981613d69565b60008060008060608587031215613db057600080fd5b84359350613dc060208601613ba7565b925060408501356001600160401b03811115613ddb57600080fd5b613de787828801613be4565b95989497509550505050565b60008060008060808587031215613e0957600080fd5b84356001600160401b0380821115613e2057600080fd5b613e2c88838901613959565b95506020870135915080821115613e4257600080fd5b613e4e888389016139c8565b94506040870135915080821115613e6457600080fd5b613e7088838901613a23565b93506060870135915080821115613e8657600080fd5b5061392a87828801613875565b600060208284031215613ea557600080fd5b8135611969816137f3565b600081518084526020808501945080840160005b83811015613ee057815187529582019590820190600101613ec4565b509495945050505050565b60ff60f81b8816815260e060208201526000613f0a60e08301896137a0565b8281036040840152613f1c81896137a0565b606084018890526001600160a01b038716608085015260a0840186905283810360c08501529050613f4d8185613eb0565b9a9950505050505050505050565b60008060008060808587031215613f7157600080fd5b84359350613f8160208601613ba7565b92506040850135613f91816137f3565b915060608501356001600160401b0381111561391e57600080fd5b60008060008060808587031215613fc257600080fd5b8435613fcd816137f3565b9350602085013592506040850135915060608501356001600160401b0381111561391e57600080fd5b60008060006060848603121561400b57600080fd5b8335614016816137f3565b92506020840135915060408401356001600160401b0381111561403857600080fd5b61404486828701613875565b9150509250925092565b600080600080600060a0868803121561406657600080fd5b8535614071816137f3565b94506020860135614081816137f3565b935060408601356001600160401b038082111561409d57600080fd5b6140a989838a016139c8565b945060608801359150808211156140bf57600080fd5b6140cb89838a016139c8565b93506080880135915080821115613d4f57600080fd5b600080600080606085870312156140f757600080fd5b8435614102816137f3565b93506020850135925060408501356001600160401b03811115613ddb57600080fd5b6000806040838503121561413757600080fd5b50508035926020909101359150565b60006020828403121561415857600080fd5b813563ffffffff8116811461196957600080fd5b6000806040838503121561417f57600080fd5b823561418a816137f3565b946020939093013593505050565b600080600080600060a086880312156141b057600080fd5b85356141bb816137f3565b945060208601356141cb816137f3565b9350604086013592506060860135915060808601356001600160401b038111156141f457600080fd5b613d5c88828901613875565b60208082526027908201527f476f7665726e6f72436f6e74726163743a2063616c6c6572206973206e6f74206040820152667468652044414f60c81b606082015260800190565b634e487b7160e01b600052603260045260246000fd5b600181811c9082168061427157607f821691505b60208210810361429157634e487b7160e01b600052602260045260246000fd5b50919050565b634e487b7160e01b600052601160045260246000fd5b6000600182016142bf576142bf614297565b5060010190565b6000602082840312156142d857600080fd5b81516001600160401b038111156142ee57600080fd5b8201601f810184136142ff57600080fd5b805161430d6138948261384e565b81815285602083850101111561432257600080fd5b611ed082602083016020860161377c565b8183823760009101908152919050565b81810381811115610b1557610b15614297565b65ffffffffffff82811682821603908082111561437557614375614297565b5092915050565b6001600160a01b039390931683526020830191909152604082015260600190565b6000602082840312156143af57600080fd5b815161196981613d69565b65ffffffffffff81811683821601908082111561437557614375614297565b600081518084526020808501945080840160005b83811015613ee05781516001600160a01b0316875295820195908201906001016143ed565b6000815180845260208085019450848260051b860182860160005b858110156144575783830389526144458383516137a0565b9885019892509084019060010161442d565b5090979650505050505050565b60808152600061447760808301876143d9565b82810360208401526144898187613eb0565b9050828103604084015261449d8186614412565b91505082606083015295945050505050565b838152606081016144c36020830185613b47565b826040830152949350505050565b6000602082840312156144e357600080fd5b8151801515811461196957600080fd5b84815260ff8416602082015282604082015260806060820152600061108860808301846137a0565b85815260ff8516602082015283604082015260a06060820152600061454360a08301856137a0565b828103608084015261146881856137a0565b80820180821115610b1557610b15614297565b60006101208b8352602060018060a01b038c16818501528160408501526145918285018c6143d9565b915083820360608501526145a5828b613eb0565b915083820360808501528189518084528284019150828160051b850101838c0160005b838110156145f657601f198784030185526145e48383516137a0565b948601949250908501906001016145c8565b505086810360a088015261460a818c614412565b9450505050508560c08401528460e084015282810361010084015261462f81856137a0565b9c9b505050505050505050505050565b60006020828403121561465157600080fd5b5051919050565b8082028115828204841417610b1557610b15614297565b634e487b7160e01b600052601260045260246000fd5b6000826146a257634e487b7160e01b600052601260045260246000fd5b500490565b60a0815260006146ba60a08301886143d9565b82810360208401526146cc8188613eb0565b905082810360408401526146e08187614412565b60608401959095525050608001529392505050565b60c08152600061470860c08301896143d9565b828103602084015261471a8189613eb0565b9050828103604084015261472e8188614412565b60608401969096525050608081019290925260a0909101529392505050565b82815260406020820152600061115760408301846137a0565b6000825161477881846020870161377c565b9190910192915050565b60ff8181168382160190811115610b1557610b15614297565b600181815b808511156147d65781600019048211156147bc576147bc614297565b808516156147c957918102915b93841c93908002906147a0565b509250929050565b6000826147ed57506001610b15565b816147fa57506000610b15565b8160018114614810576002811461481a57614836565b6001915050610b15565b60ff84111561482b5761482b614297565b50506001821b610b15565b5060208310610133831016604e8410600b8410161715614859575081810a610b15565b614863838361479b565b806000190482111561487757614877614297565b029392505050565b600061196960ff8416836147de56fea26469706673582212208507f98b53411a697d2d47d6e61deb079941182dc0b32ed2fd1fb5aeeb45cde864736f6c63430008140033",
  "linkReferences": {},
  "deployedLinkReferences": {}
}