{
  "_format": "hh-sol-artifact-1",
  "contractName": "GovernorContract",
  "sourceName": "contracts/Governance_standard/GovernorContract.sol",
  "abi": [
    {
      "inputs": [
        {
          "internalType": "contract IVotes",
          "name": "_token",
          "type": "address"
        },
        {
          "internalType": "contract TimelockController",
          "name": "_timelock",
          "type": "address"
        },
        {
          "internalType": "uint256",
          "name": "_votingDelay",
          "type": "uint256"
        },
        {
          "internalType": "uint256",
          "name": "_votingPeriod",
          "type": "uint256"
        },
        {
          "internalType": "uint256",
          "name": "_quorumPercentage",
          "type": "uint256"
        },
        {
          "internalType": "address",
          "name": "escrowAddress",
          "type": "address"
        }
      ],
      "stateMutability": "nonpayable",
      "type": "constructor"
    },
    {
      "inputs": [],
      "name": "Empty",
      "type": "error"
    },
    {
      "inputs": [],
      "name": "InvalidShortString",
      "type": "error"
    },
    {
      "inputs": [
        {
          "internalType": "string",
          "name": "str",
          "type": "string"
        }
      ],
      "name": "StringTooLong",
      "type": "error"
    },
    {
      "anonymous": false,
      "inputs": [],
      "name": "EIP712DomainChanged",
      "type": "event"
    },
    {
      "anonymous": false,
      "inputs": [
        {
          "indexed": false,
          "internalType": "uint256",
          "name": "proposalId",
          "type": "uint256"
        }
      ],
      "name": "ProposalCanceled",
      "type": "event"
    },
    {
      "anonymous": false,
      "inputs": [
        {
          "indexed": false,
          "internalType": "uint256",
          "name": "proposalId",
          "type": "uint256"
        },
        {
          "indexed": false,
          "internalType": "address",
          "name": "proposer",
          "type": "address"
        },
        {
          "indexed": false,
          "internalType": "address[]",
          "name": "targets",
          "type": "address[]"
        },
        {
          "indexed": false,
          "internalType": "uint256[]",
          "name": "values",
          "type": "uint256[]"
        },
        {
          "indexed": false,
          "internalType": "string[]",
          "name": "signatures",
          "type": "string[]"
        },
        {
          "indexed": false,
          "internalType": "bytes[]",
          "name": "calldatas",
          "type": "bytes[]"
        },
        {
          "indexed": false,
          "internalType": "uint256",
          "name": "voteStart",
          "type": "uint256"
        },
        {
          "indexed": false,
          "internalType": "uint256",
          "name": "voteEnd",
          "type": "uint256"
        },
        {
          "indexed": false,
          "internalType": "string",
          "name": "description",
          "type": "string"
        }
      ],
      "name": "ProposalCreated",
      "type": "event"
    },
    {
      "anonymous": false,
      "inputs": [
        {
          "indexed": false,
          "internalType": "uint256",
          "name": "proposalId",
          "type": "uint256"
        }
      ],
      "name": "ProposalExecuted",
      "type": "event"
    },
    {
      "anonymous": false,
      "inputs": [
        {
          "indexed": false,
          "internalType": "uint256",
          "name": "proposalId",
          "type": "uint256"
        },
        {
          "indexed": false,
          "internalType": "uint256",
          "name": "eta",
          "type": "uint256"
        }
      ],
      "name": "ProposalQueued",
      "type": "event"
    },
    {
      "anonymous": false,
      "inputs": [
        {
          "indexed": false,
          "internalType": "uint256",
          "name": "oldProposalThreshold",
          "type": "uint256"
        },
        {
          "indexed": false,
          "internalType": "uint256",
          "name": "newProposalThreshold",
          "type": "uint256"
        }
      ],
      "name": "ProposalThresholdSet",
      "type": "event"
    },
    {
      "anonymous": false,
      "inputs": [
        {
          "indexed": false,
          "internalType": "uint256",
          "name": "oldQuorumNumerator",
          "type": "uint256"
        },
        {
          "indexed": false,
          "internalType": "uint256",
          "name": "newQuorumNumerator",
          "type": "uint256"
        }
      ],
      "name": "QuorumNumeratorUpdated",
      "type": "event"
    },
    {
      "anonymous": false,
      "inputs": [
        {
          "indexed": false,
          "internalType": "address",
          "name": "oldTimelock",
          "type": "address"
        },
        {
          "indexed": false,
          "internalType": "address",
          "name": "newTimelock",
          "type": "address"
        }
      ],
      "name": "TimelockChange",
      "type": "event"
    },
    {
      "anonymous": false,
      "inputs": [
        {
          "indexed": true,
          "internalType": "address",
          "name": "voter",
          "type": "address"
        },
        {
          "indexed": false,
          "internalType": "uint256",
          "name": "proposalId",
          "type": "uint256"
        },
        {
          "indexed": false,
          "internalType": "uint8",
          "name": "support",
          "type": "uint8"
        },
        {
          "indexed": false,
          "internalType": "uint256",
          "name": "weight",
          "type": "uint256"
        },
        {
          "indexed": false,
          "internalType": "string",
          "name": "reason",
          "type": "string"
        }
      ],
      "name": "VoteCast",
      "type": "event"
    },
    {
      "anonymous": false,
      "inputs": [
        {
          "indexed": true,
          "internalType": "address",
          "name": "voter",
          "type": "address"
        },
        {
          "indexed": false,
          "internalType": "uint256",
          "name": "proposalId",
          "type": "uint256"
        },
        {
          "indexed": false,
          "internalType": "uint8",
          "name": "support",
          "type": "uint8"
        },
        {
          "indexed": false,
          "internalType": "uint256",
          "name": "weight",
          "type": "uint256"
        },
        {
          "indexed": false,
          "internalType": "string",
          "name": "reason",
          "type": "string"
        },
        {
          "indexed": false,
          "internalType": "bytes",
          "name": "params",
          "type": "bytes"
        }
      ],
      "name": "VoteCastWithParams",
      "type": "event"
    },
    {
      "anonymous": false,
      "inputs": [
        {
          "indexed": false,
          "internalType": "uint256",
          "name": "oldVotingDelay",
          "type": "uint256"
        },
        {
          "indexed": false,
          "internalType": "uint256",
          "name": "newVotingDelay",
          "type": "uint256"
        }
      ],
      "name": "VotingDelaySet",
      "type": "event"
    },
    {
      "anonymous": false,
      "inputs": [
        {
          "indexed": false,
          "internalType": "uint256",
          "name": "oldVotingPeriod",
          "type": "uint256"
        },
        {
          "indexed": false,
          "internalType": "uint256",
          "name": "newVotingPeriod",
          "type": "uint256"
        }
      ],
      "name": "VotingPeriodSet",
      "type": "event"
    },
    {
      "inputs": [],
      "name": "BALLOT_TYPEHASH",
      "outputs": [
        {
          "internalType": "bytes32",
          "name": "",
          "type": "bytes32"
        }
      ],
      "stateMutability": "view",
      "type": "function"
    },
    {
      "inputs": [],
      "name": "CLOCK_MODE",
      "outputs": [
        {
          "internalType": "string",
          "name": "",
          "type": "string"
        }
      ],
      "stateMutability": "view",
      "type": "function"
    },
    {
      "inputs": [],
      "name": "COUNTING_MODE",
      "outputs": [
        {
          "internalType": "string",
          "name": "",
          "type": "string"
        }
      ],
      "stateMutability": "pure",
      "type": "function"
    },
    {
      "inputs": [],
      "name": "EXTENDED_BALLOT_TYPEHASH",
      "outputs": [
        {
          "internalType": "bytes32",
          "name": "",
          "type": "bytes32"
        }
      ],
      "stateMutability": "view",
      "type": "function"
    },
    {
      "inputs": [
        {
          "internalType": "uint256",
          "name": "campaignId",
          "type": "uint256"
        }
      ],
      "name": "approveCampaign",
      "outputs": [
        {
          "internalType": "uint256",
          "name": "",
          "type": "uint256"
        }
      ],
      "stateMutability": "nonpayable",
      "type": "function"
    },
    {
      "inputs": [
        {
          "internalType": "address[]",
          "name": "targets",
          "type": "address[]"
        },
        {
          "internalType": "uint256[]",
          "name": "values",
          "type": "uint256[]"
        },
        {
          "internalType": "bytes[]",
          "name": "calldatas",
          "type": "bytes[]"
        },
        {
          "internalType": "bytes32",
          "name": "descriptionHash",
          "type": "bytes32"
        }
      ],
      "name": "cancel",
      "outputs": [
        {
          "internalType": "uint256",
          "name": "",
          "type": "uint256"
        }
      ],
      "stateMutability": "nonpayable",
      "type": "function"
    },
    {
      "inputs": [
        {
          "internalType": "uint256",
          "name": "proposalId",
          "type": "uint256"
        },
        {
          "internalType": "uint8",
          "name": "support",
          "type": "uint8"
        }
      ],
      "name": "castVote",
      "outputs": [
        {
          "internalType": "uint256",
          "name": "",
          "type": "uint256"
        }
      ],
      "stateMutability": "nonpayable",
      "type": "function"
    },
    {
      "inputs": [
        {
          "internalType": "uint256",
          "name": "proposalId",
          "type": "uint256"
        },
        {
          "internalType": "uint8",
          "name": "support",
          "type": "uint8"
        },
        {
          "internalType": "uint8",
          "name": "v",
          "type": "uint8"
        },
        {
          "internalType": "bytes32",
          "name": "r",
          "type": "bytes32"
        },
        {
          "internalType": "bytes32",
          "name": "s",
          "type": "bytes32"
        }
      ],
      "name": "castVoteBySig",
      "outputs": [
        {
          "internalType": "uint256",
          "name": "",
          "type": "uint256"
        }
      ],
      "stateMutability": "nonpayable",
      "type": "function"
    },
    {
      "inputs": [
        {
          "internalType": "uint256",
          "name": "proposalId",
          "type": "uint256"
        },
        {
          "internalType": "uint8",
          "name": "support",
          "type": "uint8"
        },
        {
          "internalType": "string",
          "name": "reason",
          "type": "string"
        }
      ],
      "name": "castVoteWithReason",
      "outputs": [
        {
          "internalType": "uint256",
          "name": "",
          "type": "uint256"
        }
      ],
      "stateMutability": "nonpayable",
      "type": "function"
    },
    {
      "inputs": [
        {
          "internalType": "uint256",
          "name": "proposalId",
          "type": "uint256"
        },
        {
          "internalType": "uint8",
          "name": "support",
          "type": "uint8"
        },
        {
          "internalType": "string",
          "name": "reason",
          "type": "string"
        },
        {
          "internalType": "bytes",
          "name": "params",
          "type": "bytes"
        }
      ],
      "name": "castVoteWithReasonAndParams",
      "outputs": [
        {
          "internalType": "uint256",
          "name": "",
          "type": "uint256"
        }
      ],
      "stateMutability": "nonpayable",
      "type": "function"
    },
    {
      "inputs": [
        {
          "internalType": "uint256",
          "name": "proposalId",
          "type": "uint256"
        },
        {
          "internalType": "uint8",
          "name": "support",
          "type": "uint8"
        },
        {
          "internalType": "string",
          "name": "reason",
          "type": "string"
        },
        {
          "internalType": "bytes",
          "name": "params",
          "type": "bytes"
        },
        {
          "internalType": "uint8",
          "name": "v",
          "type": "uint8"
        },
        {
          "internalType": "bytes32",
          "name": "r",
          "type": "bytes32"
        },
        {
          "internalType": "bytes32",
          "name": "s",
          "type": "bytes32"
        }
      ],
      "name": "castVoteWithReasonAndParamsBySig",
      "outputs": [
        {
          "internalType": "uint256",
          "name": "",
          "type": "uint256"
        }
      ],
      "stateMutability": "nonpayable",
      "type": "function"
    },
    {
      "inputs": [],
      "name": "clock",
      "outputs": [
        {
          "internalType": "uint48",
          "name": "",
          "type": "uint48"
        }
      ],
      "stateMutability": "view",
      "type": "function"
    },
    {
      "inputs": [],
      "name": "eip712Domain",
      "outputs": [
        {
          "internalType": "bytes1",
          "name": "fields",
          "type": "bytes1"
        },
        {
          "internalType": "string",
          "name": "name",
          "type": "string"
        },
        {
          "internalType": "string",
          "name": "version",
          "type": "string"
        },
        {
          "internalType": "uint256",
          "name": "chainId",
          "type": "uint256"
        },
        {
          "internalType": "address",
          "name": "verifyingContract",
          "type": "address"
        },
        {
          "internalType": "bytes32",
          "name": "salt",
          "type": "bytes32"
        },
        {
          "internalType": "uint256[]",
          "name": "extensions",
          "type": "uint256[]"
        }
      ],
      "stateMutability": "view",
      "type": "function"
    },
    {
      "inputs": [],
      "name": "escrow",
      "outputs": [
        {
          "internalType": "contract Escrow",
          "name": "",
          "type": "address"
        }
      ],
      "stateMutability": "view",
      "type": "function"
    },
    {
      "inputs": [
        {
          "internalType": "address[]",
          "name": "targets",
          "type": "address[]"
        },
        {
          "internalType": "uint256[]",
          "name": "values",
          "type": "uint256[]"
        },
        {
          "internalType": "bytes[]",
          "name": "calldatas",
          "type": "bytes[]"
        },
        {
          "internalType": "bytes32",
          "name": "descriptionHash",
          "type": "bytes32"
        }
      ],
      "name": "execute",
      "outputs": [
        {
          "internalType": "uint256",
          "name": "",
          "type": "uint256"
        }
      ],
      "stateMutability": "payable",
      "type": "function"
    },
    {
      "inputs": [
        {
          "internalType": "address",
          "name": "account",
          "type": "address"
        },
        {
          "internalType": "uint256",
          "name": "timepoint",
          "type": "uint256"
        }
      ],
      "name": "getVotes",
      "outputs": [
        {
          "internalType": "uint256",
          "name": "",
          "type": "uint256"
        }
      ],
      "stateMutability": "view",
      "type": "function"
    },
    {
      "inputs": [
        {
          "internalType": "address",
          "name": "account",
          "type": "address"
        },
        {
          "internalType": "uint256",
          "name": "timepoint",
          "type": "uint256"
        },
        {
          "internalType": "bytes",
          "name": "params",
          "type": "bytes"
        }
      ],
      "name": "getVotesWithParams",
      "outputs": [
        {
          "internalType": "uint256",
          "name": "",
          "type": "uint256"
        }
      ],
      "stateMutability": "view",
      "type": "function"
    },
    {
      "inputs": [
        {
          "internalType": "uint256",
          "name": "proposalId",
          "type": "uint256"
        },
        {
          "internalType": "address",
          "name": "account",
          "type": "address"
        }
      ],
      "name": "hasVoted",
      "outputs": [
        {
          "internalType": "bool",
          "name": "",
          "type": "bool"
        }
      ],
      "stateMutability": "view",
      "type": "function"
    },
    {
      "inputs": [
        {
          "internalType": "address[]",
          "name": "targets",
          "type": "address[]"
        },
        {
          "internalType": "uint256[]",
          "name": "values",
          "type": "uint256[]"
        },
        {
          "internalType": "bytes[]",
          "name": "calldatas",
          "type": "bytes[]"
        },
        {
          "internalType": "bytes32",
          "name": "descriptionHash",
          "type": "bytes32"
        }
      ],
      "name": "hashProposal",
      "outputs": [
        {
          "internalType": "uint256",
          "name": "",
          "type": "uint256"
        }
      ],
      "stateMutability": "pure",
      "type": "function"
    },
    {
      "inputs": [],
      "name": "name",
      "outputs": [
        {
          "internalType": "string",
          "name": "",
          "type": "string"
        }
      ],
      "stateMutability": "view",
      "type": "function"
    },
    {
      "inputs": [
        {
          "internalType": "address",
          "name": "",
          "type": "address"
        },
        {
          "internalType": "address",
          "name": "",
          "type": "address"
        },
        {
          "internalType": "uint256[]",
          "name": "",
          "type": "uint256[]"
        },
        {
          "internalType": "uint256[]",
          "name": "",
          "type": "uint256[]"
        },
        {
          "internalType": "bytes",
          "name": "",
          "type": "bytes"
        }
      ],
      "name": "onERC1155BatchReceived",
      "outputs": [
        {
          "internalType": "bytes4",
          "name": "",
          "type": "bytes4"
        }
      ],
      "stateMutability": "nonpayable",
      "type": "function"
    },
    {
      "inputs": [
        {
          "internalType": "address",
          "name": "",
          "type": "address"
        },
        {
          "internalType": "address",
          "name": "",
          "type": "address"
        },
        {
          "internalType": "uint256",
          "name": "",
          "type": "uint256"
        },
        {
          "internalType": "uint256",
          "name": "",
          "type": "uint256"
        },
        {
          "internalType": "bytes",
          "name": "",
          "type": "bytes"
        }
      ],
      "name": "onERC1155Received",
      "outputs": [
        {
          "internalType": "bytes4",
          "name": "",
          "type": "bytes4"
        }
      ],
      "stateMutability": "nonpayable",
      "type": "function"
    },
    {
      "inputs": [
        {
          "internalType": "address",
          "name": "",
          "type": "address"
        },
        {
          "internalType": "address",
          "name": "",
          "type": "address"
        },
        {
          "internalType": "uint256",
          "name": "",
          "type": "uint256"
        },
        {
          "internalType": "bytes",
          "name": "",
          "type": "bytes"
        }
      ],
      "name": "onERC721Received",
      "outputs": [
        {
          "internalType": "bytes4",
          "name": "",
          "type": "bytes4"
        }
      ],
      "stateMutability": "nonpayable",
      "type": "function"
    },
    {
      "inputs": [
        {
          "internalType": "uint256",
          "name": "proposalId",
          "type": "uint256"
        }
      ],
      "name": "proposalDeadline",
      "outputs": [
        {
          "internalType": "uint256",
          "name": "",
          "type": "uint256"
        }
      ],
      "stateMutability": "view",
      "type": "function"
    },
    {
      "inputs": [
        {
          "internalType": "uint256",
          "name": "proposalId",
          "type": "uint256"
        }
      ],
      "name": "proposalEta",
      "outputs": [
        {
          "internalType": "uint256",
          "name": "",
          "type": "uint256"
        }
      ],
      "stateMutability": "view",
      "type": "function"
    },
    {
      "inputs": [
        {
          "internalType": "uint256",
          "name": "proposalId",
          "type": "uint256"
        }
      ],
      "name": "proposalProposer",
      "outputs": [
        {
          "internalType": "address",
          "name": "",
          "type": "address"
        }
      ],
      "stateMutability": "view",
      "type": "function"
    },
    {
      "inputs": [
        {
          "internalType": "uint256",
          "name": "proposalId",
          "type": "uint256"
        }
      ],
      "name": "proposalSnapshot",
      "outputs": [
        {
          "internalType": "uint256",
          "name": "",
          "type": "uint256"
        }
      ],
      "stateMutability": "view",
      "type": "function"
    },
    {
      "inputs": [],
      "name": "proposalThreshold",
      "outputs": [
        {
          "internalType": "uint256",
          "name": "",
          "type": "uint256"
        }
      ],
      "stateMutability": "view",
      "type": "function"
    },
    {
      "inputs": [
        {
          "internalType": "uint256",
          "name": "proposalId",
          "type": "uint256"
        }
      ],
      "name": "proposalVotes",
      "outputs": [
        {
          "internalType": "uint256",
          "name": "againstVotes",
          "type": "uint256"
        },
        {
          "internalType": "uint256",
          "name": "forVotes",
          "type": "uint256"
        },
        {
          "internalType": "uint256",
          "name": "abstainVotes",
          "type": "uint256"
        }
      ],
      "stateMutability": "view",
      "type": "function"
    },
    {
      "inputs": [
        {
          "internalType": "address[]",
          "name": "targets",
          "type": "address[]"
        },
        {
          "internalType": "uint256[]",
          "name": "values",
          "type": "uint256[]"
        },
        {
          "internalType": "bytes[]",
          "name": "calldatas",
          "type": "bytes[]"
        },
        {
          "internalType": "string",
          "name": "descriptionHash",
          "type": "string"
        }
      ],
      "name": "propose",
      "outputs": [
        {
          "internalType": "uint256",
          "name": "proposalId",
          "type": "uint256"
        }
      ],
      "stateMutability": "nonpayable",
      "type": "function"
    },
    {
      "inputs": [
        {
          "internalType": "address",
          "name": "beneficiary",
          "type": "address"
        },
        {
          "internalType": "uint256",
          "name": "totalAmount",
          "type": "uint256"
        },
        {
          "internalType": "uint256",
          "name": "milestoneCount",
          "type": "uint256"
        },
        {
          "internalType": "string",
          "name": "description",
          "type": "string"
        }
      ],
      "name": "proposeCharityCampaign",
      "outputs": [
        {
          "internalType": "uint256",
          "name": "",
          "type": "uint256"
        }
      ],
      "stateMutability": "nonpayable",
      "type": "function"
    },
    {
      "inputs": [
        {
          "internalType": "address[]",
          "name": "targets",
          "type": "address[]"
        },
        {
          "internalType": "uint256[]",
          "name": "values",
          "type": "uint256[]"
        },
        {
          "internalType": "bytes[]",
          "name": "calldatas",
          "type": "bytes[]"
        },
        {
          "internalType": "bytes32",
          "name": "descriptionHash",
          "type": "bytes32"
        }
      ],
      "name": "queue",
      "outputs": [
        {
          "internalType": "uint256",
          "name": "",
          "type": "uint256"
        }
      ],
      "stateMutability": "nonpayable",
      "type": "function"
    },
    {
      "inputs": [
        {
          "internalType": "uint256",
          "name": "blockNumber",
          "type": "uint256"
        }
      ],
      "name": "quorum",
      "outputs": [
        {
          "internalType": "uint256",
          "name": "",
          "type": "uint256"
        }
      ],
      "stateMutability": "view",
      "type": "function"
    },
    {
      "inputs": [],
      "name": "quorumDenominator",
      "outputs": [
        {
          "internalType": "uint256",
          "name": "",
          "type": "uint256"
        }
      ],
      "stateMutability": "view",
      "type": "function"
    },
    {
      "inputs": [
        {
          "internalType": "uint256",
          "name": "timepoint",
          "type": "uint256"
        }
      ],
      "name": "quorumNumerator",
      "outputs": [
        {
          "internalType": "uint256",
          "name": "",
          "type": "uint256"
        }
      ],
      "stateMutability": "view",
      "type": "function"
    },
    {
      "inputs": [],
      "name": "quorumNumerator",
      "outputs": [
        {
          "internalType": "uint256",
          "name": "",
          "type": "uint256"
        }
      ],
      "stateMutability": "view",
      "type": "function"
    },
    {
      "inputs": [
        {
          "internalType": "uint256",
          "name": "campaignId",
          "type": "uint256"
        }
      ],
      "name": "rejectCampaign",
      "outputs": [
        {
          "internalType": "uint256",
          "name": "",
          "type": "uint256"
        }
      ],
      "stateMutability": "nonpayable",
      "type": "function"
    },
    {
      "inputs": [
        {
          "internalType": "address",
          "name": "target",
          "type": "address"
        },
        {
          "internalType": "uint256",
          "name": "value",
          "type": "uint256"
        },
        {
          "internalType": "bytes",
          "name": "data",
          "type": "bytes"
        }
      ],
      "name": "relay",
      "outputs": [],
      "stateMutability": "payable",
      "type": "function"
    },
    {
      "inputs": [
        {
          "internalType": "uint256",
          "name": "campaignId",
          "type": "uint256"
        },
        {
          "internalType": "uint256",
          "name": "milestoneIndex",
          "type": "uint256"
        }
      ],
      "name": "releaseMilestone",
      "outputs": [],
      "stateMutability": "nonpayable",
      "type": "function"
    },
    {
      "inputs": [
        {
          "internalType": "uint256",
          "name": "newProposalThreshold",
          "type": "uint256"
        }
      ],
      "name": "setProposalThreshold",
      "outputs": [],
      "stateMutability": "nonpayable",
      "type": "function"
    },
    {
      "inputs": [
        {
          "internalType": "uint256",
          "name": "newVotingDelay",
          "type": "uint256"
        }
      ],
      "name": "setVotingDelay",
      "outputs": [],
      "stateMutability": "nonpayable",
      "type": "function"
    },
    {
      "inputs": [
        {
          "internalType": "uint256",
          "name": "newVotingPeriod",
          "type": "uint256"
        }
      ],
      "name": "setVotingPeriod",
      "outputs": [],
      "stateMutability": "nonpayable",
      "type": "function"
    },
    {
      "inputs": [
        {
          "internalType": "uint256",
          "name": "proposalId",
          "type": "uint256"
        }
      ],
      "name": "state",
      "outputs": [
        {
          "internalType": "enum IGovernor.ProposalState",
          "name": "",
          "type": "uint8"
        }
      ],
      "stateMutability": "view",
      "type": "function"
    },
    {
      "inputs": [
        {
          "internalType": "bytes4",
          "name": "interfaceId",
          "type": "bytes4"
        }
      ],
      "name": "supportsInterface",
      "outputs": [
        {
          "internalType": "bool",
          "name": "",
          "type": "bool"
        }
      ],
      "stateMutability": "view",
      "type": "function"
    },
    {
      "inputs": [],
      "name": "timelock",
      "outputs": [
        {
          "internalType": "address",
          "name": "",
          "type": "address"
        }
      ],
      "stateMutability": "view",
      "type": "function"
    },
    {
      "inputs": [],
      "name": "token",
      "outputs": [
        {
          "internalType": "contract IERC5805",
          "name": "",
          "type": "address"
        }
      ],
      "stateMutability": "view",
      "type": "function"
    },
    {
      "inputs": [
        {
          "internalType": "uint256",
          "name": "newQuorumNumerator",
          "type": "uint256"
        }
      ],
      "name": "updateQuorumNumerator",
      "outputs": [],
      "stateMutability": "nonpayable",
      "type": "function"
    },
    {
      "inputs": [
        {
          "internalType": "contract TimelockController",
          "name": "newTimelock",
          "type": "address"
        }
      ],
      "name": "updateTimelock",
      "outputs": [],
      "stateMutability": "nonpayable",
      "type": "function"
    },
    {
      "inputs": [],
      "name": "version",
      "outputs": [
        {
          "internalType": "string",
          "name": "",
          "type": "string"
        }
      ],
      "stateMutability": "view",
      "type": "function"
    },
    {
      "inputs": [],
      "name": "votingDelay",
      "outputs": [
        {
          "internalType": "uint256",
          "name": "",
          "type": "uint256"
        }
      ],
      "stateMutability": "view",
      "type": "function"
    },
    {
      "inputs": [],
      "name": "votingPeriod",
      "outputs": [
        {
          "internalType": "uint256",
          "name": "",
          "type": "uint256"
        }
      ],
      "stateMutability": "view",
      "type": "function"
    },
    {
      "stateMutability": "payable",
      "type": "receive"
    }
  ],
  "bytecode": "0x6101806040523480156200001257600080fd5b5060405162005aa438038062005aa48339810160408190526200003591620009eb565b8482878665ffffffffffff168663ffffffff1660006040518060400160405280601081526020016f11dbdd995c9b9bdc90dbdb9d1c9858dd60821b81525080620000846200022e60201b60201c565b6200009182600062000249565b61012052620000a281600162000249565b61014052815160208084019190912060e052815190820120610100524660a0526200013060e05161010051604080517f8b73c3c69bb8fe3d512ecc4cf759cc79239f7b179b0ffacaa9a75d522b39400f60208201529081019290925260608201524660808201523060a082015260009060c00160405160208183030381529060405280519060200120905090565b60805250503060c052600262000147828262000b01565b506200015590508362000282565b6200016082620002c3565b6200016b8162000366565b5050506001600160a01b0316610160526200018681620003a7565b50620001928162000526565b506001600160a01b038116620002025760405162461bcd60e51b815260206004820152602a60248201527f457363726f7720616464726573732063616e6e6f7420626520746865207a6572604482015269379030b2323932b9b99760b11b60648201526084015b60405180910390fd5b600e80546001600160a01b0319166001600160a01b03929092169190911790555062000c8e9350505050565b6040805180820190915260018152603160f81b602082015290565b6000602083511015620002695762000261836200058f565b90506200027c565b8162000276848262000b01565b5060ff90505b92915050565b60065460408051918252602082018390527fc565b045403dc03c2eea82b81a0465edad9e2e7fc4d97e11421c209da93d7a93910160405180910390a1600655565b60008111620003255760405162461bcd60e51b815260206004820152602760248201527f476f7665726e6f7253657474696e67733a20766f74696e6720706572696f6420604482015266746f6f206c6f7760c81b6064820152608401620001f9565b60075460408051918252602082018390527f7e3f7f0708a84de9203036abaa450dccc85ad5ff52f78c170f3edb55cf5e8828910160405180910390a1600755565b60085460408051918252602082018390527fccb45da8d5717e6c4544694297c4ba5cf151d455c9bb0ed4fc7a38411bc05461910160405180910390a1600855565b60648111156200042c5760405162461bcd60e51b815260206004820152604360248201527f476f7665726e6f72566f74657351756f72756d4672616374696f6e3a2071756f60448201527f72756d4e756d657261746f72206f7665722071756f72756d44656e6f6d696e616064820152623a37b960e91b608482015260a401620001f9565b600062000438620005d2565b905080158015906200044a5750600b54155b15620004b2576040805180820190915260008152600b9060208101620004708462000601565b6001600160e01b0390811690915282546001810184556000938452602093849020835194909301519091166401000000000263ffffffff909316929092179101555b620004e7620004d2620004c462000670565b65ffffffffffff16620006e7565b620004dd8462000601565b600b91906200074e565b505060408051828152602081018490527f0553476bf02ef2726e8ce5ced78d63e26e602e4a2257b1f559418e24b4633997910160405180910390a15050565b600c54604080516001600160a01b03928316815291831660208301527f08f74ea46ef7894f65eabfb5e6e695de773a000b47c529ab559178069b226401910160405180910390a1600c80546001600160a01b0319166001600160a01b0392909216919091179055565b600080829050601f81511115620005bd578260405163305a27a960e01b8152600401620001f9919062000bcd565b8051620005ca8262000c1d565b179392505050565b600b5460009015620005f857620005ea600b6200076b565b6001600160e01b0316905090565b600a545b905090565b60006001600160e01b038211156200066c5760405162461bcd60e51b815260206004820152602760248201527f53616665436173743a2076616c756520646f65736e27742066697420696e20326044820152663234206269747360c81b6064820152608401620001f9565b5090565b6000610160516001600160a01b03166391ddadf46040518163ffffffff1660e01b8152600401602060405180830381865afa925050508015620006d2575060408051601f3d908101601f19168201909252620006cf9181019062000c42565b60015b620006e257620005fc43620007b9565b919050565b600063ffffffff8211156200066c5760405162461bcd60e51b815260206004820152602660248201527f53616665436173743a2076616c756520646f65736e27742066697420696e203360448201526532206269747360d01b6064820152608401620001f9565b6000806200075e85858562000822565b915091505b935093915050565b80546000908015620007af5762000797836200078960018462000c6c565b600091825260209091200190565b5464010000000090046001600160e01b0316620007b2565b60005b9392505050565b600065ffffffffffff8211156200066c5760405162461bcd60e51b815260206004820152602660248201527f53616665436173743a2076616c756520646f65736e27742066697420696e203460448201526538206269747360d01b6064820152608401620001f9565b8254600090819080156200097757600062000844876200078960018562000c6c565b60408051808201909152905463ffffffff8082168084526401000000009092046001600160e01b031660208401529192509087161015620008c85760405162461bcd60e51b815260206004820152601b60248201527f436865636b706f696e743a2064656372656173696e67206b65797300000000006044820152606401620001f9565b805163ffffffff808816911603620009165784620008ed886200078960018662000c6c565b80546001600160e01b03929092166401000000000263ffffffff90921691909117905562000966565b6040805180820190915263ffffffff80881682526001600160e01b0380881660208085019182528b54600181018d5560008d81529190912094519151909216640100000000029216919091179101555b602001519250839150620007639050565b50506040805180820190915263ffffffff80851682526001600160e01b0380851660208085019182528854600181018a5560008a81529182209551925190931664010000000002919093161792019190915590508162000763565b6001600160a01b0381168114620009e857600080fd5b50565b60008060008060008060c0878903121562000a0557600080fd5b865162000a1281620009d2565b602088015190965062000a2581620009d2565b8095505060408701519350606087015192506080870151915060a087015162000a4e81620009d2565b809150509295509295509295565b634e487b7160e01b600052604160045260246000fd5b600181811c9082168062000a8757607f821691505b60208210810362000aa857634e487b7160e01b600052602260045260246000fd5b50919050565b601f82111562000afc57600081815260208120601f850160051c8101602086101562000ad75750805b601f850160051c820191505b8181101562000af85782815560010162000ae3565b5050505b505050565b81516001600160401b0381111562000b1d5762000b1d62000a5c565b62000b358162000b2e845462000a72565b8462000aae565b602080601f83116001811462000b6d576000841562000b545750858301515b600019600386901b1c1916600185901b17855562000af8565b600085815260208120601f198616915b8281101562000b9e5788860151825594840194600190910190840162000b7d565b508582101562000bbd5787850151600019600388901b60f8161c191681555b5050505050600190811b01905550565b600060208083528351808285015260005b8181101562000bfc5785810183015185820160400152820162000bde565b506000604082860101526040601f19601f8301168501019250505092915050565b8051602080830151919081101562000aa85760001960209190910360031b1b16919050565b60006020828403121562000c5557600080fd5b815165ffffffffffff81168114620007b257600080fd5b818103818111156200027c57634e487b7160e01b600052601160045260246000fd5b60805160a05160c05160e05161010051610120516101405161016051614d9462000d1060003960008181610ab80152818161134b0152818161169a01528181612aee0152612d12015260006116460152600061161c01526000612f0f01526000612ee701526000612e4201526000612e6c01526000612e960152614d946000f3fe6080604052600436106102b85760003560e01c80637d5e81e211610170578063c59057e4116100cc578063ea0217cf11610085578063ea0217cf146109da578063eb9019d4146109fa578063ece40cc114610a1a578063ee4e1b5314610a3a578063f23a6e6114610a5a578063f8ce560a14610a86578063fc0c546a14610aa657600080fd5b8063c59057e4146108e2578063d33219b414610902578063dbaf091014610920578063dd4e2ba514610940578063deaaa7cc14610986578063e2fdcc17146109ba57600080fd5b8063a7713a7011610129578063a7713a7014610800578063a890c91014610815578063ab58fb8e14610835578063b58131b014610855578063bc197c811461086a578063c01f9e3714610896578063c28bc2fa146108cf57600080fd5b80637d5e81e21461073857806384b0196e1461075857806391ddadf4146107805780639647165b146107ac57806397c3d334146107cc5780639a802a6d146107e057600080fd5b80633932abb11161021f578063544ffc9c116101d8578063544ffc9c1461061957806354fd4d501461066e57806356781388146106985780635f398a14146106b857806360c4247f146106d857806370b0f660146106f85780637b3c71d31461071857600080fd5b80633932abb1146105385780633bccf4fd1461054d5780633e4f49e61461056d578063438596321461059a578063452115d6146105e45780634bf5d7e91461060457600080fd5b8063143489d011610271578063143489d014610402578063150b7a0214610457578063160cbed71461049b5780632656227d146104bb5780632d63f693146104ce5780632fe3e2611461050457600080fd5b806301ffc9a71461032857806302a251a31461035d5780630342018114610380578063034d09da146103a057806306f3f9e6146103c057806306fdde03146103e057600080fd5b3661032357306102c6610ada565b6001600160a01b0316146103215760405162461bcd60e51b815260206004820152601f60248201527f476f7665726e6f723a206d7573742073656e6420746f206578656375746f720060448201526064015b60405180910390fd5b005b600080fd5b34801561033457600080fd5b50610348610343366004613d7d565b610af3565b60405190151581526020015b60405180910390f35b34801561036957600080fd5b50610372610b04565b604051908152602001610354565b34801561038c57600080fd5b5061037261039b366004613ec3565b610b0f565b3480156103ac57600080fd5b506103726103bb366004613f69565b610c07565b3480156103cc57600080fd5b506103216103db366004613f69565b610d9b565b3480156103ec57600080fd5b506103f5610e25565b6040516103549190613fd2565b34801561040e57600080fd5b5061043f61041d366004613f69565b600090815260036020526040902054600160401b90046001600160a01b031690565b6040516001600160a01b039091168152602001610354565b34801561046357600080fd5b50610482610472366004613ffa565b630a85bd0160e11b949350505050565b6040516001600160e01b03199091168152602001610354565b3480156104a757600080fd5b506103726104b63660046141d1565b610eb7565b6103726104c93660046141d1565b6110b8565b3480156104da57600080fd5b506103726104e9366004613f69565b6000908152600360205260409020546001600160401b031690565b34801561051057600080fd5b506103727fb3b3f3b703cd84ce352197dcff232b1b5d3cfb2025ce47cf04742d0651f1af8881565b34801561054457600080fd5b506103726111aa565b34801561055957600080fd5b50610372610568366004614260565b6111b5565b34801561057957600080fd5b5061058d610588366004613f69565b61122b565b60405161035491906142c4565b3480156105a657600080fd5b506103486105b53660046142ec565b60008281526009602090815260408083206001600160a01b038516845260030190915290205460ff1692915050565b3480156105f057600080fd5b506103726105ff3660046141d1565b611236565b34801561061057600080fd5b506103f5611347565b34801561062557600080fd5b50610653610634366004613f69565b6000908152600960205260409020805460018201546002909201549092565b60408051938452602084019290925290820152606001610354565b34801561067a57600080fd5b506040805180820190915260018152603160f81b60208201526103f5565b3480156106a457600080fd5b506103726106b336600461431c565b611404565b3480156106c457600080fd5b506103726106d3366004614348565b61142d565b3480156106e457600080fd5b506103726106f3366004613f69565b611477565b34801561070457600080fd5b50610321610713366004613f69565b611528565b34801561072457600080fd5b506103726107333660046143cb565b6115af565b34801561074457600080fd5b50610372610753366004614424565b6115f7565b34801561076457600080fd5b5061076d61160e565b60405161035497969594939291906144ff565b34801561078c57600080fd5b50610795611696565b60405165ffffffffffff9091168152602001610354565b3480156107b857600080fd5b506103726107c7366004614561565b61171f565b3480156107d857600080fd5b506064610372565b3480156107ec57600080fd5b506103726107fb3660046145ab565b611877565b34801561080c57600080fd5b5061037261188e565b34801561082157600080fd5b50610321610830366004614603565b6118b8565b34801561084157600080fd5b50610372610850366004613f69565b61193f565b34801561086157600080fd5b506103726119d9565b34801561087657600080fd5b50610482610885366004614620565b63bc197c8160e01b95945050505050565b3480156108a257600080fd5b506103726108b1366004613f69565b6000908152600360205260409020600101546001600160401b031690565b6103216108dd3660046146b3565b6119e4565b3480156108ee57600080fd5b506103726108fd3660046141d1565b611af3565b34801561090e57600080fd5b50600c546001600160a01b031661043f565b34801561092c57600080fd5b5061032161093b3660046146f6565b611b2d565b34801561094c57600080fd5b506040805180820190915260208082527f737570706f72743d627261766f2671756f72756d3d666f722c6162737461696e908201526103f5565b34801561099257600080fd5b506103727f150214d74d59b7d1e90c73fc22ef3d991dd0a76b046543d4d80ab92d2a50328f81565b3480156109c657600080fd5b50600e5461043f906001600160a01b031681565b3480156109e657600080fd5b506103216109f5366004613f69565b611bb5565b348015610a0657600080fd5b50610372610a15366004614718565b611c3c565b348015610a2657600080fd5b50610321610a35366004613f69565b611c5d565b348015610a4657600080fd5b50610372610a55366004613f69565b611ce4565b348015610a6657600080fd5b50610482610a75366004614744565b63f23a6e6160e01b95945050505050565b348015610a9257600080fd5b50610372610aa1366004613f69565b611e6d565b348015610ab257600080fd5b5061043f7f000000000000000000000000000000000000000000000000000000000000000081565b6000610aee600c546001600160a01b031690565b905090565b6000610afe82611e78565b92915050565b6000610aee60075490565b600080610bb3610bab7fb3b3f3b703cd84ce352197dcff232b1b5d3cfb2025ce47cf04742d0651f1af888c8c8c8c604051610b4b9291906147ac565b60405180910390208b80519060200120604051602001610b90959493929190948552602085019390935260ff9190911660408401526060830152608082015260a00190565b60405160208183030381529060405280519060200120611e9d565b868686611eca565b9050610bf98a828b8b8b8080601f0160208091040260200160405190810160405280939291908181526020018383808284376000920191909152508d9250611ee8915050565b9a9950505050505050505050565b6000333014610c285760405162461bcd60e51b8152600401610318906147bc565b604080516001808252818301909252600091816020015b6060815260200190600190039081610c3f5750506040805160248082018790528251808303909101815260449091019091526020810180516001600160e01b03166301a684ed60e11b1790528151919250908290600090610ca257610ca2614803565b60209081029190910101526040805160018082528183019092526000918160200160208202803683375050600e5482519293506001600160a01b031691839150600090610cf157610cf1614803565b6001600160a01b039290921660209283029190910190910152604080516001808252818301909252600091816020016020820280368337019050509050600081600081518110610d4357610d43614803565b602002602001018181525050610d908282856040518060400160405280601b81526020017f50726f706f73616c3a2043616d706169676e2052656a656374656400000000008152506115f7565b93505050505b919050565b610da3610ada565b6001600160a01b0316336001600160a01b031614610dd35760405162461bcd60e51b815260040161031890614819565b30610ddc610ada565b6001600160a01b031614610e195760008036604051610dfc9291906147ac565b604051809103902090505b80610e12600461203d565b03610e0757505b610e22816120b3565b50565b606060028054610e349061484b565b80601f0160208091040260200160405190810160405280929190818152602001828054610e609061484b565b8015610ead5780601f10610e8257610100808354040283529160200191610ead565b820191906000526020600020905b815481529060010190602001808311610e9057829003601f168201915b5050505050905090565b600080610ec686868686611af3565b90506004610ed38261122b565b6007811115610ee457610ee46142ae565b14610f015760405162461bcd60e51b815260040161031890614885565b600c546040805163793d064960e11b815290516000926001600160a01b03169163f27a0c929160048083019260209291908290030181865afa158015610f4b573d6000803e3d6000fd5b505050506040513d601f19601f82011682018060405250810190610f6f91906148c6565b600c5460405163b1c5f42760e01b81529192506001600160a01b03169063b1c5f42790610fa9908a908a908a906000908b90600401614970565b602060405180830381865afa158015610fc6573d6000803e3d6000fd5b505050506040513d601f19601f82011682018060405250810190610fea91906148c6565b6000838152600d602052604080822092909255600c5491516308f2a0bb60e41b81526001600160a01b0390921691638f2a0bb091611035918b918b918b91908b9089906004016149be565b600060405180830381600087803b15801561104f57600080fd5b505af1158015611063573d6000803e3d6000fd5b505050507f9a2e42fd6722813d69113e7d0079d3d940171428df7373df9c7f7617cfda28928282426110959190614a2c565b604080519283526020830191909152015b60405180910390a15095945050505050565b6000806110c786868686611af3565b905060006110d48261122b565b905060048160078111156110ea576110ea6142ae565b148061110757506005816007811115611105576111056142ae565b145b6111235760405162461bcd60e51b815260040161031890614885565b60008281526003602052604090819020600201805460ff19166001179055517f712ae1383f79ac853f8d882153778e0260ef8f03b504e2866e0593e04d2b291f906111719084815260200190565b60405180910390a16111868288888888612221565b61119382888888886122c1565b6111a082888888886122ce565b5095945050505050565b6000610aee60065490565b604080517f150214d74d59b7d1e90c73fc22ef3d991dd0a76b046543d4d80ab92d2a50328f602082015290810186905260ff85166060820152600090819061120390610bab90608001610b90565b905061122087828860405180602001604052806000815250612307565b979650505050505050565b6000610afe8261232a565b60008061124586868686611af3565b905060006112528261122b565b6007811115611263576112636142ae565b146112b05760405162461bcd60e51b815260206004820152601c60248201527f476f7665726e6f723a20746f6f206c61746520746f2063616e63656c000000006044820152606401610318565b600081815260036020526040902054600160401b90046001600160a01b0316336001600160a01b0316146113315760405162461bcd60e51b815260206004820152602260248201527f476f7665726e6f723a206f6e6c792070726f706f7365722063616e2063616e63604482015261195b60f21b6064820152608401610318565b61133d86868686612474565b9695505050505050565b60607f00000000000000000000000000000000000000000000000000000000000000006001600160a01b0316634bf5d7e96040518163ffffffff1660e01b8152600401600060405180830381865afa9250505080156113c857506040513d6000823e601f3d908101601f191682016040526113c59190810190614a3f565b60015b610d96575060408051808201909152601d81527f6d6f64653d626c6f636b6e756d6265722666726f6d3d64656661756c74000000602082015290565b60008033905061142584828560405180602001604052806000815250612307565b949350505050565b60008033905061122087828888888080601f0160208091040260200160405190810160405280939291908181526020018383808284376000920191909152508a9250611ee8915050565b600b5460009080820361148e575050600a54919050565b6000600b61149d600184614aac565b815481106114ad576114ad614803565b60009182526020918290206040805180820190915291015463ffffffff8116808352600160201b9091046001600160e01b0316928201929092529150841061150357602001516001600160e01b03169392505050565b61151761150f85612482565b600b906124eb565b6001600160e01b0316949350505050565b611530610ada565b6001600160a01b0316336001600160a01b0316146115605760405162461bcd60e51b815260040161031890614819565b30611569610ada565b6001600160a01b0316146115a657600080366040516115899291906147ac565b604051809103902090505b8061159f600461203d565b0361159457505b610e228161259e565b60008033905061133d86828787878080601f01602080910402602001604051908101604052809392919081815260200183838082843760009201919091525061230792505050565b6000611605858585856125df565b95945050505050565b6000606080828080836116417f0000000000000000000000000000000000000000000000000000000000000000836129b3565b61166c7f000000000000000000000000000000000000000000000000000000000000000060016129b3565b60408051600080825260208201909252600f60f81b9b939a50919850469750309650945092509050565b60007f00000000000000000000000000000000000000000000000000000000000000006001600160a01b03166391ddadf46040518163ffffffff1660e01b8152600401602060405180830381865afa925050508015611712575060408051601f3d908101601f1916820190925261170f91810190614abf565b60015b610d9657610aee43612a5e565b604080516001808252818301909252600091829190816020015b6060815260200190600190039081611739575050604080516001600160a01b03891660248201526044810188905260648082018890528251808303909101815260849091019091526020810180516001600160e01b0316631186d80160e21b17905281519192509082906000906117b2576117b2614803565b60209081029190910101526040805160018082528183019092526000918160200160208202803683375050600e5482519293506001600160a01b03169183915060009061180157611801614803565b6001600160a01b03929092166020928302919091019091015260408051600180825281830190925260009181602001602082028036833701905050905060008160008151811061185357611853614803565b60200260200101818152505061186b828285886115f7565b98975050505050505050565b6000611884848484612ac5565b90505b9392505050565b600b54600090156118b1576118a3600b612b5b565b6001600160e01b0316905090565b50600a5490565b6118c0610ada565b6001600160a01b0316336001600160a01b0316146118f05760405162461bcd60e51b815260040161031890614819565b306118f9610ada565b6001600160a01b03161461193657600080366040516119199291906147ac565b604051809103902090505b8061192f600461203d565b0361192457505b610e2281612b8b565b600c546000828152600d602052604080822054905163d45c443560e01b81526004810191909152909182916001600160a01b039091169063d45c443590602401602060405180830381865afa15801561199c573d6000803e3d6000fd5b505050506040513d601f19601f820116820180604052508101906119c091906148c6565b9050806001146119d05780611887565b60009392505050565b6000610aee60085490565b6119ec610ada565b6001600160a01b0316336001600160a01b031614611a1c5760405162461bcd60e51b815260040161031890614819565b30611a25610ada565b6001600160a01b031614611a625760008036604051611a459291906147ac565b604051809103902090505b80611a5b600461203d565b03611a5057505b600080856001600160a01b0316858585604051611a809291906147ac565b60006040518083038185875af1925050503d8060008114611abd576040519150601f19603f3d011682016040523d82523d6000602084013e611ac2565b606091505b5091509150611aea8282604051806060016040528060288152602001614d3760289139612bf4565b50505050505050565b600084848484604051602001611b0c9493929190614ae7565b60408051601f19818403018152919052805160209091012095945050505050565b333014611b4c5760405162461bcd60e51b8152600401610318906147bc565b600e54604051630dbaf09160e41b815260048101849052602481018390526001600160a01b039091169063dbaf091090604401600060405180830381600087803b158015611b9957600080fd5b505af1158015611bad573d6000803e3d6000fd5b505050505050565b611bbd610ada565b6001600160a01b0316336001600160a01b031614611bed5760405162461bcd60e51b815260040161031890614819565b30611bf6610ada565b6001600160a01b031614611c335760008036604051611c169291906147ac565b604051809103902090505b80611c2c600461203d565b03611c2157505b610e2281612c0d565b60006118878383611c5860408051602081019091526000815290565b612ac5565b611c65610ada565b6001600160a01b0316336001600160a01b031614611c955760405162461bcd60e51b815260040161031890614819565b30611c9e610ada565b6001600160a01b031614611cdb5760008036604051611cbe9291906147ac565b604051809103902090505b80611cd4600461203d565b03611cc957505b610e2281612cae565b6000333014611d055760405162461bcd60e51b8152600401610318906147bc565b604080516001808252818301909252600091816020015b6060815260200190600190039081611d1c5750506040805160248082018790528251808303909101815260449091019091526020810180516001600160e01b031663ee4e1b5360e01b1790528151919250908290600090611d7f57611d7f614803565b60209081029190910101526040805160018082528183019092526000918160200160208202803683375050600e5482519293506001600160a01b031691839150600090611dce57611dce614803565b6001600160a01b039290921660209283029190910190910152604080516001808252818301909252600091816020016020820280368337019050509050600081600081518110611e2057611e20614803565b602002602001018181525050610d908282856040518060400160405280601b81526020017f50726f706f73616c3a2043616d706169676e20417070726f76656400000000008152506115f7565b6000610afe82612cef565b60006001600160e01b03198216636e665ced60e01b1480610afe5750610afe82612d99565b6000610afe611eaa612e35565b8360405161190160f01b8152600281019290925260228201526042902090565b6000806000611edb87878787612f60565b915091506111a08161301a565b60008581526003602052604081206001611f018861122b565b6007811115611f1257611f126142ae565b14611f6b5760405162461bcd60e51b815260206004820152602360248201527f476f7665726e6f723a20766f7465206e6f742063757272656e746c792061637460448201526269766560e81b6064820152608401610318565b8054600090611f859088906001600160401b031686612ac5565b9050611f94888888848861315f565b8351600003611fe957866001600160a01b03167fb8e138887d0aa13bab447e82de9d5c1777041ecd21ca36ba824ff1e6c07ddda489888489604051611fdc9493929190614b32565b60405180910390a2611220565b866001600160a01b03167fe2babfbac5889a709b63bb7f598b324e08bc5a4fb9ec647fb3cbc9ec07eb8712898884898960405161202a959493929190614b5a565b60405180910390a2979650505050505050565b60006120588254600f81810b600160801b909204900b131590565b1561207657604051631ed9509560e11b815260040160405180910390fd5b508054600f0b6000818152600180840160205260408220805492905583546001600160801b03191692016001600160801b03169190911790915590565b60648111156121365760405162461bcd60e51b815260206004820152604360248201527f476f7665726e6f72566f74657351756f72756d4672616374696f6e3a2071756f60448201527f72756d4e756d657261746f72206f7665722071756f72756d44656e6f6d696e616064820152623a37b960e91b608482015260a401610318565b600061214061188e565b905080158015906121515750600b54155b156121b5576040805180820190915260008152600b9060208101612174846132d9565b6001600160e01b039081169091528254600181018455600093845260209384902083519490930151909116600160201b0263ffffffff909316929092179101555b6121e26121d06121c3611696565b65ffffffffffff16612482565b6121d9846132d9565b600b9190613342565b505060408051828152602081018490527f0553476bf02ef2726e8ce5ced78d63e26e602e4a2257b1f559418e24b4633997910160405180910390a15050565b3061222a610ada565b6001600160a01b0316146122ba5760005b8451811015611bad57306001600160a01b031685828151811061226057612260614803565b60200260200101516001600160a01b0316036122aa576122aa83828151811061228b5761228b614803565b602002602001015180519060200120600461335d90919063ffffffff16565b6122b381614b94565b905061223b565b5050505050565b6122ba8585858585613399565b306122d7610ada565b6001600160a01b0316146122ba57600454600f81810b600160801b909204900b13156122ba5760006004556122ba565b60006116058585858561232560408051602081019091526000815290565b611ee8565b6000806123368361340d565b9050600481600781111561234c5761234c6142ae565b146123575792915050565b6000838152600d602052604090205480612372575092915050565b600c54604051632ab0f52960e01b8152600481018390526001600160a01b0390911690632ab0f52990602401602060405180830381865afa1580156123bb573d6000803e3d6000fd5b505050506040513d601f19601f820116820180604052508101906123df9190614bad565b156123ee575060079392505050565b600c54604051632c258a9f60e11b8152600481018390526001600160a01b039091169063584b153e90602401602060405180830381865afa158015612437573d6000803e3d6000fd5b505050506040513d601f19601f8201168201806040525081019061245b9190614bad565b1561246a575060059392505050565b5060029392505050565b60006116058585858561354d565b600063ffffffff8211156124e75760405162461bcd60e51b815260206004820152602660248201527f53616665436173743a2076616c756520646f65736e27742066697420696e203360448201526532206269747360d01b6064820152608401610318565b5090565b815460009081816005811115612548576000612506846135ff565b6125109085614aac565b60008881526020902090915081015463ffffffff908116908716101561253857809150612546565b612543816001614a2c565b92505b505b6000612556878785856136e7565b905080156125915761257b8761256d600184614aac565b600091825260209091200190565b54600160201b90046001600160e01b0316611220565b6000979650505050505050565b60065460408051918252602082018390527fc565b045403dc03c2eea82b81a0465edad9e2e7fc4d97e11421c209da93d7a93910160405180910390a1600655565b6000336125ec8184613745565b6126385760405162461bcd60e51b815260206004820152601d60248201527f476f7665726e6f723a2070726f706f73657220726573747269637465640000006044820152606401610318565b6000612642611696565b65ffffffffffff1690506126546119d9565b61266383610a15600185614aac565b10156126cb5760405162461bcd60e51b815260206004820152603160248201527f476f7665726e6f723a2070726f706f73657220766f7465732062656c6f7720706044820152701c9bdc1bdcd85b081d1a1c995cda1bdb19607a1b6064820152608401610318565b60006126e08888888880519060200120611af3565b905086518851146127035760405162461bcd60e51b815260040161031890614bcf565b85518851146127245760405162461bcd60e51b815260040161031890614bcf565b60008851116127705760405162461bcd60e51b815260206004820152601860248201527711dbdd995c9b9bdc8e88195b5c1d1e481c1c9bdc1bdcd85b60421b6044820152606401610318565b6000818152600360205260409020546001600160401b0316156127df5760405162461bcd60e51b815260206004820152602160248201527f476f7665726e6f723a2070726f706f73616c20616c72656164792065786973746044820152607360f81b6064820152608401610318565b60006127e96111aa565b6127f39084614a2c565b905060006127ff610b04565b6128099083614a2c565b90506040518060e0016040528061281f84613836565b6001600160401b031681526001600160a01b03871660208201526000604082015260600161284c83613836565b6001600160401b039081168252600060208084018290526040808501839052606094850183905288835260038252918290208551815492870151878501519186166001600160e01b031990941693909317600160401b6001600160a01b039094168402176001600160e01b0316600160e01b60e09290921c91909102178155938501516080860151908416921c0217600183015560a08301516002909201805460c09094015161ffff1990941692151561ff00191692909217610100931515939093029290921790558a517f7d84a6263ae0d98d3329bd7b46bb4e8d6f98cd35a7adb45c274c8b7fd5ebd5e091859188918e918e9181111561295057612950613e00565b60405190808252806020026020018201604052801561298357816020015b606081526020019060019003908161296e5790505b508d88888f60405161299d99989796959493929190614c10565b60405180910390a1509098975050505050505050565b606060ff83146129cd576129c68361389e565b9050610afe565b8180546129d99061484b565b80601f0160208091040260200160405190810160405280929190818152602001828054612a059061484b565b8015612a525780601f10612a2757610100808354040283529160200191612a52565b820191906000526020600020905b815481529060010190602001808311612a3557829003601f168201915b50505050509050610afe565b600065ffffffffffff8211156124e75760405162461bcd60e51b815260206004820152602660248201527f53616665436173743a2076616c756520646f65736e27742066697420696e203460448201526538206269747360d01b6064820152608401610318565b604051630748d63560e31b81526001600160a01b038481166004830152602482018490526000917f000000000000000000000000000000000000000000000000000000000000000090911690633a46b1a890604401602060405180830381865afa158015612b37573d6000803e3d6000fd5b505050506040513d601f19601f8201168201806040525081019061188491906148c6565b805460009080156119d057612b758361256d600184614aac565b54600160201b90046001600160e01b0316611887565b600c54604080516001600160a01b03928316815291831660208301527f08f74ea46ef7894f65eabfb5e6e695de773a000b47c529ab559178069b226401910160405180910390a1600c80546001600160a01b0319166001600160a01b0392909216919091179055565b60608315612c03575081611887565b61188783836138dd565b60008111612c6d5760405162461bcd60e51b815260206004820152602760248201527f476f7665726e6f7253657474696e67733a20766f74696e6720706572696f6420604482015266746f6f206c6f7760c81b6064820152608401610318565b60075460408051918252602082018390527f7e3f7f0708a84de9203036abaa450dccc85ad5ff52f78c170f3edb55cf5e8828910160405180910390a1600755565b60085460408051918252602082018390527fccb45da8d5717e6c4544694297c4ba5cf151d455c9bb0ed4fc7a38411bc05461910160405180910390a1600855565b60006064612cfc83611477565b604051632394e7a360e21b8152600481018590527f00000000000000000000000000000000000000000000000000000000000000006001600160a01b031690638e539e8c90602401602060405180830381865afa158015612d61573d6000803e3d6000fd5b505050506040513d601f19601f82011682018060405250810190612d8591906148c6565b612d8f9190614ce7565b610afe9190614d14565b600063288ace0360e11b6318df743f60e31b63bf26d89760e01b6379dd796f60e01b6001600160e01b03198616821480612ddf57506001600160e01b0319868116908216145b80612df657506001600160e01b0319868116908516145b80612e1157506001600160e01b03198616630271189760e51b145b8061133d57506301ffc9a760e01b6001600160e01b03198716149695505050505050565b6000306001600160a01b037f000000000000000000000000000000000000000000000000000000000000000016148015612e8e57507f000000000000000000000000000000000000000000000000000000000000000046145b15612eb857507f000000000000000000000000000000000000000000000000000000000000000090565b610aee604080517f8b73c3c69bb8fe3d512ecc4cf759cc79239f7b179b0ffacaa9a75d522b39400f60208201527f0000000000000000000000000000000000000000000000000000000000000000918101919091527f000000000000000000000000000000000000000000000000000000000000000060608201524660808201523060a082015260009060c00160405160208183030381529060405280519060200120905090565b6000806fa2a8918ca85bafe22016d0b997e4df60600160ff1b03831115612f8d5750600090506003613011565b6040805160008082526020820180845289905260ff881692820192909252606081018690526080810185905260019060a0016020604051602081039080840390855afa158015612fe1573d6000803e3d6000fd5b5050604051601f1901519150506001600160a01b03811661300a57600060019250925050613011565b9150600090505b94509492505050565b600081600481111561302e5761302e6142ae565b036130365750565b600181600481111561304a5761304a6142ae565b036130925760405162461bcd60e51b815260206004820152601860248201527745434453413a20696e76616c6964207369676e617475726560401b6044820152606401610318565b60028160048111156130a6576130a66142ae565b036130f35760405162461bcd60e51b815260206004820152601f60248201527f45434453413a20696e76616c6964207369676e6174757265206c656e677468006044820152606401610318565b6003816004811115613107576131076142ae565b03610e225760405162461bcd60e51b815260206004820152602260248201527f45434453413a20696e76616c6964207369676e6174757265202773272076616c604482015261756560f01b6064820152608401610318565b60008581526009602090815260408083206001600160a01b0388168452600381019092529091205460ff16156131e75760405162461bcd60e51b815260206004820152602760248201527f476f7665726e6f72566f74696e6753696d706c653a20766f746520616c726561604482015266191e4818d85cdd60ca1b6064820152608401610318565b6001600160a01b03851660009081526003820160205260409020805460ff1916600117905560ff841661323357828160000160008282546132289190614a2c565b90915550611bad9050565b60001960ff85160161325357828160010160008282546132289190614a2c565b60011960ff85160161327357828160020160008282546132289190614a2c565b60405162461bcd60e51b815260206004820152603560248201527f476f7665726e6f72566f74696e6753696d706c653a20696e76616c69642076616044820152746c756520666f7220656e756d20566f74655479706560581b6064820152608401610318565b60006001600160e01b038211156124e75760405162461bcd60e51b815260206004820152602760248201527f53616665436173743a2076616c756520646f65736e27742066697420696e20326044820152663234206269747360c81b6064820152608401610318565b600080613350858585613907565b915091505b935093915050565b8154600160801b90819004600f0b6000818152600180860160205260409091209390935583546001600160801b03908116939091011602179055565b600c5460405163e38335e560e01b81526001600160a01b039091169063e38335e59034906133d4908890889088906000908990600401614970565b6000604051808303818588803b1580156133ed57600080fd5b505af1158015613401573d6000803e3d6000fd5b50505050505050505050565b6000818152600360205260408120600281015460ff16156134315750600792915050565b6002810154610100900460ff161561344c5750600292915050565b6000838152600360205260408120546001600160401b0316908190036134b45760405162461bcd60e51b815260206004820152601d60248201527f476f7665726e6f723a20756e6b6e6f776e2070726f706f73616c2069640000006044820152606401610318565b60006134be611696565b65ffffffffffff1690508082106134da57506000949350505050565b6000858152600360205260409020600101546001600160401b03168181106135085750600195945050505050565b61351186613aa6565b8015613530575060008681526009602052604090208054600190910154115b156135415750600495945050505050565b50600395945050505050565b60008061355c86868686613af2565b6000818152600d60205260409020549091501561160557600c546000828152600d60205260409081902054905163c4d252f560e01b81526001600160a01b039092169163c4d252f5916135b59160040190815260200190565b600060405180830381600087803b1580156135cf57600080fd5b505af11580156135e3573d6000803e3d6000fd5b5050506000828152600d60205260408120555095945050505050565b60008160000361361157506000919050565b6000600161361e84613bfe565b901c6001901b9050600181848161363757613637614cfe565b048201901c9050600181848161364f5761364f614cfe565b048201901c9050600181848161366757613667614cfe565b048201901c9050600181848161367f5761367f614cfe565b048201901c9050600181848161369757613697614cfe565b048201901c905060018184816136af576136af614cfe565b048201901c905060018184816136c7576136c7614cfe565b048201901c9050611887818285816136e1576136e1614cfe565b04613c92565b60005b8183101561373d5760006136fe8484613ca8565b60008781526020902090915063ffffffff86169082015463ffffffff16111561372957809250613737565b613734816001614a2c565b93505b506136ea565b509392505050565b8051600090603481101561375d576001915050610afe565b82810160131901516001600160a01b031981166b046e0e4dee0dee6cae47a60f60a31b1461379057600192505050610afe565b60008061379e602885614aac565b90505b83811015613815576000806137d58884815181106137c1576137c1614803565b01602001516001600160f81b031916613cc3565b91509150816137ed5760019650505050505050610afe565b8060ff166004856001600160a01b0316901b17935050508061380e90614b94565b90506137a1565b50856001600160a01b0316816001600160a01b031614935050505092915050565b60006001600160401b038211156124e75760405162461bcd60e51b815260206004820152602660248201527f53616665436173743a2076616c756520646f65736e27742066697420696e203660448201526534206269747360d01b6064820152608401610318565b606060006138ab83613d55565b604080516020808252818301909252919250600091906020820181803683375050509182525060208101929092525090565b8151156138ed5781518083602001fd5b8060405162461bcd60e51b81526004016103189190613fd2565b825460009081908015613a4d5760006139258761256d600185614aac565b60408051808201909152905463ffffffff808216808452600160201b9092046001600160e01b0316602084015291925090871610156139a65760405162461bcd60e51b815260206004820152601b60248201527f436865636b706f696e743a2064656372656173696e67206b65797300000000006044820152606401610318565b805163ffffffff8088169116036139ee57846139c78861256d600186614aac565b80546001600160e01b0392909216600160201b0263ffffffff909216919091179055613a3d565b6040805180820190915263ffffffff80881682526001600160e01b0380881660208085019182528b54600181018d5560008d81529190912094519151909216600160201b029216919091179101555b6020015192508391506133559050565b50506040805180820190915263ffffffff80851682526001600160e01b0380851660208085019182528854600181018a5560008a815291822095519251909316600160201b029190931617920191909155905081613355565b600081815260096020526040812060028101546001820154613ac89190614a2c565b600084815260036020526040902054613ae9906001600160401b0316611e6d565b11159392505050565b600080613b0186868686611af3565b90506000613b0e8261122b565b90506002816007811115613b2457613b246142ae565b14158015613b4457506006816007811115613b4157613b416142ae565b14155b8015613b6257506007816007811115613b5f57613b5f6142ae565b14155b613bae5760405162461bcd60e51b815260206004820152601d60248201527f476f7665726e6f723a2070726f706f73616c206e6f74206163746976650000006044820152606401610318565b60008281526003602052604090819020600201805461ff001916610100179055517f789cf55be980739dad1d0699b93b58e806b51c9d96619bfa8fe0a28abaa7b30c906110a69084815260200190565b600080608083901c15613c1357608092831c92015b604083901c15613c2557604092831c92015b602083901c15613c3757602092831c92015b601083901c15613c4957601092831c92015b600883901c15613c5b57600892831c92015b600483901c15613c6d57600492831c92015b600283901c15613c7f57600292831c92015b600183901c15610afe5760010192915050565b6000818310613ca15781611887565b5090919050565b6000613cb76002848418614d14565b61188790848416614a2c565b60008060f883901c602f81118015613cde5750603a8160ff16105b15613cf357600194602f199091019350915050565b8060ff166040108015613d09575060478160ff16105b15613d1e576001946036199091019350915050565b8060ff166060108015613d34575060678160ff16105b15613d49576001946056199091019350915050565b50600093849350915050565b600060ff8216601f811115610afe57604051632cd44ac360e21b815260040160405180910390fd5b600060208284031215613d8f57600080fd5b81356001600160e01b03198116811461188757600080fd5b803560ff81168114610d9657600080fd5b60008083601f840112613dca57600080fd5b5081356001600160401b03811115613de157600080fd5b602083019150836020828501011115613df957600080fd5b9250929050565b634e487b7160e01b600052604160045260246000fd5b604051601f8201601f191681016001600160401b0381118282101715613e3e57613e3e613e00565b604052919050565b60006001600160401b03821115613e5f57613e5f613e00565b50601f01601f191660200190565b600082601f830112613e7e57600080fd5b8135613e91613e8c82613e46565b613e16565b818152846020838601011115613ea657600080fd5b816020850160208301376000918101602001919091529392505050565b60008060008060008060008060e0898b031215613edf57600080fd5b88359750613eef60208a01613da7565b965060408901356001600160401b0380821115613f0b57600080fd5b613f178c838d01613db8565b909850965060608b0135915080821115613f3057600080fd5b50613f3d8b828c01613e6d565b945050613f4c60808a01613da7565b925060a0890135915060c089013590509295985092959890939650565b600060208284031215613f7b57600080fd5b5035919050565b60005b83811015613f9d578181015183820152602001613f85565b50506000910152565b60008151808452613fbe816020860160208601613f82565b601f01601f19169290920160200192915050565b6020815260006118876020830184613fa6565b6001600160a01b0381168114610e2257600080fd5b6000806000806080858703121561401057600080fd5b843561401b81613fe5565b9350602085013561402b81613fe5565b92506040850135915060608501356001600160401b0381111561404d57600080fd5b61405987828801613e6d565b91505092959194509250565b60006001600160401b0382111561407e5761407e613e00565b5060051b60200190565b600082601f83011261409957600080fd5b813560206140a9613e8c83614065565b82815260059290921b840181019181810190868411156140c857600080fd5b8286015b848110156140ec5780356140df81613fe5565b83529183019183016140cc565b509695505050505050565b600082601f83011261410857600080fd5b81356020614118613e8c83614065565b82815260059290921b8401810191818101908684111561413757600080fd5b8286015b848110156140ec578035835291830191830161413b565b600082601f83011261416357600080fd5b81356020614173613e8c83614065565b82815260059290921b8401810191818101908684111561419257600080fd5b8286015b848110156140ec5780356001600160401b038111156141b55760008081fd5b6141c38986838b0101613e6d565b845250918301918301614196565b600080600080608085870312156141e757600080fd5b84356001600160401b03808211156141fe57600080fd5b61420a88838901614088565b9550602087013591508082111561422057600080fd5b61422c888389016140f7565b9450604087013591508082111561424257600080fd5b5061424f87828801614152565b949793965093946060013593505050565b600080600080600060a0868803121561427857600080fd5b8535945061428860208701613da7565b935061429660408701613da7565b94979396509394606081013594506080013592915050565b634e487b7160e01b600052602160045260246000fd5b60208101600883106142e657634e487b7160e01b600052602160045260246000fd5b91905290565b600080604083850312156142ff57600080fd5b82359150602083013561431181613fe5565b809150509250929050565b6000806040838503121561432f57600080fd5b8235915061433f60208401613da7565b90509250929050565b60008060008060006080868803121561436057600080fd5b8535945061437060208701613da7565b935060408601356001600160401b038082111561438c57600080fd5b61439889838a01613db8565b909550935060608801359150808211156143b157600080fd5b506143be88828901613e6d565b9150509295509295909350565b600080600080606085870312156143e157600080fd5b843593506143f160208601613da7565b925060408501356001600160401b0381111561440c57600080fd5b61441887828801613db8565b95989497509550505050565b6000806000806080858703121561443a57600080fd5b84356001600160401b038082111561445157600080fd5b61445d88838901614088565b9550602087013591508082111561447357600080fd5b61447f888389016140f7565b9450604087013591508082111561449557600080fd5b6144a188838901614152565b935060608701359150808211156144b757600080fd5b5061405987828801613e6d565b600081518084526020808501945080840160005b838110156144f4578151875295820195908201906001016144d8565b509495945050505050565b60ff60f81b8816815260e06020820152600061451e60e0830189613fa6565b82810360408401526145308189613fa6565b606084018890526001600160a01b038716608085015260a0840186905283810360c08501529050610bf981856144c4565b6000806000806080858703121561457757600080fd5b843561458281613fe5565b9350602085013592506040850135915060608501356001600160401b0381111561404d57600080fd5b6000806000606084860312156145c057600080fd5b83356145cb81613fe5565b92506020840135915060408401356001600160401b038111156145ed57600080fd5b6145f986828701613e6d565b9150509250925092565b60006020828403121561461557600080fd5b813561188781613fe5565b600080600080600060a0868803121561463857600080fd5b853561464381613fe5565b9450602086013561465381613fe5565b935060408601356001600160401b038082111561466f57600080fd5b61467b89838a016140f7565b9450606088013591508082111561469157600080fd5b61469d89838a016140f7565b935060808801359150808211156143b157600080fd5b600080600080606085870312156146c957600080fd5b84356146d481613fe5565b93506020850135925060408501356001600160401b0381111561440c57600080fd5b6000806040838503121561470957600080fd5b50508035926020909101359150565b6000806040838503121561472b57600080fd5b823561473681613fe5565b946020939093013593505050565b600080600080600060a0868803121561475c57600080fd5b853561476781613fe5565b9450602086013561477781613fe5565b9350604086013592506060860135915060808601356001600160401b038111156147a057600080fd5b6143be88828901613e6d565b8183823760009101908152919050565b60208082526027908201527f476f7665726e6f72436f6e74726163743a2063616c6c6572206973206e6f74206040820152667468652044414f60c81b606082015260800190565b634e487b7160e01b600052603260045260246000fd5b602080825260189082015277476f7665726e6f723a206f6e6c79476f7665726e616e636560401b604082015260600190565b600181811c9082168061485f57607f821691505b60208210810361487f57634e487b7160e01b600052602260045260246000fd5b50919050565b60208082526021908201527f476f7665726e6f723a2070726f706f73616c206e6f74207375636365737366756040820152601b60fa1b606082015260800190565b6000602082840312156148d857600080fd5b5051919050565b600081518084526020808501945080840160005b838110156144f45781516001600160a01b0316875295820195908201906001016148f3565b600082825180855260208086019550808260051b84010181860160005b8481101561496357601f19868403018952614951838351613fa6565b98840198925090830190600101614935565b5090979650505050505050565b60a08152600061498360a08301886148df565b828103602084015261499581886144c4565b905082810360408401526149a98187614918565b60608401959095525050608001529392505050565b60c0815260006149d160c08301896148df565b82810360208401526149e381896144c4565b905082810360408401526149f78188614918565b60608401969096525050608081019290925260a0909101529392505050565b634e487b7160e01b600052601160045260246000fd5b80820180821115610afe57610afe614a16565b600060208284031215614a5157600080fd5b81516001600160401b03811115614a6757600080fd5b8201601f81018413614a7857600080fd5b8051614a86613e8c82613e46565b818152856020838501011115614a9b57600080fd5b611605826020830160208601613f82565b81810381811115610afe57610afe614a16565b600060208284031215614ad157600080fd5b815165ffffffffffff8116811461188757600080fd5b608081526000614afa60808301876148df565b8281036020840152614b0c81876144c4565b90508281036040840152614b208186614918565b91505082606083015295945050505050565b84815260ff8416602082015282604082015260806060820152600061133d6080830184613fa6565b85815260ff8516602082015283604082015260a060608201526000614b8260a0830185613fa6565b828103608084015261186b8185613fa6565b600060018201614ba657614ba6614a16565b5060010190565b600060208284031215614bbf57600080fd5b8151801515811461188757600080fd5b60208082526021908201527f476f7665726e6f723a20696e76616c69642070726f706f73616c206c656e67746040820152600d60fb1b606082015260800190565b60006101208b8352602060018060a01b038c1681850152816040850152614c398285018c6148df565b91508382036060850152614c4d828b6144c4565b915083820360808501528189518084528284019150828160051b850101838c0160005b83811015614c9e57601f19878403018552614c8c838351613fa6565b94860194925090850190600101614c70565b505086810360a0880152614cb2818c614918565b9450505050508560c08401528460e0840152828103610100840152614cd78185613fa6565b9c9b505050505050505050505050565b8082028115828204841417610afe57610afe614a16565b634e487b7160e01b600052601260045260246000fd5b600082614d3157634e487b7160e01b600052601260045260246000fd5b50049056fe476f7665726e6f723a2072656c617920726576657274656420776974686f7574206d657373616765a2646970667358221220d5a876dd2cef9443d297e32209bc22573f965cd7a07ed476cf439b0a28d5787764736f6c63430008130033",
  "linkReferences": {},
  "deployedLinkReferences": {}
}