{
  "_format": "hh-sol-artifact-1",
  "contractName": "GovernorContract",
  "sourceName": "contracts/Governance_standard/GovernorContract.sol",
  "abi": [
    {
      "inputs": [
        {
          "internalType": "contract IVotes",
          "name": "_token",
          "type": "address"
        },
        {
          "internalType": "contract TimelockController",
          "name": "_timelock",
          "type": "address"
        },
        {
          "internalType": "uint256",
          "name": "_votingDelay",
          "type": "uint256"
        },
        {
          "internalType": "uint256",
          "name": "_votingPeriod",
          "type": "uint256"
        },
        {
          "internalType": "uint256",
          "name": "_quorumPercentage",
          "type": "uint256"
        }
      ],
      "stateMutability": "nonpayable",
      "type": "constructor"
    },
    {
      "inputs": [],
      "name": "CheckpointUnorderedInsertion",
      "type": "error"
    },
    {
      "inputs": [],
      "name": "FailedInnerCall",
      "type": "error"
    },
    {
      "inputs": [
        {
          "internalType": "address",
          "name": "voter",
          "type": "address"
        }
      ],
      "name": "GovernorAlreadyCastVote",
      "type": "error"
    },
    {
      "inputs": [
        {
          "internalType": "uint256",
          "name": "proposalId",
          "type": "uint256"
        }
      ],
      "name": "GovernorAlreadyQueuedProposal",
      "type": "error"
    },
    {
      "inputs": [],
      "name": "GovernorDisabledDeposit",
      "type": "error"
    },
    {
      "inputs": [
        {
          "internalType": "address",
          "name": "proposer",
          "type": "address"
        },
        {
          "internalType": "uint256",
          "name": "votes",
          "type": "uint256"
        },
        {
          "internalType": "uint256",
          "name": "threshold",
          "type": "uint256"
        }
      ],
      "name": "GovernorInsufficientProposerVotes",
      "type": "error"
    },
    {
      "inputs": [
        {
          "internalType": "uint256",
          "name": "targets",
          "type": "uint256"
        },
        {
          "internalType": "uint256",
          "name": "calldatas",
          "type": "uint256"
        },
        {
          "internalType": "uint256",
          "name": "values",
          "type": "uint256"
        }
      ],
      "name": "GovernorInvalidProposalLength",
      "type": "error"
    },
    {
      "inputs": [
        {
          "internalType": "uint256",
          "name": "quorumNumerator",
          "type": "uint256"
        },
        {
          "internalType": "uint256",
          "name": "quorumDenominator",
          "type": "uint256"
        }
      ],
      "name": "GovernorInvalidQuorumFraction",
      "type": "error"
    },
    {
      "inputs": [
        {
          "internalType": "address",
          "name": "voter",
          "type": "address"
        }
      ],
      "name": "GovernorInvalidSignature",
      "type": "error"
    },
    {
      "inputs": [],
      "name": "GovernorInvalidVoteType",
      "type": "error"
    },
    {
      "inputs": [
        {
          "internalType": "uint256",
          "name": "votingPeriod",
          "type": "uint256"
        }
      ],
      "name": "GovernorInvalidVotingPeriod",
      "type": "error"
    },
    {
      "inputs": [
        {
          "internalType": "uint256",
          "name": "proposalId",
          "type": "uint256"
        }
      ],
      "name": "GovernorNonexistentProposal",
      "type": "error"
    },
    {
      "inputs": [
        {
          "internalType": "uint256",
          "name": "proposalId",
          "type": "uint256"
        }
      ],
      "name": "GovernorNotQueuedProposal",
      "type": "error"
    },
    {
      "inputs": [
        {
          "internalType": "address",
          "name": "account",
          "type": "address"
        }
      ],
      "name": "GovernorOnlyExecutor",
      "type": "error"
    },
    {
      "inputs": [
        {
          "internalType": "address",
          "name": "account",
          "type": "address"
        }
      ],
      "name": "GovernorOnlyProposer",
      "type": "error"
    },
    {
      "inputs": [],
      "name": "GovernorQueueNotImplemented",
      "type": "error"
    },
    {
      "inputs": [
        {
          "internalType": "address",
          "name": "proposer",
          "type": "address"
        }
      ],
      "name": "GovernorRestrictedProposer",
      "type": "error"
    },
    {
      "inputs": [
        {
          "internalType": "uint256",
          "name": "proposalId",
          "type": "uint256"
        },
        {
          "internalType": "enum IGovernor.ProposalState",
          "name": "current",
          "type": "uint8"
        },
        {
          "internalType": "bytes32",
          "name": "expectedStates",
          "type": "bytes32"
        }
      ],
      "name": "GovernorUnexpectedProposalState",
      "type": "error"
    },
    {
      "inputs": [
        {
          "internalType": "address",
          "name": "account",
          "type": "address"
        },
        {
          "internalType": "uint256",
          "name": "currentNonce",
          "type": "uint256"
        }
      ],
      "name": "InvalidAccountNonce",
      "type": "error"
    },
    {
      "inputs": [],
      "name": "InvalidShortString",
      "type": "error"
    },
    {
      "inputs": [],
      "name": "QueueEmpty",
      "type": "error"
    },
    {
      "inputs": [],
      "name": "QueueFull",
      "type": "error"
    },
    {
      "inputs": [
        {
          "internalType": "uint8",
          "name": "bits",
          "type": "uint8"
        },
        {
          "internalType": "uint256",
          "name": "value",
          "type": "uint256"
        }
      ],
      "name": "SafeCastOverflowedUintDowncast",
      "type": "error"
    },
    {
      "inputs": [
        {
          "internalType": "string",
          "name": "str",
          "type": "string"
        }
      ],
      "name": "StringTooLong",
      "type": "error"
    },
    {
      "anonymous": false,
      "inputs": [],
      "name": "EIP712DomainChanged",
      "type": "event"
    },
    {
      "anonymous": false,
      "inputs": [
        {
          "indexed": false,
          "internalType": "uint256",
          "name": "proposalId",
          "type": "uint256"
        }
      ],
      "name": "ProposalCanceled",
      "type": "event"
    },
    {
      "anonymous": false,
      "inputs": [
        {
          "indexed": false,
          "internalType": "uint256",
          "name": "proposalId",
          "type": "uint256"
        },
        {
          "indexed": false,
          "internalType": "address",
          "name": "proposer",
          "type": "address"
        },
        {
          "indexed": false,
          "internalType": "address[]",
          "name": "targets",
          "type": "address[]"
        },
        {
          "indexed": false,
          "internalType": "uint256[]",
          "name": "values",
          "type": "uint256[]"
        },
        {
          "indexed": false,
          "internalType": "string[]",
          "name": "signatures",
          "type": "string[]"
        },
        {
          "indexed": false,
          "internalType": "bytes[]",
          "name": "calldatas",
          "type": "bytes[]"
        },
        {
          "indexed": false,
          "internalType": "uint256",
          "name": "voteStart",
          "type": "uint256"
        },
        {
          "indexed": false,
          "internalType": "uint256",
          "name": "voteEnd",
          "type": "uint256"
        },
        {
          "indexed": false,
          "internalType": "string",
          "name": "description",
          "type": "string"
        }
      ],
      "name": "ProposalCreated",
      "type": "event"
    },
    {
      "anonymous": false,
      "inputs": [
        {
          "indexed": false,
          "internalType": "uint256",
          "name": "proposalId",
          "type": "uint256"
        }
      ],
      "name": "ProposalExecuted",
      "type": "event"
    },
    {
      "anonymous": false,
      "inputs": [
        {
          "indexed": false,
          "internalType": "uint256",
          "name": "proposalId",
          "type": "uint256"
        },
        {
          "indexed": false,
          "internalType": "uint256",
          "name": "etaSeconds",
          "type": "uint256"
        }
      ],
      "name": "ProposalQueued",
      "type": "event"
    },
    {
      "anonymous": false,
      "inputs": [
        {
          "indexed": false,
          "internalType": "uint256",
          "name": "oldProposalThreshold",
          "type": "uint256"
        },
        {
          "indexed": false,
          "internalType": "uint256",
          "name": "newProposalThreshold",
          "type": "uint256"
        }
      ],
      "name": "ProposalThresholdSet",
      "type": "event"
    },
    {
      "anonymous": false,
      "inputs": [
        {
          "indexed": false,
          "internalType": "uint256",
          "name": "oldQuorumNumerator",
          "type": "uint256"
        },
        {
          "indexed": false,
          "internalType": "uint256",
          "name": "newQuorumNumerator",
          "type": "uint256"
        }
      ],
      "name": "QuorumNumeratorUpdated",
      "type": "event"
    },
    {
      "anonymous": false,
      "inputs": [
        {
          "indexed": false,
          "internalType": "address",
          "name": "oldTimelock",
          "type": "address"
        },
        {
          "indexed": false,
          "internalType": "address",
          "name": "newTimelock",
          "type": "address"
        }
      ],
      "name": "TimelockChange",
      "type": "event"
    },
    {
      "anonymous": false,
      "inputs": [
        {
          "indexed": true,
          "internalType": "address",
          "name": "voter",
          "type": "address"
        },
        {
          "indexed": false,
          "internalType": "uint256",
          "name": "proposalId",
          "type": "uint256"
        },
        {
          "indexed": false,
          "internalType": "uint8",
          "name": "support",
          "type": "uint8"
        },
        {
          "indexed": false,
          "internalType": "uint256",
          "name": "weight",
          "type": "uint256"
        },
        {
          "indexed": false,
          "internalType": "string",
          "name": "reason",
          "type": "string"
        }
      ],
      "name": "VoteCast",
      "type": "event"
    },
    {
      "anonymous": false,
      "inputs": [
        {
          "indexed": true,
          "internalType": "address",
          "name": "voter",
          "type": "address"
        },
        {
          "indexed": false,
          "internalType": "uint256",
          "name": "proposalId",
          "type": "uint256"
        },
        {
          "indexed": false,
          "internalType": "uint8",
          "name": "support",
          "type": "uint8"
        },
        {
          "indexed": false,
          "internalType": "uint256",
          "name": "weight",
          "type": "uint256"
        },
        {
          "indexed": false,
          "internalType": "string",
          "name": "reason",
          "type": "string"
        },
        {
          "indexed": false,
          "internalType": "bytes",
          "name": "params",
          "type": "bytes"
        }
      ],
      "name": "VoteCastWithParams",
      "type": "event"
    },
    {
      "anonymous": false,
      "inputs": [
        {
          "indexed": false,
          "internalType": "uint256",
          "name": "oldVotingDelay",
          "type": "uint256"
        },
        {
          "indexed": false,
          "internalType": "uint256",
          "name": "newVotingDelay",
          "type": "uint256"
        }
      ],
      "name": "VotingDelaySet",
      "type": "event"
    },
    {
      "anonymous": false,
      "inputs": [
        {
          "indexed": false,
          "internalType": "uint256",
          "name": "oldVotingPeriod",
          "type": "uint256"
        },
        {
          "indexed": false,
          "internalType": "uint256",
          "name": "newVotingPeriod",
          "type": "uint256"
        }
      ],
      "name": "VotingPeriodSet",
      "type": "event"
    },
    {
      "inputs": [],
      "name": "BALLOT_TYPEHASH",
      "outputs": [
        {
          "internalType": "bytes32",
          "name": "",
          "type": "bytes32"
        }
      ],
      "stateMutability": "view",
      "type": "function"
    },
    {
      "inputs": [],
      "name": "CLOCK_MODE",
      "outputs": [
        {
          "internalType": "string",
          "name": "",
          "type": "string"
        }
      ],
      "stateMutability": "view",
      "type": "function"
    },
    {
      "inputs": [],
      "name": "COUNTING_MODE",
      "outputs": [
        {
          "internalType": "string",
          "name": "",
          "type": "string"
        }
      ],
      "stateMutability": "pure",
      "type": "function"
    },
    {
      "inputs": [],
      "name": "EXTENDED_BALLOT_TYPEHASH",
      "outputs": [
        {
          "internalType": "bytes32",
          "name": "",
          "type": "bytes32"
        }
      ],
      "stateMutability": "view",
      "type": "function"
    },
    {
      "inputs": [
        {
          "internalType": "address[]",
          "name": "targets",
          "type": "address[]"
        },
        {
          "internalType": "uint256[]",
          "name": "values",
          "type": "uint256[]"
        },
        {
          "internalType": "bytes[]",
          "name": "calldatas",
          "type": "bytes[]"
        },
        {
          "internalType": "bytes32",
          "name": "descriptionHash",
          "type": "bytes32"
        }
      ],
      "name": "cancel",
      "outputs": [
        {
          "internalType": "uint256",
          "name": "",
          "type": "uint256"
        }
      ],
      "stateMutability": "nonpayable",
      "type": "function"
    },
    {
      "inputs": [
        {
          "internalType": "uint256",
          "name": "proposalId",
          "type": "uint256"
        },
        {
          "internalType": "uint8",
          "name": "support",
          "type": "uint8"
        }
      ],
      "name": "castVote",
      "outputs": [
        {
          "internalType": "uint256",
          "name": "",
          "type": "uint256"
        }
      ],
      "stateMutability": "nonpayable",
      "type": "function"
    },
    {
      "inputs": [
        {
          "internalType": "uint256",
          "name": "proposalId",
          "type": "uint256"
        },
        {
          "internalType": "uint8",
          "name": "support",
          "type": "uint8"
        },
        {
          "internalType": "address",
          "name": "voter",
          "type": "address"
        },
        {
          "internalType": "bytes",
          "name": "signature",
          "type": "bytes"
        }
      ],
      "name": "castVoteBySig",
      "outputs": [
        {
          "internalType": "uint256",
          "name": "",
          "type": "uint256"
        }
      ],
      "stateMutability": "nonpayable",
      "type": "function"
    },
    {
      "inputs": [
        {
          "internalType": "uint256",
          "name": "proposalId",
          "type": "uint256"
        },
        {
          "internalType": "uint8",
          "name": "support",
          "type": "uint8"
        },
        {
          "internalType": "string",
          "name": "reason",
          "type": "string"
        }
      ],
      "name": "castVoteWithReason",
      "outputs": [
        {
          "internalType": "uint256",
          "name": "",
          "type": "uint256"
        }
      ],
      "stateMutability": "nonpayable",
      "type": "function"
    },
    {
      "inputs": [
        {
          "internalType": "uint256",
          "name": "proposalId",
          "type": "uint256"
        },
        {
          "internalType": "uint8",
          "name": "support",
          "type": "uint8"
        },
        {
          "internalType": "string",
          "name": "reason",
          "type": "string"
        },
        {
          "internalType": "bytes",
          "name": "params",
          "type": "bytes"
        }
      ],
      "name": "castVoteWithReasonAndParams",
      "outputs": [
        {
          "internalType": "uint256",
          "name": "",
          "type": "uint256"
        }
      ],
      "stateMutability": "nonpayable",
      "type": "function"
    },
    {
      "inputs": [
        {
          "internalType": "uint256",
          "name": "proposalId",
          "type": "uint256"
        },
        {
          "internalType": "uint8",
          "name": "support",
          "type": "uint8"
        },
        {
          "internalType": "address",
          "name": "voter",
          "type": "address"
        },
        {
          "internalType": "string",
          "name": "reason",
          "type": "string"
        },
        {
          "internalType": "bytes",
          "name": "params",
          "type": "bytes"
        },
        {
          "internalType": "bytes",
          "name": "signature",
          "type": "bytes"
        }
      ],
      "name": "castVoteWithReasonAndParamsBySig",
      "outputs": [
        {
          "internalType": "uint256",
          "name": "",
          "type": "uint256"
        }
      ],
      "stateMutability": "nonpayable",
      "type": "function"
    },
    {
      "inputs": [],
      "name": "clock",
      "outputs": [
        {
          "internalType": "uint48",
          "name": "",
          "type": "uint48"
        }
      ],
      "stateMutability": "view",
      "type": "function"
    },
    {
      "inputs": [],
      "name": "eip712Domain",
      "outputs": [
        {
          "internalType": "bytes1",
          "name": "fields",
          "type": "bytes1"
        },
        {
          "internalType": "string",
          "name": "name",
          "type": "string"
        },
        {
          "internalType": "string",
          "name": "version",
          "type": "string"
        },
        {
          "internalType": "uint256",
          "name": "chainId",
          "type": "uint256"
        },
        {
          "internalType": "address",
          "name": "verifyingContract",
          "type": "address"
        },
        {
          "internalType": "bytes32",
          "name": "salt",
          "type": "bytes32"
        },
        {
          "internalType": "uint256[]",
          "name": "extensions",
          "type": "uint256[]"
        }
      ],
      "stateMutability": "view",
      "type": "function"
    },
    {
      "inputs": [
        {
          "internalType": "address[]",
          "name": "targets",
          "type": "address[]"
        },
        {
          "internalType": "uint256[]",
          "name": "values",
          "type": "uint256[]"
        },
        {
          "internalType": "bytes[]",
          "name": "calldatas",
          "type": "bytes[]"
        },
        {
          "internalType": "bytes32",
          "name": "descriptionHash",
          "type": "bytes32"
        }
      ],
      "name": "execute",
      "outputs": [
        {
          "internalType": "uint256",
          "name": "",
          "type": "uint256"
        }
      ],
      "stateMutability": "payable",
      "type": "function"
    },
    {
      "inputs": [
        {
          "internalType": "address",
          "name": "account",
          "type": "address"
        },
        {
          "internalType": "uint256",
          "name": "timepoint",
          "type": "uint256"
        }
      ],
      "name": "getVotes",
      "outputs": [
        {
          "internalType": "uint256",
          "name": "",
          "type": "uint256"
        }
      ],
      "stateMutability": "view",
      "type": "function"
    },
    {
      "inputs": [
        {
          "internalType": "address",
          "name": "account",
          "type": "address"
        },
        {
          "internalType": "uint256",
          "name": "timepoint",
          "type": "uint256"
        },
        {
          "internalType": "bytes",
          "name": "params",
          "type": "bytes"
        }
      ],
      "name": "getVotesWithParams",
      "outputs": [
        {
          "internalType": "uint256",
          "name": "",
          "type": "uint256"
        }
      ],
      "stateMutability": "view",
      "type": "function"
    },
    {
      "inputs": [
        {
          "internalType": "uint256",
          "name": "proposalId",
          "type": "uint256"
        },
        {
          "internalType": "address",
          "name": "account",
          "type": "address"
        }
      ],
      "name": "hasVoted",
      "outputs": [
        {
          "internalType": "bool",
          "name": "",
          "type": "bool"
        }
      ],
      "stateMutability": "view",
      "type": "function"
    },
    {
      "inputs": [
        {
          "internalType": "address[]",
          "name": "targets",
          "type": "address[]"
        },
        {
          "internalType": "uint256[]",
          "name": "values",
          "type": "uint256[]"
        },
        {
          "internalType": "bytes[]",
          "name": "calldatas",
          "type": "bytes[]"
        },
        {
          "internalType": "bytes32",
          "name": "descriptionHash",
          "type": "bytes32"
        }
      ],
      "name": "hashProposal",
      "outputs": [
        {
          "internalType": "uint256",
          "name": "",
          "type": "uint256"
        }
      ],
      "stateMutability": "pure",
      "type": "function"
    },
    {
      "inputs": [],
      "name": "name",
      "outputs": [
        {
          "internalType": "string",
          "name": "",
          "type": "string"
        }
      ],
      "stateMutability": "view",
      "type": "function"
    },
    {
      "inputs": [
        {
          "internalType": "address",
          "name": "owner",
          "type": "address"
        }
      ],
      "name": "nonces",
      "outputs": [
        {
          "internalType": "uint256",
          "name": "",
          "type": "uint256"
        }
      ],
      "stateMutability": "view",
      "type": "function"
    },
    {
      "inputs": [
        {
          "internalType": "address",
          "name": "",
          "type": "address"
        },
        {
          "internalType": "address",
          "name": "",
          "type": "address"
        },
        {
          "internalType": "uint256[]",
          "name": "",
          "type": "uint256[]"
        },
        {
          "internalType": "uint256[]",
          "name": "",
          "type": "uint256[]"
        },
        {
          "internalType": "bytes",
          "name": "",
          "type": "bytes"
        }
      ],
      "name": "onERC1155BatchReceived",
      "outputs": [
        {
          "internalType": "bytes4",
          "name": "",
          "type": "bytes4"
        }
      ],
      "stateMutability": "nonpayable",
      "type": "function"
    },
    {
      "inputs": [
        {
          "internalType": "address",
          "name": "",
          "type": "address"
        },
        {
          "internalType": "address",
          "name": "",
          "type": "address"
        },
        {
          "internalType": "uint256",
          "name": "",
          "type": "uint256"
        },
        {
          "internalType": "uint256",
          "name": "",
          "type": "uint256"
        },
        {
          "internalType": "bytes",
          "name": "",
          "type": "bytes"
        }
      ],
      "name": "onERC1155Received",
      "outputs": [
        {
          "internalType": "bytes4",
          "name": "",
          "type": "bytes4"
        }
      ],
      "stateMutability": "nonpayable",
      "type": "function"
    },
    {
      "inputs": [
        {
          "internalType": "address",
          "name": "",
          "type": "address"
        },
        {
          "internalType": "address",
          "name": "",
          "type": "address"
        },
        {
          "internalType": "uint256",
          "name": "",
          "type": "uint256"
        },
        {
          "internalType": "bytes",
          "name": "",
          "type": "bytes"
        }
      ],
      "name": "onERC721Received",
      "outputs": [
        {
          "internalType": "bytes4",
          "name": "",
          "type": "bytes4"
        }
      ],
      "stateMutability": "nonpayable",
      "type": "function"
    },
    {
      "inputs": [
        {
          "internalType": "uint256",
          "name": "proposalId",
          "type": "uint256"
        }
      ],
      "name": "proposalDeadline",
      "outputs": [
        {
          "internalType": "uint256",
          "name": "",
          "type": "uint256"
        }
      ],
      "stateMutability": "view",
      "type": "function"
    },
    {
      "inputs": [
        {
          "internalType": "uint256",
          "name": "proposalId",
          "type": "uint256"
        }
      ],
      "name": "proposalEta",
      "outputs": [
        {
          "internalType": "uint256",
          "name": "",
          "type": "uint256"
        }
      ],
      "stateMutability": "view",
      "type": "function"
    },
    {
      "inputs": [
        {
          "internalType": "uint256",
          "name": "proposalId",
          "type": "uint256"
        }
      ],
      "name": "proposalNeedsQueuing",
      "outputs": [
        {
          "internalType": "bool",
          "name": "",
          "type": "bool"
        }
      ],
      "stateMutability": "view",
      "type": "function"
    },
    {
      "inputs": [
        {
          "internalType": "uint256",
          "name": "proposalId",
          "type": "uint256"
        }
      ],
      "name": "proposalProposer",
      "outputs": [
        {
          "internalType": "address",
          "name": "",
          "type": "address"
        }
      ],
      "stateMutability": "view",
      "type": "function"
    },
    {
      "inputs": [
        {
          "internalType": "uint256",
          "name": "proposalId",
          "type": "uint256"
        }
      ],
      "name": "proposalSnapshot",
      "outputs": [
        {
          "internalType": "uint256",
          "name": "",
          "type": "uint256"
        }
      ],
      "stateMutability": "view",
      "type": "function"
    },
    {
      "inputs": [],
      "name": "proposalThreshold",
      "outputs": [
        {
          "internalType": "uint256",
          "name": "",
          "type": "uint256"
        }
      ],
      "stateMutability": "view",
      "type": "function"
    },
    {
      "inputs": [
        {
          "internalType": "uint256",
          "name": "proposalId",
          "type": "uint256"
        }
      ],
      "name": "proposalVotes",
      "outputs": [
        {
          "internalType": "uint256",
          "name": "againstVotes",
          "type": "uint256"
        },
        {
          "internalType": "uint256",
          "name": "forVotes",
          "type": "uint256"
        },
        {
          "internalType": "uint256",
          "name": "abstainVotes",
          "type": "uint256"
        }
      ],
      "stateMutability": "view",
      "type": "function"
    },
    {
      "inputs": [
        {
          "internalType": "address[]",
          "name": "targets",
          "type": "address[]"
        },
        {
          "internalType": "uint256[]",
          "name": "values",
          "type": "uint256[]"
        },
        {
          "internalType": "bytes[]",
          "name": "calldatas",
          "type": "bytes[]"
        },
        {
          "internalType": "string",
          "name": "description",
          "type": "string"
        }
      ],
      "name": "propose",
      "outputs": [
        {
          "internalType": "uint256",
          "name": "",
          "type": "uint256"
        }
      ],
      "stateMutability": "nonpayable",
      "type": "function"
    },
    {
      "inputs": [
        {
          "internalType": "address[]",
          "name": "targets",
          "type": "address[]"
        },
        {
          "internalType": "uint256[]",
          "name": "values",
          "type": "uint256[]"
        },
        {
          "internalType": "bytes[]",
          "name": "calldatas",
          "type": "bytes[]"
        },
        {
          "internalType": "bytes32",
          "name": "descriptionHash",
          "type": "bytes32"
        }
      ],
      "name": "queue",
      "outputs": [
        {
          "internalType": "uint256",
          "name": "",
          "type": "uint256"
        }
      ],
      "stateMutability": "nonpayable",
      "type": "function"
    },
    {
      "inputs": [
        {
          "internalType": "uint256",
          "name": "blockNumber",
          "type": "uint256"
        }
      ],
      "name": "quorum",
      "outputs": [
        {
          "internalType": "uint256",
          "name": "",
          "type": "uint256"
        }
      ],
      "stateMutability": "view",
      "type": "function"
    },
    {
      "inputs": [],
      "name": "quorumDenominator",
      "outputs": [
        {
          "internalType": "uint256",
          "name": "",
          "type": "uint256"
        }
      ],
      "stateMutability": "view",
      "type": "function"
    },
    {
      "inputs": [
        {
          "internalType": "uint256",
          "name": "timepoint",
          "type": "uint256"
        }
      ],
      "name": "quorumNumerator",
      "outputs": [
        {
          "internalType": "uint256",
          "name": "",
          "type": "uint256"
        }
      ],
      "stateMutability": "view",
      "type": "function"
    },
    {
      "inputs": [],
      "name": "quorumNumerator",
      "outputs": [
        {
          "internalType": "uint256",
          "name": "",
          "type": "uint256"
        }
      ],
      "stateMutability": "view",
      "type": "function"
    },
    {
      "inputs": [
        {
          "internalType": "address",
          "name": "target",
          "type": "address"
        },
        {
          "internalType": "uint256",
          "name": "value",
          "type": "uint256"
        },
        {
          "internalType": "bytes",
          "name": "data",
          "type": "bytes"
        }
      ],
      "name": "relay",
      "outputs": [],
      "stateMutability": "payable",
      "type": "function"
    },
    {
      "inputs": [
        {
          "internalType": "uint256",
          "name": "newProposalThreshold",
          "type": "uint256"
        }
      ],
      "name": "setProposalThreshold",
      "outputs": [],
      "stateMutability": "nonpayable",
      "type": "function"
    },
    {
      "inputs": [
        {
          "internalType": "uint48",
          "name": "newVotingDelay",
          "type": "uint48"
        }
      ],
      "name": "setVotingDelay",
      "outputs": [],
      "stateMutability": "nonpayable",
      "type": "function"
    },
    {
      "inputs": [
        {
          "internalType": "uint32",
          "name": "newVotingPeriod",
          "type": "uint32"
        }
      ],
      "name": "setVotingPeriod",
      "outputs": [],
      "stateMutability": "nonpayable",
      "type": "function"
    },
    {
      "inputs": [
        {
          "internalType": "uint256",
          "name": "proposalId",
          "type": "uint256"
        }
      ],
      "name": "state",
      "outputs": [
        {
          "internalType": "enum IGovernor.ProposalState",
          "name": "",
          "type": "uint8"
        }
      ],
      "stateMutability": "view",
      "type": "function"
    },
    {
      "inputs": [
        {
          "internalType": "bytes4",
          "name": "interfaceId",
          "type": "bytes4"
        }
      ],
      "name": "supportsInterface",
      "outputs": [
        {
          "internalType": "bool",
          "name": "",
          "type": "bool"
        }
      ],
      "stateMutability": "view",
      "type": "function"
    },
    {
      "inputs": [],
      "name": "timelock",
      "outputs": [
        {
          "internalType": "address",
          "name": "",
          "type": "address"
        }
      ],
      "stateMutability": "view",
      "type": "function"
    },
    {
      "inputs": [],
      "name": "token",
      "outputs": [
        {
          "internalType": "contract IERC5805",
          "name": "",
          "type": "address"
        }
      ],
      "stateMutability": "view",
      "type": "function"
    },
    {
      "inputs": [
        {
          "internalType": "uint256",
          "name": "newQuorumNumerator",
          "type": "uint256"
        }
      ],
      "name": "updateQuorumNumerator",
      "outputs": [],
      "stateMutability": "nonpayable",
      "type": "function"
    },
    {
      "inputs": [
        {
          "internalType": "contract TimelockController",
          "name": "newTimelock",
          "type": "address"
        }
      ],
      "name": "updateTimelock",
      "outputs": [],
      "stateMutability": "nonpayable",
      "type": "function"
    },
    {
      "inputs": [],
      "name": "version",
      "outputs": [
        {
          "internalType": "string",
          "name": "",
          "type": "string"
        }
      ],
      "stateMutability": "view",
      "type": "function"
    },
    {
      "inputs": [],
      "name": "votingDelay",
      "outputs": [
        {
          "internalType": "uint256",
          "name": "",
          "type": "uint256"
        }
      ],
      "stateMutability": "view",
      "type": "function"
    },
    {
      "inputs": [],
      "name": "votingPeriod",
      "outputs": [
        {
          "internalType": "uint256",
          "name": "",
          "type": "uint256"
        }
      ],
      "stateMutability": "view",
      "type": "function"
    },
    {
      "stateMutability": "payable",
      "type": "receive"
    }
  ],
  "bytecode": "0x6101806040523480156200001257600080fd5b5060405162004d0538038062004d058339810160408190526200003591620007b0565b838186858560006040518060400160405280601081526020016f11dbdd995c9b9bdc90dbdb9d1c9858dd60821b81525080620000766200019060201b60201c565b62000083826000620001ab565b6101205262000094816001620001ab565b61014052815160208084019190912060e052815190820120610100524660a0526200012260e05161010051604080517f8b73c3c69bb8fe3d512ecc4cf759cc79239f7b179b0ffacaa9a75d522b39400f60208201529081019290925260608201524660808201523060a082015260009060c00160405160208183030381529060405280519060200120905090565b60805250503060c0526003620001398282620008ad565b5062000147905083620001e4565b62000152826200024a565b6200015d81620002f1565b5050506001600160a01b031661016052620001788162000332565b506200018481620003d2565b50505050505062000a3a565b6040805180820190915260018152603160f81b602082015290565b6000602083511015620001cb57620001c3836200043b565b9050620001de565b81620001d88482620008ad565b5060ff90505b92915050565b6008546040805165ffffffffffff928316815291831660208301527fc565b045403dc03c2eea82b81a0465edad9e2e7fc4d97e11421c209da93d7a93910160405180910390a16008805465ffffffffffff191665ffffffffffff92909216919091179055565b8063ffffffff166000036200027a5760405163f1cfbf0560e01b8152600060048201526024015b60405180910390fd5b6008546040805163ffffffff66010000000000009093048316815291831660208301527f7e3f7f0708a84de9203036abaa450dccc85ad5ff52f78c170f3edb55cf5e8828910160405180910390a16008805463ffffffff90921666010000000000000263ffffffff60301b19909216919091179055565b60075460408051918252602082018390527fccb45da8d5717e6c4544694297c4ba5cf151d455c9bb0ed4fc7a38411bc05461910160405180910390a1600755565b606480821115620003615760405163243e544560e01b8152600481018390526024810182905260440162000271565b60006200036d6200047e565b9050620003926200037d6200049a565b62000388856200051c565b600a919062000556565b505060408051828152602081018590527f0553476bf02ef2726e8ce5ced78d63e26e602e4a2257b1f559418e24b4633997910160405180910390a1505050565b600b54604080516001600160a01b03928316815291831660208301527f08f74ea46ef7894f65eabfb5e6e695de773a000b47c529ab559178069b226401910160405180910390a1600b80546001600160a01b0319166001600160a01b0392909216919091179055565b600080829050601f8151111562000469578260405163305a27a960e01b815260040162000271919062000979565b80516200047682620009c9565b179392505050565b60006200048c600a62000573565b6001600160d01b0316905090565b6000620004a76101605190565b6001600160a01b03166391ddadf46040518163ffffffff1660e01b8152600401602060405180830381865afa92505050801562000503575060408051601f3d908101601f191682019092526200050091810190620009ee565b60015b620005175762000512620005c3565b905090565b919050565b60006001600160d01b0382111562000552576040516306dfcc6560e41b815260d060048201526024810183905260440162000271565b5090565b60008062000566858585620005d0565b915091505b935093915050565b80546000908015620005b9576200059f836200059160018462000a18565b600091825260209091200190565b54660100000000000090046001600160d01b0316620005bc565b60005b9392505050565b6000620005124362000762565b82546000908190801562000703576000620005f2876200059160018562000a18565b60408051808201909152905465ffffffffffff80821680845266010000000000009092046001600160d01b0316602084015291925090871610156200064a57604051632520601d60e01b815260040160405180910390fd5b805165ffffffffffff8088169116036200069e578462000671886200059160018662000a18565b80546001600160d01b039290921666010000000000000265ffffffffffff909216919091179055620006f2565b6040805180820190915265ffffffffffff80881682526001600160d01b0380881660208085019182528b54600181018d5560008d815291909120945191519092166601000000000000029216919091179101555b6020015192508391506200056b9050565b50506040805180820190915265ffffffffffff80851682526001600160d01b0380851660208085019182528854600181018a5560008a81529182209551925190931666010000000000000291909316179201919091559050816200056b565b600065ffffffffffff82111562000552576040516306dfcc6560e41b8152603060048201526024810183905260440162000271565b6001600160a01b0381168114620007ad57600080fd5b50565b600080600080600060a08688031215620007c957600080fd5b8551620007d68162000797565b6020870151909550620007e98162000797565b6040870151606088015160809098015196999198509695945092505050565b634e487b7160e01b600052604160045260246000fd5b600181811c908216806200083357607f821691505b6020821081036200085457634e487b7160e01b600052602260045260246000fd5b50919050565b601f821115620008a857600081815260208120601f850160051c81016020861015620008835750805b601f850160051c820191505b81811015620008a4578281556001016200088f565b5050505b505050565b81516001600160401b03811115620008c957620008c962000808565b620008e181620008da84546200081e565b846200085a565b602080601f831160018114620009195760008415620009005750858301515b600019600386901b1c1916600185901b178555620008a4565b600085815260208120601f198616915b828110156200094a5788860151825594840194600190910190840162000929565b5085821015620009695787850151600019600388901b60f8161c191681555b5050505050600190811b01905550565b600060208083528351808285015260005b81811015620009a8578581018301518582016040015282016200098a565b506000604082860101526040601f19601f8301168501019250505092915050565b80516020808301519190811015620008545760001960209190910360031b1b16919050565b60006020828403121562000a0157600080fd5b815165ffffffffffff81168114620005bc57600080fd5b81810381811115620001de57634e487b7160e01b600052601160045260246000fd5b60805160a05160c05160e0516101005161012051610140516101605161426562000aa060003960006115a901526000611f6601526000611f39015260006127ea015260006127c20152600061271d015260006127470152600061277101526142656000f3fe6080604052600436106102975760003560e01c80637ecebe001161015a578063c01f9e37116100c1578063e540d01d1161007a578063e540d01d14610924578063eb9019d414610944578063ece40cc114610964578063f23a6e6114610984578063f8ce560a146109a4578063fc0c546a146109c457600080fd5b8063c01f9e3714610839578063c28bc2fa14610859578063c59057e41461086c578063d33219b41461088c578063dd4e2ba5146108aa578063deaaa7cc146108f057600080fd5b8063a7713a7011610113578063a7713a7014610777578063a890c9101461078c578063a9a95294146107ac578063ab58fb8e146107cc578063b58131b014610804578063bc197c811461081957600080fd5b80637ecebe001461069957806384b0196e146106cf5780638ff262e3146106f757806391ddadf41461071757806397c3d334146107435780639a802a6d1461075757600080fd5b806343859632116101fe5780635b8d0e0d116101b75780635b8d0e0d146105d95780635f398a14146105f957806360c4247f1461061957806379051887146106395780637b3c71d3146106595780637d5e81e21461067957600080fd5b806343859632146104bb578063452115d6146105055780634bf5d7e914610525578063544ffc9c1461053a57806354fd4d501461058f57806356781388146105b957600080fd5b8063160cbed711610250578063160cbed7146103f25780632656227d146104125780632d63f693146104255780632fe3e261146104455780633932abb1146104795780633e4f49e61461048e57600080fd5b806301ffc9a7146102d357806302a251a31461030857806306f3f9e61461033457806306fdde0314610354578063143489d014610376578063150b7a02146103b957600080fd5b366102ce57306102a56109d9565b6001600160a01b0316146102cc57604051637485328f60e11b815260040160405180910390fd5b005b600080fd5b3480156102df57600080fd5b506102f36102ee36600461318f565b6109f2565b60405190151581526020015b60405180910390f35b34801561031457600080fd5b50600854600160301b900463ffffffff165b6040519081526020016102ff565b34801561034057600080fd5b506102cc61034f3660046131b9565b610a44565b34801561036057600080fd5b50610369610a58565b6040516102ff9190613222565b34801561038257600080fd5b506103ac6103913660046131b9565b6000908152600460205260409020546001600160a01b031690565b6040516102ff9190613235565b3480156103c557600080fd5b506103d96103d4366004613329565b610aea565b6040516001600160e01b031990911681526020016102ff565b3480156103fe57600080fd5b5061032661040d366004613500565b610b2d565b610326610420366004613500565b610bfc565b34801561043157600080fd5b506103266104403660046131b9565b610d70565b34801561045157600080fd5b506103267f3e83946653575f9a39005e1545185629e92736b7528ab20ca3816f315424a81181565b34801561048557600080fd5b50610326610d91565b34801561049a57600080fd5b506104ae6104a93660046131b9565b610da4565b6040516102ff91906135c7565b3480156104c757600080fd5b506102f36104d63660046135d5565b60008281526009602090815260408083206001600160a01b038516845260030190915290205460ff1692915050565b34801561051157600080fd5b50610326610520366004613500565b610daf565b34801561053157600080fd5b50610369610e27565b34801561054657600080fd5b506105746105553660046131b9565b6000908152600960205260409020805460018201546002909201549092565b604080519384526020840192909252908201526060016102ff565b34801561059b57600080fd5b506040805180820190915260018152603160f81b6020820152610369565b3480156105c557600080fd5b506103266105d4366004613616565b610ed0565b3480156105e557600080fd5b506103266105f436600461368a565b610ef9565b34801561060557600080fd5b50610326610614366004613744565b611031565b34801561062557600080fd5b506103266106343660046131b9565b611086565b34801561064557600080fd5b506102cc6106543660046137db565b611114565b34801561066557600080fd5b506103266106743660046137f8565b611125565b34801561068557600080fd5b50610326610694366004613851565b61116d565b3480156106a557600080fd5b506103266106b4366004613905565b6001600160a01b031660009081526002602052604090205490565b3480156106db57600080fd5b506106e4611221565b6040516102ff979695949392919061395d565b34801561070357600080fd5b506103266107123660046139cd565b611267565b34801561072357600080fd5b5061072c611312565b60405165ffffffffffff90911681526020016102ff565b34801561074f57600080fd5b506064610326565b34801561076357600080fd5b50610326610772366004613a1e565b611381565b34801561078357600080fd5b5061032661138e565b34801561079857600080fd5b506102cc6107a7366004613905565b6113a8565b3480156107b857600080fd5b506102f36107c73660046131b9565b6113b9565b3480156107d857600080fd5b506103266107e73660046131b9565b60009081526004602052604090206001015465ffffffffffff1690565b34801561081057600080fd5b506103266113c2565b34801561082557600080fd5b506103d9610834366004613a76565b6113cd565b34801561084557600080fd5b506103266108543660046131b9565b611411565b6102cc610867366004613b09565b611454565b34801561087857600080fd5b50610326610887366004613500565b6114d4565b34801561089857600080fd5b50600b546001600160a01b03166103ac565b3480156108b657600080fd5b506040805180820190915260208082527f737570706f72743d627261766f2671756f72756d3d666f722c6162737461696e90820152610369565b3480156108fc57600080fd5b506103267ff2aad550cf55f045cb27e9c559f9889fdfb6e6cdaa032301d6ea397784ae51d781565b34801561093057600080fd5b506102cc61093f366004613b4c565b61150e565b34801561095057600080fd5b5061032661095f366004613b72565b61151f565b34801561097057600080fd5b506102cc61097f3660046131b9565b611547565b34801561099057600080fd5b506103d961099f366004613b9e565b611558565b3480156109b057600080fd5b506103266109bf3660046131b9565b61159c565b3480156109d057600080fd5b506103ac6115a7565b60006109ed600b546001600160a01b031690565b905090565b60006001600160e01b031982166332a2ad4360e11b1480610a2357506001600160e01b03198216630271189760e51b145b80610a3e57506301ffc9a760e01b6001600160e01b03198316145b92915050565b610a4c6115cb565b610a5581611645565b50565b606060038054610a6790613c06565b80601f0160208091040260200160405190810160405280929190818152602001828054610a9390613c06565b8015610ae05780601f10610ab557610100808354040283529160200191610ae0565b820191906000526020600020905b815481529060010190602001808311610ac357829003601f168201915b5050505050905090565b600030610af56109d9565b6001600160a01b031614610b1c57604051637485328f60e11b815260040160405180910390fd5b50630a85bd0160e11b949350505050565b600080610b3c868686866114d4565b9050610b5181610b4c60046116db565b6116fe565b506000610b61828888888861173d565b905065ffffffffffff811615610bd957600082815260046020908152604091829020600101805465ffffffffffff191665ffffffffffff85169081179091558251858152918201527f9a2e42fd6722813d69113e7d0079d3d940171428df7373df9c7f7617cfda2892910160405180910390a1610bf2565b604051634844252360e11b815260040160405180910390fd5b5095945050505050565b600080610c0b868686866114d4565b9050610c2b81610c1b60056116db565b610c2560046116db565b176116fe565b506000818152600460205260409020805460ff60f01b1916600160f01b17905530610c546109d9565b6001600160a01b031614610ce65760005b8651811015610ce457306001600160a01b0316878281518110610c8a57610c8a613c40565b60200260200101516001600160a01b031603610cd457610cd4858281518110610cb557610cb5613c40565b602002602001015180519060200120600561174c90919063ffffffff16565b610cdd81613c6c565b9050610c65565b505b610cf381878787876117bd565b30610cfc6109d9565b6001600160a01b031614158015610d2857506005546001600160801b03808216600160801b9092041614155b15610d335760006005555b6040518181527f712ae1383f79ac853f8d882153778e0260ef8f03b504e2866e0593e04d2b291f906020015b60405180910390a195945050505050565b600090815260046020526040902054600160a01b900465ffffffffffff1690565b60006109ed60085465ffffffffffff1690565b6000610a3e826117d1565b600080610dbe868686866114d4565b9050610dce81610b4c60006116db565b506000818152600460205260409020546001600160a01b03163314610e11573360405163233d98e360e01b8152600401610e089190613235565b60405180910390fd5b610e1d86868686611910565b9695505050505050565b6060610e316115a7565b6001600160a01b0316634bf5d7e96040518163ffffffff1660e01b8152600401600060405180830381865afa925050508015610e8f57506040513d6000823e601f3d908101601f19168201604052610e8c9190810190613c85565b60015b610ecb575060408051808201909152601d81527f6d6f64653d626c6f636b6e756d6265722666726f6d3d64656661756c74000000602082015290565b919050565b600080339050610ef184828560405180602001604052806000815250611927565b949350505050565b600080610fbe87610fb87f3e83946653575f9a39005e1545185629e92736b7528ab20ca3816f315424a8118c8c8c610f308e61194a565b8d8d604051610f40929190613cf2565b60405180910390208c80519060200120604051602001610f9d9796959493929190968752602087019590955260ff9390931660408601526001600160a01b03919091166060850152608084015260a083015260c082015260e00190565b6040516020818303038152906040528051906020012061196d565b8561199a565b905080610fe057866040516394ab6c0760e01b8152600401610e089190613235565b61102489888a89898080601f0160208091040260200160405190810160405280939291908181526020018383808284376000920191909152508b92506119f2915050565b9998505050505050505050565b60008033905061107b87828888888080601f0160208091040260200160405190810160405280939291908181526020018383808284376000920191909152508a92506119f2915050565b979650505050505050565b600a8054600091829061109a600184613d02565b815481106110aa576110aa613c40565b6000918252602090912001805490915065ffffffffffff811690600160301b90046001600160d01b03168582116110ed576001600160d01b031695945050505050565b6111016110f987611acf565b600a90611b06565b6001600160d01b03169695505050505050565b61111c6115cb565b610a5581611bbb565b600080339050610e1d86828787878080601f01602080910402602001604051908101604052809392919081815260200183838082843760009201919091525061192792505050565b60003361117a8184611c21565b611199578060405163d9b3955760e01b8152600401610e089190613235565b60006111c08260016111a9611312565b6111b39190613d15565b65ffffffffffff1661151f565b905060006111cc6113c2565b90508082101561120857604051636121770b60e11b81526001600160a01b03841660048201526024810183905260448101829052606401610e08565b6112158888888887611d12565b98975050505050505050565b600060608060008060006060611235611f32565b61123d611f5f565b60408051600080825260208201909252600f60f81b9b939a50919850469750309650945092509050565b6000806112d584610fb87ff2aad550cf55f045cb27e9c559f9889fdfb6e6cdaa032301d6ea397784ae51d789898961129e8b61194a565b60408051602081019690965285019390935260ff90911660608401526001600160a01b0316608083015260a082015260c001610f9d565b9050806112f757836040516394ab6c0760e01b8152600401610e089190613235565b610e1d86858760405180602001604052806000815250611927565b600061131c6115a7565b6001600160a01b03166391ddadf46040518163ffffffff1660e01b8152600401602060405180830381865afa925050508015611375575060408051601f3d908101601f1916820190925261137291810190613d3b565b60015b610ecb576109ed611f8c565b6000610ef1848484611f97565b600061139a600a612014565b6001600160d01b0316905090565b6113b06115cb565b610a558161204d565b60006001610a3e565b60006109ed60075490565b6000306113d86109d9565b6001600160a01b0316146113ff57604051637485328f60e11b815260040160405180910390fd5b5063bc197c8160e01b95945050505050565b60008181526004602052604081205461144690600160d01b810463ffffffff1690600160a01b900465ffffffffffff16613d58565b65ffffffffffff1692915050565b61145c6115cb565b600080856001600160a01b031685858560405161147a929190613cf2565b60006040518083038185875af1925050503d80600081146114b7576040519150601f19603f3d011682016040523d82523d6000602084013e6114bc565b606091505b50915091506114cb82826120b6565b50505050505050565b6000848484846040516020016114ed9493929190613e05565b60408051601f19818403018152919052805160209091012095945050505050565b6115166115cb565b610a55816120d2565b6000611540838361153b60408051602081019091526000815290565b611f97565b9392505050565b61154f6115cb565b610a5581612170565b6000306115636109d9565b6001600160a01b03161461158a57604051637485328f60e11b815260040160405180910390fd5b5063f23a6e6160e01b95945050505050565b6000610a3e826121b1565b7f000000000000000000000000000000000000000000000000000000000000000090565b336115d46109d9565b6001600160a01b0316146115fd57336040516347096e4760e01b8152600401610e089190613235565b306116066109d9565b6001600160a01b0316146116435760008036604051611626929190613cf2565b604051809103902090505b8061163c6005612248565b0361163157505b565b6064808211156116725760405163243e544560e01b81526004810183905260248101829052604401610e08565b600061167c61138e565b905061169b611689611312565b611692856122bd565b600a91906122f1565b505060408051828152602081018590527f0553476bf02ef2726e8ce5ced78d63e26e602e4a2257b1f559418e24b4633997910160405180910390a1505050565b60008160078111156116ef576116ef61358f565b600160ff919091161b92915050565b60008061170a84610da4565b9050600083611718836116db565b1603611540578381846040516331b75e4d60e01b8152600401610e0893929190613e50565b6000610e1d868686868661230c565b81546001600160801b03600160801b82048116918116600183019091160361178757604051638acb5f2760e01b815260040160405180910390fd5b6001600160801b03808216600090815260018086016020526040909120939093558354919092018216600160801b029116179055565b6117ca85858585856124a6565b5050505050565b6000806117dd83612537565b905060058160078111156117f3576117f361358f565b146117fe5792915050565b6000838152600c60205260409081902054600b549151632c258a9f60e11b81526004810182905290916001600160a01b03169063584b153e90602401602060405180830381865afa158015611857573d6000803e3d6000fd5b505050506040513d601f19601f8201168201806040525081019061187b9190613e72565b1561188a575060059392505050565b600b54604051632ab0f52960e01b8152600481018390526001600160a01b0390911690632ab0f52990602401602060405180830381865afa1580156118d3573d6000803e3d6000fd5b505050506040513d601f19601f820116820180604052508101906118f79190613e72565b15611906575060079392505050565b5060029392505050565b600061191e85858585612671565b95945050505050565b600061191e8585858561194560408051602081019091526000815290565b6119f2565b6001600160a01b0316600090815260026020526040902080546001810190915590565b6000610a3e61197a612710565b8360405161190160f01b8152600281019290925260228201526042902090565b60008060006119a9858561283b565b50909250905060008160038111156119c3576119c361358f565b1480156119e15750856001600160a01b0316826001600160a01b0316145b80610e1d5750610e1d868686612888565b6000611a0286610b4c60016116db565b506000611a1886611a1289610d70565b85611f97565b9050611a278787878487612963565b8251600003611a7c57856001600160a01b03167fb8e138887d0aa13bab447e82de9d5c1777041ecd21ca36ba824ff1e6c07ddda488878488604051611a6f9493929190613e94565b60405180910390a2610e1d565b856001600160a01b03167fe2babfbac5889a709b63bb7f598b324e08bc5a4fb9ec647fb3cbc9ec07eb87128887848888604051611abd959493929190613ebc565b60405180910390a29695505050505050565b600065ffffffffffff821115611b02576040516306dfcc6560e41b81526030600482015260248101839052604401610e08565b5090565b815460009081816005811115611b65576000611b2184612a5b565b611b2b9085613d02565b60008881526020902090915081015465ffffffffffff9081169087161015611b5557809150611b63565b611b60816001613ef6565b92505b505b6000611b7387878585612b43565b90508015611bae57611b9887611b8a600184613d02565b600091825260209091200190565b54600160301b90046001600160d01b031661107b565b6000979650505050505050565b6008546040805165ffffffffffff928316815291831660208301527fc565b045403dc03c2eea82b81a0465edad9e2e7fc4d97e11421c209da93d7a93910160405180910390a16008805465ffffffffffff191665ffffffffffff92909216919091179055565b80516000906034811015611c39576001915050610a3e565b82810160131901516001600160a01b031981166b046e0e4dee0dee6cae47a60f60a31b14611c6c57600192505050610a3e565b600080611c7a602885613d02565b90505b83811015611cf157600080611cb1888481518110611c9d57611c9d613c40565b01602001516001600160f81b031916612ba5565b9150915081611cc95760019650505050505050610a3e565b8060ff166004856001600160a01b0316901b179350505080611cea90613c6c565b9050611c7d565b50856001600160a01b0316816001600160a01b031614935050505092915050565b6000611d2786868686805190602001206114d4565b905084518651141580611d3c57508351865114155b80611d4657508551155b15611d7b57855184518651604051630447b05d60e41b8152600481019390935260248301919091526044820152606401610e08565b600081815260046020526040902054600160a01b900465ffffffffffff1615611dc65780611da882610da4565b6040516331b75e4d60e01b8152610e08929190600090600401613e50565b6000611dd0610d91565b611dd8611312565b65ffffffffffff16611dea9190613ef6565b90506000611e0560085463ffffffff600160301b9091041690565b600084815260046020526040902080546001600160a01b0319166001600160a01b038716178155909150611e3883611acf565b815465ffffffffffff91909116600160a01b0265ffffffffffff60a01b19909116178155611e6582612c37565b815463ffffffff91909116600160d01b0263ffffffff60d01b1990911617815588517f7d84a6263ae0d98d3329bd7b46bb4e8d6f98cd35a7adb45c274c8b7fd5ebd5e090859087908c908c906001600160401b03811115611ec857611ec861325e565b604051908082528060200260200182016040528015611efb57816020015b6060815260200190600190039081611ee65790505b508c89611f088a82613ef6565b8e604051611f1e99989796959493929190613f09565b60405180910390a150505095945050505050565b60606109ed7f00000000000000000000000000000000000000000000000000000000000000006000612c68565b60606109ed7f00000000000000000000000000000000000000000000000000000000000000006001612c68565b60006109ed43611acf565b6000611fa16115a7565b604051630748d63560e31b81526001600160a01b038681166004830152602482018690529190911690633a46b1a890604401602060405180830381865afa158015611ff0573d6000803e3d6000fd5b505050506040513d601f19601f82011682018060405250810190610ef19190613fe0565b805460009080156120445761202e83611b8a600184613d02565b54600160301b90046001600160d01b0316611540565b60009392505050565b600b54604080516001600160a01b03928316815291831660208301527f08f74ea46ef7894f65eabfb5e6e695de773a000b47c529ab559178069b226401910160405180910390a1600b80546001600160a01b0319166001600160a01b0392909216919091179055565b6060826120cb576120c682612d13565b610a3e565b5080610a3e565b8063ffffffff166000036120fc5760405163f1cfbf0560e01b815260006004820152602401610e08565b6008546040805163ffffffff600160301b9093048316815291831660208301527f7e3f7f0708a84de9203036abaa450dccc85ad5ff52f78c170f3edb55cf5e8828910160405180910390a16008805463ffffffff909216600160301b0269ffffffff00000000000019909216919091179055565b60075460408051918252602082018390527fccb45da8d5717e6c4544694297c4ba5cf151d455c9bb0ed4fc7a38411bc05461910160405180910390a1600755565b600060646121be83611086565b6121c66115a7565b6001600160a01b0316638e539e8c856040518263ffffffff1660e01b81526004016121f391815260200190565b602060405180830381865afa158015612210573d6000803e3d6000fd5b505050506040513d601f19601f820116820180604052508101906122349190613fe0565b61223e9190613ff9565b610a3e9190614026565b80546000906001600160801b0380821691600160801b9004168103612280576040516375e52f4f60e01b815260040160405180910390fd5b6001600160801b038181166000908152600185810160205260408220805492905585546001600160801b0319169301909116919091179092555090565b60006001600160d01b03821115611b02576040516306dfcc6560e41b815260d0600482015260248101839052604401610e08565b6000806122ff858585612d3c565b915091505b935093915050565b600080600b60009054906101000a90046001600160a01b03166001600160a01b031663f27a0c926040518163ffffffff1660e01b8152600401602060405180830381865afa158015612362573d6000803e3d6000fd5b505050506040513d601f19601f820116820180604052508101906123869190613fe0565b905060003060601b6001600160601b0319168418600b5460405163b1c5f42760e01b81529192506001600160a01b03169063b1c5f427906123d4908a908a908a906000908890600401614048565b602060405180830381865afa1580156123f1573d6000803e3d6000fd5b505050506040513d601f19601f820116820180604052508101906124159190613fe0565b6000898152600c602052604080822092909255600b5491516308f2a0bb60e41b81526001600160a01b0390921691638f2a0bb091612460918b918b918b919088908a90600401614096565b600060405180830381600087803b15801561247a57600080fd5b505af115801561248e573d6000803e3d6000fd5b5050505061121582426124a19190613ef6565b611acf565b600b546001600160a01b031663e38335e53486868660003060601b6001600160601b03191688186040518763ffffffff1660e01b81526004016124ed959493929190614048565b6000604051808303818588803b15801561250657600080fd5b505af115801561251a573d6000803e3d6000fd5b50505060009687525050600c602052505060408320929092555050565b6000818152600460205260408120805460ff600160f01b8204811691600160f81b900416811561256c57506007949350505050565b801561257d57506002949350505050565b600061258886610d70565b9050806000036125ae57604051636ad0607560e01b815260048101879052602401610e08565b60006125b8611312565b65ffffffffffff1690508082106125d6575060009695505050505050565b60006125e188611411565b90508181106125f857506001979650505050505050565b61260188612eb6565b158061262157506000888152600960205260409020805460019091015411155b1561263457506003979650505050505050565b60008881526004602052604090206001015465ffffffffffff1660000361266357506004979650505050505050565b506005979650505050505050565b60008061268086868686612eed565b6000818152600c60205260409020549091508015610bf257600b5460405163c4d252f560e01b8152600481018390526001600160a01b039091169063c4d252f590602401600060405180830381600087803b1580156126de57600080fd5b505af11580156126f2573d6000803e3d6000fd5b5050506000838152600c602052604081205550509050949350505050565b6000306001600160a01b037f00000000000000000000000000000000000000000000000000000000000000001614801561276957507f000000000000000000000000000000000000000000000000000000000000000046145b1561279357507f000000000000000000000000000000000000000000000000000000000000000090565b6109ed604080517f8b73c3c69bb8fe3d512ecc4cf759cc79239f7b179b0ffacaa9a75d522b39400f60208201527f0000000000000000000000000000000000000000000000000000000000000000918101919091527f000000000000000000000000000000000000000000000000000000000000000060608201524660808201523060a082015260009060c00160405160208183030381529060405280519060200120905090565b600080600083516041036128755760208401516040850151606086015160001a61286788828585612f9e565b955095509550505050612881565b50508151600091506002905b9250925092565b6000806000856001600160a01b031685856040516024016128aa9291906140ee565b60408051601f198184030181529181526020820180516001600160e01b0316630b135d3f60e11b179052516128df9190614107565b600060405180830381855afa9150503d806000811461291a576040519150601f19603f3d011682016040523d82523d6000602084013e61291f565b606091505b509150915081801561293357506020815110155b8015610e1d57508051630b135d3f60e11b906129589083016020908101908401613fe0565b149695505050505050565b60008581526009602090815260408083206001600160a01b0388168452600381019092529091205460ff16156129ae57846040516371c6af4960e01b8152600401610e089190613235565b6001600160a01b03851660009081526003820160205260409020805460ff1916600117905560ff84166129fa57828160000160008282546129ef9190613ef6565b90915550612a539050565b60001960ff851601612a1a57828160010160008282546129ef9190613ef6565b60011960ff851601612a3a57828160020160008282546129ef9190613ef6565b6040516303599be160e11b815260040160405180910390fd5b505050505050565b600081600003612a6d57506000919050565b60006001612a7a84613063565b901c6001901b90506001818481612a9357612a93614010565b048201901c90506001818481612aab57612aab614010565b048201901c90506001818481612ac357612ac3614010565b048201901c90506001818481612adb57612adb614010565b048201901c90506001818481612af357612af3614010565b048201901c90506001818481612b0b57612b0b614010565b048201901c90506001818481612b2357612b23614010565b048201901c905061154081828581612b3d57612b3d614010565b046130f7565b60005b81831015612b9d576000612b5a848461310d565b60008781526020902090915065ffffffffffff86169082015465ffffffffffff161115612b8957809250612b97565b612b94816001613ef6565b93505b50612b46565b509392505050565b60008060f883901c602f81118015612bc05750603a8160ff16105b15612bd557600194602f199091019350915050565b8060ff166040108015612beb575060478160ff16105b15612c00576001946036199091019350915050565b8060ff166060108015612c16575060678160ff16105b15612c2b576001946056199091019350915050565b50600093849350915050565b600063ffffffff821115611b02576040516306dfcc6560e41b81526020600482015260248101839052604401610e08565b606060ff8314612c8257612c7b83613128565b9050610a3e565b818054612c8e90613c06565b80601f0160208091040260200160405190810160405280929190818152602001828054612cba90613c06565b8015612d075780601f10612cdc57610100808354040283529160200191612d07565b820191906000526020600020905b815481529060010190602001808311612cea57829003601f168201915b50505050509050610a3e565b805115612d235780518082602001fd5b604051630a12f52160e11b815260040160405180910390fd5b825460009081908015612e5b576000612d5a87611b8a600185613d02565b60408051808201909152905465ffffffffffff808216808452600160301b9092046001600160d01b031660208401529192509087161015612dae57604051632520601d60e01b815260040160405180910390fd5b805165ffffffffffff808816911603612dfa5784612dd188611b8a600186613d02565b80546001600160d01b0392909216600160301b0265ffffffffffff909216919091179055612e4b565b6040805180820190915265ffffffffffff80881682526001600160d01b0380881660208085019182528b54600181018d5560008d81529190912094519151909216600160301b029216919091179101555b6020015192508391506123049050565b50506040805180820190915265ffffffffffff80851682526001600160d01b0380851660208085019182528854600181018a5560008a815291822095519251909316600160301b029190931617920191909155905081612304565b600081815260096020526040812060028101546001820154612ed89190613ef6565b612ee46109bf85610d70565b11159392505050565b600080612efc868686866114d4565b9050612f4a81612f0c60076116db565b612f1660066116db565b612f2060026116db565b6001612f2d600782614123565b612f38906002614220565b612f429190613d02565b1818186116fe565b506000818152600460205260409081902080546001600160f81b0316600160f81b179055517f789cf55be980739dad1d0699b93b58e806b51c9d96619bfa8fe0a28abaa7b30c90610d5f9083815260200190565b600080806fa2a8918ca85bafe22016d0b997e4df60600160ff1b03841115612fcf5750600091506003905082613059565b604080516000808252602082018084528a905260ff891692820192909252606081018790526080810186905260019060a0016020604051602081039080840390855afa158015613023573d6000803e3d6000fd5b5050604051601f1901519150506001600160a01b03811661304f57506000925060019150829050613059565b9250600091508190505b9450945094915050565b600080608083901c1561307857608092831c92015b604083901c1561308a57604092831c92015b602083901c1561309c57602092831c92015b601083901c156130ae57601092831c92015b600883901c156130c057600892831c92015b600483901c156130d257600492831c92015b600283901c156130e457600292831c92015b600183901c15610a3e5760010192915050565b60008183106131065781611540565b5090919050565b600061311c6002848418614026565b61154090848416613ef6565b6060600061313583613167565b604080516020808252818301909252919250600091906020820181803683375050509182525060208101929092525090565b600060ff8216601f811115610a3e57604051632cd44ac360e21b815260040160405180910390fd5b6000602082840312156131a157600080fd5b81356001600160e01b03198116811461154057600080fd5b6000602082840312156131cb57600080fd5b5035919050565b60005b838110156131ed5781810151838201526020016131d5565b50506000910152565b6000815180845261320e8160208601602086016131d2565b601f01601f19169290920160200192915050565b60208152600061154060208301846131f6565b6001600160a01b0391909116815260200190565b6001600160a01b0381168114610a5557600080fd5b634e487b7160e01b600052604160045260246000fd5b604051601f8201601f191681016001600160401b038111828210171561329c5761329c61325e565b604052919050565b60006001600160401b038211156132bd576132bd61325e565b50601f01601f191660200190565b60006132de6132d9846132a4565b613274565b90508281528383830111156132f257600080fd5b828260208301376000602084830101529392505050565b600082601f83011261331a57600080fd5b611540838335602085016132cb565b6000806000806080858703121561333f57600080fd5b843561334a81613249565b9350602085013561335a81613249565b92506040850135915060608501356001600160401b0381111561337c57600080fd5b61338887828801613309565b91505092959194509250565b60006001600160401b038211156133ad576133ad61325e565b5060051b60200190565b600082601f8301126133c857600080fd5b813560206133d86132d983613394565b82815260059290921b840181019181810190868411156133f757600080fd5b8286015b8481101561341b57803561340e81613249565b83529183019183016133fb565b509695505050505050565b600082601f83011261343757600080fd5b813560206134476132d983613394565b82815260059290921b8401810191818101908684111561346657600080fd5b8286015b8481101561341b578035835291830191830161346a565b600082601f83011261349257600080fd5b813560206134a26132d983613394565b82815260059290921b840181019181810190868411156134c157600080fd5b8286015b8481101561341b5780356001600160401b038111156134e45760008081fd5b6134f28986838b0101613309565b8452509183019183016134c5565b6000806000806080858703121561351657600080fd5b84356001600160401b038082111561352d57600080fd5b613539888389016133b7565b9550602087013591508082111561354f57600080fd5b61355b88838901613426565b9450604087013591508082111561357157600080fd5b5061357e87828801613481565b949793965093946060013593505050565b634e487b7160e01b600052602160045260246000fd5b600881106135c357634e487b7160e01b600052602160045260246000fd5b9052565b60208101610a3e82846135a5565b600080604083850312156135e857600080fd5b8235915060208301356135fa81613249565b809150509250929050565b803560ff81168114610ecb57600080fd5b6000806040838503121561362957600080fd5b8235915061363960208401613605565b90509250929050565b60008083601f84011261365457600080fd5b5081356001600160401b0381111561366b57600080fd5b60208301915083602082850101111561368357600080fd5b9250929050565b600080600080600080600060c0888a0312156136a557600080fd5b873596506136b560208901613605565b955060408801356136c581613249565b945060608801356001600160401b03808211156136e157600080fd5b6136ed8b838c01613642565b909650945060808a013591508082111561370657600080fd5b6137128b838c01613309565b935060a08a013591508082111561372857600080fd5b506137358a828b01613309565b91505092959891949750929550565b60008060008060006080868803121561375c57600080fd5b8535945061376c60208701613605565b935060408601356001600160401b038082111561378857600080fd5b61379489838a01613642565b909550935060608801359150808211156137ad57600080fd5b506137ba88828901613309565b9150509295509295909350565b65ffffffffffff81168114610a5557600080fd5b6000602082840312156137ed57600080fd5b8135611540816137c7565b6000806000806060858703121561380e57600080fd5b8435935061381e60208601613605565b925060408501356001600160401b0381111561383957600080fd5b61384587828801613642565b95989497509550505050565b6000806000806080858703121561386757600080fd5b84356001600160401b038082111561387e57600080fd5b61388a888389016133b7565b955060208701359150808211156138a057600080fd5b6138ac88838901613426565b945060408701359150808211156138c257600080fd5b6138ce88838901613481565b935060608701359150808211156138e457600080fd5b508501601f810187136138f657600080fd5b613388878235602084016132cb565b60006020828403121561391757600080fd5b813561154081613249565b600081518084526020808501945080840160005b8381101561395257815187529582019590820190600101613936565b509495945050505050565b60ff60f81b8816815260e06020820152600061397c60e08301896131f6565b828103604084015261398e81896131f6565b606084018890526001600160a01b038716608085015260a0840186905283810360c085015290506139bf8185613922565b9a9950505050505050505050565b600080600080608085870312156139e357600080fd5b843593506139f360208601613605565b92506040850135613a0381613249565b915060608501356001600160401b0381111561337c57600080fd5b600080600060608486031215613a3357600080fd5b8335613a3e81613249565b92506020840135915060408401356001600160401b03811115613a6057600080fd5b613a6c86828701613309565b9150509250925092565b600080600080600060a08688031215613a8e57600080fd5b8535613a9981613249565b94506020860135613aa981613249565b935060408601356001600160401b0380821115613ac557600080fd5b613ad189838a01613426565b94506060880135915080821115613ae757600080fd5b613af389838a01613426565b935060808801359150808211156137ad57600080fd5b60008060008060608587031215613b1f57600080fd5b8435613b2a81613249565b93506020850135925060408501356001600160401b0381111561383957600080fd5b600060208284031215613b5e57600080fd5b813563ffffffff8116811461154057600080fd5b60008060408385031215613b8557600080fd5b8235613b9081613249565b946020939093013593505050565b600080600080600060a08688031215613bb657600080fd5b8535613bc181613249565b94506020860135613bd181613249565b9350604086013592506060860135915060808601356001600160401b03811115613bfa57600080fd5b6137ba88828901613309565b600181811c90821680613c1a57607f821691505b602082108103613c3a57634e487b7160e01b600052602260045260246000fd5b50919050565b634e487b7160e01b600052603260045260246000fd5b634e487b7160e01b600052601160045260246000fd5b600060018201613c7e57613c7e613c56565b5060010190565b600060208284031215613c9757600080fd5b81516001600160401b03811115613cad57600080fd5b8201601f81018413613cbe57600080fd5b8051613ccc6132d9826132a4565b818152856020838501011115613ce157600080fd5b61191e8260208301602086016131d2565b8183823760009101908152919050565b81810381811115610a3e57610a3e613c56565b65ffffffffffff828116828216039080821115613d3457613d34613c56565b5092915050565b600060208284031215613d4d57600080fd5b8151611540816137c7565b65ffffffffffff818116838216019080821115613d3457613d34613c56565b600081518084526020808501945080840160005b838110156139525781516001600160a01b031687529582019590820190600101613d8b565b600081518084526020808501808196508360051b8101915082860160005b85811015613df8578284038952613de68483516131f6565b98850198935090840190600101613dce565b5091979650505050505050565b608081526000613e186080830187613d77565b8281036020840152613e2a8187613922565b90508281036040840152613e3e8186613db0565b91505082606083015295945050505050565b83815260608101613e6460208301856135a5565b826040830152949350505050565b600060208284031215613e8457600080fd5b8151801515811461154057600080fd5b84815260ff84166020820152826040820152608060608201526000610e1d60808301846131f6565b85815260ff8516602082015283604082015260a060608201526000613ee460a08301856131f6565b828103608084015261121581856131f6565b80820180821115610a3e57610a3e613c56565b60006101208b8352602060018060a01b038c1681850152816040850152613f328285018c613d77565b91508382036060850152613f46828b613922565b915083820360808501528189518084528284019150828160051b850101838c0160005b83811015613f9757601f19878403018552613f858383516131f6565b94860194925090850190600101613f69565b505086810360a0880152613fab818c613db0565b9450505050508560c08401528460e0840152828103610100840152613fd081856131f6565b9c9b505050505050505050505050565b600060208284031215613ff257600080fd5b5051919050565b8082028115828204841417610a3e57610a3e613c56565b634e487b7160e01b600052601260045260246000fd5b60008261404357634e487b7160e01b600052601260045260246000fd5b500490565b60a08152600061405b60a0830188613d77565b828103602084015261406d8188613922565b905082810360408401526140818187613db0565b60608401959095525050608001529392505050565b60c0815260006140a960c0830189613d77565b82810360208401526140bb8189613922565b905082810360408401526140cf8188613db0565b60608401969096525050608081019290925260a0909101529392505050565b828152604060208201526000610ef160408301846131f6565b600082516141198184602087016131d2565b9190910192915050565b60ff8181168382160190811115610a3e57610a3e613c56565b600181815b8085111561417757816000190482111561415d5761415d613c56565b8085161561416a57918102915b93841c9390800290614141565b509250929050565b60008261418e57506001610a3e565b8161419b57506000610a3e565b81600181146141b157600281146141bb576141d7565b6001915050610a3e565b60ff8411156141cc576141cc613c56565b50506001821b610a3e565b5060208310610133831016604e8410600b84101617156141fa575081810a610a3e565b614204838361413c565b806000190482111561421857614218613c56565b029392505050565b600061154060ff84168361417f56fea2646970667358221220ab8834bbdc67f3ca7f3f12bd4f721ad03e709488bc46ee2853a7fa6b5bd0683b64736f6c63430008140033",
  "linkReferences": {},
  "deployedLinkReferences": {}
}