{
  "_format": "hh-sol-artifact-1",
  "contractName": "Escrow",
  "sourceName": "contracts/Escrow.sol",
  "abi": [
    {
      "inputs": [
        {
          "internalType": "address payable",
          "name": "initialOwner",
          "type": "address"
        },
        {
          "internalType": "address",
          "name": "_daoAddress",
          "type": "address"
        },
        {
          "internalType": "address",
          "name": "_escAccount",
          "type": "address"
        }
      ],
      "stateMutability": "nonpayable",
      "type": "constructor"
    },
    {
      "anonymous": false,
      "inputs": [
        {
          "indexed": true,
          "internalType": "uint256",
          "name": "campaignId",
          "type": "uint256"
        },
        {
          "indexed": true,
          "internalType": "address",
          "name": "beneficiary",
          "type": "address"
        },
        {
          "indexed": false,
          "internalType": "uint256",
          "name": "totalAmount",
          "type": "uint256"
        }
      ],
      "name": "CampaignCreated",
      "type": "event"
    },
    {
      "anonymous": false,
      "inputs": [
        {
          "indexed": true,
          "internalType": "uint256",
          "name": "campaignId",
          "type": "uint256"
        },
        {
          "indexed": false,
          "internalType": "enum Escrow.CampaignStatus",
          "name": "status",
          "type": "uint8"
        }
      ],
      "name": "CampaignStatusChanged",
      "type": "event"
    },
    {
      "anonymous": false,
      "inputs": [
        {
          "indexed": true,
          "internalType": "address",
          "name": "contributor",
          "type": "address"
        },
        {
          "indexed": false,
          "internalType": "uint256",
          "name": "amount",
          "type": "uint256"
        },
        {
          "indexed": true,
          "internalType": "uint256",
          "name": "campaignId",
          "type": "uint256"
        }
      ],
      "name": "ContributionReceived",
      "type": "event"
    },
    {
      "anonymous": false,
      "inputs": [
        {
          "indexed": true,
          "internalType": "uint256",
          "name": "campaignId",
          "type": "uint256"
        },
        {
          "indexed": false,
          "internalType": "uint256",
          "name": "milestoneIndex",
          "type": "uint256"
        },
        {
          "indexed": false,
          "internalType": "enum Escrow.MilestoneStatus",
          "name": "status",
          "type": "uint8"
        }
      ],
      "name": "MilestoneUpdated",
      "type": "event"
    },
    {
      "anonymous": false,
      "inputs": [
        {
          "indexed": true,
          "internalType": "address",
          "name": "previousOwner",
          "type": "address"
        },
        {
          "indexed": true,
          "internalType": "address",
          "name": "newOwner",
          "type": "address"
        }
      ],
      "name": "OwnershipTransferred",
      "type": "event"
    },
    {
      "anonymous": false,
      "inputs": [
        {
          "indexed": false,
          "internalType": "uint256",
          "name": "id",
          "type": "uint256"
        },
        {
          "indexed": false,
          "internalType": "address",
          "name": "contributor",
          "type": "address"
        },
        {
          "indexed": false,
          "internalType": "uint256",
          "name": "refundAmt",
          "type": "uint256"
        }
      ],
      "name": "RefundIssued",
      "type": "event"
    },
    {
      "inputs": [
        {
          "internalType": "uint256",
          "name": "_campaignId",
          "type": "uint256"
        }
      ],
      "name": "approveCampaign",
      "outputs": [],
      "stateMutability": "nonpayable",
      "type": "function"
    },
    {
      "inputs": [
        {
          "internalType": "uint256",
          "name": "_campaignId",
          "type": "uint256"
        },
        {
          "internalType": "uint256",
          "name": "_milestoneIndex",
          "type": "uint256"
        }
      ],
      "name": "calculateTotalContributionsForMilestone",
      "outputs": [
        {
          "internalType": "uint256",
          "name": "",
          "type": "uint256"
        }
      ],
      "stateMutability": "view",
      "type": "function"
    },
    {
      "inputs": [
        {
          "internalType": "uint256",
          "name": "",
          "type": "uint256"
        },
        {
          "internalType": "address",
          "name": "",
          "type": "address"
        }
      ],
      "name": "campaignContributions",
      "outputs": [
        {
          "internalType": "uint256",
          "name": "",
          "type": "uint256"
        }
      ],
      "stateMutability": "view",
      "type": "function"
    },
    {
      "inputs": [
        {
          "internalType": "uint256",
          "name": "",
          "type": "uint256"
        }
      ],
      "name": "campaigns",
      "outputs": [
        {
          "internalType": "uint256",
          "name": "id",
          "type": "uint256"
        },
        {
          "internalType": "address",
          "name": "beneficiary",
          "type": "address"
        },
        {
          "internalType": "uint256",
          "name": "totalAmount",
          "type": "uint256"
        },
        {
          "internalType": "enum Escrow.CampaignStatus",
          "name": "status",
          "type": "uint8"
        }
      ],
      "stateMutability": "view",
      "type": "function"
    },
    {
      "inputs": [
        {
          "internalType": "uint256",
          "name": "_campaignId",
          "type": "uint256"
        }
      ],
      "name": "contributeToCampaign",
      "outputs": [],
      "stateMutability": "payable",
      "type": "function"
    },
    {
      "inputs": [
        {
          "internalType": "address",
          "name": "_beneficiary",
          "type": "address"
        },
        {
          "internalType": "uint256",
          "name": "_totalAmount",
          "type": "uint256"
        },
        {
          "internalType": "uint256",
          "name": "_milestoneCount",
          "type": "uint256"
        }
      ],
      "name": "createCampaign",
      "outputs": [],
      "stateMutability": "nonpayable",
      "type": "function"
    },
    {
      "inputs": [],
      "name": "daoAddress",
      "outputs": [
        {
          "internalType": "address",
          "name": "",
          "type": "address"
        }
      ],
      "stateMutability": "view",
      "type": "function"
    },
    {
      "inputs": [],
      "name": "escAccount",
      "outputs": [
        {
          "internalType": "address",
          "name": "",
          "type": "address"
        }
      ],
      "stateMutability": "view",
      "type": "function"
    },
    {
      "inputs": [],
      "name": "owner",
      "outputs": [
        {
          "internalType": "address",
          "name": "",
          "type": "address"
        }
      ],
      "stateMutability": "view",
      "type": "function"
    },
    {
      "inputs": [
        {
          "internalType": "uint256",
          "name": "_campaignId",
          "type": "uint256"
        }
      ],
      "name": "refundContributors",
      "outputs": [],
      "stateMutability": "nonpayable",
      "type": "function"
    },
    {
      "inputs": [
        {
          "internalType": "uint256",
          "name": "_campaignId",
          "type": "uint256"
        }
      ],
      "name": "rejectCampaign",
      "outputs": [],
      "stateMutability": "nonpayable",
      "type": "function"
    },
    {
      "inputs": [
        {
          "internalType": "uint256",
          "name": "_campaignId",
          "type": "uint256"
        },
        {
          "internalType": "uint256",
          "name": "_milestoneIndex",
          "type": "uint256"
        }
      ],
      "name": "releaseMilestone",
      "outputs": [],
      "stateMutability": "nonpayable",
      "type": "function"
    },
    {
      "inputs": [],
      "name": "renounceOwnership",
      "outputs": [],
      "stateMutability": "nonpayable",
      "type": "function"
    },
    {
      "inputs": [
        {
          "internalType": "address",
          "name": "_daoAddress",
          "type": "address"
        }
      ],
      "name": "setDAOAddress",
      "outputs": [],
      "stateMutability": "nonpayable",
      "type": "function"
    },
    {
      "inputs": [
        {
          "internalType": "address",
          "name": "newOwner",
          "type": "address"
        }
      ],
      "name": "transferOwnership",
      "outputs": [],
      "stateMutability": "nonpayable",
      "type": "function"
    }
  ],
  "bytecode": "0x60806040523480156200001157600080fd5b5060405162001625380380620016258339810160408190526200003491620002ff565b6200003f33620001bc565b6001600160a01b038316620000ac5760405162461bcd60e51b815260206004820152602860248201527f496e697469616c206f776e65722063616e6e6f7420626520746865207a65726f604482015267206164647265737360c01b60648201526084015b60405180910390fd5b6001600160a01b038116620001165760405162461bcd60e51b815260206004820152602960248201527f457363726f77206163636f756e742063616e6e6f7420626520746865207a65726044820152686f206164647265737360b81b6064820152608401620000a3565b6001600160a01b0382166200017e5760405162461bcd60e51b815260206004820152602760248201527f44414f20616464726573732063616e6e6f7420626520746865207a65726f206160448201526632323932b9b99760c91b6064820152608401620000a3565b62000189836200020c565b600480546001600160a01b039384166001600160a01b031991821617909155600380549290931691161790555062000353565b600080546001600160a01b038381166001600160a01b0319831681178455604051919092169283917f8be0079c531659141344cd1fd0a4f28419497f9722a3daafe3b4186f6b6457e09190a35050565b620002166200028b565b6001600160a01b0381166200027d5760405162461bcd60e51b815260206004820152602660248201527f4f776e61626c653a206e6577206f776e657220697320746865207a65726f206160448201526564647265737360d01b6064820152608401620000a3565b6200028881620001bc565b50565b6000546001600160a01b03163314620002e75760405162461bcd60e51b815260206004820181905260248201527f4f776e61626c653a2063616c6c6572206973206e6f7420746865206f776e65726044820152606401620000a3565b565b6001600160a01b03811681146200028857600080fd5b6000806000606084860312156200031557600080fd5b83516200032281620002e9565b60208501519093506200033581620002e9565b60408501519092506200034881620002e9565b809150509250925092565b6112c280620003636000396000f3fe6080604052600436106100c85760003560e01c8063715018a61161007a578063715018a6146102285780638da5cb5b1461023d5780639453fdc41461025b578063965afa891461027b578063dbaf09101461029b578063ee4e1b53146102bb578063f2fde38b146102db578063f44ceee7146102fb57600080fd5b8063034d09da146100cd5780630b7ef89b146100ef578063141961bc146101025780632131c68c1461016a57806322c59958146101a257806328928b90146101e8578063461b600414610208575b600080fd5b3480156100d957600080fd5b506100ed6100e8366004610fc9565b61031b565b005b6100ed6100fd366004610fc9565b6103cd565b34801561010e57600080fd5b5061015161011d366004610fc9565b600560205260009081526040902080546001820154600283015460039093015491926001600160a01b039091169160ff1684565b604051610161949392919061100c565b60405180910390f35b34801561017657600080fd5b5060045461018a906001600160a01b031681565b6040516001600160a01b039091168152602001610161565b3480156101ae57600080fd5b506101da6101bd36600461105b565b600660209081526000928352604080842090915290825290205481565b604051908152602001610161565b3480156101f457600080fd5b5060035461018a906001600160a01b031681565b34801561021457600080fd5b506100ed610223366004611087565b6104d4565b34801561023457600080fd5b506100ed61074e565b34801561024957600080fd5b506000546001600160a01b031661018a565b34801561026757600080fd5b506101da6102763660046110ba565b610762565b34801561028757600080fd5b506100ed6102963660046110dc565b61086d565b3480156102a757600080fd5b506100ed6102b63660046110ba565b6108fc565b3480156102c757600080fd5b506100ed6102d6366004610fc9565b610b38565b3480156102e757600080fd5b506100ed6102f63660046110dc565b610bd8565b34801561030757600080fd5b506100ed610316366004610fc9565b610c51565b6004546001600160a01b0316331461034e5760405162461bcd60e51b8152600401610345906110fe565b60405180910390fd5b60008181526005602052604081209060038083015460ff169081111561037657610376610fe2565b146103935760405162461bcd60e51b815260040161034590611135565b6003818101805460ff191682179055604051839160008051602061126d833981519152916103c19190611177565b60405180910390a25050565b6000818152600560205260409020600160038083015460ff16908111156103f6576103f6610fe2565b146104135760405162461bcd60e51b815260040161034590611185565b600034116104735760405162461bcd60e51b815260206004820152602760248201527f436f6e747269627574696f6e206d75737420626520677265617465722074686160448201526637103d32b9379760c91b6064820152608401610345565b336000908152600582016020526040812080543492906104949084906111cd565b9091555050604051348152829033907fd2dff949d20e874cc6ba1dcefb840fb8cf6000a4197bfb69accfea5a32443ff59060200160405180910390a35050565b6004546001600160a01b031633146104fe5760405162461bcd60e51b8152600401610345906110fe565b6001600160a01b0383166105645760405162461bcd60e51b815260206004820152602760248201527f42656e65666963696172792063616e6e6f7420626520746865207a65726f206160448201526632323932b9b99760c91b6064820152608401610345565b600082116105c45760405162461bcd60e51b815260206004820152602760248201527f546f74616c20616d6f756e74206d75737420626520677265617465722074686160448201526637103d32b9379760c91b6064820152608401610345565b600081116106145760405162461bcd60e51b815260206004820181905260248201527f4174206c65617374206f6e65206d696c6573746f6e652072657175697265642e6044820152606401610345565b610622600180546001019055565b600061062d60015490565b60008181526005602052604081208281556001810180546001600160a01b0319166001600160a01b0389161790556002810186905560038101805460ff191690559192505b8381101561070257816004016040518060400160405280868861069591906111e0565b8152602001600090528154600181810184556000938452602093849020835160029384029091019081559383015184820180549495949193909260ff19909216919084908111156106e8576106e8610fe2565b0217905550505080806106fa90611202565b915050610672565b50846001600160a01b0316827f63e3678c8493a16f8ba43ae9e547231762ca04526dac2c388bd2c26d894018518660405161073f91815260200190565b60405180910390a35050505050565b610756610f1f565b6107606000610f79565b565b600082815260056020526040812081805b6000868152600760205260409020548110156107f35760008681526007602052604081208054839081106107a9576107a961121b565b60009182526020808320909101546001600160a01b0316808352600587019091526040909120549091506107dd90846111cd565b92505080806107eb90611202565b915050610773565b508160040184815481106108095761080961121b565b9060005260206000209060020201600001548110156108635760405162461bcd60e51b815260206004820152601660248201527526b4b632b9ba37b732903737ba103932b0b1b432b21760511b6044820152606401610345565b9150505b92915050565b610875610f1f565b6001600160a01b0381166108da5760405162461bcd60e51b815260206004820152602660248201527f44414f20616464726573732063616e6e6f7420626520746865207a65726f206160448201526564647265737360d01b6064820152608401610345565b600480546001600160a01b0319166001600160a01b0392909216919091179055565b6004546001600160a01b031633146109265760405162461bcd60e51b8152600401610345906110fe565b6000828152600560205260409020600160038083015460ff169081111561094f5761094f610fe2565b1461096c5760405162461bcd60e51b815260040161034590611185565b60008160040183815481106109835761098361121b565b6000918252602082206002909102019150600182015460ff1660028111156109ad576109ad610fe2565b146109fa5760405162461bcd60e51b815260206004820152601a60248201527f4d696c6573746f6e65206d7573742062652070656e64696e672e0000000000006044820152606401610345565b600182015481546040516001600160a01b039092169181156108fc0291906000818181858888f19350505050158015610a37573d6000803e3d6000fd5b506001818101805460ff19168217905560405185917fbec752a593d8ddbe45792918310a70eaa90968426e352c981df882c16b81124c91610a79918791611231565b60405180910390a2600160005b6004840154811015610af0576001846004018281548110610aa957610aa961121b565b600091825260209091206002918202016001015460ff1690811115610ad057610ad0610fe2565b14610ade5760009150610af0565b80610ae881611202565b915050610a86565b508015610b315760038301805460ff19166002908117909155604051869160008051602061126d83398151915291610b289190611177565b60405180910390a25b5050505050565b6004546001600160a01b03163314610b625760405162461bcd60e51b8152600401610345906110fe565b60008181526005602052604081209060038083015460ff1690811115610b8a57610b8a610fe2565b14610ba75760405162461bcd60e51b815260040161034590611135565b60038101805460ff19166001908117909155604051839160008051602061126d833981519152916103c19190611177565b610be0610f1f565b6001600160a01b038116610c455760405162461bcd60e51b815260206004820152602660248201527f4f776e61626c653a206e6577206f776e657220697320746865207a65726f206160448201526564647265737360d01b6064820152608401610345565b610c4e81610f79565b50565b6004546001600160a01b03163314610c7b5760405162461bcd60e51b8152600401610345906110fe565b600081815260056020526040902060038082015460ff1681811115610ca257610ca2610fe2565b1480610cd45750600260038083015460ff1690811115610cc457610cc4610fe2565b148015610cd45750478160020154115b610d2c5760405162461bcd60e51b815260206004820152602360248201527f496e76616c69642063616d706169676e2073746174757320666f72207265667560448201526237321760e91b6064820152608401610345565b6000828152600760205260408120905b8154811015610ebf576000828281548110610d5957610d5961121b565b60009182526020808320909101548783526006825260408084206001600160a01b03909216808552919092529120549091508015610eaa5760006064610da0836062611255565b610daa91906111e0565b60008881526006602090815260408083206001600160a01b038816808552925280832083905551929350909183908381818185875af1925050503d8060008114610e10576040519150601f19603f3d011682016040523d82523d6000602084013e610e15565b606091505b5050905080610e5e5760405162461bcd60e51b815260206004820152601560248201527419985a5b1959081d1bc81cd95b99081c99599d5b99605a1b6044820152606401610345565b604080518981526001600160a01b03861660208201529081018390527f7a482fdeb6bc9a1376f597068a214a7a39472bb2eff1b8cad21ba04f49ddca1b9060600160405180910390a150505b50508080610eb790611202565b915050610d3c565b50600260038084015460ff1690811115610edb57610edb610fe2565b14610f1a5760038201805460ff19166002908117909155604051849160008051602061126d83398151915291610f119190611177565b60405180910390a25b505050565b6000546001600160a01b031633146107605760405162461bcd60e51b815260206004820181905260248201527f4f776e61626c653a2063616c6c6572206973206e6f7420746865206f776e65726044820152606401610345565b600080546001600160a01b038381166001600160a01b0319831681178455604051919092169283917f8be0079c531659141344cd1fd0a4f28419497f9722a3daafe3b4186f6b6457e09190a35050565b600060208284031215610fdb57600080fd5b5035919050565b634e487b7160e01b600052602160045260246000fd5b6004811061100857611008610fe2565b9052565b8481526001600160a01b038416602082015260408101839052608081016110366060830184610ff8565b95945050505050565b80356001600160a01b038116811461105657600080fd5b919050565b6000806040838503121561106e57600080fd5b8235915061107e6020840161103f565b90509250929050565b60008060006060848603121561109c57600080fd5b6110a58461103f565b95602085013595506040909401359392505050565b600080604083850312156110cd57600080fd5b50508035926020909101359150565b6000602082840312156110ee57600080fd5b6110f78261103f565b9392505050565b6020808252601d908201527f43616c6c6572206973206e6f74207468652044414f206163636f756e74000000604082015260600190565b60208082526022908201527f43616d706169676e206d7573742062652070656e64696e6720617070726f7661604082015261361760f11b606082015260800190565b602081016108678284610ff8565b60208082526018908201527721b0b6b830b4b3b71036bab9ba1031329030b1ba34bb329760411b604082015260600190565b634e487b7160e01b600052601160045260246000fd5b80820180821115610867576108676111b7565b6000826111fd57634e487b7160e01b600052601260045260246000fd5b500490565b600060018201611214576112146111b7565b5060010190565b634e487b7160e01b600052603260045260246000fd5b828152604081016003831061124857611248610fe2565b8260208301529392505050565b8082028115828204841417610867576108676111b756fe7e5e6bfcab605d9254dbb5c3b4c8bd65ee4705bb30b1fc434d9651d24d368f36a26469706673582212205accac20b9a361399615947aea6df58fd9a990b3ae4ec2d9d2e3032fed42469764736f6c63430008130033",
  "linkReferences": {},
  "deployedLinkReferences": {}
}