{
  "_format": "hh-sol-artifact-1",
  "contractName": "Escrow",
  "sourceName": "contracts/Escrow.sol",
  "abi": [
    {
      "inputs": [
        {
          "internalType": "address payable",
          "name": "initialOwner",
          "type": "address"
        },
        {
          "internalType": "address",
          "name": "_daoAddress",
          "type": "address"
        },
        {
          "internalType": "address",
          "name": "_escAccount",
          "type": "address"
        }
      ],
      "stateMutability": "nonpayable",
      "type": "constructor"
    },
    {
      "anonymous": false,
      "inputs": [
        {
          "indexed": true,
          "internalType": "uint256",
          "name": "campaignId",
          "type": "uint256"
        }
      ],
      "name": "AllMilestonesReceived",
      "type": "event"
    },
    {
      "anonymous": false,
      "inputs": [
        {
          "indexed": true,
          "internalType": "uint256",
          "name": "campaignId",
          "type": "uint256"
        },
        {
          "indexed": true,
          "internalType": "uint256",
          "name": "milestoneIndex",
          "type": "uint256"
        }
      ],
      "name": "BillingConfirmed",
      "type": "event"
    },
    {
      "anonymous": false,
      "inputs": [
        {
          "indexed": true,
          "internalType": "uint256",
          "name": "campaignId",
          "type": "uint256"
        },
        {
          "indexed": true,
          "internalType": "uint256",
          "name": "milestoneIndex",
          "type": "uint256"
        },
        {
          "indexed": false,
          "internalType": "uint256",
          "name": "workersCost",
          "type": "uint256"
        },
        {
          "indexed": false,
          "internalType": "uint256",
          "name": "materialsCost",
          "type": "uint256"
        },
        {
          "indexed": false,
          "internalType": "uint256",
          "name": "totalCost",
          "type": "uint256"
        }
      ],
      "name": "BillingSubmitted",
      "type": "event"
    },
    {
      "anonymous": false,
      "inputs": [
        {
          "indexed": true,
          "internalType": "uint256",
          "name": "campaignId",
          "type": "uint256"
        }
      ],
      "name": "CampaignCompleted",
      "type": "event"
    },
    {
      "anonymous": false,
      "inputs": [
        {
          "indexed": true,
          "internalType": "uint256",
          "name": "campaignId",
          "type": "uint256"
        },
        {
          "indexed": true,
          "internalType": "address",
          "name": "beneficiary",
          "type": "address"
        },
        {
          "indexed": false,
          "internalType": "uint256",
          "name": "totalAmount",
          "type": "uint256"
        }
      ],
      "name": "CampaignCreated",
      "type": "event"
    },
    {
      "anonymous": false,
      "inputs": [
        {
          "indexed": true,
          "internalType": "uint256",
          "name": "campaignId",
          "type": "uint256"
        },
        {
          "indexed": false,
          "internalType": "enum Escrow.CampaignStatus",
          "name": "status",
          "type": "uint8"
        }
      ],
      "name": "CampaignStatusChanged",
      "type": "event"
    },
    {
      "anonymous": false,
      "inputs": [
        {
          "indexed": true,
          "internalType": "address",
          "name": "contributor",
          "type": "address"
        },
        {
          "indexed": true,
          "internalType": "uint256",
          "name": "campaignId",
          "type": "uint256"
        },
        {
          "indexed": false,
          "internalType": "uint256",
          "name": "targetAmount",
          "type": "uint256"
        }
      ],
      "name": "ContributionReceived",
      "type": "event"
    },
    {
      "anonymous": false,
      "inputs": [
        {
          "indexed": true,
          "internalType": "uint256",
          "name": "campaignId",
          "type": "uint256"
        },
        {
          "indexed": true,
          "internalType": "uint256",
          "name": "milestoneIndex",
          "type": "uint256"
        },
        {
          "indexed": false,
          "internalType": "string",
          "name": "description",
          "type": "string"
        }
      ],
      "name": "MilestoneDescriptionUpdated",
      "type": "event"
    },
    {
      "anonymous": false,
      "inputs": [
        {
          "indexed": true,
          "internalType": "uint256",
          "name": "campaignId",
          "type": "uint256"
        },
        {
          "indexed": false,
          "internalType": "uint256",
          "name": "milestoneIndex",
          "type": "uint256"
        }
      ],
      "name": "MilestoneReached",
      "type": "event"
    },
    {
      "anonymous": false,
      "inputs": [
        {
          "indexed": true,
          "internalType": "uint256",
          "name": "campaignId",
          "type": "uint256"
        },
        {
          "indexed": false,
          "internalType": "uint256",
          "name": "milestoneIndex",
          "type": "uint256"
        },
        {
          "indexed": false,
          "internalType": "enum Escrow.MilestoneStatus",
          "name": "status",
          "type": "uint8"
        }
      ],
      "name": "MilestoneUpdated",
      "type": "event"
    },
    {
      "anonymous": false,
      "inputs": [
        {
          "indexed": true,
          "internalType": "uint256",
          "name": "campaignId",
          "type": "uint256"
        },
        {
          "indexed": false,
          "internalType": "uint256",
          "name": "milestoneIndex",
          "type": "uint256"
        }
      ],
      "name": "MilestoneVerified",
      "type": "event"
    },
    {
      "anonymous": false,
      "inputs": [
        {
          "indexed": true,
          "internalType": "address",
          "name": "previousOwner",
          "type": "address"
        },
        {
          "indexed": true,
          "internalType": "address",
          "name": "newOwner",
          "type": "address"
        }
      ],
      "name": "OwnershipTransferred",
      "type": "event"
    },
    {
      "anonymous": false,
      "inputs": [
        {
          "indexed": false,
          "internalType": "uint256",
          "name": "id",
          "type": "uint256"
        },
        {
          "indexed": false,
          "internalType": "address",
          "name": "contributor",
          "type": "address"
        },
        {
          "indexed": false,
          "internalType": "uint256",
          "name": "refundAmt",
          "type": "uint256"
        }
      ],
      "name": "RefundIssued",
      "type": "event"
    },
    {
      "anonymous": false,
      "inputs": [
        {
          "indexed": true,
          "internalType": "uint256",
          "name": "campaignId",
          "type": "uint256"
        },
        {
          "indexed": true,
          "internalType": "uint256",
          "name": "milestoneIndex",
          "type": "uint256"
        },
        {
          "indexed": false,
          "internalType": "address",
          "name": "serviceProvider",
          "type": "address"
        }
      ],
      "name": "ServiceCompletionSubmitted",
      "type": "event"
    },
    {
      "anonymous": false,
      "inputs": [
        {
          "indexed": true,
          "internalType": "uint256",
          "name": "campaignId",
          "type": "uint256"
        },
        {
          "indexed": true,
          "internalType": "uint256",
          "name": "milestoneIndex",
          "type": "uint256"
        },
        {
          "indexed": false,
          "internalType": "address",
          "name": "serviceProvider",
          "type": "address"
        },
        {
          "indexed": false,
          "internalType": "uint256",
          "name": "amount",
          "type": "uint256"
        },
        {
          "indexed": false,
          "internalType": "uint256",
          "name": "remainingAmount",
          "type": "uint256"
        }
      ],
      "name": "ServiceProviderPaid",
      "type": "event"
    },
    {
      "anonymous": false,
      "inputs": [
        {
          "indexed": true,
          "internalType": "uint256",
          "name": "campaignId",
          "type": "uint256"
        },
        {
          "indexed": true,
          "internalType": "uint256",
          "name": "milestoneIndex",
          "type": "uint256"
        },
        {
          "indexed": false,
          "internalType": "string",
          "name": "serviceDescription",
          "type": "string"
        },
        {
          "indexed": false,
          "internalType": "address",
          "name": "serviceProvider",
          "type": "address"
        }
      ],
      "name": "ServiceRequested",
      "type": "event"
    },
    {
      "anonymous": false,
      "inputs": [
        {
          "indexed": true,
          "internalType": "uint256",
          "name": "campaignId",
          "type": "uint256"
        },
        {
          "indexed": true,
          "internalType": "uint256",
          "name": "milestoneIndex",
          "type": "uint256"
        }
      ],
      "name": "TransactionHistUpdate",
      "type": "event"
    },
    {
      "inputs": [
        {
          "internalType": "uint256",
          "name": "_campaignId",
          "type": "uint256"
        }
      ],
      "name": "TotalContributions",
      "outputs": [
        {
          "components": [
            {
              "internalType": "uint256",
              "name": "totalContributed",
              "type": "uint256"
            },
            {
              "internalType": "bool",
              "name": "isFullyFunded",
              "type": "bool"
            }
          ],
          "internalType": "struct Escrow.MilestoneFunding[]",
          "name": "contributions",
          "type": "tuple[]"
        }
      ],
      "stateMutability": "view",
      "type": "function"
    },
    {
      "inputs": [
        {
          "internalType": "uint256",
          "name": "_campaignId",
          "type": "uint256"
        },
        {
          "internalType": "uint256",
          "name": "_milestoneIndex",
          "type": "uint256"
        },
        {
          "internalType": "uint256",
          "name": "_workers",
          "type": "uint256"
        },
        {
          "internalType": "uint256",
          "name": "_materialCost",
          "type": "uint256"
        },
        {
          "internalType": "uint256",
          "name": "_daysTaken",
          "type": "uint256"
        }
      ],
      "name": "VerifyTransaction",
      "outputs": [],
      "stateMutability": "nonpayable",
      "type": "function"
    },
    {
      "inputs": [
        {
          "internalType": "uint256",
          "name": "_campaignId",
          "type": "uint256"
        }
      ],
      "name": "approveCampaign",
      "outputs": [],
      "stateMutability": "nonpayable",
      "type": "function"
    },
    {
      "inputs": [
        {
          "internalType": "uint256",
          "name": "",
          "type": "uint256"
        },
        {
          "internalType": "address",
          "name": "",
          "type": "address"
        }
      ],
      "name": "campaignContributions",
      "outputs": [
        {
          "internalType": "uint256",
          "name": "",
          "type": "uint256"
        }
      ],
      "stateMutability": "view",
      "type": "function"
    },
    {
      "inputs": [
        {
          "internalType": "uint256",
          "name": "",
          "type": "uint256"
        }
      ],
      "name": "campaigns",
      "outputs": [
        {
          "internalType": "uint256",
          "name": "id",
          "type": "uint256"
        },
        {
          "internalType": "address",
          "name": "beneficiary",
          "type": "address"
        },
        {
          "internalType": "uint256",
          "name": "totalAmount",
          "type": "uint256"
        },
        {
          "internalType": "enum Escrow.CampaignStatus",
          "name": "status",
          "type": "uint8"
        },
        {
          "internalType": "uint256",
          "name": "currentIndex",
          "type": "uint256"
        },
        {
          "internalType": "uint256",
          "name": "totalContributions",
          "type": "uint256"
        }
      ],
      "stateMutability": "view",
      "type": "function"
    },
    {
      "inputs": [
        {
          "internalType": "uint256",
          "name": "campaignId",
          "type": "uint256"
        },
        {
          "internalType": "uint256",
          "name": "milestoneIndex",
          "type": "uint256"
        }
      ],
      "name": "confirmBilling",
      "outputs": [],
      "stateMutability": "nonpayable",
      "type": "function"
    },
    {
      "inputs": [
        {
          "internalType": "uint256",
          "name": "_campaignId",
          "type": "uint256"
        },
        {
          "internalType": "uint256",
          "name": "_amount",
          "type": "uint256"
        }
      ],
      "name": "contributeToCampaign",
      "outputs": [],
      "stateMutability": "payable",
      "type": "function"
    },
    {
      "inputs": [
        {
          "internalType": "address",
          "name": "_beneficiary",
          "type": "address"
        },
        {
          "internalType": "uint256",
          "name": "_totalAmount",
          "type": "uint256"
        },
        {
          "internalType": "uint256",
          "name": "_milestoneCount",
          "type": "uint256"
        }
      ],
      "name": "createCampaign",
      "outputs": [],
      "stateMutability": "nonpayable",
      "type": "function"
    },
    {
      "inputs": [],
      "name": "daoAddress",
      "outputs": [
        {
          "internalType": "address",
          "name": "",
          "type": "address"
        }
      ],
      "stateMutability": "view",
      "type": "function"
    },
    {
      "inputs": [
        {
          "internalType": "uint256",
          "name": "",
          "type": "uint256"
        },
        {
          "internalType": "uint256",
          "name": "",
          "type": "uint256"
        }
      ],
      "name": "donorSpecs",
      "outputs": [
        {
          "internalType": "uint256",
          "name": "targetAmount",
          "type": "uint256"
        }
      ],
      "stateMutability": "view",
      "type": "function"
    },
    {
      "inputs": [],
      "name": "escAccount",
      "outputs": [
        {
          "internalType": "address",
          "name": "",
          "type": "address"
        }
      ],
      "stateMutability": "view",
      "type": "function"
    },
    {
      "inputs": [
        {
          "internalType": "uint256",
          "name": "_campaignId",
          "type": "uint256"
        }
      ],
      "name": "getCampaignStatus",
      "outputs": [
        {
          "internalType": "enum Escrow.CampaignStatus",
          "name": "",
          "type": "uint8"
        }
      ],
      "stateMutability": "view",
      "type": "function"
    },
    {
      "inputs": [],
      "name": "getDaoAddress",
      "outputs": [
        {
          "internalType": "address",
          "name": "",
          "type": "address"
        }
      ],
      "stateMutability": "view",
      "type": "function"
    },
    {
      "inputs": [
        {
          "internalType": "uint256",
          "name": "campaignId",
          "type": "uint256"
        }
      ],
      "name": "getDetails",
      "outputs": [
        {
          "internalType": "int256",
          "name": "",
          "type": "int256"
        }
      ],
      "stateMutability": "view",
      "type": "function"
    },
    {
      "inputs": [
        {
          "internalType": "uint256",
          "name": "_campaignId",
          "type": "uint256"
        }
      ],
      "name": "getMilestoneCount",
      "outputs": [
        {
          "internalType": "uint256",
          "name": "",
          "type": "uint256"
        }
      ],
      "stateMutability": "view",
      "type": "function"
    },
    {
      "inputs": [
        {
          "internalType": "uint256",
          "name": "_campaignId",
          "type": "uint256"
        },
        {
          "internalType": "uint256",
          "name": "_milestoneIndex",
          "type": "uint256"
        }
      ],
      "name": "getMilestoneDetails",
      "outputs": [
        {
          "internalType": "uint256",
          "name": "amount",
          "type": "uint256"
        },
        {
          "internalType": "enum Escrow.MilestoneStatus",
          "name": "status",
          "type": "uint8"
        }
      ],
      "stateMutability": "view",
      "type": "function"
    },
    {
      "inputs": [
        {
          "internalType": "uint256",
          "name": "_campaignId",
          "type": "uint256"
        },
        {
          "internalType": "uint256",
          "name": "_milestoneIndex",
          "type": "uint256"
        }
      ],
      "name": "getTransactionHistory",
      "outputs": [
        {
          "components": [
            {
              "internalType": "uint256",
              "name": "workers",
              "type": "uint256"
            },
            {
              "internalType": "uint256",
              "name": "materialCost",
              "type": "uint256"
            },
            {
              "internalType": "uint256",
              "name": "daysTaken",
              "type": "uint256"
            }
          ],
          "internalType": "struct Escrow.TransactionHistory",
          "name": "",
          "type": "tuple"
        }
      ],
      "stateMutability": "view",
      "type": "function"
    },
    {
      "inputs": [],
      "name": "owner",
      "outputs": [
        {
          "internalType": "address",
          "name": "",
          "type": "address"
        }
      ],
      "stateMutability": "view",
      "type": "function"
    },
    {
      "inputs": [
        {
          "internalType": "uint256",
          "name": "_campaignId",
          "type": "uint256"
        },
        {
          "internalType": "uint256",
          "name": "_milestoneIndex",
          "type": "uint256"
        },
        {
          "internalType": "address payable",
          "name": "_serviceProvider",
          "type": "address"
        }
      ],
      "name": "payServiceProvider",
      "outputs": [],
      "stateMutability": "nonpayable",
      "type": "function"
    },
    {
      "inputs": [
        {
          "internalType": "uint256",
          "name": "_campaignId",
          "type": "uint256"
        }
      ],
      "name": "rejectCampaign",
      "outputs": [],
      "stateMutability": "nonpayable",
      "type": "function"
    },
    {
      "inputs": [
        {
          "internalType": "uint256",
          "name": "_campaignId",
          "type": "uint256"
        },
        {
          "internalType": "uint256",
          "name": "_milestoneIndex",
          "type": "uint256"
        }
      ],
      "name": "releaseMilestone",
      "outputs": [],
      "stateMutability": "nonpayable",
      "type": "function"
    },
    {
      "inputs": [],
      "name": "renounceOwnership",
      "outputs": [],
      "stateMutability": "nonpayable",
      "type": "function"
    },
    {
      "inputs": [
        {
          "internalType": "uint256",
          "name": "campaignId",
          "type": "uint256"
        },
        {
          "internalType": "uint256",
          "name": "milestoneIndex",
          "type": "uint256"
        },
        {
          "internalType": "string",
          "name": "serviceDescription",
          "type": "string"
        },
        {
          "internalType": "address",
          "name": "serviceProvider",
          "type": "address"
        }
      ],
      "name": "requestService",
      "outputs": [],
      "stateMutability": "nonpayable",
      "type": "function"
    },
    {
      "inputs": [
        {
          "internalType": "string",
          "name": "",
          "type": "string"
        }
      ],
      "name": "serviceProviders",
      "outputs": [
        {
          "internalType": "address",
          "name": "",
          "type": "address"
        }
      ],
      "stateMutability": "view",
      "type": "function"
    },
    {
      "inputs": [
        {
          "internalType": "address",
          "name": "_daoAddress",
          "type": "address"
        }
      ],
      "name": "setDAOAddress",
      "outputs": [],
      "stateMutability": "nonpayable",
      "type": "function"
    },
    {
      "inputs": [
        {
          "internalType": "uint256",
          "name": "_campaignId",
          "type": "uint256"
        },
        {
          "internalType": "uint256",
          "name": "_milestoneIndex",
          "type": "uint256"
        },
        {
          "internalType": "string",
          "name": "_description",
          "type": "string"
        }
      ],
      "name": "setMilestoneDescription",
      "outputs": [],
      "stateMutability": "nonpayable",
      "type": "function"
    },
    {
      "inputs": [
        {
          "internalType": "uint256",
          "name": "_campaignId",
          "type": "uint256"
        },
        {
          "internalType": "uint256",
          "name": "_milestoneIndex",
          "type": "uint256"
        },
        {
          "internalType": "enum Escrow.MilestoneStatus",
          "name": "_status",
          "type": "uint8"
        }
      ],
      "name": "setMilestoneStatus",
      "outputs": [],
      "stateMutability": "nonpayable",
      "type": "function"
    },
    {
      "inputs": [
        {
          "internalType": "uint256",
          "name": "campaignId",
          "type": "uint256"
        },
        {
          "internalType": "uint256",
          "name": "milestoneIndex",
          "type": "uint256"
        },
        {
          "internalType": "uint256",
          "name": "workersCost",
          "type": "uint256"
        },
        {
          "internalType": "uint256",
          "name": "materialsCost",
          "type": "uint256"
        }
      ],
      "name": "submitBilling",
      "outputs": [],
      "stateMutability": "nonpayable",
      "type": "function"
    },
    {
      "inputs": [
        {
          "internalType": "uint256",
          "name": "campaignId",
          "type": "uint256"
        },
        {
          "internalType": "uint256",
          "name": "milestoneIndex",
          "type": "uint256"
        },
        {
          "internalType": "address",
          "name": "serviceProvider",
          "type": "address"
        }
      ],
      "name": "submitServiceCompletion",
      "outputs": [],
      "stateMutability": "nonpayable",
      "type": "function"
    },
    {
      "inputs": [
        {
          "internalType": "address",
          "name": "newOwner",
          "type": "address"
        }
      ],
      "name": "transferOwnership",
      "outputs": [],
      "stateMutability": "nonpayable",
      "type": "function"
    },
    {
      "inputs": [
        {
          "internalType": "uint256",
          "name": "_campaignId",
          "type": "uint256"
        }
      ],
      "name": "viewCampaignDetails",
      "outputs": [
        {
          "internalType": "uint256",
          "name": "id",
          "type": "uint256"
        },
        {
          "internalType": "address",
          "name": "beneficiary",
          "type": "address"
        },
        {
          "internalType": "uint256",
          "name": "totalAmount",
          "type": "uint256"
        },
        {
          "internalType": "enum Escrow.CampaignStatus",
          "name": "status",
          "type": "uint8"
        },
        {
          "internalType": "uint256",
          "name": "milestoneCount",
          "type": "uint256"
        }
      ],
      "stateMutability": "view",
      "type": "function"
    },
    {
      "inputs": [
        {
          "internalType": "uint256",
          "name": "_campaignId",
          "type": "uint256"
        },
        {
          "internalType": "uint256",
          "name": "_milestoneIndex",
          "type": "uint256"
        }
      ],
      "name": "viewMilestoneDetails",
      "outputs": [
        {
          "internalType": "uint256",
          "name": "amount",
          "type": "uint256"
        },
        {
          "internalType": "enum Escrow.MilestoneStatus",
          "name": "status",
          "type": "uint8"
        },
        {
          "internalType": "uint256",
          "name": "workers",
          "type": "uint256"
        },
        {
          "internalType": "uint256",
          "name": "materialCost",
          "type": "uint256"
        },
        {
          "internalType": "uint256",
          "name": "daysTaken",
          "type": "uint256"
        }
      ],
      "stateMutability": "view",
      "type": "function"
    },
    {
      "stateMutability": "payable",
      "type": "receive"
    }
  ],
  "bytecode": "0x60806040523480156200001157600080fd5b5060405162002eb238038062002eb28339810160408190526200003491620002ff565b6200003f33620001bc565b6001600160a01b038316620000ac5760405162461bcd60e51b815260206004820152602860248201527f496e697469616c206f776e65722063616e6e6f7420626520746865207a65726f604482015267206164647265737360c01b60648201526084015b60405180910390fd5b6001600160a01b038116620001165760405162461bcd60e51b815260206004820152602960248201527f457363726f77206163636f756e742063616e6e6f7420626520746865207a65726044820152686f206164647265737360b81b6064820152608401620000a3565b6001600160a01b0382166200017e5760405162461bcd60e51b815260206004820152602760248201527f44414f20616464726573732063616e6e6f7420626520746865207a65726f206160448201526632323932b9b99760c91b6064820152608401620000a3565b62000189836200020c565b600480546001600160a01b039384166001600160a01b031991821617909155600380549290931691161790555062000353565b600080546001600160a01b038381166001600160a01b0319831681178455604051919092169283917f8be0079c531659141344cd1fd0a4f28419497f9722a3daafe3b4186f6b6457e09190a35050565b620002166200028b565b6001600160a01b0381166200027d5760405162461bcd60e51b815260206004820152602660248201527f4f776e61626c653a206e6577206f776e657220697320746865207a65726f206160448201526564647265737360d01b6064820152608401620000a3565b6200028881620001bc565b50565b6000546001600160a01b03163314620002e75760405162461bcd60e51b815260206004820181905260248201527f4f776e61626c653a2063616c6c6572206973206e6f7420746865206f776e65726044820152606401620000a3565b565b6001600160a01b03811681146200028857600080fd5b6000806000606084860312156200031557600080fd5b83516200032281620002e9565b60208501519093506200033581620002e9565b60408501519092506200034881620002e9565b809150509250925092565b612b4f80620003636000396000f3fe6080604052600436106101a75760003560e01c80638da5cb5b116100e2578063c2010e5011610085578063c2010e50146105ca578063c2f9412a146105fa578063dbaf09101461061a578063e66ae9f51461063a578063eb3dac6f1461066b578063eb9158931461067e578063ee4e1b531461069e578063f2fde38b146106be57600080fd5b80638da5cb5b1461047c578063919fa1fa1461049a578063965afa89146104ba578063a2201605146104da578063a39c7a9c1461051b578063b7d2b3a71461055d578063b93a89f71461057d578063bf78ca771461059d57600080fd5b8063461b60041161014a578063461b6004146103485780634c3710221461036857806362d87863146103965780636c19e004146103b65780636d170e99146103f6578063715018a61461042757806373a7cb1b1461043c5780637a589d8f1461045c57600080fd5b8063034d09da146101b3578063141961bc146101d5578063151e783d1461025057806319b907b1146102705780631d68702d146102905780632131c68c146102c257806322c59958146102e257806328928b901461032857600080fd5b366101ae57005b600080fd5b3480156101bf57600080fd5b506101d36101ce366004612305565b6106de565b005b3480156101e157600080fd5b506102356101f0366004612305565b600560208190526000918252604090912080546001820154600283015460038401549484015460069094015492946001600160a01b0390921693909260ff9092169186565b60405161024796959493929190612348565b60405180910390f35b34801561025c57600080fd5b506101d361026b366004612386565b61072a565b34801561027c57600080fd5b506101d361028b3660046123d6565b610898565b34801561029c57600080fd5b506004546001600160a01b03165b6040516001600160a01b039091168152602001610247565b3480156102ce57600080fd5b506004546102aa906001600160a01b031681565b3480156102ee57600080fd5b5061031a6102fd36600461240f565b600860209081526000928352604080842090915290825290205481565b604051908152602001610247565b34801561033457600080fd5b506003546102aa906001600160a01b031681565b34801561035457600080fd5b506101d361036336600461243f565b610a4d565b34801561037457600080fd5b50610388610383366004612474565b610ebb565b6040516102479291906124a6565b3480156103a257600080fd5b506101d36103b13660046124c1565b610f0d565b3480156103c257600080fd5b506103e96103d1366004612305565b60009081526005602052604090206003015460ff1690565b60405161024791906124f3565b34801561040257600080fd5b50610416610411366004612305565b610feb565b604051610247959493929190612501565b34801561043357600080fd5b506101d3611063565b34801561044857600080fd5b506101d361045736600461253b565b611077565b34801561046857600080fd5b506101d3610477366004612610565b611115565b34801561048857600080fd5b506000546001600160a01b03166102aa565b3480156104a657600080fd5b506101d36104b53660046123d6565b6112a7565b3480156104c657600080fd5b506101d36104d5366004612673565b61140d565b3480156104e657600080fd5b506102aa6104f5366004612690565b80516020818301810180516007825292820191909301209152546001600160a01b031681565b34801561052757600080fd5b5061053b610536366004612474565b61149c565b6040805182518152602080840151908201529181015190820152606001610247565b34801561056957600080fd5b506101d3610578366004612474565b61154a565b34801561058957600080fd5b5061031a610598366004612305565b611681565b3480156105a957600080fd5b506105bd6105b8366004612305565b61174d565b60405161024791906126cd565b3480156105d657600080fd5b5061031a6105e5366004612305565b60009081526005602052604090206004015490565b34801561060657600080fd5b5061031a610615366004612474565b61187c565b34801561062657600080fd5b506101d3610635366004612474565b6118ab565b34801561064657600080fd5b5061065a610655366004612474565b611ce8565b60405161024795949392919061271e565b6101d3610679366004612474565b611dd0565b34801561068a57600080fd5b506101d361069936600461274e565b61207b565b3480156106aa57600080fd5b506101d36106b9366004612305565b6120f1565b3480156106ca57600080fd5b506101d36106d9366004612673565b612133565b60008181526005602052604090206003808201805460ff1916600183021790555081600080516020612afa833981519152600360405161071e91906124f3565b60405180910390a25050565b6000858152600560205260409020600160038083015460ff16908111156107535761075361231e565b146107795760405162461bcd60e51b81526004016107709061279e565b60405180910390fd5b6000816004018681548110610790576107906127d0565b60009182526020909120600c9091020190506004600182015460ff1660058111156107bd576107bd61231e565b1461081e5760405162461bcd60e51b815260206004820152602b60248201527f4d696c6573746f6e65206d7573742062652070616964206265666f726520766560448201526a3934b334b1b0ba34b7b71760a91b6064820152608401610770565b60408051606081018252868152602080820187905290820185905260028301879055600383018690556004830185905560018301805460ff19166005179055905187815288917fbcbde959d440ac297afe28570fc77c716fb86a672a8603968abe1eda8b122b46910160405180910390a250505050505050565b60008381526005602052604081206004018054849081106108bb576108bb6127d0565b90600052602060002090600c020190508060080160030160019054906101000a900460ff166109525760405162461bcd60e51b815260206004820152603e60248201527f42696c6c696e67206d75737420626520636f6e6669726d6564206265666f726560448201527f207375626d697474696e67207365727669636520636f6d706c6574696f6e00006064820152608401610770565b6004600182015460ff16600581111561096d5761096d61231e565b146109e05760405162461bcd60e51b815260206004820152603c60248201527f5365727669636520636f6d706c6574696f6e2063616e206f6e6c79206265207360448201527f75626d697474656420666f722070616964206d696c6573746f6e6573000000006064820152608401610770565b60018101805460ff19166005179055600781018054600160a01b60ff60a01b199091161790556040516001600160a01b0383168152839085907f94bc4fae75ab5c3f954dcc6cd6d5128e7a3c931184611e15336704f3264c993f906020015b60405180910390a350505050565b6001600160a01b038316610ab35760405162461bcd60e51b815260206004820152602760248201527f42656e65666963696172792063616e6e6f7420626520746865207a65726f206160448201526632323932b9b99760c91b6064820152608401610770565b60008211610b135760405162461bcd60e51b815260206004820152602760248201527f546f74616c20616d6f756e74206d75737420626520677265617465722074686160448201526637103d32b9379760c91b6064820152608401610770565b60008111610b635760405162461bcd60e51b815260206004820181905260248201527f4174206c65617374206f6e65206d696c6573746f6e652072657175697265642e6044820152606401610770565b610b71600180546001019055565b6000610b7c60015490565b6000818152600560209081526040918290208381556001810180546001600160a01b0319166001600160a01b038a16179055600281018790558251808401909352601d83527f546f74616c20416d6f756e74204265666f72652053657474696e673a2000000091830191909152919250610bf690856121ac565b6002810184905560408051808201909152601c81527f546f74616c20416d6f756e742041667465722053657474696e673a20000000006020820152610c3b90856121ac565b60038101805460ff191690556001600582015560005b83811015610eb3576040805160608101825260008082526020820181905291810182905290610c808688612812565b9050610cb660405180604001604052806012815260200171026b4b632b9ba37b7329020b6b7bab73a1d160751b815250826121ac565b6040805161010081018252828152600060208083018281528451606080820187528482528184018590528187018590528587019190915285518084018752848152818601528551808401875284815260808087019190915260a080870186905260c0870186905287519081018852858152808501869052968701859052908601849052850183905260e084019490945260048801805460018082018355918452919092208351600c90920201908155925183820180549394939192909160ff191690836005811115610d8a57610d8a61231e565b021790555060408281015180516002840155602081015160038401550151600482015560608201516005820190610dc190826128ab565b5060808201516006820190610dd690826128ab565b5060a082015160078201805460c08501511515600160a01b026001600160a81b03199091166001600160a01b039384161717905560e0909201518051600883015560208101516009830155604080820151600a8401556060820151600b909301805460809093015115156101000261ff00199415159490941661ffff1990931692909217929092179055519089169086907f63e3678c8493a16f8ba43ae9e547231762ca04526dac2c388bd2c26d8940185190610e96908b815260200190565b60405180910390a350508080610eab9061296b565b915050610c51565b505050505050565b6000828152600560205260408120600481018054839291839186908110610ee457610ee46127d0565b60009182526020909120600c90910201805460019091015490945060ff16925050509250929050565b6000848152600560205260408120600401805485908110610f3057610f306127d0565b600091825260208220600c909102019150610f4b8385612984565b6040805160a08101825286815260208082018790528183018490526001606080840182905260006080909401939093526008870189905560098701889055600a8701859055600b8701805461ffff191690911790558251888152908101879052918201839052919250869188917f36fb2eb6ac148f8772e01686301008de788cb29ffaebaf418d496d681aef9d33910160405180910390a3505050505050565b600081815260056020908152604080832033845260078101909252822054829182918291829161102d5760405162461bcd60e51b815260040161077090612997565b8054600182015460028301546003840154600490940154929a6001600160a01b039092169950975060ff90921695509350915050565b61106b6121f5565b611075600061224f565b565b600083815260056020526040812060040180548490811061109a5761109a6127d0565b90600052602060002090600c02019050818160010160006101000a81548160ff021916908360058111156110d0576110d061231e565b0217905550837fbec752a593d8ddbe45792918310a70eaa90968426e352c981df882c16b81124c84846040516111079291906124a6565b60405180910390a250505050565b60008481526005602052604090206004015483106111455760405162461bcd60e51b8152600401610770906129e1565b6000848152600560205260408120600401805485908110611168576111686127d0565b600091825260208220600c909102019150600182015460ff1660058111156111925761119261231e565b14806111b657506003600182015460ff1660058111156111b4576111b461231e565b145b6112365760405162461bcd60e51b815260206004820152604560248201527f536572766963652063616e206f6e6c792062652072657175657374656420666f60448201527f722070656e64696e67206f722068616c6620636f6d706c657465206d696c6573606482015264746f6e657360d81b608482015260a401610770565b6006810161124484826128ab565b506007810180546001600160a01b0319166001600160a01b038416179055604051849086907f34ece42e48b363126bd2d401e41117f41fb9eb97c9c7bc1ed737170430b6f77b906112989087908790612a58565b60405180910390a35050505050565b6000838152600560205260408120600481018054919291859081106112ce576112ce6127d0565b600091825260208220600c909102019150600182015460ff1660058111156112f8576112f861231e565b148061131c57506003600182015460ff16600581111561131a5761131a61231e565b145b6113775760405162461bcd60e51b815260206004820152602660248201527f4d696c6573746f6e65206e6f742070656e64696e67206f722068616c6620636f6044820152656d706c65746560d01b6064820152608401610770565b80546040516001600160a01b0385169180156108fc02916000818181858888f193505050501580156113ad573d6000803e3d6000fd5b5060018101805460ff1916600417905580546002830154604080516001600160a01b03871681526020810193909352820152849086907f4bb4448e15571340a2645231e382bf98685981a2236755f5be9b5a8e00df1ed090606001611298565b6114156121f5565b6001600160a01b03811661147a5760405162461bcd60e51b815260206004820152602660248201527f44414f20616464726573732063616e6e6f7420626520746865207a65726f206160448201526564647265737360d01b6064820152608401610770565b600480546001600160a01b0319166001600160a01b0392909216919091179055565b6114c060405180606001604052806000815260200160008152602001600081525090565b6000838152600560205260409020600481015483106114f15760405162461bcd60e51b8152600401610770906129e1565b806004018381548110611506576115066127d0565b90600052602060002090600c020160020160405180606001604052908160008201548152602001600182015481526020016002820154815250509150505b92915050565b600082815260056020526040812060048101805491929184908110611571576115716127d0565b60009182526020909120600c90910201600b81015490915060ff166115d85760405162461bcd60e51b815260206004820152601f60248201527f42696c6c696e67206d757374206265207375626d6974746564206669727374006044820152606401610770565b600b810154610100900460ff161561163d5760405162461bcd60e51b815260206004820152602260248201527f42696c6c696e672068617320616c7265616479206265656e20636f6e6669726d604482015261195960f21b6064820152608401610770565b600b8101805461ff001916610100179055604051839085907f461c8f3ef1d33fc91976b1b921b4bf90b2385b280292a7bf77a68f2ec637993590600090a350505050565b6000818152600560205260408120815b60048201548110156117425760008260040182815481106116b4576116b46127d0565b600091825260209091206001600c90920201015460ff1660058111156116dc576116dc61231e565b1480611724575060038260040182815481106116fa576116fa6127d0565b600091825260209091206001600c90920201015460ff1660058111156117225761172261231e565b145b15611730579392505050565b8061173a8161296b565b915050611691565b506000199392505050565b600081815260056020526040902060048101546060919067ffffffffffffffff81111561177c5761177c61256d565b6040519080825280602002602001820160405280156117c157816020015b604080518082019091526000808252602082015281526020019060019003908161179a5790505b50915060005b60048201548110156118755760008260040182815481106117ea576117ea6127d0565b90600052602060002090600c02016000015490506000836004018381548110611815576118156127d0565b90600052602060002090600c02016000015482101590506040518060400160405280838152602001821515815250858481518110611855576118556127d0565b60200260200101819052505050808061186d9061296b565b9150506117c7565b5050919050565b6006602052816000526040600020818154811061189857600080fd5b6000918252602090912001549150829050565b6000828152600560205260409020600160038083015460ff16908111156118d4576118d461231e565b146118f15760405162461bcd60e51b81526004016107709061279e565b6000816004018381548110611908576119086127d0565b60009182526020909120600c9091020190506003600182015460ff1660058111156119355761193561231e565b148061195957506005600182015460ff1660058111156119575761195761231e565b145b6119d65760405162461bcd60e51b815260206004820152604260248201527f4d696c6573746f6e65206d757374206265206569746865722068616c6620636f60448201527f6d706c657465206f72207665726966696564206265666f72652072656c656173606482015261329760f11b608482015260a401610770565b60006726db992a3b18000082600001541115611a285781546064906119fc906014612a82565b611a069190612812565b60018084018054929350600392909160ff1990911690835b0217905550611ae9565b6003600183015460ff166005811115611a4357611a4361231e565b03611ac5578154606490611a58906014612a82565b611a629190612812565b8103611ac0576003600183015460ff166005811115611a8357611a8361231e565b14611a8f578154611aa9565b8154606490611a9f906050612a82565b611aa99190612812565b60018381018054929350909160ff19168280611a1e565b611ae9565b81546726db992a3b18000010611ae9575080546001808301805460ff191690911790555b60018301546001600160a01b0316611b008261229f565b81471015611b5c5760405162461bcd60e51b815260206004820152602360248201527f496e73756666696369656e742066756e647320696e2074686520636f6e74726160448201526231ba1760e91b6064820152608401610770565b6000816001600160a01b03168360405160006040518083038185875af1925050503d8060008114611ba9576040519150601f19603f3d011682016040523d82523d6000602084013e611bae565b606091505b5050905080611bf25760405162461bcd60e51b815260206004820152601060248201526f2a3930b739b332b9103330b4b632b21760811b6044820152606401610770565b867fbec752a593d8ddbe45792918310a70eaa90968426e352c981df882c16b81124c876001604051611c259291906124a6565b60405180910390a2600160005b6004870154811015611c9d576001876004018281548110611c5557611c556127d0565b600091825260209091206001600c90920201015460ff166005811115611c7d57611c7d61231e565b14611c8b5760009150611c9d565b80611c958161296b565b915050611c32565b508015611cde5760038601805460ff191660029081179091556040518991600080516020612afa83398151915291611cd591906124f3565b60405180910390a25b5050505050505050565b6000828152600560205260408120600481015482918291829182918710611d4c5760405162461bcd60e51b815260206004820152601860248201527724b73b30b634b21036b4b632b9ba37b7329034b73232bc1760411b6044820152606401610770565b336000908152600782016020526040902054611d7a5760405162461bcd60e51b815260040161077090612997565b6000816004018881548110611d9157611d916127d0565b60009182526020909120600c909102018054600182015460028301546003840154600490940154929d60ff9092169c509a509198509650945050505050565b6000828152600560205260409020600160038083015460ff1690811115611df957611df961231e565b14611e165760405162461bcd60e51b81526004016107709061279e565b60003411611e765760405162461bcd60e51b815260206004820152602760248201527f436f6e747269627574696f6e206d75737420626520677265617465722074686160448201526637103d32b9379760c91b6064820152608401610770565b8060020154348260060154611e8b9190612984565b1115611efa5760405162461bcd60e51b815260206004820152603860248201527f43616d706169676e2066756c6c792066756e6465642e204e6f20667572746865604482015277391031b7b73a3934b13aba34b7b7399030b63637bbb2b21760411b6064820152608401610770565b34816006016000828254611f0e9190612984565b909155505060008381526006602090815260408083208151808401835286815281546001810183559185529383902093519301929092559051838152849133917fd2dff949d20e874cc6ba1dcefb840fb8cf6000a4197bfb69accfea5a32443ff5910160405180910390a360048101546000611f8a8234612812565b90506000611f988334612a99565b905060005b8381101561207257828215611fc85780611fb68161296b565b9150508280611fc490612aad565b9350505b80866004018381548110611fde57611fde6127d0565b90600052602060002090600c02016000016000828254611ffe9190612984565b9250508190555061205f60405180604001604052806012815260200171026b4b632b9ba37b7329020b6b7bab73a1d160751b815250876004018481548110612048576120486127d0565b90600052602060002090600c0201600001546121ac565b508061206a8161296b565b915050611f9d565b50505050505050565b600083815260056020526040812060040180548490811061209e5761209e6127d0565b90600052602060002090600c02019050818160050190816120bf91906128ab565b5082847f9983f7a63820ef4786b003ec8300a49ac59ef17884888e43e1b0a0e6e1a9337b84604051610a3f9190612ac4565b60008181526005602052604090206003810180546001919060ff19168280021790555081600080516020612afa833981519152600160405161071e91906124f3565b61213b6121f5565b6001600160a01b0381166121a05760405162461bcd60e51b815260206004820152602660248201527f4f776e61626c653a206e6577206f776e657220697320746865207a65726f206160448201526564647265737360d01b6064820152608401610770565b6121a98161224f565b50565b6121f182826040516024016121c2929190612ad7565b60408051601f198184030181529190526020810180516001600160e01b0316632d839cb360e21b1790526122e0565b5050565b6000546001600160a01b031633146110755760405162461bcd60e51b815260206004820181905260248201527f4f776e61626c653a2063616c6c6572206973206e6f7420746865206f776e65726044820152606401610770565b600080546001600160a01b038381166001600160a01b0319831681178455604051919092169283917f8be0079c531659141344cd1fd0a4f28419497f9722a3daafe3b4186f6b6457e09190a35050565b6121a9816040516024016122b591815260200190565b60408051601f198184030181529190526020810180516001600160e01b031663f82c50f160e01b1790525b6121a98160006a636f6e736f6c652e6c6f679050600080835160208501845afa505050565b60006020828403121561231757600080fd5b5035919050565b634e487b7160e01b600052602160045260246000fd5b600481106123445761234461231e565b9052565b8681526001600160a01b03861660208201526040810185905260c081016123726060830186612334565b608082019390935260a00152949350505050565b600080600080600060a0868803121561239e57600080fd5b505083359560208501359550604085013594606081013594506080013592509050565b6001600160a01b03811681146121a957600080fd5b6000806000606084860312156123eb57600080fd5b83359250602084013591506040840135612404816123c1565b809150509250925092565b6000806040838503121561242257600080fd5b823591506020830135612434816123c1565b809150509250929050565b60008060006060848603121561245457600080fd5b833561245f816123c1565b95602085013595506040909401359392505050565b6000806040838503121561248757600080fd5b50508035926020909101359150565b600681106123445761234461231e565b828152604081016124ba6020830184612496565b9392505050565b600080600080608085870312156124d757600080fd5b5050823594602084013594506040840135936060013592509050565b602081016115448284612334565b8581526001600160a01b03851660208201526040810184905260a0810161252b6060830185612334565b8260808301529695505050505050565b60008060006060848603121561255057600080fd5b833592506020840135915060408401356006811061240457600080fd5b634e487b7160e01b600052604160045260246000fd5b600082601f83011261259457600080fd5b813567ffffffffffffffff808211156125af576125af61256d565b604051601f8301601f19908116603f011681019082821181831017156125d7576125d761256d565b816040528381528660208588010111156125f057600080fd5b836020870160208301376000602085830101528094505050505092915050565b6000806000806080858703121561262657600080fd5b8435935060208501359250604085013567ffffffffffffffff81111561264b57600080fd5b61265787828801612583565b9250506060850135612668816123c1565b939692955090935050565b60006020828403121561268557600080fd5b81356124ba816123c1565b6000602082840312156126a257600080fd5b813567ffffffffffffffff8111156126b957600080fd5b6126c584828501612583565b949350505050565b602080825282518282018190526000919060409081850190868401855b828110156127115781518051855286015115158685015292840192908501906001016126ea565b5091979650505050505050565b85815260a081016127326020830187612496565b8460408301528360608301528260808301529695505050505050565b60008060006060848603121561276357600080fd5b8335925060208401359150604084013567ffffffffffffffff81111561278857600080fd5b61279486828701612583565b9150509250925092565b60208082526018908201527721b0b6b830b4b3b71036bab9ba1031329030b1ba34bb329760411b604082015260600190565b634e487b7160e01b600052603260045260246000fd5b634e487b7160e01b600052601260045260246000fd5b634e487b7160e01b600052601160045260246000fd5b600082612821576128216127e6565b500490565b600181811c9082168061283a57607f821691505b60208210810361285a57634e487b7160e01b600052602260045260246000fd5b50919050565b601f8211156128a657600081815260208120601f850160051c810160208610156128875750805b601f850160051c820191505b81811015610eb357828155600101612893565b505050565b815167ffffffffffffffff8111156128c5576128c561256d565b6128d9816128d38454612826565b84612860565b602080601f83116001811461290e57600084156128f65750858301515b600019600386901b1c1916600185901b178555610eb3565b600085815260208120601f198616915b8281101561293d5788860151825594840194600190910190840161291e565b508582101561295b5787850151600019600388901b60f8161c191681555b5050505050600190811b01905550565b60006001820161297d5761297d6127fc565b5060010190565b80820180821115611544576115446127fc565b6020808252602a908201527f596f752068617665206e6f7420636f6e747269627574656420746f20746869736040820152691031b0b6b830b4b3b71760b11b606082015260800190565b602080825260179082015276092dcecc2d8d2c840dad2d8cae6e8dedcca40d2dcc8caf604b1b604082015260600190565b6000815180845260005b81811015612a3857602081850181015186830182015201612a1c565b506000602082860101526020601f19601f83011685010191505092915050565b604081526000612a6b6040830185612a12565b905060018060a01b03831660208301529392505050565b8082028115828204841417611544576115446127fc565b600082612aa857612aa86127e6565b500690565b600081612abc57612abc6127fc565b506000190190565b6020815260006124ba6020830184612a12565b604081526000612aea6040830185612a12565b9050826020830152939250505056fe7e5e6bfcab605d9254dbb5c3b4c8bd65ee4705bb30b1fc434d9651d24d368f36a2646970667358221220de441e734fe57e369ed5ba156134e8512f175c531ca6834780b19d266724af3764736f6c63430008130033",
  "linkReferences": {},
  "deployedLinkReferences": {}
}