{
  "_format": "hh-sol-artifact-1",
  "contractName": "Escrow",
  "sourceName": "contracts/Escrow.sol",
  "abi": [
    {
      "inputs": [
        {
          "internalType": "address payable",
          "name": "initialOwner",
          "type": "address"
        },
        {
          "internalType": "address",
          "name": "_daoAddress",
          "type": "address"
        },
        {
          "internalType": "address",
          "name": "_escAccount",
          "type": "address"
        }
      ],
      "stateMutability": "nonpayable",
      "type": "constructor"
    },
    {
      "anonymous": false,
      "inputs": [
        {
          "indexed": true,
          "internalType": "uint256",
          "name": "campaignId",
          "type": "uint256"
        }
      ],
      "name": "AllMilestonesReceived",
      "type": "event"
    },
    {
      "anonymous": false,
      "inputs": [
        {
          "indexed": true,
          "internalType": "uint256",
          "name": "campaignId",
          "type": "uint256"
        },
        {
          "indexed": true,
          "internalType": "uint256",
          "name": "milestoneIndex",
          "type": "uint256"
        }
      ],
      "name": "BillingConfirmed",
      "type": "event"
    },
    {
      "anonymous": false,
      "inputs": [
        {
          "indexed": true,
          "internalType": "uint256",
          "name": "campaignId",
          "type": "uint256"
        },
        {
          "indexed": true,
          "internalType": "uint256",
          "name": "milestoneIndex",
          "type": "uint256"
        },
        {
          "indexed": false,
          "internalType": "uint256",
          "name": "workersCost",
          "type": "uint256"
        },
        {
          "indexed": false,
          "internalType": "uint256",
          "name": "materialsCost",
          "type": "uint256"
        },
        {
          "indexed": false,
          "internalType": "uint256",
          "name": "totalCost",
          "type": "uint256"
        }
      ],
      "name": "BillingSubmitted",
      "type": "event"
    },
    {
      "anonymous": false,
      "inputs": [
        {
          "indexed": true,
          "internalType": "uint256",
          "name": "campaignId",
          "type": "uint256"
        }
      ],
      "name": "CampaignCompleted",
      "type": "event"
    },
    {
      "anonymous": false,
      "inputs": [
        {
          "indexed": true,
          "internalType": "uint256",
          "name": "campaignId",
          "type": "uint256"
        },
        {
          "indexed": true,
          "internalType": "address",
          "name": "beneficiary",
          "type": "address"
        },
        {
          "indexed": false,
          "internalType": "uint256",
          "name": "totalAmount",
          "type": "uint256"
        }
      ],
      "name": "CampaignCreated",
      "type": "event"
    },
    {
      "anonymous": false,
      "inputs": [
        {
          "indexed": true,
          "internalType": "uint256",
          "name": "campaignId",
          "type": "uint256"
        },
        {
          "indexed": false,
          "internalType": "enum Escrow.CampaignStatus",
          "name": "status",
          "type": "uint8"
        }
      ],
      "name": "CampaignStatusChanged",
      "type": "event"
    },
    {
      "anonymous": false,
      "inputs": [
        {
          "indexed": true,
          "internalType": "address",
          "name": "contributor",
          "type": "address"
        },
        {
          "indexed": true,
          "internalType": "uint256",
          "name": "campaignId",
          "type": "uint256"
        },
        {
          "indexed": false,
          "internalType": "uint256",
          "name": "targetAmount",
          "type": "uint256"
        }
      ],
      "name": "ContributionReceived",
      "type": "event"
    },
    {
      "anonymous": false,
      "inputs": [
        {
          "indexed": true,
          "internalType": "uint256",
          "name": "campaignId",
          "type": "uint256"
        },
        {
          "indexed": true,
          "internalType": "uint256",
          "name": "milestoneIndex",
          "type": "uint256"
        },
        {
          "indexed": false,
          "internalType": "string",
          "name": "description",
          "type": "string"
        }
      ],
      "name": "MilestoneDescriptionUpdated",
      "type": "event"
    },
    {
      "anonymous": false,
      "inputs": [
        {
          "indexed": true,
          "internalType": "uint256",
          "name": "campaignId",
          "type": "uint256"
        },
        {
          "indexed": false,
          "internalType": "uint256",
          "name": "milestoneIndex",
          "type": "uint256"
        }
      ],
      "name": "MilestoneReached",
      "type": "event"
    },
    {
      "anonymous": false,
      "inputs": [
        {
          "indexed": true,
          "internalType": "uint256",
          "name": "campaignId",
          "type": "uint256"
        },
        {
          "indexed": false,
          "internalType": "uint256",
          "name": "milestoneIndex",
          "type": "uint256"
        },
        {
          "indexed": false,
          "internalType": "enum Escrow.MilestoneStatus",
          "name": "status",
          "type": "uint8"
        }
      ],
      "name": "MilestoneUpdated",
      "type": "event"
    },
    {
      "anonymous": false,
      "inputs": [
        {
          "indexed": true,
          "internalType": "uint256",
          "name": "campaignId",
          "type": "uint256"
        },
        {
          "indexed": false,
          "internalType": "uint256",
          "name": "milestoneIndex",
          "type": "uint256"
        }
      ],
      "name": "MilestoneVerified",
      "type": "event"
    },
    {
      "anonymous": false,
      "inputs": [
        {
          "indexed": true,
          "internalType": "address",
          "name": "previousOwner",
          "type": "address"
        },
        {
          "indexed": true,
          "internalType": "address",
          "name": "newOwner",
          "type": "address"
        }
      ],
      "name": "OwnershipTransferred",
      "type": "event"
    },
    {
      "anonymous": false,
      "inputs": [
        {
          "indexed": false,
          "internalType": "uint256",
          "name": "id",
          "type": "uint256"
        },
        {
          "indexed": false,
          "internalType": "address",
          "name": "contributor",
          "type": "address"
        },
        {
          "indexed": false,
          "internalType": "uint256",
          "name": "refundAmt",
          "type": "uint256"
        }
      ],
      "name": "RefundIssued",
      "type": "event"
    },
    {
      "anonymous": false,
      "inputs": [
        {
          "indexed": true,
          "internalType": "uint256",
          "name": "campaignId",
          "type": "uint256"
        },
        {
          "indexed": true,
          "internalType": "uint256",
          "name": "milestoneIndex",
          "type": "uint256"
        },
        {
          "indexed": false,
          "internalType": "address",
          "name": "serviceProvider",
          "type": "address"
        }
      ],
      "name": "ServiceCompletionSubmitted",
      "type": "event"
    },
    {
      "anonymous": false,
      "inputs": [
        {
          "indexed": true,
          "internalType": "uint256",
          "name": "campaignId",
          "type": "uint256"
        },
        {
          "indexed": true,
          "internalType": "uint256",
          "name": "milestoneIndex",
          "type": "uint256"
        },
        {
          "indexed": false,
          "internalType": "address",
          "name": "serviceProvider",
          "type": "address"
        },
        {
          "indexed": false,
          "internalType": "uint256",
          "name": "amount",
          "type": "uint256"
        },
        {
          "indexed": false,
          "internalType": "uint256",
          "name": "remainingAmount",
          "type": "uint256"
        }
      ],
      "name": "ServiceProviderPaid",
      "type": "event"
    },
    {
      "anonymous": false,
      "inputs": [
        {
          "indexed": true,
          "internalType": "uint256",
          "name": "campaignId",
          "type": "uint256"
        },
        {
          "indexed": true,
          "internalType": "uint256",
          "name": "milestoneIndex",
          "type": "uint256"
        },
        {
          "indexed": false,
          "internalType": "string",
          "name": "serviceDescription",
          "type": "string"
        },
        {
          "indexed": false,
          "internalType": "address",
          "name": "serviceProvider",
          "type": "address"
        }
      ],
      "name": "ServiceRequested",
      "type": "event"
    },
    {
      "anonymous": false,
      "inputs": [
        {
          "indexed": true,
          "internalType": "uint256",
          "name": "campaignId",
          "type": "uint256"
        },
        {
          "indexed": true,
          "internalType": "uint256",
          "name": "milestoneIndex",
          "type": "uint256"
        }
      ],
      "name": "TransactionHistUpdate",
      "type": "event"
    },
    {
      "inputs": [
        {
          "internalType": "uint256",
          "name": "_campaignId",
          "type": "uint256"
        }
      ],
      "name": "TotalContributions",
      "outputs": [
        {
          "components": [
            {
              "internalType": "uint256",
              "name": "totalContributed",
              "type": "uint256"
            },
            {
              "internalType": "bool",
              "name": "isFullyFunded",
              "type": "bool"
            }
          ],
          "internalType": "struct Escrow.MilestoneFunding[]",
          "name": "contributions",
          "type": "tuple[]"
        }
      ],
      "stateMutability": "view",
      "type": "function"
    },
    {
      "inputs": [
        {
          "internalType": "uint256",
          "name": "_campaignId",
          "type": "uint256"
        },
        {
          "internalType": "uint256",
          "name": "_milestoneIndex",
          "type": "uint256"
        },
        {
          "internalType": "uint256",
          "name": "_workers",
          "type": "uint256"
        },
        {
          "internalType": "uint256",
          "name": "_materialCost",
          "type": "uint256"
        },
        {
          "internalType": "uint256",
          "name": "_daysTaken",
          "type": "uint256"
        }
      ],
      "name": "VerifyTransaction",
      "outputs": [],
      "stateMutability": "nonpayable",
      "type": "function"
    },
    {
      "inputs": [
        {
          "internalType": "uint256",
          "name": "_campaignId",
          "type": "uint256"
        }
      ],
      "name": "approveCampaign",
      "outputs": [],
      "stateMutability": "nonpayable",
      "type": "function"
    },
    {
      "inputs": [
        {
          "internalType": "uint256",
          "name": "",
          "type": "uint256"
        },
        {
          "internalType": "address",
          "name": "",
          "type": "address"
        }
      ],
      "name": "campaignContributions",
      "outputs": [
        {
          "internalType": "uint256",
          "name": "",
          "type": "uint256"
        }
      ],
      "stateMutability": "view",
      "type": "function"
    },
    {
      "inputs": [
        {
          "internalType": "uint256",
          "name": "",
          "type": "uint256"
        }
      ],
      "name": "campaigns",
      "outputs": [
        {
          "internalType": "uint256",
          "name": "id",
          "type": "uint256"
        },
        {
          "internalType": "address",
          "name": "beneficiary",
          "type": "address"
        },
        {
          "internalType": "uint256",
          "name": "totalAmount",
          "type": "uint256"
        },
        {
          "internalType": "enum Escrow.CampaignStatus",
          "name": "status",
          "type": "uint8"
        },
        {
          "internalType": "uint256",
          "name": "currentIndex",
          "type": "uint256"
        },
        {
          "internalType": "uint256",
          "name": "totalContributions",
          "type": "uint256"
        }
      ],
      "stateMutability": "view",
      "type": "function"
    },
    {
      "inputs": [
        {
          "internalType": "uint256",
          "name": "campaignId",
          "type": "uint256"
        },
        {
          "internalType": "uint256",
          "name": "milestoneIndex",
          "type": "uint256"
        }
      ],
      "name": "confirmBilling",
      "outputs": [],
      "stateMutability": "nonpayable",
      "type": "function"
    },
    {
      "inputs": [
        {
          "internalType": "uint256",
          "name": "_campaignId",
          "type": "uint256"
        },
        {
          "internalType": "uint256",
          "name": "_amount",
          "type": "uint256"
        }
      ],
      "name": "contributeToCampaign",
      "outputs": [],
      "stateMutability": "payable",
      "type": "function"
    },
    {
      "inputs": [
        {
          "internalType": "address",
          "name": "_beneficiary",
          "type": "address"
        },
        {
          "internalType": "uint256",
          "name": "_totalAmount",
          "type": "uint256"
        },
        {
          "internalType": "uint256",
          "name": "_milestoneCount",
          "type": "uint256"
        }
      ],
      "name": "createCampaign",
      "outputs": [],
      "stateMutability": "nonpayable",
      "type": "function"
    },
    {
      "inputs": [],
      "name": "daoAddress",
      "outputs": [
        {
          "internalType": "address",
          "name": "",
          "type": "address"
        }
      ],
      "stateMutability": "view",
      "type": "function"
    },
    {
      "inputs": [
        {
          "internalType": "uint256",
          "name": "",
          "type": "uint256"
        },
        {
          "internalType": "uint256",
          "name": "",
          "type": "uint256"
        }
      ],
      "name": "donorSpecs",
      "outputs": [
        {
          "internalType": "uint256",
          "name": "targetAmount",
          "type": "uint256"
        }
      ],
      "stateMutability": "view",
      "type": "function"
    },
    {
      "inputs": [],
      "name": "escAccount",
      "outputs": [
        {
          "internalType": "address",
          "name": "",
          "type": "address"
        }
      ],
      "stateMutability": "view",
      "type": "function"
    },
    {
      "inputs": [
        {
          "internalType": "uint256",
          "name": "_campaignId",
          "type": "uint256"
        }
      ],
      "name": "getCampaignStatus",
      "outputs": [
        {
          "internalType": "enum Escrow.CampaignStatus",
          "name": "",
          "type": "uint8"
        }
      ],
      "stateMutability": "view",
      "type": "function"
    },
    {
      "inputs": [],
      "name": "getDaoAddress",
      "outputs": [
        {
          "internalType": "address",
          "name": "",
          "type": "address"
        }
      ],
      "stateMutability": "view",
      "type": "function"
    },
    {
      "inputs": [
        {
          "internalType": "uint256",
          "name": "campaignId",
          "type": "uint256"
        }
      ],
      "name": "getDetails",
      "outputs": [
        {
          "internalType": "int256",
          "name": "",
          "type": "int256"
        }
      ],
      "stateMutability": "view",
      "type": "function"
    },
    {
      "inputs": [
        {
          "internalType": "uint256",
          "name": "_campaignId",
          "type": "uint256"
        }
      ],
      "name": "getMilestoneCount",
      "outputs": [
        {
          "internalType": "uint256",
          "name": "",
          "type": "uint256"
        }
      ],
      "stateMutability": "view",
      "type": "function"
    },
    {
      "inputs": [
        {
          "internalType": "uint256",
          "name": "_campaignId",
          "type": "uint256"
        },
        {
          "internalType": "uint256",
          "name": "_milestoneIndex",
          "type": "uint256"
        }
      ],
      "name": "getMilestoneDetails",
      "outputs": [
        {
          "internalType": "uint256",
          "name": "amount",
          "type": "uint256"
        },
        {
          "internalType": "enum Escrow.MilestoneStatus",
          "name": "status",
          "type": "uint8"
        }
      ],
      "stateMutability": "view",
      "type": "function"
    },
    {
      "inputs": [
        {
          "internalType": "uint256",
          "name": "_campaignId",
          "type": "uint256"
        },
        {
          "internalType": "uint256",
          "name": "_milestoneIndex",
          "type": "uint256"
        }
      ],
      "name": "getTransactionHistory",
      "outputs": [
        {
          "components": [
            {
              "internalType": "uint256",
              "name": "workers",
              "type": "uint256"
            },
            {
              "internalType": "uint256",
              "name": "materialCost",
              "type": "uint256"
            },
            {
              "internalType": "uint256",
              "name": "daysTaken",
              "type": "uint256"
            }
          ],
          "internalType": "struct Escrow.TransactionHistory",
          "name": "",
          "type": "tuple"
        }
      ],
      "stateMutability": "view",
      "type": "function"
    },
    {
      "inputs": [],
      "name": "owner",
      "outputs": [
        {
          "internalType": "address",
          "name": "",
          "type": "address"
        }
      ],
      "stateMutability": "view",
      "type": "function"
    },
    {
      "inputs": [
        {
          "internalType": "uint256",
          "name": "_campaignId",
          "type": "uint256"
        },
        {
          "internalType": "uint256",
          "name": "_milestoneIndex",
          "type": "uint256"
        },
        {
          "internalType": "address payable",
          "name": "_serviceProvider",
          "type": "address"
        }
      ],
      "name": "payServiceProvider",
      "outputs": [],
      "stateMutability": "nonpayable",
      "type": "function"
    },
    {
      "inputs": [
        {
          "internalType": "uint256",
          "name": "_campaignId",
          "type": "uint256"
        }
      ],
      "name": "rejectCampaign",
      "outputs": [],
      "stateMutability": "nonpayable",
      "type": "function"
    },
    {
      "inputs": [
        {
          "internalType": "uint256",
          "name": "_campaignId",
          "type": "uint256"
        },
        {
          "internalType": "uint256",
          "name": "_milestoneIndex",
          "type": "uint256"
        }
      ],
      "name": "releaseMilestone",
      "outputs": [],
      "stateMutability": "nonpayable",
      "type": "function"
    },
    {
      "inputs": [],
      "name": "renounceOwnership",
      "outputs": [],
      "stateMutability": "nonpayable",
      "type": "function"
    },
    {
      "inputs": [
        {
          "internalType": "uint256",
          "name": "campaignId",
          "type": "uint256"
        },
        {
          "internalType": "uint256",
          "name": "milestoneIndex",
          "type": "uint256"
        },
        {
          "internalType": "string",
          "name": "serviceDescription",
          "type": "string"
        },
        {
          "internalType": "address",
          "name": "serviceProvider",
          "type": "address"
        }
      ],
      "name": "requestService",
      "outputs": [],
      "stateMutability": "nonpayable",
      "type": "function"
    },
    {
      "inputs": [
        {
          "internalType": "string",
          "name": "",
          "type": "string"
        }
      ],
      "name": "serviceProviders",
      "outputs": [
        {
          "internalType": "address",
          "name": "",
          "type": "address"
        }
      ],
      "stateMutability": "view",
      "type": "function"
    },
    {
      "inputs": [
        {
          "internalType": "address",
          "name": "_daoAddress",
          "type": "address"
        }
      ],
      "name": "setDAOAddress",
      "outputs": [],
      "stateMutability": "nonpayable",
      "type": "function"
    },
    {
      "inputs": [
        {
          "internalType": "uint256",
          "name": "_campaignId",
          "type": "uint256"
        },
        {
          "internalType": "uint256",
          "name": "_milestoneIndex",
          "type": "uint256"
        },
        {
          "internalType": "string",
          "name": "_description",
          "type": "string"
        }
      ],
      "name": "setMilestoneDescription",
      "outputs": [],
      "stateMutability": "nonpayable",
      "type": "function"
    },
    {
      "inputs": [
        {
          "internalType": "uint256",
          "name": "_campaignId",
          "type": "uint256"
        },
        {
          "internalType": "uint256",
          "name": "_milestoneIndex",
          "type": "uint256"
        },
        {
          "internalType": "enum Escrow.MilestoneStatus",
          "name": "_status",
          "type": "uint8"
        }
      ],
      "name": "setMilestoneStatus",
      "outputs": [],
      "stateMutability": "nonpayable",
      "type": "function"
    },
    {
      "inputs": [
        {
          "internalType": "uint256",
          "name": "campaignId",
          "type": "uint256"
        },
        {
          "internalType": "uint256",
          "name": "milestoneIndex",
          "type": "uint256"
        },
        {
          "internalType": "uint256",
          "name": "workersCost",
          "type": "uint256"
        },
        {
          "internalType": "uint256",
          "name": "materialsCost",
          "type": "uint256"
        }
      ],
      "name": "submitBilling",
      "outputs": [],
      "stateMutability": "nonpayable",
      "type": "function"
    },
    {
      "inputs": [
        {
          "internalType": "uint256",
          "name": "campaignId",
          "type": "uint256"
        },
        {
          "internalType": "uint256",
          "name": "milestoneIndex",
          "type": "uint256"
        },
        {
          "internalType": "address",
          "name": "serviceProvider",
          "type": "address"
        }
      ],
      "name": "submitServiceCompletion",
      "outputs": [],
      "stateMutability": "nonpayable",
      "type": "function"
    },
    {
      "inputs": [
        {
          "internalType": "address",
          "name": "newOwner",
          "type": "address"
        }
      ],
      "name": "transferOwnership",
      "outputs": [],
      "stateMutability": "nonpayable",
      "type": "function"
    },
    {
      "inputs": [
        {
          "internalType": "uint256",
          "name": "_campaignId",
          "type": "uint256"
        }
      ],
      "name": "viewCampaignDetails",
      "outputs": [
        {
          "internalType": "uint256",
          "name": "id",
          "type": "uint256"
        },
        {
          "internalType": "address",
          "name": "beneficiary",
          "type": "address"
        },
        {
          "internalType": "uint256",
          "name": "totalAmount",
          "type": "uint256"
        },
        {
          "internalType": "enum Escrow.CampaignStatus",
          "name": "status",
          "type": "uint8"
        },
        {
          "internalType": "uint256",
          "name": "milestoneCount",
          "type": "uint256"
        }
      ],
      "stateMutability": "view",
      "type": "function"
    },
    {
      "inputs": [
        {
          "internalType": "uint256",
          "name": "_campaignId",
          "type": "uint256"
        },
        {
          "internalType": "uint256",
          "name": "_milestoneIndex",
          "type": "uint256"
        }
      ],
      "name": "viewMilestoneDetails",
      "outputs": [
        {
          "internalType": "uint256",
          "name": "amount",
          "type": "uint256"
        },
        {
          "internalType": "enum Escrow.MilestoneStatus",
          "name": "status",
          "type": "uint8"
        },
        {
          "internalType": "uint256",
          "name": "workers",
          "type": "uint256"
        },
        {
          "internalType": "uint256",
          "name": "materialCost",
          "type": "uint256"
        },
        {
          "internalType": "uint256",
          "name": "daysTaken",
          "type": "uint256"
        }
      ],
      "stateMutability": "view",
      "type": "function"
    },
    {
      "stateMutability": "payable",
      "type": "receive"
    }
  ],
  "bytecode": "0x60806040523480156200001157600080fd5b5060405162002e4b38038062002e4b8339810160408190526200003491620002ff565b6200003f33620001bc565b6001600160a01b038316620000ac5760405162461bcd60e51b815260206004820152602860248201527f496e697469616c206f776e65722063616e6e6f7420626520746865207a65726f604482015267206164647265737360c01b60648201526084015b60405180910390fd5b6001600160a01b038116620001165760405162461bcd60e51b815260206004820152602960248201527f457363726f77206163636f756e742063616e6e6f7420626520746865207a65726044820152686f206164647265737360b81b6064820152608401620000a3565b6001600160a01b0382166200017e5760405162461bcd60e51b815260206004820152602760248201527f44414f20616464726573732063616e6e6f7420626520746865207a65726f206160448201526632323932b9b99760c91b6064820152608401620000a3565b62000189836200020c565b600480546001600160a01b039384166001600160a01b031991821617909155600380549290931691161790555062000353565b600080546001600160a01b038381166001600160a01b0319831681178455604051919092169283917f8be0079c531659141344cd1fd0a4f28419497f9722a3daafe3b4186f6b6457e09190a35050565b620002166200028b565b6001600160a01b0381166200027d5760405162461bcd60e51b815260206004820152602660248201527f4f776e61626c653a206e6577206f776e657220697320746865207a65726f206160448201526564647265737360d01b6064820152608401620000a3565b6200028881620001bc565b50565b6000546001600160a01b03163314620002e75760405162461bcd60e51b815260206004820181905260248201527f4f776e61626c653a2063616c6c6572206973206e6f7420746865206f776e65726044820152606401620000a3565b565b6001600160a01b03811681146200028857600080fd5b6000806000606084860312156200031557600080fd5b83516200032281620002e9565b60208501519093506200033581620002e9565b60408501519092506200034881620002e9565b809150509250925092565b612ae880620003636000396000f3fe6080604052600436106101a75760003560e01c80638da5cb5b116100e2578063c2010e5011610085578063c2010e50146105ca578063c2f9412a146105fa578063dbaf09101461061a578063e66ae9f51461063a578063eb3dac6f1461066b578063eb9158931461067e578063ee4e1b531461069e578063f2fde38b146106be57600080fd5b80638da5cb5b1461047c578063919fa1fa1461049a578063965afa89146104ba578063a2201605146104da578063a39c7a9c1461051b578063b7d2b3a71461055d578063b93a89f71461057d578063bf78ca771461059d57600080fd5b8063461b60041161014a578063461b6004146103485780634c3710221461036857806362d87863146103965780636c19e004146103b65780636d170e99146103f6578063715018a61461042757806373a7cb1b1461043c5780637a589d8f1461045c57600080fd5b8063034d09da146101b3578063141961bc146101d5578063151e783d1461025057806319b907b1146102705780631d68702d146102905780632131c68c146102c257806322c59958146102e257806328928b901461032857600080fd5b366101ae57005b600080fd5b3480156101bf57600080fd5b506101d36101ce3660046122be565b6106de565b005b3480156101e157600080fd5b506102356101f03660046122be565b600560208190526000918252604090912080546001820154600283015460038401549484015460069094015492946001600160a01b0390921693909260ff9092169186565b60405161024796959493929190612301565b60405180910390f35b34801561025c57600080fd5b506101d361026b36600461233f565b61072a565b34801561027c57600080fd5b506101d361028b36600461238f565b610898565b34801561029c57600080fd5b506004546001600160a01b03165b6040516001600160a01b039091168152602001610247565b3480156102ce57600080fd5b506004546102aa906001600160a01b031681565b3480156102ee57600080fd5b5061031a6102fd3660046123c8565b600860209081526000928352604080842090915290825290205481565b604051908152602001610247565b34801561033457600080fd5b506003546102aa906001600160a01b031681565b34801561035457600080fd5b506101d36103633660046123f8565b610a4d565b34801561037457600080fd5b5061038861038336600461242d565b610ebb565b60405161024792919061245f565b3480156103a257600080fd5b506101d36103b136600461247a565b610f0d565b3480156103c257600080fd5b506103e96103d13660046122be565b60009081526005602052604090206003015460ff1690565b60405161024791906124ac565b34801561040257600080fd5b506104166104113660046122be565b610feb565b6040516102479594939291906124ba565b34801561043357600080fd5b506101d3611063565b34801561044857600080fd5b506101d36104573660046124f4565b611077565b34801561046857600080fd5b506101d36104773660046125c9565b611115565b34801561048857600080fd5b506000546001600160a01b03166102aa565b3480156104a657600080fd5b506101d36104b536600461238f565b6112a7565b3480156104c657600080fd5b506101d36104d536600461262c565b611428565b3480156104e657600080fd5b506102aa6104f5366004612649565b80516020818301810180516007825292820191909301209152546001600160a01b031681565b34801561052757600080fd5b5061053b61053636600461242d565b6114b7565b6040805182518152602080840151908201529181015190820152606001610247565b34801561056957600080fd5b506101d361057836600461242d565b611565565b34801561058957600080fd5b5061031a6105983660046122be565b61169c565b3480156105a957600080fd5b506105bd6105b83660046122be565b611768565b6040516102479190612686565b3480156105d657600080fd5b5061031a6105e53660046122be565b60009081526005602052604090206004015490565b34801561060657600080fd5b5061031a61061536600461242d565b611897565b34801561062657600080fd5b506101d361063536600461242d565b6118c6565b34801561064657600080fd5b5061065a61065536600461242d565b611d03565b6040516102479594939291906126d7565b6101d361067936600461242d565b611deb565b34801561068a57600080fd5b506101d3610699366004612707565b612034565b3480156106aa57600080fd5b506101d36106b93660046122be565b6120aa565b3480156106ca57600080fd5b506101d36106d936600461262c565b6120ec565b60008181526005602052604090206003808201805460ff1916600183021790555081600080516020612a93833981519152600360405161071e91906124ac565b60405180910390a25050565b6000858152600560205260409020600160038083015460ff1690811115610753576107536122d7565b146107795760405162461bcd60e51b815260040161077090612757565b60405180910390fd5b600081600401868154811061079057610790612789565b60009182526020909120600c9091020190506004600182015460ff1660058111156107bd576107bd6122d7565b1461081e5760405162461bcd60e51b815260206004820152602b60248201527f4d696c6573746f6e65206d7573742062652070616964206265666f726520766560448201526a3934b334b1b0ba34b7b71760a91b6064820152608401610770565b60408051606081018252868152602080820187905290820185905260028301879055600383018690556004830185905560018301805460ff19166005179055905187815288917fbcbde959d440ac297afe28570fc77c716fb86a672a8603968abe1eda8b122b46910160405180910390a250505050505050565b60008381526005602052604081206004018054849081106108bb576108bb612789565b90600052602060002090600c020190508060080160030160019054906101000a900460ff166109525760405162461bcd60e51b815260206004820152603e60248201527f42696c6c696e67206d75737420626520636f6e6669726d6564206265666f726560448201527f207375626d697474696e67207365727669636520636f6d706c6574696f6e00006064820152608401610770565b6004600182015460ff16600581111561096d5761096d6122d7565b146109e05760405162461bcd60e51b815260206004820152603c60248201527f5365727669636520636f6d706c6574696f6e2063616e206f6e6c79206265207360448201527f75626d697474656420666f722070616964206d696c6573746f6e6573000000006064820152608401610770565b60018101805460ff19166005179055600781018054600160a01b60ff60a01b199091161790556040516001600160a01b0383168152839085907f94bc4fae75ab5c3f954dcc6cd6d5128e7a3c931184611e15336704f3264c993f906020015b60405180910390a350505050565b6001600160a01b038316610ab35760405162461bcd60e51b815260206004820152602760248201527f42656e65666963696172792063616e6e6f7420626520746865207a65726f206160448201526632323932b9b99760c91b6064820152608401610770565b60008211610b135760405162461bcd60e51b815260206004820152602760248201527f546f74616c20616d6f756e74206d75737420626520677265617465722074686160448201526637103d32b9379760c91b6064820152608401610770565b60008111610b635760405162461bcd60e51b815260206004820181905260248201527f4174206c65617374206f6e65206d696c6573746f6e652072657175697265642e6044820152606401610770565b610b71600180546001019055565b6000610b7c60015490565b6000818152600560209081526040918290208381556001810180546001600160a01b0319166001600160a01b038a16179055600281018790558251808401909352601d83527f546f74616c20416d6f756e74204265666f72652053657474696e673a2000000091830191909152919250610bf69085612165565b6002810184905560408051808201909152601c81527f546f74616c20416d6f756e742041667465722053657474696e673a20000000006020820152610c3b9085612165565b60038101805460ff191690556001600582015560005b83811015610eb3576040805160608101825260008082526020820181905291810182905290610c8086886127b5565b9050610cb660405180604001604052806012815260200171026b4b632b9ba37b7329020b6b7bab73a1d160751b81525082612165565b6040805161010081018252828152600060208083018281528451606080820187528482528184018590528187018590528587019190915285518084018752848152818601528551808401875284815260808087019190915260a080870186905260c0870186905287519081018852858152808501869052968701859052908601849052850183905260e084019490945260048801805460018082018355918452919092208351600c90920201908155925183820180549394939192909160ff191690836005811115610d8a57610d8a6122d7565b021790555060408281015180516002840155602081015160038401550151600482015560608201516005820190610dc1908261285c565b5060808201516006820190610dd6908261285c565b5060a082015160078201805460c08501511515600160a01b026001600160a81b03199091166001600160a01b039384161717905560e0909201518051600883015560208101516009830155604080820151600a8401556060820151600b909301805460809093015115156101000261ff00199415159490941661ffff1990931692909217929092179055519089169086907f63e3678c8493a16f8ba43ae9e547231762ca04526dac2c388bd2c26d8940185190610e96908b815260200190565b60405180910390a350508080610eab9061291c565b915050610c51565b505050505050565b6000828152600560205260408120600481018054839291839186908110610ee457610ee4612789565b60009182526020909120600c90910201805460019091015490945060ff16925050509250929050565b6000848152600560205260408120600401805485908110610f3057610f30612789565b600091825260208220600c909102019150610f4b8385612935565b6040805160a08101825286815260208082018790528183018490526001606080840182905260006080909401939093526008870189905560098701889055600a8701859055600b8701805461ffff191690911790558251888152908101879052918201839052919250869188917f36fb2eb6ac148f8772e01686301008de788cb29ffaebaf418d496d681aef9d33910160405180910390a3505050505050565b600081815260056020908152604080832033845260078101909252822054829182918291829161102d5760405162461bcd60e51b815260040161077090612948565b8054600182015460028301546003840154600490940154929a6001600160a01b039092169950975060ff90921695509350915050565b61106b6121ae565b6110756000612208565b565b600083815260056020526040812060040180548490811061109a5761109a612789565b90600052602060002090600c02019050818160010160006101000a81548160ff021916908360058111156110d0576110d06122d7565b0217905550837fbec752a593d8ddbe45792918310a70eaa90968426e352c981df882c16b81124c848460405161110792919061245f565b60405180910390a250505050565b60008481526005602052604090206004015483106111455760405162461bcd60e51b815260040161077090612992565b600084815260056020526040812060040180548590811061116857611168612789565b600091825260208220600c909102019150600182015460ff166005811115611192576111926122d7565b14806111b657506003600182015460ff1660058111156111b4576111b46122d7565b145b6112365760405162461bcd60e51b815260206004820152604560248201527f536572766963652063616e206f6e6c792062652072657175657374656420666f60448201527f722070656e64696e67206f722068616c6620636f6d706c657465206d696c6573606482015264746f6e657360d81b608482015260a401610770565b60068101611244848261285c565b506007810180546001600160a01b0319166001600160a01b038416179055604051849086907f34ece42e48b363126bd2d401e41117f41fb9eb97c9c7bc1ed737170430b6f77b906112989087908790612a09565b60405180910390a35050505050565b6000838152600560205260408120600481018054919291859081106112ce576112ce612789565b600091825260208220600c909102019150600182015460ff1660058111156112f8576112f86122d7565b148061131c57506003600182015460ff16600581111561131a5761131a6122d7565b145b6113775760405162461bcd60e51b815260206004820152602660248201527f4d696c6573746f6e65206e6f742070656e64696e67206f722068616c6620636f6044820152656d706c65746560d01b6064820152608401610770565b805460028301805460009061138d908490612a33565b909155505080546040516001600160a01b0385169180156108fc02916000818181858888f193505050501580156113c8573d6000803e3d6000fd5b5060018101805460ff1916600417905580546002830154604080516001600160a01b03871681526020810193909352820152849086907f4bb4448e15571340a2645231e382bf98685981a2236755f5be9b5a8e00df1ed090606001611298565b6114306121ae565b6001600160a01b0381166114955760405162461bcd60e51b815260206004820152602660248201527f44414f20616464726573732063616e6e6f7420626520746865207a65726f206160448201526564647265737360d01b6064820152608401610770565b600480546001600160a01b0319166001600160a01b0392909216919091179055565b6114db60405180606001604052806000815260200160008152602001600081525090565b60008381526005602052604090206004810154831061150c5760405162461bcd60e51b815260040161077090612992565b80600401838154811061152157611521612789565b90600052602060002090600c020160020160405180606001604052908160008201548152602001600182015481526020016002820154815250509150505b92915050565b60008281526005602052604081206004810180549192918490811061158c5761158c612789565b60009182526020909120600c90910201600b81015490915060ff166115f35760405162461bcd60e51b815260206004820152601f60248201527f42696c6c696e67206d757374206265207375626d6974746564206669727374006044820152606401610770565b600b810154610100900460ff16156116585760405162461bcd60e51b815260206004820152602260248201527f42696c6c696e672068617320616c7265616479206265656e20636f6e6669726d604482015261195960f21b6064820152608401610770565b600b8101805461ff001916610100179055604051839085907f461c8f3ef1d33fc91976b1b921b4bf90b2385b280292a7bf77a68f2ec637993590600090a350505050565b6000818152600560205260408120815b600482015481101561175d5760008260040182815481106116cf576116cf612789565b600091825260209091206001600c90920201015460ff1660058111156116f7576116f76122d7565b148061173f5750600382600401828154811061171557611715612789565b600091825260209091206001600c90920201015460ff16600581111561173d5761173d6122d7565b145b1561174b579392505050565b806117558161291c565b9150506116ac565b506000199392505050565b600081815260056020526040902060048101546060919067ffffffffffffffff81111561179757611797612526565b6040519080825280602002602001820160405280156117dc57816020015b60408051808201909152600080825260208201528152602001906001900390816117b55790505b50915060005b600482015481101561189057600082600401828154811061180557611805612789565b90600052602060002090600c0201600001549050600083600401838154811061183057611830612789565b90600052602060002090600c0201600001548210159050604051806040016040528083815260200182151581525085848151811061187057611870612789565b6020026020010181905250505080806118889061291c565b9150506117e2565b5050919050565b600660205281600052604060002081815481106118b357600080fd5b6000918252602090912001549150829050565b6000828152600560205260409020600160038083015460ff16908111156118ef576118ef6122d7565b1461190c5760405162461bcd60e51b815260040161077090612757565b600081600401838154811061192357611923612789565b60009182526020909120600c9091020190506003600182015460ff166005811115611950576119506122d7565b148061197457506005600182015460ff166005811115611972576119726122d7565b145b6119f15760405162461bcd60e51b815260206004820152604260248201527f4d696c6573746f6e65206d757374206265206569746865722068616c6620636f60448201527f6d706c657465206f72207665726966696564206265666f72652072656c656173606482015261329760f11b608482015260a401610770565b60006726db992a3b18000082600001541115611a43578154606490611a17906014612a46565b611a2191906127b5565b60018084018054929350600392909160ff1990911690835b0217905550611b04565b6003600183015460ff166005811115611a5e57611a5e6122d7565b03611ae0578154606490611a73906014612a46565b611a7d91906127b5565b8103611adb576003600183015460ff166005811115611a9e57611a9e6122d7565b14611aaa578154611ac4565b8154606490611aba906050612a46565b611ac491906127b5565b60018381018054929350909160ff19168280611a39565b611b04565b81546726db992a3b18000010611b04575080546001808301805460ff191690911790555b60018301546001600160a01b0316611b1b82612258565b81471015611b775760405162461bcd60e51b815260206004820152602360248201527f496e73756666696369656e742066756e647320696e2074686520636f6e74726160448201526231ba1760e91b6064820152608401610770565b6000816001600160a01b03168360405160006040518083038185875af1925050503d8060008114611bc4576040519150601f19603f3d011682016040523d82523d6000602084013e611bc9565b606091505b5050905080611c0d5760405162461bcd60e51b815260206004820152601060248201526f2a3930b739b332b9103330b4b632b21760811b6044820152606401610770565b867fbec752a593d8ddbe45792918310a70eaa90968426e352c981df882c16b81124c876001604051611c4092919061245f565b60405180910390a2600160005b6004870154811015611cb8576001876004018281548110611c7057611c70612789565b600091825260209091206001600c90920201015460ff166005811115611c9857611c986122d7565b14611ca65760009150611cb8565b80611cb08161291c565b915050611c4d565b508015611cf95760038601805460ff191660029081179091556040518991600080516020612a9383398151915291611cf091906124ac565b60405180910390a25b5050505050505050565b6000828152600560205260408120600481015482918291829182918710611d675760405162461bcd60e51b815260206004820152601860248201527724b73b30b634b21036b4b632b9ba37b7329034b73232bc1760411b6044820152606401610770565b336000908152600782016020526040902054611d955760405162461bcd60e51b815260040161077090612948565b6000816004018881548110611dac57611dac612789565b60009182526020909120600c909102018054600182015460028301546003840154600490940154929d60ff9092169c509a509198509650945050505050565b6000828152600560205260409020600160038083015460ff1690811115611e1457611e146122d7565b14611e315760405162461bcd60e51b815260040161077090612757565b60003411611e915760405162461bcd60e51b815260206004820152602760248201527f436f6e747269627574696f6e206d75737420626520677265617465722074686160448201526637103d32b9379760c91b6064820152608401610770565b8060020154348260060154611ea69190612935565b1115611f155760405162461bcd60e51b815260206004820152603860248201527f43616d706169676e2066756c6c792066756e6465642e204e6f20667572746865604482015277391031b7b73a3934b13aba34b7b7399030b63637bbb2b21760411b6064820152608401610770565b33600090815260078201602052604081208054349290611f36908490612935565b9250508190555034816006016000828254611f519190612935565b909155505060008381526006602090815260408083208151808401835286815281546001810183559185529383902093519301929092559051838152849133917fd2dff949d20e874cc6ba1dcefb840fb8cf6000a4197bfb69accfea5a32443ff5910160405180910390a36004810154600090611fce90346127b5565b905060005b600483015481101561202d5781836004018281548110611ff557611ff5612789565b90600052602060002090600c020160000160008282546120159190612935565b909155508190506120258161291c565b915050611fd3565b5050505050565b600083815260056020526040812060040180548490811061205757612057612789565b90600052602060002090600c0201905081816005019081612078919061285c565b5082847f9983f7a63820ef4786b003ec8300a49ac59ef17884888e43e1b0a0e6e1a9337b84604051610a3f9190612a5d565b60008181526005602052604090206003810180546001919060ff19168280021790555081600080516020612a93833981519152600160405161071e91906124ac565b6120f46121ae565b6001600160a01b0381166121595760405162461bcd60e51b815260206004820152602660248201527f4f776e61626c653a206e6577206f776e657220697320746865207a65726f206160448201526564647265737360d01b6064820152608401610770565b61216281612208565b50565b6121aa828260405160240161217b929190612a70565b60408051601f198184030181529190526020810180516001600160e01b0316632d839cb360e21b179052612299565b5050565b6000546001600160a01b031633146110755760405162461bcd60e51b815260206004820181905260248201527f4f776e61626c653a2063616c6c6572206973206e6f7420746865206f776e65726044820152606401610770565b600080546001600160a01b038381166001600160a01b0319831681178455604051919092169283917f8be0079c531659141344cd1fd0a4f28419497f9722a3daafe3b4186f6b6457e09190a35050565b6121628160405160240161226e91815260200190565b60408051601f198184030181529190526020810180516001600160e01b031663f82c50f160e01b1790525b6121628160006a636f6e736f6c652e6c6f679050600080835160208501845afa505050565b6000602082840312156122d057600080fd5b5035919050565b634e487b7160e01b600052602160045260246000fd5b600481106122fd576122fd6122d7565b9052565b8681526001600160a01b03861660208201526040810185905260c0810161232b60608301866122ed565b608082019390935260a00152949350505050565b600080600080600060a0868803121561235757600080fd5b505083359560208501359550604085013594606081013594506080013592509050565b6001600160a01b038116811461216257600080fd5b6000806000606084860312156123a457600080fd5b833592506020840135915060408401356123bd8161237a565b809150509250925092565b600080604083850312156123db57600080fd5b8235915060208301356123ed8161237a565b809150509250929050565b60008060006060848603121561240d57600080fd5b83356124188161237a565b95602085013595506040909401359392505050565b6000806040838503121561244057600080fd5b50508035926020909101359150565b600681106122fd576122fd6122d7565b82815260408101612473602083018461244f565b9392505050565b6000806000806080858703121561249057600080fd5b5050823594602084013594506040840135936060013592509050565b6020810161155f82846122ed565b8581526001600160a01b03851660208201526040810184905260a081016124e460608301856122ed565b8260808301529695505050505050565b60008060006060848603121561250957600080fd5b83359250602084013591506040840135600681106123bd57600080fd5b634e487b7160e01b600052604160045260246000fd5b600082601f83011261254d57600080fd5b813567ffffffffffffffff8082111561256857612568612526565b604051601f8301601f19908116603f0116810190828211818310171561259057612590612526565b816040528381528660208588010111156125a957600080fd5b836020870160208301376000602085830101528094505050505092915050565b600080600080608085870312156125df57600080fd5b8435935060208501359250604085013567ffffffffffffffff81111561260457600080fd5b6126108782880161253c565b92505060608501356126218161237a565b939692955090935050565b60006020828403121561263e57600080fd5b81356124738161237a565b60006020828403121561265b57600080fd5b813567ffffffffffffffff81111561267257600080fd5b61267e8482850161253c565b949350505050565b602080825282518282018190526000919060409081850190868401855b828110156126ca5781518051855286015115158685015292840192908501906001016126a3565b5091979650505050505050565b85815260a081016126eb602083018761244f565b8460408301528360608301528260808301529695505050505050565b60008060006060848603121561271c57600080fd5b8335925060208401359150604084013567ffffffffffffffff81111561274157600080fd5b61274d8682870161253c565b9150509250925092565b60208082526018908201527721b0b6b830b4b3b71036bab9ba1031329030b1ba34bb329760411b604082015260600190565b634e487b7160e01b600052603260045260246000fd5b634e487b7160e01b600052601160045260246000fd5b6000826127d257634e487b7160e01b600052601260045260246000fd5b500490565b600181811c908216806127eb57607f821691505b60208210810361280b57634e487b7160e01b600052602260045260246000fd5b50919050565b601f82111561285757600081815260208120601f850160051c810160208610156128385750805b601f850160051c820191505b81811015610eb357828155600101612844565b505050565b815167ffffffffffffffff81111561287657612876612526565b61288a8161288484546127d7565b84612811565b602080601f8311600181146128bf57600084156128a75750858301515b600019600386901b1c1916600185901b178555610eb3565b600085815260208120601f198616915b828110156128ee578886015182559484019460019091019084016128cf565b508582101561290c5787850151600019600388901b60f8161c191681555b5050505050600190811b01905550565b60006001820161292e5761292e61279f565b5060010190565b8082018082111561155f5761155f61279f565b6020808252602a908201527f596f752068617665206e6f7420636f6e747269627574656420746f20746869736040820152691031b0b6b830b4b3b71760b11b606082015260800190565b602080825260179082015276092dcecc2d8d2c840dad2d8cae6e8dedcca40d2dcc8caf604b1b604082015260600190565b6000815180845260005b818110156129e9576020818501810151868301820152016129cd565b506000602082860101526020601f19601f83011685010191505092915050565b604081526000612a1c60408301856129c3565b905060018060a01b03831660208301529392505050565b8181038181111561155f5761155f61279f565b808202811582820484141761155f5761155f61279f565b60208152600061247360208301846129c3565b604081526000612a8360408301856129c3565b9050826020830152939250505056fe7e5e6bfcab605d9254dbb5c3b4c8bd65ee4705bb30b1fc434d9651d24d368f36a26469706673582212202cc6aea1f22f0838ac460716a22f4e2c30a2a40c3d37001e27ebe31b68ab029064736f6c63430008130033",
  "linkReferences": {},
  "deployedLinkReferences": {}
}