{
  "_format": "hh-sol-artifact-1",
  "contractName": "Escrow",
  "sourceName": "contracts/Escrow.sol",
  "abi": [
    {
      "inputs": [
        {
          "internalType": "address payable",
          "name": "initialOwner",
          "type": "address"
        },
        {
          "internalType": "address",
          "name": "_daoAddress",
          "type": "address"
        },
        {
          "internalType": "address",
          "name": "_escAccount",
          "type": "address"
        }
      ],
      "stateMutability": "nonpayable",
      "type": "constructor"
    },
    {
      "anonymous": false,
      "inputs": [
        {
          "indexed": true,
          "internalType": "uint256",
          "name": "campaignId",
          "type": "uint256"
        }
      ],
      "name": "AllMilestonesReceived",
      "type": "event"
    },
    {
      "anonymous": false,
      "inputs": [
        {
          "indexed": true,
          "internalType": "uint256",
          "name": "campaignId",
          "type": "uint256"
        }
      ],
      "name": "CampaignCompleted",
      "type": "event"
    },
    {
      "anonymous": false,
      "inputs": [
        {
          "indexed": true,
          "internalType": "uint256",
          "name": "campaignId",
          "type": "uint256"
        },
        {
          "indexed": true,
          "internalType": "address",
          "name": "beneficiary",
          "type": "address"
        },
        {
          "indexed": false,
          "internalType": "uint256",
          "name": "totalAmount",
          "type": "uint256"
        }
      ],
      "name": "CampaignCreated",
      "type": "event"
    },
    {
      "anonymous": false,
      "inputs": [
        {
          "indexed": true,
          "internalType": "uint256",
          "name": "campaignId",
          "type": "uint256"
        },
        {
          "indexed": false,
          "internalType": "enum Escrow.CampaignStatus",
          "name": "status",
          "type": "uint8"
        }
      ],
      "name": "CampaignStatusChanged",
      "type": "event"
    },
    {
      "anonymous": false,
      "inputs": [
        {
          "indexed": true,
          "internalType": "address",
          "name": "contributor",
          "type": "address"
        },
        {
          "indexed": false,
          "internalType": "uint256",
          "name": "amount",
          "type": "uint256"
        },
        {
          "indexed": true,
          "internalType": "uint256",
          "name": "campaignId",
          "type": "uint256"
        }
      ],
      "name": "ContributionReceived",
      "type": "event"
    },
    {
      "anonymous": false,
      "inputs": [
        {
          "indexed": true,
          "internalType": "uint256",
          "name": "campaignId",
          "type": "uint256"
        },
        {
          "indexed": false,
          "internalType": "uint256",
          "name": "milestoneIndex",
          "type": "uint256"
        }
      ],
      "name": "MilestoneReached",
      "type": "event"
    },
    {
      "anonymous": false,
      "inputs": [
        {
          "indexed": true,
          "internalType": "uint256",
          "name": "campaignId",
          "type": "uint256"
        },
        {
          "indexed": false,
          "internalType": "uint256",
          "name": "milestoneIndex",
          "type": "uint256"
        },
        {
          "indexed": false,
          "internalType": "enum Escrow.MilestoneStatus",
          "name": "status",
          "type": "uint8"
        }
      ],
      "name": "MilestoneUpdated",
      "type": "event"
    },
    {
      "anonymous": false,
      "inputs": [
        {
          "indexed": true,
          "internalType": "address",
          "name": "previousOwner",
          "type": "address"
        },
        {
          "indexed": true,
          "internalType": "address",
          "name": "newOwner",
          "type": "address"
        }
      ],
      "name": "OwnershipTransferred",
      "type": "event"
    },
    {
      "anonymous": false,
      "inputs": [
        {
          "indexed": false,
          "internalType": "uint256",
          "name": "id",
          "type": "uint256"
        },
        {
          "indexed": false,
          "internalType": "address",
          "name": "contributor",
          "type": "address"
        },
        {
          "indexed": false,
          "internalType": "uint256",
          "name": "refundAmt",
          "type": "uint256"
        }
      ],
      "name": "RefundIssued",
      "type": "event"
    },
    {
      "inputs": [
        {
          "internalType": "uint256",
          "name": "_campaignId",
          "type": "uint256"
        }
      ],
      "name": "approveCampaign",
      "outputs": [],
      "stateMutability": "nonpayable",
      "type": "function"
    },
    {
      "inputs": [
        {
          "internalType": "uint256",
          "name": "_campaignId",
          "type": "uint256"
        },
        {
          "internalType": "uint256",
          "name": "_milestoneIndex",
          "type": "uint256"
        }
      ],
      "name": "calculateTotalContributionsForMilestone",
      "outputs": [
        {
          "internalType": "uint256",
          "name": "",
          "type": "uint256"
        }
      ],
      "stateMutability": "view",
      "type": "function"
    },
    {
      "inputs": [
        {
          "internalType": "uint256",
          "name": "",
          "type": "uint256"
        },
        {
          "internalType": "address",
          "name": "",
          "type": "address"
        }
      ],
      "name": "campaignContributions",
      "outputs": [
        {
          "internalType": "uint256",
          "name": "",
          "type": "uint256"
        }
      ],
      "stateMutability": "view",
      "type": "function"
    },
    {
      "inputs": [
        {
          "internalType": "uint256",
          "name": "",
          "type": "uint256"
        }
      ],
      "name": "campaigns",
      "outputs": [
        {
          "internalType": "uint256",
          "name": "id",
          "type": "uint256"
        },
        {
          "internalType": "address",
          "name": "beneficiary",
          "type": "address"
        },
        {
          "internalType": "uint256",
          "name": "totalAmount",
          "type": "uint256"
        },
        {
          "internalType": "enum Escrow.CampaignStatus",
          "name": "status",
          "type": "uint8"
        },
        {
          "internalType": "uint256",
          "name": "currentIndex",
          "type": "uint256"
        }
      ],
      "stateMutability": "view",
      "type": "function"
    },
    {
      "inputs": [
        {
          "internalType": "uint256",
          "name": "campaignId",
          "type": "uint256"
        }
      ],
      "name": "checkAndAdvanceMilestone",
      "outputs": [],
      "stateMutability": "nonpayable",
      "type": "function"
    },
    {
      "inputs": [
        {
          "internalType": "uint256",
          "name": "_campaignId",
          "type": "uint256"
        }
      ],
      "name": "contributeToCampaign",
      "outputs": [],
      "stateMutability": "payable",
      "type": "function"
    },
    {
      "inputs": [
        {
          "internalType": "address",
          "name": "_beneficiary",
          "type": "address"
        },
        {
          "internalType": "uint256",
          "name": "_totalAmount",
          "type": "uint256"
        },
        {
          "internalType": "uint256",
          "name": "_milestoneCount",
          "type": "uint256"
        }
      ],
      "name": "createCampaign",
      "outputs": [],
      "stateMutability": "nonpayable",
      "type": "function"
    },
    {
      "inputs": [],
      "name": "daoAddress",
      "outputs": [
        {
          "internalType": "address",
          "name": "",
          "type": "address"
        }
      ],
      "stateMutability": "view",
      "type": "function"
    },
    {
      "inputs": [],
      "name": "escAccount",
      "outputs": [
        {
          "internalType": "address",
          "name": "",
          "type": "address"
        }
      ],
      "stateMutability": "view",
      "type": "function"
    },
    {
      "inputs": [
        {
          "internalType": "uint256",
          "name": "_campaignId",
          "type": "uint256"
        }
      ],
      "name": "getCampaignStatus",
      "outputs": [
        {
          "internalType": "enum Escrow.CampaignStatus",
          "name": "",
          "type": "uint8"
        }
      ],
      "stateMutability": "view",
      "type": "function"
    },
    {
      "inputs": [],
      "name": "getDaoAddress",
      "outputs": [
        {
          "internalType": "address",
          "name": "",
          "type": "address"
        }
      ],
      "stateMutability": "view",
      "type": "function"
    },
    {
      "inputs": [
        {
          "internalType": "uint256",
          "name": "_campaignId",
          "type": "uint256"
        }
      ],
      "name": "getMilestoneCount",
      "outputs": [
        {
          "internalType": "uint256",
          "name": "",
          "type": "uint256"
        }
      ],
      "stateMutability": "view",
      "type": "function"
    },
    {
      "inputs": [
        {
          "internalType": "uint256",
          "name": "_campaignId",
          "type": "uint256"
        },
        {
          "internalType": "uint256",
          "name": "_milestoneIndex",
          "type": "uint256"
        }
      ],
      "name": "getMilestoneDetails",
      "outputs": [
        {
          "internalType": "uint256",
          "name": "amount",
          "type": "uint256"
        },
        {
          "internalType": "enum Escrow.MilestoneStatus",
          "name": "status",
          "type": "uint8"
        }
      ],
      "stateMutability": "view",
      "type": "function"
    },
    {
      "inputs": [],
      "name": "owner",
      "outputs": [
        {
          "internalType": "address",
          "name": "",
          "type": "address"
        }
      ],
      "stateMutability": "view",
      "type": "function"
    },
    {
      "inputs": [
        {
          "internalType": "uint256",
          "name": "_campaignId",
          "type": "uint256"
        }
      ],
      "name": "rejectCampaign",
      "outputs": [],
      "stateMutability": "nonpayable",
      "type": "function"
    },
    {
      "inputs": [
        {
          "internalType": "uint256",
          "name": "_campaignId",
          "type": "uint256"
        },
        {
          "internalType": "uint256",
          "name": "_milestoneIndex",
          "type": "uint256"
        }
      ],
      "name": "releaseMilestone",
      "outputs": [],
      "stateMutability": "nonpayable",
      "type": "function"
    },
    {
      "inputs": [],
      "name": "renounceOwnership",
      "outputs": [],
      "stateMutability": "nonpayable",
      "type": "function"
    },
    {
      "inputs": [
        {
          "internalType": "address",
          "name": "_daoAddress",
          "type": "address"
        }
      ],
      "name": "setDAOAddress",
      "outputs": [],
      "stateMutability": "nonpayable",
      "type": "function"
    },
    {
      "inputs": [
        {
          "internalType": "uint256",
          "name": "_campaignId",
          "type": "uint256"
        },
        {
          "internalType": "uint256",
          "name": "_milestoneIndex",
          "type": "uint256"
        },
        {
          "internalType": "enum Escrow.MilestoneStatus",
          "name": "_status",
          "type": "uint8"
        }
      ],
      "name": "setMilestoneStatus",
      "outputs": [],
      "stateMutability": "nonpayable",
      "type": "function"
    },
    {
      "inputs": [
        {
          "internalType": "address",
          "name": "newOwner",
          "type": "address"
        }
      ],
      "name": "transferOwnership",
      "outputs": [],
      "stateMutability": "nonpayable",
      "type": "function"
    }
  ],
  "bytecode": "0x60806040523480156200001157600080fd5b50604051620017be380380620017be8339810160408190526200003491620002ff565b6200003f33620001bc565b6001600160a01b038316620000ac5760405162461bcd60e51b815260206004820152602860248201527f496e697469616c206f776e65722063616e6e6f7420626520746865207a65726f604482015267206164647265737360c01b60648201526084015b60405180910390fd5b6001600160a01b038116620001165760405162461bcd60e51b815260206004820152602960248201527f457363726f77206163636f756e742063616e6e6f7420626520746865207a65726044820152686f206164647265737360b81b6064820152608401620000a3565b6001600160a01b0382166200017e5760405162461bcd60e51b815260206004820152602760248201527f44414f20616464726573732063616e6e6f7420626520746865207a65726f206160448201526632323932b9b99760c91b6064820152608401620000a3565b62000189836200020c565b600480546001600160a01b039384166001600160a01b031991821617909155600380549290931691161790555062000353565b600080546001600160a01b038381166001600160a01b0319831681178455604051919092169283917f8be0079c531659141344cd1fd0a4f28419497f9722a3daafe3b4186f6b6457e09190a35050565b620002166200028b565b6001600160a01b0381166200027d5760405162461bcd60e51b815260206004820152602660248201527f4f776e61626c653a206e6577206f776e657220697320746865207a65726f206160448201526564647265737360d01b6064820152608401620000a3565b6200028881620001bc565b50565b6000546001600160a01b03163314620002e75760405162461bcd60e51b815260206004820181905260248201527f4f776e61626c653a2063616c6c6572206973206e6f7420746865206f776e65726044820152606401620000a3565b565b6001600160a01b03811681146200028857600080fd5b6000806000606084860312156200031557600080fd5b83516200032281620002e9565b60208501519093506200033581620002e9565b60408501519092506200034881620002e9565b809150509250925092565b61145b80620003636000396000f3fe60806040526004361061011f5760003560e01c80636c19e004116100a0578063965afa8911610064578063965afa89146103a7578063c2010e50146103c7578063dbaf0910146103f7578063ee4e1b5314610417578063f2fde38b1461043757600080fd5b80636c19e004146102f4578063715018a61461033457806373a7cb1b146103495780638da5cb5b146103695780639453fdc41461038757600080fd5b806322c59958116100e757806322c599581461022057806328928b90146102665780632b76d25014610286578063461b6004146102a65780634c371022146102c657600080fd5b8063034d09da146101245780630b7ef89b14610146578063141961bc146101595780631d68702d146101ce5780632131c68c14610200575b600080fd5b34801561013057600080fd5b5061014461013f366004611137565b610457565b005b610144610154366004611137565b6104a3565b34801561016557600080fd5b506101b4610174366004611137565b60056020819052600091825260409091208054600182015460028301546003840154939094015491936001600160a01b0390911692909160ff9091169085565b6040516101c595949392919061117a565b60405180910390f35b3480156101da57600080fd5b506004546001600160a01b03165b6040516001600160a01b0390911681526020016101c5565b34801561020c57600080fd5b506004546101e8906001600160a01b031681565b34801561022c57600080fd5b5061025861023b3660046111d0565b600660209081526000928352604080842090915290825290205481565b6040519081526020016101c5565b34801561027257600080fd5b506003546101e8906001600160a01b031681565b34801561029257600080fd5b506101446102a1366004611137565b6105b3565b3480156102b257600080fd5b506101446102c13660046111fc565b610728565b3480156102d257600080fd5b506102e66102e136600461122f565b610a08565b6040516101c5929190611251565b34801561030057600080fd5b5061032761030f366004611137565b60009081526005602052604090206003015460ff1690565b6040516101c59190611275565b34801561034057600080fd5b50610144610a5a565b34801561035557600080fd5b50610144610364366004611283565b610a6e565b34801561037557600080fd5b506000546001600160a01b03166101e8565b34801561039357600080fd5b506102586103a236600461122f565b610b0c565b3480156103b357600080fd5b506101446103c23660046112c0565b610c38565b3480156103d357600080fd5b506102586103e2366004611137565b60009081526005602052604090206004015490565b34801561040357600080fd5b5061014461041236600461122f565b610cc7565b34801561042357600080fd5b50610144610432366004611137565b610f68565b34801561044357600080fd5b506101446104523660046112c0565b610faa565b60008181526005602052604090206003808201805460ff19166001830217905550816000805160206113e483398151915260036040516104979190611275565b60405180910390a25050565b6000818152600560205260409020600160038083015460ff16908111156104cc576104cc611150565b146104f25760405162461bcd60e51b81526004016104e9906112e2565b60405180910390fd5b600034116105525760405162461bcd60e51b815260206004820152602760248201527f436f6e747269627574696f6e206d75737420626520677265617465722074686160448201526637103d32b9379760c91b60648201526084016104e9565b3360009081526006820160205260408120805434929061057390849061132a565b9091555050604051348152829033907fd2dff949d20e874cc6ba1dcefb840fb8cf6000a4197bfb69accfea5a32443ff59060200160405180910390a35050565b6000818152600560205260409020600160038083015460ff16908111156105dc576105dc611150565b146106235760405162461bcd60e51b815260206004820152601760248201527643616d706169676e206d7573742062652061637469766560481b60448201526064016104e9565b6004810154600582015410156107245760018160040182600501548154811061064e5761064e61133d565b906000526020600020906002020160010160006101000a81548160ff0219169083600281111561068057610680611150565b0217905550817fe5f196b7c35531c9cdf28ee121967688b244c8557b574489a6182e8f66c929d382600501546040516106bb91815260200190565b60405180910390a26005810180549060006106d583611353565b909155505060048101546005820154106107245760038101805460ff1916600217905560405182907fbdef6a2e3aa892961a2dab48272f72f2bc1c7121eb1c0ed7e4a58e081c1e4be090600090a25b5050565b6001600160a01b03831661078e5760405162461bcd60e51b815260206004820152602760248201527f42656e65666963696172792063616e6e6f7420626520746865207a65726f206160448201526632323932b9b99760c91b60648201526084016104e9565b600082116107ee5760405162461bcd60e51b815260206004820152602760248201527f546f74616c20616d6f756e74206d75737420626520677265617465722074686160448201526637103d32b9379760c91b60648201526084016104e9565b6000811161083e5760405162461bcd60e51b815260206004820181905260248201527f4174206c65617374206f6e65206d696c6573746f6e652072657175697265642e60448201526064016104e9565b61084c600180546001019055565b600061085760015490565b6000818152600560209081526040918290208381556001810180546001600160a01b0319166001600160a01b038a16179055600281018790558251808401909352601d83527f546f74616c20416d6f756e74204265666f72652053657474696e673a20000000918301919091529192506108d19085611023565b6002810184905560408051808201909152601c81527f546f74616c20416d6f756e742041667465722053657474696e673a200000000060208201526109169085611023565b60038101805460ff191690556001600582015560005b838110156109bc57816004016040518060400160405280868861094f919061136c565b8152602001600090528154600181810184556000938452602093849020835160029384029091019081559383015184820180549495949193909260ff19909216919084908111156109a2576109a2611150565b0217905550505080806109b490611353565b91505061092c565b50846001600160a01b0316827f63e3678c8493a16f8ba43ae9e547231762ca04526dac2c388bd2c26d89401851866040516109f991815260200190565b60405180910390a35050505050565b6000828152600560205260408120600481018054839291839186908110610a3157610a3161133d565b60009182526020909120600290910201805460019091015490945060ff16925050509250929050565b610a62611068565b610a6c60006110c2565b565b6000838152600560205260408120600401805484908110610a9157610a9161133d565b90600052602060002090600202019050818160010160006101000a81548160ff02191690836002811115610ac757610ac7611150565b0217905550837fbec752a593d8ddbe45792918310a70eaa90968426e352c981df882c16b81124c8484604051610afe929190611251565b60405180910390a250505050565b600082815260056020526040812060048101805483919085908110610b3357610b3361133d565b906000526020600020906002020190506000805b600087815260076020526040902054811015610bc7576000878152600760205260408120805483908110610b7d57610b7d61133d565b60009182526020808320909101546001600160a01b031680835260068801909152604090912054909150610bb1908461132a565b9250508080610bbf90611353565b915050610b47565b50610bea6040518060600160405280602281526020016114046022913982611023565b610c2d6040518060400160405280601a81526020017f4d696c6573746f6e6520726571756972656420616d6f756e743a0000000000008152508360000154611023565b925050505b92915050565b610c40611068565b6001600160a01b038116610ca55760405162461bcd60e51b815260206004820152602660248201527f44414f20616464726573732063616e6e6f7420626520746865207a65726f206160448201526564647265737360d01b60648201526084016104e9565b600480546001600160a01b0319166001600160a01b0392909216919091179055565b6000828152600560205260409020600160038083015460ff1690811115610cf057610cf0611150565b14610d0d5760405162461bcd60e51b81526004016104e9906112e2565b6000816004018381548110610d2457610d2461133d565b906000526020600020906002020190506000816000015411610d925760405162461bcd60e51b815260206004820152602160248201527f4d696c6573746f6e6520686173206e6f2066756e647320616c6c6f63617465646044820152601760f91b60648201526084016104e9565b600182015481546040516001600160a01b039092169181156108fc0291906000818181858888f19350505050158015610dcf573d6000803e3d6000fd5b50600160005b6004840154811015610ef5576000846004018281548110610df857610df861133d565b600091825260209091206002918202016001015460ff1690811115610e1f57610e1f611150565b148015610e2c5750825415155b15610ebb576001846004018281548110610e4857610e4861133d565b906000526020600020906002020160010160006101000a81548160ff02191690836002811115610e7a57610e7a611150565b0217905550857fbec752a593d8ddbe45792918310a70eaa90968426e352c981df882c16b81124c826001604051610eb2929190611251565b60405180910390a25b60018084015460ff166002811115610ed557610ed5611150565b14610ee35760009150610ef5565b80610eed81611353565b915050610dd5565b508015610f615760038301805460ff1916600290811790915560405186916000805160206113e483398151915291610f2d9190611275565b60405180910390a260405185907f9a47f86655f105d72e460ec0a76b3b685ca3b6be10d410d2a716325b92dd24c690600090a25b5050505050565b60008181526005602052604090206003810180546001919060ff191682800217905550816000805160206113e483398151915260016040516104979190611275565b610fb2611068565b6001600160a01b0381166110175760405162461bcd60e51b815260206004820152602660248201527f4f776e61626c653a206e6577206f776e657220697320746865207a65726f206160448201526564647265737360d01b60648201526084016104e9565b611020816110c2565b50565b610724828260405160240161103992919061138e565b60408051601f198184030181529190526020810180516001600160e01b0316632d839cb360e21b179052611112565b6000546001600160a01b03163314610a6c5760405162461bcd60e51b815260206004820181905260248201527f4f776e61626c653a2063616c6c6572206973206e6f7420746865206f776e657260448201526064016104e9565b600080546001600160a01b038381166001600160a01b0319831681178455604051919092169283917f8be0079c531659141344cd1fd0a4f28419497f9722a3daafe3b4186f6b6457e09190a35050565b6110208160006a636f6e736f6c652e6c6f679050600080835160208501845afa505050565b60006020828403121561114957600080fd5b5035919050565b634e487b7160e01b600052602160045260246000fd5b6004811061117657611176611150565b9052565b8581526001600160a01b03851660208201526040810184905260a081016111a46060830185611166565b8260808301529695505050505050565b80356001600160a01b03811681146111cb57600080fd5b919050565b600080604083850312156111e357600080fd5b823591506111f3602084016111b4565b90509250929050565b60008060006060848603121561121157600080fd5b61121a846111b4565b95602085013595506040909401359392505050565b6000806040838503121561124257600080fd5b50508035926020909101359150565b828152604081016003831061126857611268611150565b8260208301529392505050565b60208101610c328284611166565b60008060006060848603121561129857600080fd5b83359250602084013591506040840135600381106112b557600080fd5b809150509250925092565b6000602082840312156112d257600080fd5b6112db826111b4565b9392505050565b60208082526018908201527721b0b6b830b4b3b71036bab9ba1031329030b1ba34bb329760411b604082015260600190565b634e487b7160e01b600052601160045260246000fd5b80820180821115610c3257610c32611314565b634e487b7160e01b600052603260045260246000fd5b60006001820161136557611365611314565b5060010190565b60008261138957634e487b7160e01b600052601260045260246000fd5b500490565b604081526000835180604084015260005b818110156113bc576020818701810151606086840101520161139f565b506000606082850101526060601f19601f830116840101915050826020830152939250505056fe7e5e6bfcab605d9254dbb5c3b4c8bd65ee4705bb30b1fc434d9651d24d368f36546f74616c20636f6e747269627574696f6e7320666f72206d696c6573746f6e653aa26469706673582212205922b92c59e2a23fa0ed740940b856ae1f6c4fc98d710b4d07b6100fb226ac0c64736f6c63430008130033",
  "linkReferences": {},
  "deployedLinkReferences": {}
}